:200000000C9438000C9453000C9453000C9453000C947E040C9453000C9453000C94530034
:200020000C9453000C94E3030C9453000C9453000C9453000C9453000C9453000C94530095
:200040000C940F040C9453000C9453000C9458070C94D60D0C9453000C9453000C945300AC
:200060000C9453000C9453000C9453000C94530011241FBECFEFD4E0DEBFCDBF13E0A0E094
:20008000B1E0E6E6F7E302C005900D92A633B107D9F714E0A6E3B3E001C01D92A73BB107B8
:2000A000E1F70C945D060C94000090916203292F221F2227221F892F829586958695837024
:2000C0002827892F82958F702827892F8695869528272170892F9927880F991F282B209319
:2000E0006203822F99270895FF920F931F93F894809138038150823000F18091430386304F
:2001000010F0109243038091430380FF02C0949804C0949A88EF0E942308809143038823FB
:2001200039F0809143038F5F80934303789447C3809143038F5F809343038091370380FF7A
:20014000E4C180918D0399278830910541F18930910594F48330910509F48AC08430910568
:200160001CF4019721F10AC38530910509F41EC1079709F4A1C002C38B30910509F49CC066
:200180008C30910524F4099709F410C1F7C28D30910509F40BC10F9709F48EC0EFC280E0B0
:2001A0000E94000F80915D030E94F108E7C280914304882321F480913804882361F0909157
:2001C0005D039F3F41F0991F9927991F80915903892B0E94000F80913804882309F4CEC229
:2001E00080914004803150F480914004E82FFF27EB5BFB4F80818F3F09F0C0C21092400463
:2002000080913F048F5F80933F0480913F04803168F480913F04E82FFF27EE0FFF1FE85EF3
:20022000FB4F808191818F5F9F4F11F410923F0480913F04E82FFF27EE0FFF1FE85EFB4F5F
:200240008081918190933B0480933A0480913A0490913B048F5F9F4F21F48FEF809345045E
:200260008DC20E947710809353030E94CF0B86C280914304882309F481C280915D038F3F57
:2002800029F0881F8827881F0E94000F809140048F5F8093400480914004803150F48091A2
:2002A0004004E82FFF27EB5BFB4F80818F3F09F065C21092400462C280919604882309F4E1
:2002C0005DC290915D039F3F41F0991F9927991F80915903892B0E94000F20915D03822FAB
:2002E00099278F739070892B21F080915303820F01C0822F0E94F10880914004803150F428
:2003000080914004E82FFF27EB5BFB4F80818F3F09F034C210924004809195048F5F80936C
:20032000950480919504803248F480919504E82FFF27EB58FB4F80818F3F11F41092950409
:2003400065E774E085E594E00E94FE17882331F090915703809156039817A1F0A5E5B4E059
:20036000E5E7F4E09FE18D918193915097FFFBCF1092950410925303109252030E94DA0C38
:200380000E94780D8091560380935703809152038093530380919504E82FFF27EB58FB4F1C
:2003A0006081809157030E94C414E8C180919604882309F4E3C190915D039F3F41F0991F8F
:2003C0009927991F80915903892B0E94000F20915D03822F99278F739070892B59F01091B1
:2003E0005303120F80913A0490913B040E946210810F01C0822F0E94F10880914004803120
:2004000050F480914004E82FFF27EB5BFB4F80818F3F09F0B3C11092400480913F0480314F
:2004200070F480913F04E82FFF27EE0FFF1FE85EFB4F808191818F5F9F4F09F050C0109282
:200440003F04809195048F5F8093950480919504803248F480919504E82FFF27EB58FB4F09
:2004600080818F3F59F51092950465E774E085E594E00E94FE17882331F090915703809197
:200480005603981791F0A5E5B4E0E5E7F4E09FE18D918193915097FFFBCF10925303109288
:2004A00052030E94DA0C0E94780D8091560380935703809152038093530305C08091950423
:2004C0008F5F8093950480919504E82FFF27EB58FB4F6081809157030E94031105C0809136
:2004E0003F048F5F80933F0480913F04E82FFF27EE0FFF1FE85EFB4F8081918190933B04C4
:2005000080933A040E94771039C180918D0399278830910541F18930910594F48330910566
:2005200009F48EC0843091051CF4019771F126C18530910509F4BFC0079709F4B2C01EC182
:200540008B30910509F4ADC08C30910524F4099709F4B1C013C18D30910509F4ACC00F9732
:2005600009F49FC00BC180915D038093360380915C0380935D030E94550080935C03809139
:200580005D0340E0642F8F73F3C080914304882329F480913804882309F4F0C08091430476
:2005A000882379F080914004803148F480914004E82FFF27EB5BFB4F80818F3F11F410924D
:2005C000400460915D036093360380914004E82FFF27EB5BFB4F8F5F80934004E081E0931F
:2005E0005D03EF3F09F4CAC080915803882319F0E07CE0935D0320915D03822F99278F7313
:200600009070422F4295469546954370661F6627661F2F73892B59F0417080915A03482B61
:2006200080915903682B80915303820F37C0417080915A03482B80915903682B822F2EC09A
:2006400080914304882309F499C00E94CF0B809140040E94E10B80915D0380933603809114
:200660004004E82FFF27EB5BFB4F808180935D038F3F09F483C00E94110D20915D03922F55
:200680009295969596959370917080913603881F8827881F492F682F822F8F730E94E60E3A
:2006A0006DC080919604882331F00E94CF0B809140040E94E10B80919604882309F45EC0C6
:2006C00000915D030093360380914004E82FFF27EB5BFB4F8F5F80934004E081E0935D03C2
:2006E000EF3F09F44BC080915803882319F0E07CE0935D0320915D03822F99278F739070F1
:20070000422F4295469546954370602F661F6627661F2F73892B21F151E0F52EF42280911F
:200720005A03F82A00915903062B10915303120F80913A0490913B040E9462104F2D602F36
:20074000810F0E94E60E10915D0380915303180F80913A0490913B040E946210810F0CC0C5
:20076000417080915A03482B80915903682B822F0E94E60E80915D030E94CD08809137036D
:20078000843030F485E20E944F0B0E946A0D09C080913703883028F485E20E94980B0E94CF
:2007A0005D0D0E944E0D809137038F5F8093370380913703883010F01092370378941F91B1
:2007C0000F91FF9008951F920F920FB60F9211242F933F934F935F936F937F938F939F9390
:2007E000AF93BF93EF93FF93809163039091640390938900809388000E947400FF91EF91E5
:20080000BF91AF919F918F917F916F915F914F913F912F910F900FBE0F901F9018951F9270
:200820000F920FB60F9211242F933F934F935F936F937F938F939F93AF93BF93CF93EF9334
:20084000FF93809144038F3F29F0809144038F5F8093440380915403909155038F5F9F4F6A
:2008600049F08091540390915503019690935503809354038091410390914203892B81F002
:200880008091410390914203019790934203809341038091410390914203892B09F49498AE
:2008A000809138038130C1F4C0B3C295CF70C17080913E03882371F4CC2361F08091420354
:2008C000909143030196909343038093420388EF0E942308C0933E03FF91EF91CF91BF91C1
:2008E000AF919F918F917F916F915F914F913F912F910F900FBE0F901F9018951F920F923F
:200900000FB60F9211242F933F938F939F9329B3237080916503281791F1833041F4223071
:2009200099F48091600390916103019709C0823059F4233049F480916003909161030196B1
:20094000909361038093600380916003909161038D52914030F08CE291E090936103809358
:2009600060038091600390916103449730F484E190E09093610380936003209365039F91FF
:200980008F913F912F910F900FBE0F901F90189543E350E081B1886981B940B920E030E084
:2009A0002CBF4FE150E08AB188698AB949B920BD80EC8ABB8CE38BBB87EB87BB18BA8FEF34
:2009C00084BB81BB86B981E58DB9089589B7816089BF8BE083BF8AEF81BF089580917D001A
:2009E000846080937D00089585E20E94980B80917D008B7F80937D000895E199FECF9FBBD4
:200A00008EBBE09A8DB39927089580917D00869586959927817090700895E199FECF9FBBC3
:200A20008EBB6DBBF894E29AE19A78940895159BFECF83B980E090E008950F931F93CF933D
:200A4000DF93EC0100E117E2CE01B8010E947D1B6115710581F0862F805D0E941705CE011F
:200A6000B8010E947D1BEC01C8016AE070E00E947D1B8B010EC0CE01B8010E947D1BEC01F0
:200A8000C8016AE070E00E947D1B8B016A307105D8F601151105A9F0CE01B8010E947D1BC8
:200AA000CB01805D0E941705CE01B8010E947D1BEC01C8016AE070E00E947D1B8B01672B65
:200AC00059F7DF91CF911F910F910895CF93DF93EC018881882331F089910E941705888192
:200AE0008823D1F7DF91CF9108950F931F93CF93DF938C0181E00D32180710F00CE211E0C3
:200B00000431110510F404E110E010935F0300935E03109361030093600360915E0382E007
:200B200090E00E940D0580915E0390915F030E941D0580E091E00E946605C0E0D0E7E8E3D8
:200B4000F9E3980144275527BE01CF010E94911BFA01E90193E0F695E795D795C7959A9506
:200B6000D1F7BE01CF0126E030E040E050E00E94911BFA01E901CA01AA27BB279C010097D3
:200B800031F4D0936403C093630381E061C0887F892B69F403E0F695E795D795C7950A95C2
:200BA000D1F7D0936403C093630382E051C0C901807F892B69F414E0F695E795D795C795DA
:200BC0001A95D1F7D0936403C093630386E040C0C901807E892B69F4B5E0F695E795D795D4
:200BE000C795BA95D1F7D0936403C093630387E02FC0C901807C892B69F4A6E0F695E79545
:200C0000D795C795AA95D1F7D0936403C093630383E01EC0C9018070892B51F48D2F9E2F05
:200C2000AF2FBB27909364038093630384E010C020703C7F232B79F46AE0F695E795D795FA
:200C4000C7956A95D1F7D0936403C093630385E080938A0002C010928A0080916303909166
:200C60006403909581959F4F90936403809363039093890080938800DF91CF911F910F917A
:200C8000089580916B00816080936B0080916B00826080936B008BB788608BBF82E090E0BA
:200CA0000E94FD0499270E9475051092370380917D00846080937D000895CFEFD4E0DEBF2B
:200CC000CDBF0E94C8040E9441060E94E60480915E03809362030E946B090E94AA07789446
:200CE0000E94B50980918D0399278730910509F447C088309105ACF483309105A9F184305D
:200D000091053CF4009709F461C0019709F43EC0E7CF8430910509F462C0059709F446C007
:200D2000DFCF8B30910579F18C30910544F48830910509F45DC0099709F43EC0D1CF8E305F
:200D4000910549F08F3091051CF40D9741F1C8CF0F9799F0C5CF87E091E00E9466051092A8
:200D600038030E94DB0EBCCF85E191E00E946605109238030E944C15B3CF80E291E011C038
:200D80008BE291E015C08EE391E018C082E591E00E946605109238030E947011A1CF8EE51E
:200DA00091E00E946605109238030DC08AE691E00E94660581E005C08EE791E00E94660504
:200DC00082E0809338030E9417188ACF83E991E00E946605109238030E94350881CF81EAD8
:200DE00091E00E946605109238030E94070F78CF8CEA91E00E946605109238030E94EE0434
:200E00000E94B50980918D038830D1F30E94F40467CF8F708A3010F4805D01C0895C0E94A3
:200E2000170508950895CF93DF93EC01892F992782958F70009711F00E9409078D2F992747
:200E4000009711F00E940907CE0124E0969587952A95E1F7009711F00E9409078C2F0E94F0
:200E60000907DF91CF91089582B1992787FD90958827990F881F99270895179BFECF83B14B
:200E80009927089520EA3FE0E22FF32F3197F1F78A95D1F708958AEF0E9442078AEF0E94E6
:200EA00042078AEF0E9442078AEF0E94420708951F920F920FB60F9211248F939F93EF93C1
:200EC000FF939CB1983FB1F480913803813021F0949A85E08093410380919604882349F12F
:200EE0008091390390913A03019690933A03809339031FC080913C03E82FFF27E959FC4F08
:200F000090838F5F80933C0380913C038F7180933C0390913C0380913D03981751F4809126
:200F20003D038F5F80933D0380913D038F7180933D03FF91EF919F918F910F900FBE0F9021
:200F40001F90189599270E94FD04803108F08FE09927089583E00E94A2078093870384E0AE
:200F60000E94A20780936603089590913D0380913C03981719F081E090E0089580E090E066
:200F80000895089590913D0380913C039817D1F3F89480913D03E82FFF27E959FC4F8F5F5E
:200FA00080933D03908180913D038F7180933D037894892F992708950E94B507892BC1F045
:200FC0000E94C20787FF14C0682F62956F70482F55276F3059F09A012F703070809187038F
:200FE00099272817390721F460933B03CA01089580E090E00895089590913603891731F4DB
:2010000080E00E94000F8FEF8093360308950895CF93C82F962F60E0992319F40E94FC07EF
:2010200010C0809136038F3F09F061E08C2F8A51953610F041E001C040E00E94E60EC09342
:201040003603CF9108955D9BFECF8CB980E090E0089580916603806B0E9423088BE70E949D
:20106000230880E00E94230808951F93CF930E94F4040E94CF0B809187030E94E10B109187
:2010800094038FEF809336030E94B50980918D03882319F00E9429087DC00E94490B882389
:2010A00039F1412F552780919403992701969C01207F3170821B930B209187034817590709
:2010C00021F4222339F0215003C02F3019F02F5F209387036091870383E090E00E940D0524
:2010E0000E94CF0B809187030E94E10B109194030E94B507892B41F20E94C207C82F482FF5
:20110000441F4427441F89F0582F52955F705F3051F099278F70907020918703332782172B
:20112000930709F0B1CF50933B0380913B0399278930910551F08A3091051CF4089789F064
:201140001CC00E9709F4A0CF18C0442319F00E94C207C82F0E94C207682F8C2F0E94080889
:2011600093CF442319F00E94C207C82F0E94C207682F8C2F0E94FC0787CF88EB91E00E94FD
:2011800066058C2F99270E94130782ED91E00E9466057ACFCF911F910895CF93C82F809160
:2011A000660380690E9423088C2F99278F739070892B11F480E003C08C2F8F73875E0E9473
:2011C00023088C2F829586958695837080FF03C08091B70102C08091B5010E942308CF9128
:2011E0000895CF93C82F8091660380680E9423088C2F99278F739070892B11F480E003C071
:20120000CF738C2F875E0E9423088091B6010E942308CF91089580913803823029F08CEFFB
:201220000E9423080E94290808950895CF930E940505C82F809138038130D1F0CC2311F021
:201240000E94F4049498979A85E00E94420780916303909164030A97909389008093880060
:201260001092430310923703CC2311F00E94EE04CF91089580913803813009F09798089567
:20128000089590B3991F9927991F80914003882339F4992329F09093400381E090E0089569
:2012A0009093400380E090E00895089590B3991F9927991F80913F03882339F0992329F44B
:2012C00090933F0381E090E0089590933F0380E090E00895089581B3806F81BB82B38F7039
:2012E00082BB08958FE091B3982391BB92B3982392BB0895DE980895AC01C0980000000058
:2013000000000000C09A20E01FB8779BFECFFA01E20FF11D8FB180832F5F2330A8F3089567
:2013200099B3969596959F70292F269526952695892F86958270282B892F9927880F991F94
:20134000382F3470232B880F991F880F991F8870282B8FE0821B99270895DE9A089589B391
:20136000869586958F7099270895AF92BF92CF92DF92EF92FF920F931F93CF93DF93CDB7B9
:20138000DEB726970FB6F894DEBF0FBECDBF209160033091610380915E0390915F03281747
:2013A000390731F080916003909161030E947505A1E9B3E0EAE8F3E042E011921D924150F0
:2013C00047FFFBCF80914403843108F490C0109244030E947A09CE0101960E947C098091F8
:2013E0008E038C8380918F038D83809190038E8340E001E010E06E01C00ED11E842F8695FA
:2014000086958695A82FBB27BD0162577C4F842F8770980102C0220F331F8A95E2F7C90151
:20142000FB013081232F2823FD01EB56FC4FE081E823AC0DBD1DAC91A8234F5F80952223C9
:2014400031F03823EA2B3E2BDB013C9305C03823EA233E2BFB013083483180F20E9490097C
:20146000482F80919403481749F080918903481729F44093940381E0809345034093890317
:201480000E94AD0961E9E62E63E0F62E0AE813E06EE873E055E9A52E53E0B52EF60142E061
:2014A0008081D5018D935D012381DB018D91BD01922F98278923D8018D938D019223D7013B
:2014C0009D937D014150319647FFEACF0E94AF09482F80918D03481731F08091880348171A
:2014E00011F440938D03409388030E944E0D26960FB6F894DEBF0FBECDBFDF91CF911F91A6
:201500000F91FF90EF90DF90CF90BF90AF900895282F883118F080E090E008958695869569
:201520008695E82FFF27E257FC4F80819927277002C0959587952A95E2F79C012170307009
:2015400080FF03C081E090E00895C90108950895282F883118F080E090E00895869586951C
:201560008695E82FFF27E657FC4F80819927277002C0959587952A95E2F79C0121703070C5
:2015800080FF03C081E090E00895C90108950895282F883118F080E090E0089586958695DC
:2015A0008695E82FFF27EF56FC4F80819927277002C0959587952A95E2F79C01217030707D
:2015C00080FF03C081E090E00895C9010895089580918E03882359F480918F03882339F442
:2015E00080919003882319F481E090E0089580E090E008950895FF920F931F93CF93DF935E
:20160000FF2400E010E0CDEDD1E088810E94880A882311F0C80109C0F39421960F5F1F4FD7
:201620008CE08F1594F78FEF9FEFDF91CF911F910F91FF900895CF93C0E0EC2FFF27EB5237
:20164000FE4F80810E94880AEC2FEF5F882319F08E2F992705C0CE2FE83078F380E090E059
:20166000CF910895CF93C0E0EC2FFF27EB52FE4F80810E94A80AEC2FEF5F882319F08E2F71
:20168000992705C0CE2FE83078F380E090E0CF910895809145031092450399270895282F81
:2016A000883290F4869586958695E82FFF27E55BFC4F277081E090E002C0880F991F2A959B
:2016C000E2F72081282B208308950895282F883290F4869586958695E82FFF27EA5BFC4FAD
:2016E000277081E090E002C0880F991F2A95E2F72081282B208308950895282F883218F0EF
:2017000080E090E00895869586958695E82FFF27EA5BFC4F277081E090E002C0880F991FC5
:201720002A95E2F720812823822F992708950895282F8832A0F4869586958695E82FFF2747
:20174000E55BFC4F277081E090E002C0880F991F2A95E2F7982F90958081892380830895B4
:201760000895282F869586958695EBE4F3E0E80FF11D80819927277002C0959587952A955E
:20178000E2F781709070089510924F0310924E0310924D0310924C0310924B0308950F93E9
:2017A0001F93CF9307E112E0CFE0F80181918F010E94980BC150C7FFF8CFCF911F910F915E
:2017C0000895803138F4E82FFF27E95EFD4F80810E944F0B08950895803138F4E82FFF276E
:2017E000E95EFD4F80810E94660B08950895803118F020E030E009C0E82FFF27E95EFD4FA6
:2018000080810E94B10B282F3327C9010895803118F080E090E00895E82FFF27E95EFD4F5B
:2018200080810E947D0B992708950895883138F4E82FFF27E150FE4F80810E944F0B089549
:201840000895883138F4E82FFF27E150FE4F80810E94660B08950895883138F4E82FFF27DB
:20186000E150FE4F80810E94980B089508950F931F93CF930FEF11E0C7E1F80181918F0182
:201880000E94980BC150C7FFF8CFCF911F910F910895E82F8150883030F4FF27EA50FE4FA7
:2018A00080810E944F0B089508951F93CF93182F81E0E82FFF27C82FCF5F811731F4EA50DC
:2018C000FE4F80810E944F0B05C0EA50FE4F80810E94980B8C2FC93060F3CF911F91089578
:2018E000E82F8150883030F4FF27EA50FE4F80810E94980B08950895E82F8150883030F433
:20190000FF27EA50FE4F80810E94660B08950895E82F8150883040F4FF27EA50FE4F80814A
:201920000E947D0B9927089580E090E008950895E82F8150883048F4FF27EA50FE4F80818C
:201940000E94B10B282F332702C020E030E0C90108950F931F93CF9307EF11E0C7E0F80102
:2019600081918F010E94980BC150C7FFF8CFCF911F910F9108958D3038F4E82FFF27E65138
:20198000FE4F80810E944F0B089508958D3038F4E82FFF27E651FE4F80810E94660B089568
:2019A0000895EAEEF1E0E80FF11D80810E947D0B992708950F931F93CF930AEE11E0CCE009
:2019C000F80181918F010E94980BC150C7FFF8CFCF911F910F9108950E94DA0C84E00E94AE
:2019E000980B83E00E94980B88E00E94980B81E00E94980B82E00E94980B0895CF93C82FAC
:201A000083E00E94980B84E00E94980BC13011F483E003C0CF3F19F484E00E944F0BCF917E
:201A20000895CF93C82F0E94EC0CC7FF03C086E10E94160C8C2F829586958695837080FFE8
:201A400003C085E10E94160CCF7311F48C2F15C0C73110F48FEF11C0C43218F4CC5080E0F9
:201A60000CC0C03318F4C85181E007C0CC3318F4C45282E002C083E0C0530E94FE0CCC2304
:201A800021F484E10E94160C07C0EC2FFF27E152FE4F80810E944F0BCF910895DF98EBE440
:201AA000F3E080818FB9779BFECF319683E0EF34F807B9F3B4F3DF9A0895A6E4B3E0EBE48A
:201AC000F3E024E080819D91892B8193215027FFF9CF0895A6E4B3E0EBE4F3E024E09D914B
:201AE0009095808189238193215027FFF8CF0895A6E4B3E0EBE4F3E034E020819C91822FB3
:201B0000892319F09095292320831D923150319637FFF3CF0895AC0120E0322F6115710576
:201B200081F0FA01E30FF11D80812827E22FFF27E95DFD4F20813F5F832F99278617970734
:201B400080F3822F992708950F931F93CF93DF936115710549F08C01EB01F80181918F01A3
:201B60000E9417052197C9F7DF91CF911F910F9108950F931F9308E913E090E89093980304
:201B80001092990391E090939A0380939B0364E070E0C8010E948B0D80939C0365E070E047
:201BA000C8010E94A40D1F910F9108951F920F920FB60F921124EF92FF921F932F933F93D7
:201BC0004F935F936F937F938F939F93AF93BF93CF93DF93EF93FF93C3B181E00E94E10BEA
:201BE0000E944E0D80912703882309F4CCC080915103803440F4E82FFF27E852FC4FC08327
:201C00008F5F8093510320915103233008F4BBC0F090D8038091D903682F7727762F6627F1
:201C20008091DA039927682B792B3327CB0104962817390708F4A7C0FB01E852FC4F138108
:201C4000EB012396BE0188ED93E00E948B0D181779F0BE0188ED93E00E948B0D99270E9423
:201C60001307109251030E94CF0B0E944E0D8DC08F2D99278031910509F454C08131910572
:201C80001CF4019721F07AC0419739F077C082E00E94E10B0E944E0D6FC083E00E94E10B0C
:201CA0000E944E0D8091DA03823009F067C08091DB039091DC03C82FDD27CC0FDD1FCC0FCB
:201CC000DD1FCC0FDD1FC90FD11D89E1809398031092990380E180939A030F2EF9E9EF2EC8
:201CE000F3E0FF2EF02D34E0CC0FDD1F3A95E1F71FE0CE010E942110F70181937F011150A7
:201D0000219617FFF6CF63E170E088E993E00E948B0D8093AB0364E170E088E993E00E94A3
:201D2000A40D2FC084E00E94E10B0E944E0D8091DA03823119F58091DB039091DC03C82F7F
:201D4000DD2723E0CC0FDD1F2A95E1F7C90FD11D9CEDE92E93E0F92E84E0CC0FDD1F8A95B4
:201D6000E1F71FE0BE01F70181917F010E94E40F1150219617FFF6CF81E001C080E00E9497
:201D8000B90D109251030E94CF0BFF91EF91DF91CF91BF91AF919F918F917F916F915F914B
:201DA0004F913F912F911F91FF90EF900F900FBE0F901F9018950E94B50980918D038E30CF
:201DC000D1F30E94C40B0E944E0D089590E03A98803408F08FE3611160E4442311F440E88A
:201DE00001C0492F882349F0862B842B85BB3A9A9F5F9832E8F3399A089565BB08950895E5
:201E0000882311F0AE9A01C039983A9808957F928F929F92AF92BF92CF92DF92EF92FF92F4
:201E20000F931F93CF93DF93EE24FF248824982C0E94F4040E94CF0B709094036701570168
:201E40000E94B50980918D03843019F00E942908ADC08091660399270E94F70B892B31F4CD
:201E60000E94CF0B809166030E94E10B0E94490B882309F1472D5527809194039927019654
:201E80009C01207F3170821B930B209166034817590721F4222339F0215003C02F3019F032
:201EA0002F5F209366036091660384E090E00E940D05709094038E2D0E94FE0C00E0C8E20E
:201EC000D3E088810E94A80A8823A1F0102F1A0D195E492D682D812F0E94E60E892D992712
:201EE00056E0880F991F5A95E1F7812B0E94CD0841E0842E88810E94C80A882369F0202FD0
:201F00002C0D295E892D992736E0880F991F3A95E1F7822B0E94F1080F5F21960D3088F25B
:201F20008FE00E94A80A882349F01E141F04D4F00894E11CF11C8CE090E010C08EE00E947F
:201F4000A80A882379F09FEFE9169FEFF90651F04CF00894E108F10884EF9FEFA80EB91E18
:201F6000C80ED91E85E10E94A80A882371F080E0992009F481E0982E882321F081E00E94D2
:201F80004F0B03C081E00E94980B83B399278F739070892B09F454CF0E94E80A882309F476
:201FA0004FCF80E00E94000F88244ACFDF91CF911F910F91FF90EF90DF90CF90BF90AF90A3
:201FC0009F908F907F900895282F95E0C09800000000000000009FB9779BFECF00000000AC
:201FE000000000001FB8779BFECF8FB1C09A000000000000000080FDE9CFC0980000000004
:2020000086E08FB9779BFECF00000000C09A0000000000000000C0980000000082E08FB9D7
:20202000779BFECF872F99278FB9779BFECF6FB9779BFECF2FB9779BFECF00000000C09AFC
:2020400008959C01C0980000000083E08FB9779BFECF832F99278FB9779BFECF2FB9779BD1
:20206000FECF000000001FB8779BFECF8FB1C09A9927089510923C0410924304109238043D
:2020800080E00E94000F0E94C40B0E94780D0E94490B089510923D0484E20E94980B0E94D4
:2020A000C40B0E94780D1092430480E00E94000F089581E080933D0484E20E944F0B0E94DA
:2020C000CF0B0895892F9927282F2F71822F992787FD909534E0969587953A95E1F7892B4A
:2020E00009F0206E822F992787FD9095089520913A04277080913A0490913B04F3E096956F
:202100008795FA95E1F7622F8F700E94C41460913A0470913B049B0144275527DA01C9019B
:2021200080709078A070B070892F9A2FAB2FBB2780935803DA01C90180709074A070B07003
:20214000892F9A2FAB2FBB2780935A032070307240705070BB27A52F942F832F8093590396
:2021600010924004CB010E9462109927089581E080933C0481E20E944F0B10925A03809119
:202180005A0380935903809159038093580310923804109243048091180490911904909343
:2021A0003B0480933A048F5F9F4F89F010923F041092400410925D030E94771080935303DB
:2021C0008091370380FDFCCF81E0809338040E94CF0B089580915303882321F483E00E9477
:2021E000980B0CC087FF07C083E00E94980B84E00E944F0B089583E00E944F0B84E00E9419
:20220000980B08950895FF920F931F93CF93DF93C82FDD2703E0CC0FDD1F0A95E1F7C60F27
:20222000D11D15E0CC0FDD1F1A95E1F7BFE0FB2EC050D84F08E114E0CE010E94211099271F
:20224000982F8827F80180839183CE0101960E942110282F3327F80180819181822B932B97
:20226000819391938F01FA942296F7FEE5CFDF91CF911F910F91FF900895FF920F931F9376
:20228000CF93DF93C82FDD2753E0CC0FDD1F5A95E1F7C60FD11D45E0CC0FDD1F4A95E1F728
:2022A0003FE0F32E08E114E0C050D84FF80180819181892F9927BE010E94E40F2196F80142
:2022C000819191918F01BE010E94E40FFA942196F7FEECCFDF91CF911F910F91FF900895A5
:2022E0001F93CF93DF930E94EE048091940387708093390410923E0410923D0410923C042C
:20230000109238041092430410923F048FEF9FEF90933B0480933A04109238030E94CF0BF9
:202320000E94780D0E94B50980918D03813071F00E94F404109243041092380480E00E9400
:20234000000F0E94C40B0E944E0DF4C280913D04882361F580913C04882341F50E94490BCF
:20236000882359F08091940387708093390460913E040E9403110E94CF0B809139040E9425
:20238000E10B0E941B0BC82F882359F00E94DA0C8C2F815080933E04682F809139040E94AE
:2023A000031180913E048F5F0E94490C81E00E94A80A882379F080913C04882319F00E9461
:2023C0003A1008C080913D04882311F00E944A100E94B71080913C04882329F480913D041D
:2023E000882309F463C080913F040E94070C882311F40E94780D80913F040E94EC0B809134
:202400003A0490913B048F5F9F4F21F40E94EC0C80E046C080E00E94980B80913A04909118
:202420003B0443E0969587954A95E1F78F700E94E10B80913A0490913B0497FF04C088E03E
:202440000E944F0B03C088E00E94980B80913A0490913B04AA27BB273EE0B695A7959795DD
:2024600087953A95D1F781709070892B21F081E00E944F0B03C081E00E94980B80913A04DE
:2024800090913B04AA27BB272DE0B695A795979587952A95D1F781709070892B21F082E0AE
:2024A0000E944F0B03C082E00E94980B88E00E94A80A882331F483E00E94A80A882309F4CB
:2024C00078C010913C04112309F073C0812F0E94000FC0913D04CC2309F442C088E00E9498
:2024E000A80A8823D1F080913F049927019640976CF480913F04E82FFF27EE0FFF1FE85EEA
:20250000FB4F808191818F5F9F4F19F410933F0430C080913F048F5F20C080913F0488237E
:20252000C9F480913F0499270196409714F580913F04E82FFF27EE0FFF1FE85EFB4F808116
:2025400091818F5F9F4FA9F080913F048F5F80933F04E7CF80913F04815080933F0409C062
:2025600088E00E94A80A882321F00E945910C0933F0480913F04E82FFF27EE0FFF1FE85E50
:20258000FB4F8081918190933B0480933A04109243048F5F9F4F69F00E947710809353037B
:2025A000109240048091370380FDFCCF81E08093430487E10E94A80A882339F180913D0404
:2025C0008823E9F080913F0499270196409764F480913F04E82FFF27EE0FFF1FE85EFB4F61
:2025E0008FEF9FEF828393838FEF9FEF90933B0480933A040E944A1080E00E94980B609163
:202600003E04809139040E943D1180913D04882309F47FC180913A0490913B048F5F9F4F75
:2026200009F40FC184E10E94A80A882311F180913F04E82FFF27EE0FFF1FE85EFB4F80812A
:20264000918120E030E882279327808391838081918190933B0480933A04AA27BB2780706D
:202660009078A070B070892F9A2FAB2FBB278093580385E10E94A80A882311F180913F04BC
:20268000E82FFF27EE0FFF1FE85EFB4F8081918120E030E48227932780839183808191819E
:2026A00090933B0480933A04AA27BB2780709074A070B070892F9A2FAB2FBB2780935A03E3
:2026C00086E10E94A80A882311F180913F04E82FFF27EE0FFF1FE85EFB4F8081918120E043
:2026E00030E282279327808391838081918190933B0480933A04AA27BB2780709072A070D3
:20270000B070892F9A2FAB2FBB27809359038FE00E94880A882331F48EE00E94880A88232D
:2027200009F47DC00E94FB0AC82FDD27C7FDD0958FE00E94A80A882329F48EE00E94A80A47
:20274000882351F00E94780D0E94DA0C83E00E94980B84E00E94980B8FE00E94880A88233F
:2027600049F183E00E944F0B8FEFCF3FD807C9F00E94780D20913A0430913B04307E9C2F0D
:202780008827282B392B30933B0420933A0480913F04E82FFF27EE0FFF1FE85EFB4F208301
:2027A000318380913A0490913B040E9462108093530332C08EE00E94880A882309F441C0FC
:2027C00084E00E944F0B2FEFCF3FD207E1F00E94780D20913A0430913B04307E2C97CF71FC
:2027E000D0709C2F8827282B392B30933B0420933A0480913F04E82FFF27EE0FFF1FE85E83
:20280000FB4F2083318380913A0490913B040E94621080935303845F0E94C60C12C08FE053
:202820000E94C80A882329F48EE00E94C80A882341F083E00E94980B84E00E94980B0E94AB
:20284000780D8FE00E94880A882309F062C08EE00E94880A882309F05CC00E94320BC82F52
:20286000882329F40E94490B882309F447C00E94A90C0E94CF0BCC2359F480913A0490916C
:202880003B048F5F9F4F29F0C0913A04C77001C0C1501092430480E00E94000F409194030A
:2028A000242F332763E0220F331F6A95E1F78C2F9927282B392B30933B0420933A04809198
:2028C0003F04E82FFF27EE0FFF1FE85EFB4F208331836C2F842F0E94C41410924004109226
:2028E00059038091590380935A0380915A03809358031092530381E0809343040E94EA1074
:2029000080913A0490913B048770907001960E94550C80913C04882309F404CD0E94EA1011
:2029200080913A0490913B048770907001960E94550CF8CCDF91CF911F9108951092400490
:2029400081E08093410481E20E944F0B80E00E94000F0E94EE048091370380FDFCCF81E0C6
:2029600080934304089581E080933D0484E20E944F0B0E94CF0B80E00E94E10B0E94F40445
:2029800080E00E94000F0895EF92FF920F931F93CF93DF93182F062F0E944E0DC12FDD27E2
:2029A00023E0CC0FDD1F2A95E1F7C00FD11D94E0CC0FDD1F9A95E1F785E4E82E84E0F82E8E
:2029C0001FE0CE010E942110F70181937F011150219617FFF6CF0E944E0DDF91CF911F915A
:2029E0000F91FF90EF900895EF92FF920F931F93CF93DF93182F062F0E944E0DC12FDD27E5
:202A000053E0CC0FDD1F5A95E1F7C00FD11D45E4E42E44E0F42E34E0CC0FDD1F3A95E1F715
:202A20001FE0BE01F70181917F010E94E40F1150219617FFF6CF0E944E0DDF91CF911F9149
:202A40000F91FF90EF90089510923D0484E20E94980B0E94370C0E94CF0B809194030E94F2
:202A6000E10B0E94EE0480E00E94000F08950E94F404109243040E94370C0E94CF0B809133
:202A800094030E94E10B1092410481E20E94980B80E00E94000F0895EF92FF920F931F936E
:202AA000CF93DF931092420410923D0410924104109243041092400410925D0310923803E2
:202AC0000E94B5098091940380934404609142040E94C4140E94C40B809194030E94E10B3B
:202AE0000E94EE040E94B50980918D03833081F00E94F4041092430480E00E94000F0E94E7
:202B00003A090E940B090E94C40B0E944E0D6FC290914404809194039817D1F08091410446
:202B2000882311F00E94371580913D04882311F00E942415809194038093440460914204E8
:202B40000E94C4140E94CF0B809194030E94E10B809141048823E1F480913D048823C1F4C1
:202B6000809142048F5F0E94490C0E941B0BC82F882371F00E94DA0C8C2F0E94490C8C2F59
:202B8000815080934204682F809144040E94C41480E00E94A80A882399F0809141048823B8
:202BA00079F082E20E944F0B05E414E0CFE00E945500F80181938F01C150C7FFF8CF0CC0C2
:202BC00080E00E94C80A882339F080914104882319F082E20E94980B81E00E94A80A88233A
:202BE00079F080914104882319F00E94371508C080913D04882311F00E9424150E949E147F
:202C000080914104882329F480913D04882309F427C100914004E02EFF24E701CB5BDB4F76
:202C200018811F7385E10E94A80A882331F01F3321F0888190E48927888386E10E94A80A8D
:202C4000882349F01F3339F0F701EB5BFB4F808190E8892780831F3341F0112331F0173141
:202C600010F4CFEF0DC0143210F4C0E009C0103310F4C1E005C01C3310F4C2E001C0C3E00C
:202C800084E10E94A80A811110E08FE00E94A80A882339F01F3329F0112319F01C160CF08C
:202CA000145F8EE00E94A80A882341F01F3331F0112321F0CF3F11F00CF01C5084E00E94CE
:202CC000A80A882331F08CE0C802C0011124182F195E89E00E94A80A882331F08CE0C802CD
:202CE000C0011124182F185E85E00E94A80A882331F08CE0C802C0011124182F175E8AE04A
:202D00000E94A80A882331F08CE0C802C0011124182F165EC3300CF063C086E00E94A80AE0
:202D2000882331F08CE0C802C0011124182F155E87E00E94A80A882331F08CE0C802C00163
:202D40001124182F145E8BE00E94A80A882331F08CE0C802C0011124182F135E81E10E9412
:202D6000A80A882331F08CE0C802C0011124182F125E8CE00E94A80A882331F08CE0C80230
:202D8000C0011124182F115E82E10E94A80A882331F08CE0C802C0011124182F105E8DE0B6
:202DA0000E94A80A882331F08CE0C802C0011124182F1F5D80E10E94A80A882331F08CE017
:202DC000C802C0011124182F1E5D83E10E94A80A882331F08CE0C802C0011124182F1D5D00
:202DE000202F3327F901EB5BFB4F80818F3F11F41F3319F48081807C182BE901CB5BDB4FF3
:202E000088811817F9F080913D04882331F080E00E94000F81E00E944207188380913D0429
:202E2000882381F0812F82958695869583708170912F991F9927991F482F692F812F8F73E4
:202E40000E94E60E1F3F39F0812F0E94110D80E00E94980B05C00E94EC0C80E00E944F0B85
:202E600088E00E94A80A882331F483E00E94A80A882309F49BC080913D04882309F46AC0E8
:202E800080E00E94000F81E00E94420788E00E94A80A8823B1F0809140049927019640974A
:202EA0004CF480914004E82FFF27EB5BFB4F80818F3F19F41092400420C0809140048F5FCB
:202EC0001AC080914004882399F4809140048F30A0F480914004E82FFF27EB5BFB4F8081C0
:202EE0008F3F59F0809140048F5F80934004EDCF809140048150809340040E94CF0B80915B
:202F000040040E94E10B80914004E82FFF27EB5BFB4F808180935D038F3F51F481E00E9433
:202F2000980B82E00E94980B80E00E944F0B3EC080E00E94980B80915D03982F92959695BE
:202F4000969593709170282F221F2227221F492F622F25C088E00E94A80A882339F1C09150
:202F60004104CC2319F50E94B314C093400480914004E82FFF27EB5BFB4FE081E0935D03B9
:202F8000EF3FA1F08E2F829586958695837081709E2F991F9927991F482F692F8E2F8F73B9
:202FA0000E94E60E80915D030E94110D87E10E94A80A882309F496CD80913D04882381F015
:202FC0008091400499270196409744F480914004E82FFF27EB5BFB4F8FEF81830E942415B7
:202FE00060914204809194030E94F4147BCDDF91CF911F910F91FF90EF90089540E0DB0139
:20300000FC0190818C91981719F080E090E0089580818F3F19F481E090E008954F5F3196A1
:203020001196403270F381E090E008950895EF92FF920F931F93CF93FF24E0908D0380910D
:203040003803882319F40E94EE040BC00E94F40480913803813019F40E94720902C00E94F9
:203060006B090E94C40B0E94780D1092750480917504809355048FEF80937604809176049D
:203080008093560481E00E94490C1092960410923F041092400410923B0410923A04109201
:2030A000950410925203109253030E94CF0B80918D038F3021F08B3011F08730D1F4809152
:2030C00094031AC0109296040E943A090E940B0910925203109253031092590310925803BE
:2030E00010925A030E94C40B0E94780D0E944E0DFEC2809194038770809357038093560304
:20310000809194030E94E10B0E94B50980918D038E15C1F687E10E94A80A882329F180918C
:2031200054039091550386509D40D0F480915403909155038E54914098F020915403309163
:20314000550380E69AEEB9010E947D1B709355036093540380915403909155030E94750593
:20316000109255031092540380E00E94A80A882349F00E94DA0C0E94780D82E20E944F0BB5
:2031800010925B0380E00E94C80A882329F1A7E9B4E0E5E5F4E0CFE18D918193C150C7FF1B
:2031A000FBCF809196048823A1F4A5E5B4E0E5E7F4E0CFE18D918193C150C7FFFBCF809108
:2031C00052038093530383E00E94980B84E00E94980B82E20E94980B80E00E94880A8823F8
:2031E00061F1C0E080915B03C81760F4EC2FFF27E956FB4F8081883028F48F5F0E94490CB7
:20320000CF5FF0CF0E94320BC82F882309F44EC180915B03803208F049C1E82FFF27E95695
:20322000FB4FC150C0838F5F80935B03E82FFF27E956FB4F8FEF808339C18FE00E94880AAD
:20324000882331F48EE00E94880A882309F46DC00E94FB0AC82F8FE00E94A80A882329F4FE
:203260008EE00E94A80A882339F00E94DA0C0E94780D82E20E94980B8FE00E94880A882312
:2032800001F184E00E94980B83E00E944F0BCF3F11F0C09352038091530387FD0AC00E9426
:2032A000D10C882331F40E94780D809153030E94C60C9091520380915303981761F1892FC9
:2032C00028C08EE00E94880A882329F183E00E94980B84E00E944F0BCF3F19F0CC50C09311
:2032E000520380915303181664F0845F0E94D10C882339F40E94780D80915303845F0E9443
:20330000C60C9091520380915303981721F0892F845F0E94BB0C80919604882309F0C6C065
:203320008091520380935303C1C08FE00E94C80A882329F48EE00E94C80A882321F00E9452
:20334000DA0C0E94780D0E941B0BC82F882331F40E94490B882309F446C01FC00E94A90CF7
:20336000C150C093550480915504809397048FEF80935604809156048093980480919604C8
:20338000882319F5A5E5B4E0E5E7F4E0CFE18D918193C150C7FFFBCF18C080918D038F30FB
:2033A00021F08B3011F0873019F48091940303C080919403877080935603809196048823B0
:2033C00021F4809156038093570380919604882351F40E94CF0B809156030E94E10B8091E1
:2033E00052038093530365E774E085E594E00E94FE178823F9F4809156048F3F49F48091BB
:2034000076048F3F29F4809175048F5F0E947C0CC0E005E514E0F8018081893008F044C078
:20342000D8018D918D018F5F0E94490CCF5FC03290F33AC0C0E005E714E0F8018081893052
:2034400098F5809196048823E1F080919504E82FFF27EB58FB4FD8019C918081981789F411
:203460008C918F5F0E94880C8823C9F4F80180818F5F0E94700CD8018C918F5F0E947C0C8F
:203480000EC0F80180818F5F0E94880C882311F00E94780DD8018C918F5F0E94490CCF5F64
:2034A0000F5F1F4FC03248F20E94EA1080919604882351F180913803823089F48091390308
:2034C00090913A0318161906FCF48091390390913A03039790933A038093390312C08130DA
:2034E00099F480914203909143031816190664F4809142039091430303979093430380930A
:2035000042030E94740000CE80913803823019F40E94DC07F82E80913803882349F481E037
:203520000E94A80A882321F080919604882371F480913803823021F4BCEFFB1639F02BC0DD
:20354000813049F50E945609882329F11092960480E00E94000F0E940B09809138038130B6
:2035600011F00E943A0981E20E94980B0E94780D0E94CF0B80918D038F3021F08B3011F0ED
:20358000873019F48091940303C08091940387700E94E10B68C080913803882349F481E012
:2035A0000E94A80A882321F080919604882389F080913803823029F48F2D8A5F823048F082
:2035C00052C0813009F04FC00E944109882309F44AC081E20E944F0B80918D038F3021F0B2
:2035E0008B3011F0873039F460917504809194030E94C41411C080919403609175048770C5
:203600000E940311809118049091190490933B0480933A040E94771010925D03809138035F
:20362000823019F4EBEFFE1631F0109295041092400410923F041092370310923A03109259
:20364000390310924303109243031092420381E0809396048AEF0E94230880913803813026
:2036600011F00E94160986E10E94A80A882389F090E080915903882309F491E09093590334
:20368000992321F082E00E944F0B03C082E00E94980B85E10E94A80A882389F090E0809136
:2036A0005A03882309F491E090935A03992321F081E00E944F0B03C081E00E94980B84E11C
:2036C0000E94A80A882309F41FCD90E080915803882309F491E090935803992321F088E05A
:2036E0000E944F0B11CD88E00E94980B0DCDCF911F910F91FF90EF900895AA1BBB1B51E141
:2037000007C0AA1FBB1FA617B70710F0A61BB70B881F991F5A95A9F780959095BC01CD018E
:203720000895A1E21A2EAA1BBB1BFD010DC0AA1FBB1FEE1FFF1FA217B307E407F50720F083
:20374000A21BB30BE40BF50B661F771F881F991F1A9469F760957095809590959B01AC01FA
:20376000BD01CF0108952042504D0A0D00436F6D70436F6E74726F6C0A0D005061747445A3
:203780006469740A0D0050617474506C61790A0D0050617474506C61792044494E53594E67
:2037A000430A0D0050617474506C6179204D69646953594E430A0D00547261636B45646982
:2037C000740A0D00547261636B506C61790A0D00547261636B506C61792044494E53594E3C
:2037E000430A0D00547261636B506C6179204D49444953796E630A0D004D494449436F6EAA
:2038000074726F6C0A0D004B6579626F6172640A0D0072416E44306D0A0D0064207F5265B5
:2038200063656976656420556E6B6E6F776E204D4944493A203078000A0D00040506071185
:203840001210130409050A06070B110C120D1013201B191C1A180F0C0E0B0D0A0920191A57
:20386000180C0B0A092221252320191A18241B1C0F0E0D04030A0C0B090801020026271DE5
:203880001E1F101211131415161705060700070E091C1B1215383F363124232A2D70777EE0
:2038A000796C6B6265484F464154535A5DE0E7EEE9FCFBF2F5D8DFD6D1C4C3CACD90979EB8
:2038C000998C8B8285A8AFA6A1B4B3BABDC7C0C9CEDBDCD5D2FFF8F1F6E3E4EDEAB7B0B99D
:2038E000BEABACA5A28F88818693949D9A2720292E3B3C35321F18111603040D0A575059F8
:203900005E4B4C45426F68616673747D7A898E878095929B9CB1B6BFB8ADAAA3A4F9FEF7C9
:20392000F0E5E2EBECC1C6CFC8DDDAD3D4696E676075727B7C51565F584D4A4344191E1737
:203940001005020B0C21262F283D3A33344E49404752555C5B7671787F6A6D64633E39301E
:203960003722252C2B0601080F1A1D1413AEA9A0A7B2B5BCBB9691989F8A8D8483DED9D077
:20398000D7C2C5CCCBE6E1E8EFFAFDF4F3010409050A06070B110C120D101300FFFFFFFF26
:2039A000FFFFFFFFFFFFFFFFFFFFFFFFFFFFFFFFFFFFFFFFFFFFFFFFFFFFFFFFFFFFFFFF27
:2039C000FFFFFFFFFFFFFFFFFFFFFFFFFFFFFFFFFFFFFFFFFFFFFFFFFFFFFFFFFFFFFFFF07
:2039E000FFFFFFFFFFFFFFFFFFFFFFFFFFFFFFFFFFFFFFFFFFFFFFFFFFFFFFFFFFFFFFFFE7
:203A0000FFFFFFFFFFFFFFFFFFFFFFFFFFFFFFFFFFFFFFFFFFFFFFFFFFFFFFFFFFFFFFFFC6
:203E000084E08EBF8FEF8DBF8AEFE9D083E380B988E181B9F0E0E0E084918F3F71F08AEF66
:203E2000DED080EC8ABB8CE78BBB8AEFD8D089B38C73883111F00C940000C9D04B3109F0A6
:203E4000FFCFC5D04B31E9F3413611F449E5AEC0413439F4BCD0B42FBAD0A42FAA0FBB1F8E
:203E6000A4C0433619F4B3D0642F9FC0433449F4AED0742FFD010B0181E087BFE895129638
:203E800094C0453691F4A1E0BB2709C0FD0187B780FDFDCF83E087BFE895A058BF4F80E091
:203EA0009EE3A817B90790F380C04D3631F4FD0185E087BFE895000078C0403711F443E595
:203EC00075C0423539F4FD018591459184D0DF01482F6CC0443429F47AD04DBB86E06DD0BE
:203EE00064C0443619F481E068D060D0463411F4EE2707C0423711F4E1E003C04E3419F462
:203F0000E3E056D053C0443721F442EA64D044274DC04C3649F0483731F0493731F04435C8
:203F200031F455D042C053D040C051D03EC0433539F4E4EFFFE345914423C9F14CD0FBCFBC
:203F4000463521F441E347D042E330C0433731F444E041D044E93FD04EE128C0403529F1CB
:203F60004C3419F14A3751F4FD0190E4459133D0459131D09A95D1F7DF0119C04A3599F413
:203F8000FD0190E424D0042E22D0142E81E087BFE8959A9511F03296F5CF85E087BFE8954D
:203FA0003296DF0102C04FE301C04DE014D049CFFF2789E087BF44910895AEBBBFBB1196AA
:203FC00081FDE29A8CBBE199FECF4DB30895179BFECF43B10895159BFECF43B9089503D0C3
:1C3FE0008A95E9F7089523E312E31A95F1F72A95D9F70895783078623078310010
:00000001FF
