:100000000C9438000C9453000C9453000C9453003F
:100010000C9482040C9453000C9453000C945300E1
:100020000C9453000C94E7030C9453000C9453006D
:100030000C9453000C9453000C9453000C945300F4
:100040000C9413040C9453000C9453000C94430729
:100050000C94E50D0C9453000C9453000C94530035
:100060000C9453000C9453000C9453000C945300C4
:1000700011241FBECFEFD4E0DEBFCDBF12E0A0E061
:10008000B1E0E2EAF7E302C005900D92A436B107B1
:10009000D9F713E0A4E6B2E001C01D92A53EB10776
:1000A000E1F70C9413060C94000090919002292F14
:1000B000221F2227221F892F82958695869583707D
:1000C0002827892F82958F702827892F86958695D6
:1000D00028272170892F9927880F991F282B209373
:1000E0009002822F99270895FF920F931F93F894FF
:1000F000809166028150823020F18091BB02843071
:1001000001F180917102863010F01092710280919D
:10011000710280FF02C0949804C0949A88EF0E94F4
:100120000E0880917102882339F0809171028F5FEF
:1001300080937102789447C3809171028F5F80939E
:1001400071028091650280FFE4C18091BB02992712
:100150008830910541F18930910594F483309105FF
:1001600009F48AC0843091051CF4019721F10AC377
:100170008530910509F41EC1079709F4A1C002C397
:100180008B30910509F49CC08C30910524F40997BB
:1001900009F410C1F7C28D30910509F40BC10F9716
:1001A00009F48EC0EFC280E00E94230F80918B0281
:1001B0000E94A308E7C280917103882321F48091F3
:1001C0006603882361F090918B029F3F41F0991F55
:1001D0009927991F80918702892B0E94230F809174
:1001E0006603882309F4CEC280916E03803150F4F7
:1001F00080916E03E82FFF27ED58FC4F80818F3FE1
:1002000009F0C0C210926E0380916D038F5F8093DE
:100210006D0380916D03803168F480916D03E82F48
:10022000FF27EE0FFF1FEA5BFC4F808191818F5FFC
:100230009F4F11F410926D0380916D03E82FFF27FB
:10024000EE0FFF1FEA5BFC4F808191819093690361
:100250008093680380916803909169038F5F9F4F3B
:1002600021F48FEF809373038DC20E9495108093C9
:1002700081020E94A60B86C280917103882309F433
:1002800081C280918B028F3F29F0881F8827881FA9
:100290000E94230F80916E038F5F80936E03809185
:1002A0006E03803150F480916E03E82FFF27ED58E4
:1002B000FC4F80818F3F09F065C210926E0362C2CD
:1002C0008091C403882309F45DC290918B029F3F03
:1002D00041F0991F9927991F80918702892B0E94CD
:1002E000230F20918B02822F99278F739070892B77
:1002F00021F080918102820F01C0822F0E94A30809
:1003000080916E03803150F480916E03E82FFF27B7
:10031000ED58FC4F80818F3F09F034C210926E037C
:100320008091C3038F5F8093C3038091C3038032A6
:1003300048F48091C303E82FFF27ED55FC4F8081DF
:100340008F3F11F41092C30363EA73E083E893E0F4
:100350000E941C18882331F09091850280918402BC
:100360009817A1F0A3E8B3E0E3EAF3E09FE18D91F1
:100370008193915097FFFBCF1092C303109281029B
:10038000109280020E94BC0C0E94650D8091840234
:100390008093850280918002809381028091C303C3
:1003A000E82FFF27ED55FC4F6081809185020E9468
:1003B000E214E8C18091C403882309F4E3C1909159
:1003C0008B029F3F41F0991F9927991F80918702C7
:1003D000892B0E94230F20918B02822F99278F73E4
:1003E0009070892B59F010918102120F809168034F
:1003F000909169030E948010810F01C0822F0E949A
:10040000A30880916E03803150F480916E03E82F31
:10041000FF27ED58FC4F80818F3F09F0B3C1109248
:100420006E0380916D03803170F480916D03E82F2D
:10043000FF27EE0FFF1FEA5BFC4F808191818F5FEA
:100440009F4F09F050C010926D038091C3038F5FDE
:100450008093C3038091C303803248F48091C30327
:10046000E82FFF27ED55FC4F80818F3F59F5109203
:10047000C30363EA73E083E893E00E941C188823B7
:1004800031F09091850280918402981791F0A3E851
:10049000B3E0E3EAF3E09FE18D918193915097FF00
:1004A000FBCF10928102109280020E94BC0C0E942D
:1004B000650D8091840280938502809180028093F3
:1004C000810205C08091C3038F5F8093C303809135
:1004D000C303E82FFF27ED55FC4F60818091850213
:1004E0000E94211105C080916D038F5F80936D0381
:1004F00080916D03E82FFF27EE0FFF1FEA5BFC4F93
:100500008081918190936903809368030E94951084
:1005100039C18091BB0299278830910541F189301A
:10052000910594F48330910509F48EC084309105CF
:100530001CF4019771F126C18530910509F4BFC003
:10054000079709F4B2C01EC18B30910509F4ADC004
:100550008C30910524F4099709F4B1C013C18D3092
:10056000910509F4ACC00F9709F49FC00BC18091AD
:100570008B028093640280918A0280938B020E9496
:10058000550080938A0280918B0240E0642F8F7324
:10059000F3C080917103882329F480916603882336
:1005A00009F4F0C080917103882379F080916E0383
:1005B000803148F480916E03E82FFF27ED58FC4FFF
:1005C00080818F3F11F410926E0360918B026093D3
:1005D000640280916E03E82FFF27ED58FC4F8F5F78
:1005E00080936E03E081E0938B02EF3F09F4CAC071
:1005F00080918602882319F0E07CE0938B022091A1
:100600008B02822F99278F739070422F42954695C7
:1006100046954370661F6627661F2F73892B59F016
:10062000417080918802482B80918702682B8091CD
:100630008102820F37C0417080918802482B8091DF
:100640008702682B822F2EC080917103882309F4C2
:1006500099C00E94A60B80916E030E94B80B8091F6
:100660008B028093640280916E03E82FFF27ED5880
:10067000FC4F808180938B028F3F09F483C00E94DE
:10068000FC0C20918B02922F9295969596959370E3
:10069000917080916402881F8827881F492F682FD6
:1006A000822F8F730E94080F6DC08091C40388232E
:1006B00031F00E94A60B80916E030E94B80B8091CE
:1006C000C403882309F45EC000918B020093640286
:1006D00080916E03E82FFF27ED58FC4F8F5F8093CA
:1006E0006E03E081E0938B02EF3F09F44BC08091F1
:1006F0008602882319F0E07CE0938B0220918B0224
:10070000822F99278F739070422F42954695469578
:100710004370602F661F6627661F2F73892B21F198
:1007200051E0F52EF42280918802F82A0091870288
:10073000062B10918102120F80916803909169033A
:100740000E9480104F2D602F810F0E94080F109182
:100750008B0280918102180F809168039091690348
:100760000E948010810F0CC0417080918802482B3C
:1007700080918702682B822F0E94080F80918B0244
:100780000E947F0880916502843030F485E20E94E7
:10079000030B0E94570D09C080916502883028F430
:1007A00085E20E94650B0E944A0D0E94390D8091DE
:1007B00065028F5F8093650280916502883010F03A
:1007C0001092650278941F910F91FF9008951F92E7
:1007D0000F920FB60F9211242F933F934F935F9375
:1007E0006F937F938F939F93AF93BF93EF93FF93F9
:1007F0008091910290919202909389008093880059
:100800000E947400FF91EF91BF91AF919F918F91E2
:100810007F916F915F914F913F912F910F900FBEFC
:100820000F901F9018951F920F920FB60F921124E0
:100830002F933F934F935F936F937F938F939F93E8
:10084000AF93BF93CF93EF93FF93809172028F3F4B
:1008500029F0809172028F5F8093720280918202F0
:10086000909183028F5F9F4F49F080918202909117
:1008700083020196909383028093820280916F029B
:1008800090917002892B81F080916F02909170029B
:1008900001979093700280936F0280916F02909104
:1008A0007002892B09F49498809166028130C1F41A
:1008B000C0B3C295CF70C17080916C02882371F46F
:1008C000CC2361F080917002909171020196909317
:1008D00071028093700288EF0E940E08C0936C0230
:1008E000FF91EF91CF91BF91AF919F918F917F91A8
:1008F0006F915F914F913F912F910F900FBE0F908D
:100900001F9018951F920F920FB60F9211242F93DC
:100910003F938F939F9329B323708091930228175D
:1009200091F1833041F4223099F480918E029091BC
:100930008F02019709C0823059F4233049F4809125
:100940008E0290918F02019690938F0280938E0277
:1009500080918E0290918F028D52914030F08CE206
:1009600091E090938F0280938E0280918E029091FD
:100970008F02449730F484E190E090938F0280934B
:100980008E02209393029F918F913F912F910F9010
:100990000FBE0F901F90189543E350E081B1886916
:1009A00081B940B920E030E02CBF4FE150E08AB17E
:1009B00088698AB949B920BD80EC8ABB8CE38BBBBE
:1009C0008BEB87BB18BA8FEF84BB81BB86B981E5FF
:1009D0008DB9089589B7816089BF8BE083BF8AEFA5
:1009E00081BF089580917D00846080937D0008958B
:1009F00085E20E94650B80917D008B7F80937D0056
:100A00000895E199FECF9FBB8EBBE09A8DB39927E5
:100A1000089580917D0086958695992781709070C4
:100A20000895E199FECF9FBB8EBB6DBBF894E29A0F
:100A3000E19A789408950F931F93CF93DF938C01DD
:100A400081E00D32180710F00CE211E004311105BD
:100A500010F404E110E010938D0200938C021093C7
:100A60008F0200938E02812F9927682F85E090E0F6
:100A70000E94110560918C0286E090E00E941105B1
:100A800080918C0290918D020E94A60DC0E0D0E76B
:100A9000E8E3F9E3980144275527BE01CF010E94FE
:100AA000AF1BFA01E90193E0F695E795D795C79555
:100AB0009A95D1F7BE01CF0126E030E040E050E04A
:100AC0000E94AF1BFA01E901CA01AA27BB279C01BA
:100AD000009731F4D0939202C093910281E061C0FB
:100AE000887F892B69F403E0F695E795D795C7953C
:100AF0000A95D1F7D0939202C093910282E051C03F
:100B0000C901807F892B69F414E0F695E795D795A4
:100B1000C7951A95D1F7D0939202C093910286E0BF
:100B200040C0C901807E892B69F4B5E0F695E79550
:100B3000D795C795BA95D1F7D0939202C0939102F9
:100B400087E02FC0C901807C892B69F4A6E0F69567
:100B5000E795D795C795AA95D1F7D0939202C09300
:100B6000910283E01EC0C9018070892B51F48D2F42
:100B70009E2FAF2FBB27909392028093910284E027
:100B800010C020703C7F232B79F46AE0F695E7953E
:100B9000D795C7956A95D1F7D0939202C0939102E9
:100BA00085E080938A0002C010928A0080919102B1
:100BB00090919202909581959F4F9093920280938D
:100BC00091029093890080938800DF91CF911F91CB
:100BD0000F9108950F931F9380916B008160809314
:100BE0006B0080916B00826080936B008BB7886094
:100BF0008BBF85E090E00E9401059927182F002700
:100C000086E090E00E9401059927802B912B0E949D
:100C10001B051092650280917D00846080937D00A9
:100C20001F910F910895CFEFD4E0DEBFCDBF0E949A
:100C3000CC040E94EA050E94EA0480918C02809311
:100C400090020E941D090E94950778940E946909EC
:100C50008091BB0299278830910509F453C08930EF
:100C60009105CCF48330910571F18430910554F4F1
:100C70008130910569F1823091050CF052C0892BC9
:100C8000B9F1E4CF8530910559F185309105ACF18A
:100C9000079731F1DBCF8C30910509F442C08D30DC
:100CA00091051CF40A97E9F11DC08E30910531F0D1
:100CB0008E30910594F00F9781F0C8CF10926602A4
:100CC0000E94FD0EC3CF109266020E946A15BECF2D
:100CD000109266020E948E11B9CF1092660205C072
:100CE00081E001C082E0809366020E943518AECF99
:100CF000109266020E942008A9CF109266020E94FC
:100D00002A0FA4CF109266020E94F2040E94910B57
:100D10000E9469098091BB028830D1F30E94F804D7
:100D200095CF0E94910B0E94390D90CF159BFECF5D
:100D300083B980E090E00895CF93DF93EC01888140
:100D4000882331F089910E94960688818823D1F703
:100D5000DF91CF9108950F931F93CF93DF93EC0111
:100D600000E117E2CE01B8010E949B1B61157105DD
:100D700081F0862F805D0E949606CE01B8010E9408
:100D80009B1BEC01C8016AE070E00E949B1B8B0179
:100D90000EC0CE01B8010E949B1BEC01C8016AE0A5
:100DA00070E00E949B1B8B016A307105D8F601151B
:100DB0001105A9F0CE01B8010E949B1BCB01805DFB
:100DC0000E949606CE01B8010E949B1BEC01C8014F
:100DD0006AE070E00E949B1B8B01672B59F7DF9143
:100DE000CF911F910F9108958F708A3010F4805D1C
:100DF00001C0895C0E94960608950895CF93DF9301
:100E0000EC01892F992782958F70009711F00E942D
:100E1000F4068D2F9927009711F00E94F406CE0159
:100E200044E0969587954A95E1F7009711F00E9466
:100E3000F4068C2F0E94F406DF91CF91089582B1C1
:100E4000992787FD90958827990F881F99270895DE
:100E5000179BFECF83B19927089520EA3FE0E22F48
:100E6000F32F3197F1F78A95D1F708958AEF0E9411
:100E70002D078AEF0E942D078AEF0E942D078AEF27
:100E80000E942D0708951F920F920FB60F92112402
:100E90008F939F93EF93FF939CB1983FB1F4809110
:100EA0006602813021F0949A85E080936F028091F0
:100EB000C403882349F180916702909168020196EA
:100EC00090936802809367021FC080916A02E82FA6
:100ED000FF27EB56FD4F90838F5F80936A028091CE
:100EE0006A028F7180936A0290916A0280916B020C
:100EF000981751F480916B028F5F80936B02809101
:100F00006B028F7180936B02FF91EF919F918F9194
:100F10000F900FBE0F901F90189599270E94010502
:100F2000803108F08FE09927089583E00E948D07B3
:100F30008093B50284E00E948D0780939402089507
:100F400090916B0280916A02981719F081E090E00D
:100F5000089580E090E00895089590916B0280914B
:100F60006A029817D1F3F89480916B02E82FFF275B
:100F7000EB56FD4F8F5F80936B02908180916B02E7
:100F80008F7180936B027894892F992708950E941E
:100F9000A007892BC1F00E94AD0787FF14C0682FFE
:100FA00062956F70482F55276F3059F09A012F7056
:100FB00030708091B50299272817390721F4609382
:100FC0006902CA01089580E090E008950895909123
:100FD0006402891731F480E00E94230F8FEF809321
:100FE000640208950895CF93C82F962F60E0992347
:100FF00019F40E94E70710C0809164028F3F09F046
:1010000061E08C2F8951953610F041E001C040E03D
:101010000E94080FC0936402CF9108955D9BFECF9C
:101020008CB980E090E0089580919402806B0E94DA
:101030000E088BE70E940E0880E00E940E080895BB
:101040000F931F930E94F8040E94A60B8091B50293
:101050000E94B80B8FEF809364020E94690980910F
:10106000BB02882319F00E94140846C00E94FD0AA2
:10107000882379F08091C2028093B502682F83E0C3
:1010800090E00E9411050E94A60B8091B5020E947B
:10109000B80B0E94A007892B01F30E94AD0787FFC0
:1010A000DCCF482F42954F704F3049F099278F7011
:1010B00090702091B50233278217930771F6409301
:1010C0006902842F99278830910561F0099729F6E4
:1010D0000E94AD078C010E94AD07682F802F0E94EF
:1010E000F307BBCF0E94AD078C010E94AD07682FAC
:1010F000802F0E94E707B1CF1F910F910895CF93E2
:10110000C82F8091940280690E940E088C2F992725
:101110008F739070892B11F480E003C08C2F8F7334
:10112000875E0E940E088C2F829586958695837027
:1011300080FF03C08091020102C0809100010E94E3
:101140000E08CF910895CF93C82F809194028068A4
:101150000E940E088C2F99278F739070892B11F4A1
:1011600080E003C0CF738C2F875E0E940E088091B1
:1011700001010E940E08CF9108958091660282308D
:1011800029F08CEF0E940E080E941408089508951B
:10119000CF930E940905C82F809166028130D1F05B
:1011A000CC2311F00E94F8049498979A85E00E944D
:1011B0002D0780919102909192020A979093890055
:1011C000809388001092710210926502CC2311F076
:1011D0000E94F204CF91089580916602813009F057
:1011E00097980895089590B3991F9927991F809112
:1011F0006E02882339F4992329F090936E0281E0DE
:1012000090E0089590936E0280E090E00895089534
:1012100090B3991F9927991F80916D02882339F007
:10122000992329F490936D0281E090E008959093C2
:101230006D0280E090E00895089581B3806F81BBD6
:1012400082B38F7082BB08958FE091B3982391BBD6
:1012500092B3982392BB0895DE980895AC01F89458
:10126000C0980000000000000000C09A20E01FB8F5
:10127000779BFECFFA01E20FF11D8FB180832F5FC4
:101280002330A8F37894089599B3969596959F7016
:10129000292F269526952695892F86958270282BAD
:1012A000892F9927880F991F382F3470232B880F87
:1012B000991F880F991F8870282B8FE0821B992710
:1012C0000895DE9A089589B3869586958F7099273B
:1012D0000895AF92BF92CF92DF92EF92FF920F9359
:1012E0001F93CF93DF93CDB7DEB726970FB6F89451
:1012F000DEBF0FBECDBF20918E0230918F02809154
:101300008C0290918D022817390731F080918E025E
:1013100090918F020E941B05AFEBB2E0E8EBF2E088
:1013200042E011921D92415047FFFBCF8091720223
:10133000843108F490C0109272020E942C09CE01F0
:1013400001960E942E098091BC028C838091BD027F
:101350008D838091BE028E8340E001E010E06E013B
:10136000C00ED11E842F869586958695A82FBB2703
:10137000BD0164547D4F842F8770980102C0220FF5
:10138000331F8A95E2F7C901FB013081232F2823FF
:10139000FD01ED53FD4FE081E823AC0DBD1DAC9187
:1013A000A8234F5F8095222331F03823EA2B3E2B70
:1013B000DB013C9305C03823EA233E2BFB0130833D
:1013C000483180F20E944409482F8091C202481798
:1013D00049F08091B702481729F44093C20281E096
:1013E000809373024093B7020E9461096FEBE62E6F
:1013F00062E0F62E08EB12E06CEB72E053ECA52EE7
:1014000052E0B52EF60142E08081D5018D935D0159
:101410002381DB018D91BD01922F98278923D8016B
:101420008D938D019223D7019D937D01415031967B
:1014300047FFEACF0E946309482F8091BB024817FB
:1014400031F08091B602481711F44093BB024093EB
:10145000B6020E94390D26960FB6F894DEBF0FBE75
:10146000CDBFDF91CF911F910F91FF90EF90DF9053
:10147000CF90BF90AF900895282F883118F080E06A
:1014800090E00895869586958695E82FFF27E45489
:10149000FD4F80819927277002C0959587952A95E1
:1014A000E2F79C012170307080FF03C081E090E082
:1014B0000895C90108950895282F883118F080E013
:1014C00090E00895869586958695E82FFF27E85445
:1014D000FD4F80819927277002C0959587952A95A1
:1014E000E2F79C012170307080FF03C081E090E042
:1014F0000895C90108950895282F883118F080E0D3
:1015000090E00895869586958695E82FFF27E1540B
:10151000FD4F80819927277002C0959587952A9560
:10152000E2F79C012170307080FF03C081E090E001
:101530000895C901089508958091BC02882359F443
:101540008091BD02882339F48091BE02882319F46A
:1015500081E090E0089580E090E008950895FF9282
:101560000F931F93CF93DF93FF2400E010E0CBE0B5
:10157000D1E088810E943C0A882311F0C80109C08B
:10158000F39421960F5F1F4F8CE08F1594F78FEF28
:101590009FEFDF91CF911F910F91FF900895CF930F
:1015A000C0E0EC2FFF27ED5FFE4F80810E943C0AD8
:1015B000EC2FEF5F882319F08E2F992705C0CE2FCF
:1015C000E83078F380E090E0CF910895CF93C0E0C9
:1015D000EC2FFF27ED5FFE4F80810E945C0AEC2F0D
:1015E000EF5F882319F08E2F992705C0CE2FE830A2
:1015F00078F380E090E0CF9108958091730210928B
:10160000730299270895282F883290F4869586953D
:101610008695E82FFF27E758FD4F277081E090E07F
:1016200002C0880F991F2A95E2F72081282B20837A
:1016300008950895282F883290F48695869586958A
:10164000E82FFF27EC58FD4F277081E090E002C0A3
:10165000880F991F2A95E2F72081282B208308956F
:101660000895282F8832A0F4869586958695E82FD0
:10167000FF27EC58FD4F277081E090E002C0880FF3
:10168000991F2A95E2F7982F90958081892380836E
:1016900008950895282F883218F080E090E008958A
:1016A000869586958695E82FFF27EC58FD4F277085
:1016B00081E090E002C0880F991F2A95E2F720810F
:1016C0002823822F992708950895282F8832A0F47F
:1016D000869586958695E82FFF27E758FD4F27705A
:1016E00081E090E002C0880F991F2A95E2F7982FB9
:1016F000909580818923808308950895282F869569
:1017000086958695E9E7F2E0E80FF11D808199273B
:10171000277002C0959587952A95E2F781709070A1
:10172000089510927D0210927C0210927B0210921A
:101730007A02109279021092780210927702109237
:101740007602109275021092740208950F931F93FF
:10175000CF9305E411E0CFE0F80181918F010E9461
:10176000650BC150C7FFF8CFCF911F910F9108951E
:10177000803138F4E82FFF27EB5BFE4F80810E9419
:10178000030B08950895803138F4E82FFF27EB5BB1
:10179000FE4F80810E941A0B08950895803118F041
:1017A00020E030E009C0E82FFF27EB5BFE4F80818F
:1017B0000E947E0B282F3327C9010895803118F02D
:1017C00080E090E00895E82FFF27EB5BFE4F8081DB
:1017D0000E944A0B992708950895883138F4E82F1C
:1017E000FF27E35DFE4F80810E94030B089508955B
:1017F000883138F4E82FFF27E35DFE4F80810E9497
:101800001A0B08950895883138F4E82FFF27E35D17
:10181000FE4F80810E94650B089508950F931F93DA
:10182000CF930DE211E0C7E1F80181918F010E9491
:10183000650BC150C7FFF8CFCF911F910F9108954D
:10184000E82F8150883030F4FF27EC5DFE4F808117
:101850000E94030B089508951F93CF93182F81E0E2
:10186000E82FFF27C82FCF5F811731F4EC5DFE4FC3
:1018700080810E94030B05C0EC5DFE4F80810E94B9
:10188000650B8C2FC93060F3CF911F910895E82F1D
:101890008150883030F4FF27EC5DFE4F80810E943C
:1018A000650B08950895E82F8150883030F4FF27A4
:1018B000EC5DFE4F80810E941A0B08950895E82F79
:1018C0008150883040F4FF27EC5DFE4F80810E94FC
:1018D0004A0B9927089580E090E008950895E82F35
:1018E0008150883048F4FF27EC5DFE4F80810E94D4
:1018F0007E0B282F332702C020E030E0C901089575
:101900000F931F93CF9305E211E0C7E0F801819197
:101910008F010E94650BC150C7FFF8CFCF911F9177
:101920000F9108958D3038F4E82FFF27E85EFE4FC1
:1019300080810E94030B089508958D3038F4E82FBC
:10194000FF27E85EFE4F80810E94650B0895089591
:101950008D3038F4E82FFF27E85EFE4F80810E942B
:101960001A0B08950895E8E1F1E0E80FF11D808178
:101970000E944A0B992708950F931F93CF9308E174
:1019800011E0CCE0F80181918F010E94650BC150FC
:10199000C7FFF8CFCF911F910F9108950E94BC0C03
:1019A00084E00E94650B83E00E94650B88E00E9442
:1019B000650B81E00E94650B82E00E94650B089533
:1019C000CF93C82F84E00E94650BC23021F483E0DE
:1019D0000E941A0B0FC083E00E94650B83E00E94F7
:1019E000310BC13011F483E003C0CF3F19F484E020
:1019F0000E94030BCF910895CF93C82F0E94CE0C65
:101A0000C7FF03C086E10E94ED0B8C2F829586955F
:101A10008695837080FF03C085E10E94ED0BCF7334
:101A200011F48C2F15C0C73110F48FEF11C0C432E0
:101A300018F4CC5080E00CC0C03318F4C85181E0D9
:101A400007C0CC3318F4C45282E002C083E0C05314
:101A50000E94E00CCC2321F484E10E94ED0B07C02E
:101A6000EC2FFF27E35FFE4F80810E94030BCF9195
:101A70000895F894DF98E9E7F2E080818FB9779BC9
:101A8000FECF319682E0ED37F807B9F3B4F3DF9A71
:101A900078940895A4E7B2E0E9E7F2E024E08081D9
:101AA0009D91892B8193215027FFF9CF0895A4E7B9
:101AB000B2E0E9E7F2E024E09D91909580818923EE
:101AC0008193215027FFF8CF0895A4E7B2E0E9E71A
:101AD000F2E034E020819C91822F892319F09095C7
:101AE000292320831D923150319637FFF3CF08957B
:101AF000AC0120E0322F6115710581F0FA01E30F8E
:101B0000F11D80812827E22FFF27EB5AFE4F20810D
:101B10003F5F832F99278617970780F3822F992796
:101B200008950F931F93CF93DF936115710549F0CB
:101B30008C01EB01F80181918F010E94960621979B
:101B4000C9F7DF91CF911F910F9108950F931F93C4
:101B50009C0106EC12E082E48093C6021092C70258
:101B600082E08093C802832F99278093C902209333
:101B7000CA0265E070E0C8010E94780D8093CB0234
:101B800066E070E0C8010E94910D1F910F910895C9
:101B90000F931F9306EC12E090E89093C602109208
:101BA000C70291E09093C8028093C90264E070E09C
:101BB000C8010E94780D8093CA0265E070E0C801F8
:101BC0000E94910D1F910F9108951F920F920FB6D1
:101BD0000F921124EF92FF921F932F933F934F93F5
:101BE0005F936F937F938F939F93AF93BF93CF93A5
:101BF000DF93EF93FF9393B180915502882309F40B
:101C0000E4C080917F02803448F4E82FFF27EA5F28
:101C1000FC4F90838F5F80937F0204C00E94C80DA9
:101C200010927F0220917F02233008F4CEC0F09002
:101C3000060380910703682F7727762F6627809108
:101C400008039927682B792B3327CB010496281793
:101C5000390708F4BAC0FB01EA5FFC4F1381EB01BE
:101C60002396BE0186E093E00E94780D181791F04C
:101C7000BE0186E093E00E94780D99270E94FE063F
:101C800010927F0280E00E94C80D0E94A60B0E9465
:101C9000390D9DC08F2D99278131910551F18231E8
:101CA000910544F48130910509F488C0409709F406
:101CB00060C086C08034910521F08134910541F0E7
:101CC0007FC080918C0290918D020E94A60D7BC0F6
:101CD00080910803823009F073C08091090399272D
:101CE000982F882720910A03820F911D0E941B05BF
:101CF0006AC080910803823009F062C080910903B4
:101D000090910A03C82FDD2763E0CC0FDD1F6A9591
:101D1000E1F7C90FD11D89E18093C6021092C70275
:101D200080E18093C8020F2EF9ECEF2EF2E0FF2E37
:101D3000F02DC295D295D07FDC27C07FDC271FE035
:101D4000CE010E943D10F70181937F011150219631
:101D500017FFF6CF63E170E086EC92E00E94780D09
:101D60008093D90264E170E086EC92E00E94910DCC
:101D70002AC080910803823119F58091090390915E
:101D80000A03C82FDD2733E0CC0FDD1F3A95E1F7BA
:101D9000C90FD11D2BE0E22E23E0F22E94E0CC0FF0
:101DA000DD1F9A95E1F71FE0BE01F70181917F01E8
:101DB0000E94FE0F1150219617FFF6CF81E001C05F
:101DC00080E00E94C80D10927F020E94A60BFF9136
:101DD000EF91DF91CF91BF91AF919F918F917F91C3
:101DE0006F915F914F913F912F911F91FF90EF90D5
:101DF0000F900FBE0F901F9018950E946909809157
:101E0000BB028E30D1F30E94910B0E94390D0895D0
:101E100090E03A98803408F08FE3611160E4442345
:101E200011F440E801C0492F882349F0862B842B08
:101E300085BB3A9A9F5F9832E8F3399A0895642BEC
:101E400065BB08950895882311F0AE9A01C03998B2
:101E50003A9808957F928F929F92AF92BF92CF92BD
:101E6000DF92EF92FF920F931F93CF93CC24DD2448
:101E70007724072D0E94F2040E94A60B560146010A
:101E80000E9469098091BB02843019F00E941408F5
:101E9000A8C08091940299270E94CE0B892B31F41F
:101EA0000E94A60B809194020E94B80B0E94FD0A2A
:101EB000882349F08091C20280939402682F84E0C5
:101EC00090E00E9411058C2D0E94E00CC0E066E5B8
:101ED000E62E62E0F62EF70180810E945C0A8823DC
:101EE000B9F01C2F180D195E402F672D812F0E940D
:101EF000080F802F992756E0880F991F5A95E1F710
:101F0000812B0E947F0841E0742E8C2F0E94920C3E
:101F1000F70180810E947C0A882381F02C2F2A0DF2
:101F2000295E802F992736E0880F991F3A95E1F7AF
:101F3000822B0E94A3088C2F0E949D0CCF5F0894D7
:101F4000E11CF11CCD3038F28FE00E945C0A88233E
:101F500071F0F2E0CF16D104F4F40894C11CD11C46
:101F60008CE090E0880E991EA80EB91E14C08EE079
:101F70000E945C0A882379F09FEFC9169FEFD9066B
:101F800051F04CF00894C108D108E4EFFFEF8E0E39
:101F90009F1EAE0EBF1E85E10E945C0A882371F071
:101FA00080E0002309F481E0082F882321F081E0FC
:101FB0000E94030B03C081E00E94650B83B3992745
:101FC0008F739070892B09F45BCF0E949C0A882341
:101FD00009F456CF80E00E94230F77240E94BC0CA6
:101FE0004FCFCF911F910F91FF90EF90DF90CF9047
:101FF000BF90AF909F908F907F900895282FF89476
:1020000095E0C09800000000000000009FB9779B99
:10201000FECF00000000000000001FB8779BFECF3D
:102020008FB1C09A000000000000000080FDE9CFE1
:10203000C0980000000086E08FB9779BFECF0000BB
:102040000000C09A0000000000000000C0980000DE
:10205000000082E08FB9779BFECF872F99278FB939
:10206000779BFECF6FB9779BFECF2FB9779BFECFC3
:1020700000000000C09A789408959C01F894C098DC
:102080000000000083E08FB9779BFECF832F992754
:102090008FB9779BFECF2FB9779BFECF0000000052
:1020A0001FB8779BFECF8FB1C09A78949927089577
:1020B00010926A03109271031092660380E00E94EE
:1020C000230F0E94910B0E94650D0E94FD0A089546
:1020D00010926B0384E20E94650B0E94910B0E9498
:1020E000650D1092710380E00E94230F089581E036
:1020F00080936B0384E20E94030B0E94A60B089559
:10210000892F9927282F2F71822F992787FD909546
:1021100034E0969587953A95E1F7892B09F0206E82
:10212000822F992787FD9095089520916803277045
:102130008091680390916903F3E096958795FA95ED
:10214000E1F7622F8F700E94E21460916803709132
:1021500069039B0144275527DA01C90180709078F3
:10216000A070B070892F9A2FAB2FBB278093860267
:10217000DA01C90180709074A070B070892F9A2F15
:10218000AB2FBB2780938802207030724070507054
:10219000BB27A52F942F832F8093870210926E0365
:1021A000CB010E9480109927089581E080936A03F3
:1021B00081E20E94030B1092880280918802809332
:1021C00087028091870280938602109266031092A4
:1021D0007103809146039091470390936903809324
:1021E00068038F5F9F4F89F010926D0310926E030A
:1021F00010928B020E94951080938102809165025B
:1022000080FDFCCF81E0809366030E94A60B0895B9
:1022100080918102882321F483E00E94650B0CC029
:1022200087FF07C083E00E94650B84E00E94030BD8
:10223000089583E00E94030B84E00E94650B0895DB
:102240000895FF920F931F93CF93DF93C82FDD273D
:1022500003E0CC0FDD1F0A95E1F7C60FD11D15E095
:10226000CC0FDD1F1A95E1F7BFE0FB2EC050D84F11
:1022700006E413E0CE010E943D109927982F88278D
:10228000F80180839183CE0101960E943D10282F92
:102290003327F80180819181822B932B8193919335
:1022A0008F01FA942296F7FEE5CFDF91CF911F912F
:1022B0000F91FF900895FF920F931F93CF93DF9399
:1022C000C82FDD2753E0CC0FDD1F5A95E1F7C60F6D
:1022D000D11D45E0CC0FDD1F4A95E1F73FE0F32E1D
:1022E00006E413E0C050D84FF80180819181892F16
:1022F0009927BE010E94FE0F2196F80181919191CC
:102300008F01BE010E94FE0FFA942196F7FEECCFDA
:10231000DF91CF911F910F91FF9008951F93CF935D
:10232000DF930E94F2048091C2028770809367035A
:1023300010926C0310926B0310926A031092660362
:102340001092710310926D038FEF9FEF90936903CA
:1023500080936803109266020E94A60B0E94650D8E
:102360000E9469098091BB02813071F00E94F804DB
:10237000109271031092660380E00E94230F0E9466
:10238000910B0E94390DF4C280916B03882361F593
:1023900080916A03882341F50E94FD0A882359F041
:1023A0008091C20287708093670360916C030E94E2
:1023B00021110E94A60B809167030E94B80B0E9416
:1023C000CF0AC82F882359F00E94BC0C8C2F815053
:1023D00080936C03682F809167030E942111809184
:1023E0006C038F5F0E94200C81E00E945C0A8823AE
:1023F00079F080916A03882319F00E94581008C070
:1024000080916B03882311F00E9468100E94D51000
:1024100080916A03882329F480916B03882309F44F
:1024200063C080916D030E94DE0B882311F40E942B
:10243000650D80916D030E94C30B8091680390919C
:1024400069038F5F9F4F21F40E94CE0C80E046C04D
:1024500080E00E94650B809168039091690343E0DE
:10246000969587954A95E1F78F700E94B80B8091F9
:1024700068039091690397FF04C088E00E94030BF2
:1024800003C088E00E94650B809168039091690306
:10249000AA27BB273EE0B695A795979587953A95CD
:1024A000D1F781709070892B21F081E00E94030B9D
:1024B00003C081E00E94650B8091680390916903DD
:1024C000AA27BB272DE0B695A795979587952A95BE
:1024D000D1F781709070892B21F082E00E94030B6C
:1024E00003C082E00E94650B88E00E945C0A88239A
:1024F00031F483E00E945C0A882309F478C01091CB
:102500006A03112309F073C0812F0E94230FC09129
:102510006B03CC2309F442C088E00E945C0A882344
:10252000D1F080916D039927019640976CF48091CA
:102530006D03E82FFF27EE0FFF1FEA5BFC4F808142
:1025400091818F5F9F4F19F410936D0330C080917C
:102550006D038F5F20C080916D038823C9F4809143
:102560006D0399270196409714F580916D03E82F2C
:10257000FF27EE0FFF1FEA5BFC4F808191818F5F89
:102580009F4FA9F080916D038F5F80936D03E7CF1C
:1025900080916D03815080936D0309C088E00E9493
:1025A0005C0A882321F00E947710C0936D0380910C
:1025B0006D03E82FFF27EE0FFF1FEA5BFC4F8081C2
:1025C00091819093690380936803109271038F5FE8
:1025D0009F4F69F00E9495108093810210926E03C4
:1025E0008091650280FDFCCF81E08093710387E1DB
:1025F0000E945C0A882339F180916B038823E9F0FB
:1026000080916D0399270196409764F480916D0342
:10261000E82FFF27EE0FFF1FEA5BFC4F8FEF9FEFC6
:10262000828393838FEF9FEF909369038093680376
:102630000E94681080E00E94650B60916C0380919D
:1026400067030E945B1180916B03882309F47FC1AB
:1026500080916803909169038F5F9F4F09F40FC1C8
:1026600084E10E945C0A882311F180916D03E82FB8
:10267000FF27EE0FFF1FEA5BFC4F8081918120E076
:1026800030E8822793278083918380819181909382
:10269000690380936803AA27BB2780709078A07095
:1026A000B070892F9A2FAB2FBB278093860285E1CC
:1026B0000E945C0A882311F180916D03E82FFF27A7
:1026C000EE0FFF1FEA5BFC4F8081918120E030E438
:1026D00082279327808391838081918190936903DE
:1026E00080936803AA27BB2780709074A070B07095
:1026F000892F9A2FAB2FBB278093880286E10E94F7
:102700005C0A882311F180916D03E82FFF27EE0FFB
:10271000FF1FEA5BFC4F8081918120E030E282273D
:102720009327808391838081918190936903809323
:102730006803AA27BB2780709072A070B070892FA1
:102740009A2FAB2FBB27809387028FE00E943C0A11
:10275000882331F48EE00E943C0A882309F47DC06E
:102760000E94AF0AC82FDD27C7FDD0958FE00E94D9
:102770005C0A882329F48EE00E945C0A882351F0C9
:102780000E94650D0E94BC0C83E00E94650B84E0F2
:102790000E94650B8FE00E943C0A882349F183E088
:1027A0000E94030B8FEFCF3FD807C9F00E94650D41
:1027B0002091680330916903307E9C2F8827282B55
:1027C000392B309369032093680380916D03E82FC0
:1027D000FF27EE0FFF1FEA5BFC4F208331838091C0
:1027E0006803909169030E9480108093810232C037
:1027F0008EE00E943C0A882309F441C084E00E94D4
:10280000030B2FEFCF3FD207E1F00E94650D20911F
:10281000680330916903307E2C97CF71D0709C2F64
:102820008827282B392B30936903209368038091E4
:102830006D03E82FFF27EE0FFF1FEA5BFC4F20839D
:10284000318380916803909169030E948010809386
:102850008102845F0E94A80C12C08FE00E947C0A53
:10286000882329F48EE00E947C0A882341F083E0CB
:102870000E94650B84E00E94650B0E94650D8FE04D
:102880000E943C0A882309F062C08EE00E943C0A44
:10289000882309F05CC00E94E60AC82F882329F427
:1028A0000E94FD0A882309F447C00E94800C0E9400
:1028B000A60BCC2359F480916803909169038F5F34
:1028C0009F4F29F0C0916803C77001C0C15010929A
:1028D000710380E00E94230F4091C202242F33270E
:1028E00063E0220F331F6A95E1F78C2F9927282B7D
:1028F000392B309369032093680380916D03E82F8F
:10290000FF27EE0FFF1FEA5BFC4F208331836C2F04
:10291000842F0E94E21410926E031092870280911D
:1029200087028093880280918802809386021092A9
:10293000810281E0809371030E94081180916803F5
:10294000909169038770907001960E942C0C809181
:102950006A03882309F404CD0E940811809168035A
:10296000909169038770907001960E942C0CF8CCAE
:10297000DF91CF911F91089510926E0381E08093B3
:102980006F0381E20E94030B80E00E94230F0E94EC
:10299000F2048091650280FDFCCF81E08093710399
:1029A000089581E080936B0384E20E94030B0E94F0
:1029B000A60B80E00E94B80B0E94F80480E00E9401
:1029C000230F0895EF92FF920F931F93CF93DF93FE
:1029D000182F062F0E94390DC12FDD2723E0CC0FC1
:1029E000DD1F2A95E1F7C00FD11D94E0CC0FDD1F4C
:1029F0009A95E1F783E7E82E83E0F82E1FE0CE01F9
:102A00000E943D10F70181937F011150219617FF1D
:102A1000F6CF0E94390DDF91CF911F910F91FF905A
:102A2000EF900895EF92FF920F931F93CF93DF9350
:102A3000182F062F0E94390DC12FDD2753E0CC0F30
:102A4000DD1F5A95E1F7C00FD11D43E7E42E43E0A7
:102A5000F42E34E0CC0FDD1F3A95E1F71FE0BE0104
:102A6000F70181917F010E94FE0F1150219617FFFF
:102A7000F6CF0E94390DDF91CF911F910F91FF90FA
:102A8000EF90089510926B0384E20E94650B0E9400
:102A90000E0C0E94A60B8091C2020E94B80B0E94ED
:102AA000F20480E00E94230F08950E94F80410921F
:102AB00071030E940E0C0E94A60B8091C2020E941C
:102AC000B80B10926F0381E20E94650B80E00E94B8
:102AD000230F0895EF92FF920F931F93CF93DF93ED
:102AE0001092700310926B0310926F031092710397
:102AF00010926E0310928B02109266020E94690976
:102B00008091C20280937203609170030E94E2146C
:102B10000E94910B8091C2020E94B80B0E94F204A5
:102B20000E9469098091BB02833081F00E94F80401
:102B30001092710380E00E94230F0E94EC080E9413
:102B4000BD080E94910B0E94390D6FC290917203D3
:102B50008091C2029817D1F080916F03882311F001
:102B60000E94551580916B03882311F00E94421535
:102B70008091C20280937203609170030E94E214FC
:102B80000E94A60B8091C2020E94B80B80916F0335
:102B90008823E1F480916B038823C1F48091700352
:102BA0008F5F0E94200C0E94CF0AC82F882371F0EB
:102BB0000E94BC0C8C2F0E94200C8C2F8150809383
:102BC0007003682F809172030E94E21480E00E94DB
:102BD0005C0A882399F080916F03882379F082E260
:102BE0000E94030B03E713E0CFE00E945500F801B9
:102BF00081938F01C150C7FFF8CF0CC080E00E94C5
:102C00007C0A882339F080916F03882319F082E2CF
:102C10000E94650B81E00E945C0A882379F0809114
:102C20006F03882319F00E94551508C080916B032B
:102C3000882311F00E9442150E94BC1480916F03FA
:102C4000882329F480916B03882309F427C100911C
:102C50006E03E02EFF24E701CD58DC4F18811F736F
:102C600085E10E945C0A882331F01F3321F08881BE
:102C700090E48927888386E10E945C0A882349F0D2
:102C80001F3339F0F701ED58FC4F808190E8892718
:102C900080831F3341F0112331F0173110F4CFEF4F
:102CA0000DC0143210F4C0E009C0103310F4C1E0BC
:102CB00005C01C3310F4C2E001C0C3E084E10E94EF
:102CC0005C0A811110E08FE00E945C0A882339F0D1
:102CD0001F3329F0112319F01C160CF0145F8EE03D
:102CE0000E945C0A882341F01F3331F0112321F048
:102CF000CF3F11F00CF01C5084E00E945C0A882346
:102D000031F08CE0C802C0011124182F195E89E04F
:102D10000E945C0A882331F08CE0C802C0011124B3
:102D2000182F185E85E00E945C0A882331F08CE041
:102D3000C802C0011124182F175E8AE00E945C0AA5
:102D4000882331F08CE0C802C0011124182F165ED0
:102D5000C3300CF063C086E00E945C0A882331F027
:102D60008CE0C802C0011124182F155E87E00E9474
:102D70005C0A882331F08CE0C802C0011124182FAE
:102D8000145E8BE00E945C0A882331F08CE0C8025C
:102D9000C0011124182F135E81E10E945C0A882370
:102DA00031F08CE0C802C0011124182F125E8CE0B3
:102DB0000E945C0A882331F08CE0C802C001112413
:102DC000182F115E82E10E945C0A882331F08CE0AA
:102DD000C802C0011124182F105E8DE00E945C0A09
:102DE000882331F08CE0C802C0011124182F1F5D28
:102DF00080E10E945C0A882331F08CE0C802C001A7
:102E00001124182F1E5D83E10E945C0A882331F093
:102E10008CE0C802C0011124182F1D5D202F33271C
:102E2000F901ED58FC4F80818F3F11F41F3319F4E5
:102E30008081807C182BE901CD58DC4F88811817E0
:102E4000F9F080916B03882331F080E00E94230F1A
:102E500081E00E942D07188380916B03882381F005
:102E6000812F82958695869583708170912F991F09
:102E70009927991F482F692F812F8F730E94080F60
:102E80001F3F39F0812F0E94FC0C80E00E94650BEF
:102E900005C00E94CE0C80E00E94030B88E00E94D7
:102EA0005C0A882331F483E00E945C0A882309F4D9
:102EB0009BC080916B03882309F46AC080E00E9464
:102EC000230F81E00E942D0788E00E945C0A88237E
:102ED000B1F080916E039927019640974CF4809150
:102EE0006E03E82FFF27ED58FC4F80818F3F19F4C8
:102EF00010926E0320C080916E038F5F1AC0809184
:102F00006E03882399F480916E038F30A0F4809132
:102F10006E03E82FFF27ED58FC4F80818F3F59F05B
:102F200080916E038F5F80936E03EDCF80916E036F
:102F3000815080936E030E94A60B80916E030E94C5
:102F4000B80B80916E03E82FFF27ED58FC4F80816E
:102F500080938B028F3F51F481E00E94650B82E0E9
:102F60000E94650B80E00E94030B3EC080E00E943F
:102F7000650B80918B02982F9295969596959370FC
:102F80009170282F221F2227221F492F622F25C030
:102F900088E00E945C0A882339F1C0916F03CC233A
:102FA00019F50E94D114C0936E0380916E03E82F2F
:102FB000FF27ED58FC4FE081E0938B02EF3FA1F03B
:102FC0008E2F829586958695837081709E2F991F8E
:102FD0009927991F482F692F8E2F8F730E94080FF2
:102FE00080918B020E94FC0C87E10E945C0A88237E
:102FF00009F496CD80916B03882381F080916E0354
:1030000099270196409744F480916E03E82FFF279B
:10301000ED58FC4F8FEF81830E9442156091700341
:103020008091C2020E9412157BCDDF91CF911F913A
:103030000F91FF90EF90089540E0DB01FC0190813B
:103040008C91981719F080E090E0089580818F3F6F
:1030500019F481E090E008954F5F31961196403267
:1030600070F381E090E008950895EF92FF920F933E
:103070001F93CF93FF24E090BB02809166028823C8
:1030800019F40E94F2040BC00E94F80480916602B9
:10309000813019F40E94240902C00E941D090E9477
:1030A000910B0E94650D1092A3038091A30380935E
:1030B00083038FEF8093A4038091A4038093840300
:1030C00081E00E94200C1092C40310926D031092B4
:1030D0006E0310926903109268031092C30310925A
:1030E0008002109281020E94A60B8091BB028F3059
:1030F00021F08B3011F08730D1F48091C2021AC0D8
:103100001092C4030E94EC080E94BD081092800235
:103110001092810210928702109286021092880209
:103120000E94910B0E94650D0E94390DFEC2809194
:10313000C202877080938502809384028091C202CC
:103140000E94B80B0E9469098091BB028E15C1F6DE
:1031500087E10E945C0A882329F180918202909184
:10316000830286509D40D0F4809182029091830228
:103170008E54914098F0209182023091830280E633
:103180009AEEB9010E949B1B7093830260938202A6
:1031900080918202909183020E941B05109283020B
:1031A0001092820280E00E945C0A882349F00E940B
:1031B000BC0C0E94650D82E20E94030B10928902F2
:1031C00080E00E947C0A882329F1A5ECB3E0E3E8C3
:1031D000F3E0CFE18D918193C150C7FFFBCF809188
:1031E000C4038823A1F4A3E8B3E0E3EAF3E0CFE16A
:1031F0008D918193C150C7FFFBCF80918002809356
:10320000810283E00E94650B84E00E94650B82E2EC
:103210000E94650B80E00E943C0A882361F1C0E0B7
:1032200080918902C81760F4EC2FFF27EB53FC4F05
:103230008081883028F48F5F0E94200CCF5FF0CF10
:103240000E94E60AC82F882309F44EC180918902A2
:10325000803208F049C1E82FFF27EB53FC4FC150E3
:10326000C0838F5F80938902E82FFF27EB53FC4FC9
:103270008FEF808339C18FE00E943C0A882331F4AC
:103280008EE00E943C0A882309F46DC00E94AF0AB8
:10329000C82F8FE00E945C0A882329F48EE00E94E8
:1032A0005C0A882339F00E94BC0C0E94650D82E202
:1032B0000E94650B8FE00E943C0A882301F184E0A4
:1032C0000E94650B83E00E94030BCF3F11F0C09377
:1032D00080028091810287FD0AC00E94B30C88237E
:1032E00031F40E94650D809181020E94A80C90919A
:1032F000800280918102981761F1892F28C08EE0A9
:103300000E943C0A882329F183E00E94650B84E037
:103310000E94030BCF3F19F0CC50C09380028091E4
:103320008102181664F0845F0E94B30C882339F47C
:103330000E94650D80918102845F0E94A80C90918B
:10334000800280918102981721F0892F845F0E946A
:10335000920C8091C403882309F0C6C0809180023A
:1033600080938102C1C08FE00E947C0A882329F4E7
:103370008EE00E947C0A882321F00E94BC0C0E94EF
:10338000650D0E94CF0AC82F882331F40E94FD0AE0
:10339000882309F446C01FC00E94800CC150C0930E
:1033A0008303809183038093C5038FEF809384030D
:1033B000809184038093C6038091C403882319F508
:1033C000A3E8B3E0E3EAF3E0CFE18D918193C1504C
:1033D000C7FFFBCF18C08091BB028F3021F08B302C
:1033E00011F0873019F48091C20203C08091C202AB
:1033F0008770809384028091C403882321F4809194
:103400008402809385028091C403882351F40E9432
:10341000A60B809184020E94B80B80918002809359
:10342000810263EA73E083E893E00E941C1888231A
:10343000F9F4809184038F3F49F48091A4038F3F76
:1034400029F48091A3038F5F0E94530CC0E003E82E
:1034500013E0F8018081893008F044C0D8018D91D3
:103460008D018F5F0E94200CCF5FC03290F33AC075
:10347000C0E003EA13E0F8018081893098F580917B
:10348000C4038823E1F08091C303E82FFF27ED55A3
:10349000FC4FD8019C918081981789F48C918F5FA3
:1034A0000E945F0C8823C9F4F80180818F5F0E941D
:1034B000470CD8018C918F5F0E94530C0EC0F8010D
:1034C00080818F5F0E945F0C882311F00E94650D40
:1034D000D8018C918F5F0E94200CCF5F0F5F1F4F30
:1034E000C03248F20E9408118091C403882351F130
:1034F00080916602823089F480916702909168021F
:1035000018161906FCF480916702909168020397DF
:10351000909368028093670212C0813099F4809181
:103520007002909171021816190664F4809170026D
:1035300090917102039790937102809370020E94A0
:10354000740000CE80916602823019F40E94C70791
:10355000F82E80916602882349F481E00E945C0A7B
:10356000882321F08091C403882371F4809166023E
:10357000823021F4BCEFFB1639F02BC0813049F5C5
:103580000E940809882329F11092C40380E00E9458
:10359000230F0E94BD0880916602813011F00E94C5
:1035A000EC0881E20E94650B0E94650D0E94A60B4B
:1035B0008091BB028F3021F08B3011F0873019F4ED
:1035C0008091C20203C08091C20287700E94B80B32
:1035D00068C080916602882349F481E00E945C0AF9
:1035E000882321F08091C403882389F080916602AA
:1035F000823029F48F2D8A5F823048F052C08130AA
:1036000009F04FC00E94F308882309F44AC081E200
:103610000E94030B8091BB028F3021F08B3011F0A0
:10362000873039F46091A3038091C2020E94E214B2
:1036300011C08091C2026091A30387700E94211182
:1036400080914603909147039093690380936803A8
:103650000E94951010928B0280916602823019F4BC
:10366000EBEFFE1631F01092C30310926E0310922E
:103670006D03109265021092680210926702109218
:103680007102109271021092700281E08093C40363
:103690008AEF0E940E0880916602813011F00E942C
:1036A000C80886E10E945C0A882389F090E0809136
:1036B0008702882309F491E090938702992321F0EF
:1036C00082E00E94030B03C082E00E94650B85E14B
:1036D0000E945C0A882389F090E080918802882308
:1036E00009F491E090938802992321F081E00E94EF
:1036F000030B03C081E00E94650B84E10E945C0A19
:10370000882309F41FCD90E080918602882309F474
:1037100091E090938602992321F088E00E94030BA8
:1037200011CD88E00E94650B0DCDCF911F910F91B7
:10373000FF90EF900895AA1BBB1B51E107C0AA1F81
:10374000BB1FA617B70710F0A61BB70B881F991F42
:103750005A95A9F780959095BC01CD010895A1E2F5
:103760001A2EAA1BBB1BFD010DC0AA1FBB1FEE1FFB
:10377000FF1FA217B307E407F50720F0A21BB30B46
:10378000E40BF50B661F771F881F991F1A9469F7C2
:1037900060957095809590959B01AC01BD01CF011E
:0237A00008958A
:1037A20064207F04050607111210130409050A0696
:1037B200070B110C120D1013201B191C1A180F0CD9
:1037C2000E0B0D0A0920191A180C0B0A09222125C1
:1037D2002320191A18241B1C0F0E0D04030A0C0BAC
:1037E200090801020026271D1E1F101211131415AD
:1037F200161705060700070E091C1B1215383F365F
:103802003124232A2D70777E796C6B6265484F468E
:103812004154535A5DE0E7EEE9FCFBF2F5D8DFD6FE
:10382200D1C4C3CACD90979E998C8B8285A8AFA62E
:10383200A1B4B3BABDC7C0C9CEDBDCD5D2FFF8F1A3
:10384200F6E3E4EDEAB7B0B9BEABACA5A28F8881CE
:103852008693949D9A2720292E3B3C35321F1811BE
:103862001603040D0A5750595E4B4C45426F68616E
:103872006673747D7A898E878095929B9CB1B6BF60
:10388200B8ADAAA3A4F9FEF7F0E5E2EBECC1C6CF0E
:10389200C8DDDAD3D4696E676075727B7C51565F7E
:1038A200584D4A4344191E171005020B0C21262FAE
:1038B200283D3A33344E49404752555C5B76717825
:1038C2007F6A6D64633E39303722252C2B0601084E
:1038D2000F1A1D1413AEA9A0A7B2B5BCBB9691983E
:1038E2009F8A8D8483DED9D0D7C2C5CCCBE6E1E8EE
:1038F200EFFAFDF4F3010409050A06070B110C1295
:043902000D10130091
:00000001FF
