:100000000C9438000C9453000C9453000C9453003F
:100010000C94EB040C9453000C9453000C94530078
:100020000C9453000C941F040C9453000C94530034
:100030000C9453000C9453000C9453000C945300F4
:100040000C9453040C9453000C9453000C94C30769
:100050000C94B60E0C9453000C9453000C94530063
:100060000C9453000C9453000C9453000C945300C4
:1000700011241FBECFEFD4E0DEBFCDBF12E0A0E061
:10008000B1E0EEE6FAE302C005900D92A436B107A6
:10009000D9F713E0A4E6B2E001C01D92A93EB10772
:1000A000E1F70C941D070C94000090919402292F05
:1000B000221F2227221F892F82958695869583707D
:1000C0002827892F82958F702827892F86958695D6
:1000D00028272170892F9927880F991F282B209373
:1000E0009402822F99270895FF920F931F93F894FB
:1000F000809167028150823020F18091BF0284306C
:1001000001F180917202863010F01092720280919B
:10011000720280FF02C0949804C0949A88EF0E94F3
:100120008E0880917202882339F0809172028F5F6D
:100130008093720278947FC3809172028F5F809364
:1001400072028091660280FF18C28091BF029927D7
:100150008830910561F18930910594F483309105DF
:1001600009F48EC0843091051CF4019741F142C31B
:100170008530910509F449C1079709F4A5C03AC330
:100180008C30910509F47CC08D30910544F48930A0
:10019000910509F43AC10B9709F496C02BC38D3031
:1001A000910509F432C10F9709F48EC023C380E092
:1001B0000E94FF0F80918F020E9442091BC3809111
:1001C0007503882321F480916A03882361F090915C
:1001D0008F029F3F41F0991F9927991F80918B02B1
:1001E000892B0E94FF0F80916A03882309F402C3C0
:1001F00080917203803150F480917203E82FFF27C1
:10020000E958FC4F80818F3F09F0F4C210927203CD
:10021000809171038F5F80937103809171038031AE
:1002200068F480917103E82FFF27EE0FFF1FE65B54
:10023000FC4F808191818F5F9F4F11F41092710369
:1002400080917103E82FFF27EE0FFF1FE65BFC4F45
:100250008081918190936D0380936C0380916C03F6
:1002600090916D038F5F9F4F21F48FEF8093770301
:10027000C1C20E947411809384020E94450CBAC2CC
:1002800080917503882309F4B5C280918F028F3F56
:1002900029F0881F8827881F0E94FF0F8091720312
:1002A0008F5F8093720380917203803150F480914C
:1002B0007203E82FFF27E958FC4F80818F3F09F038
:1002C00099C21092720396C28091C803882309F4E0
:1002D00091C280918F028F3F09F1881F8827881F64
:1002E000992720918B023327822B932B892B21F086
:1002F00081E00E94FF0F12C080E00E94FF0F20915A
:100300008F02822F99278F739070892B21F0809113
:100310008402820F01C0822F0E944209409165022F
:100320004F3FC9F0842F881F8827881F9927209165
:100330008B023327822B932B892B69F0842F9927EB
:100340008F739070892B21F080918402840F01C0FB
:10035000842F0E94420980917203803150F4809171
:100360007203E82FFF27E958FC4F80818F3F09F087
:1003700041C2109272038091C7038F5F8093C703BD
:100380008091C703803248F48091C703E82FFF278C
:10039000E955FC4F80818F3F11F41092C70367EA43
:1003A00073E087E893E00E948219882331F09091EE
:1003B0008902809188029817A1F0A7E8B3E0E7EAE4
:1003C000F3E09FE18D918193915097FFFBCF1092C5
:1003D000C70310928402109283020E945B0D0E9458
:1003E000360E8091880280938902809183028093E7
:1003F00084028091C703E82FFF27E955FC4F6081F5
:10040000809189020E94AA15F5C18091C8038823B2
:1004100009F4F0C180918F028F3F41F1881F882736
:10042000881F992720918B023327822B932B892BAE
:1004300021F081E00E94FF0F19C080E00E94FF0FB1
:1004400020918F02822F99278F739070892B59F0FA
:1004500010918402120F80916C0390916D030E94A1
:100460005F11810F01C0822F0E94420980917203A7
:10047000803150F480917203E82FFF27E958FC4F38
:1004800080818F3F09F0B6C1109272038091710391
:100490008F5F8093710380917103803170F480913C
:1004A0007103E82FFF27EE0FFF1FE65BFC4F8081F3
:1004B00091818F5F9F4F09F04FC01092710380911F
:1004C000C7038F5F8093C7038091C703803248F4CE
:1004D0008091C703E82FFF27E955FC4F80818F3FAC
:1004E00059F51092C70367EA73E087E893E00E942A
:1004F0008219882331F0909189028091880298179F
:1005000091F0A7E8B3E0E7EAF3E09FE18D918193F2
:10051000915097FFFBCF10928402109283020E94A9
:100520005B0D0E94360E8091880280938902809133
:1005300083028093840205C08091C7038F5F8093FC
:10054000C7038091C703E82FFF27E955FC4F60815F
:10055000809189020E94001280917103E82FFF2789
:10056000EE0FFF1FE65BFC4F8081918190936D033E
:1005700080936C030E9474113DC18091BF02992742
:100580008830910561F18930910594F483309105AB
:1005900009F492C0843091051CF4019791F12AC1AD
:1005A0008530910509F4C3C0079709F4B6C022C18C
:1005B0008C30910509F480C08D30910544F4893068
:1005C000910509F4B4C00B9709F4A7C013C18D308D
:1005D000910509F4ACC00F9709F49FC00BC180913D
:1005E0008F028093650280918E0280938F020E9419
:1005F000550080938E0280918F0240E0642F8F73AC
:10060000F3C080917503882329F480916A038823BD
:1006100009F4F0C080917503882379F0809172030A
:10062000803148F480917203E82FFF27E958FC4F8E
:1006300080818F3F11F41092720360918F0260935A
:10064000650280917203E82FFF27E958FC4F8F5F06
:1006500080937203E081E0938F02EF3F09F4CAC0F8
:1006600080918A02882319F0E07CE0938F02209128
:100670008F02822F99278F739070422F4295469553
:1006800046954370661F6627661F2F73892B59F0A6
:10069000417080918C02482B80918B02682B809155
:1006A0008402820F37C0417080918C02482B809168
:1006B0008B02682B822F2EC080917503882309F44A
:1006C00099C00E94450C809172030E94570C809142
:1006D0008F028093650280917203E82FFF27E9580B
:1006E000FC4F808180938F028F3F09F483C00E946A
:1006F0009B0D20918F02922F9295969596959370CF
:10070000917080916502881F8827881F492F682F64
:10071000822F8F730E94E40F6DC08091C8038823DD
:1007200031F00E94450C809172030E94570C809119
:10073000C803882309F45EC000918F02009365020C
:1007400080917203E82FFF27E958FC4F8F5F809359
:100750007203E081E0938F02EF3F09F44BC0809178
:100760008A02882319F0E07CE0938F0220918F02A7
:10077000822F99278F739070422F42954695469508
:100780004370602F661F6627661F2F73892B21F128
:1007900051E0F52EF42280918C02F82A00918B0210
:1007A000062B10918402120F80916C0390916D03BF
:1007B0000E945F114F2D602F810F0E94E40F109156
:1007C0008F0280918402180F80916C0390916D03C9
:1007D0000E945F11810F0CC0417080918C02482BE8
:1007E00080918B02682B822F0E94E40F80918F02F0
:1007F0000E941E0980916602843030F485E20E94D6
:10080000A20B0E94280E09C080916602883028F44D
:1008100085E20E94040C0E941B0E0E940A0E809129
:1008200066028F5F8093660280916602883010F0C6
:100830001092660278941F910F91FF9008951F9275
:100840000F920FB60F9211242F933F934F935F9304
:100850006F937F938F939F93AF93BF93EF93FF9388
:1008600080919502909196029093890080938800E0
:100870000E947400FF91EF91BF91AF919F918F9172
:100880007F916F915F914F913F912F910F900FBE8C
:100890000F901F90189580917D00869586959927D9
:1008A0008170907008951F920F920FB60F921124CD
:1008B0002F933F934F935F936F937F938F939F9368
:1008C000AF93BF93CF93EF93FF93809173028F3FCA
:1008D00029F0809173028F5F80937302809186026A
:1008E000909187028F5F9F4F49F08091860290918F
:1008F00087020196909387028093860280917F02FF
:10090000909180028F5F9F4F49F080917F0290917C
:10091000800201969093800280937F028091700202
:1009200090917102892B81F08091700290917102F7
:100930000197909371028093700280917002909160
:100940007102892B09F49498809167028130C1F477
:10095000C0B3C295CF70C17080916D02882371F4CD
:10096000CC2361F080917102909172020196909374
:1009700072028093710288EF0E948E08C0936D020C
:100980000E944B04982F8823A1F480916402883C34
:1009900029F4909364020E94280E06C0809164029C
:1009A000843611F40E941B0E809164028F5F809345
:1009B0006402FF91EF91CF91BF91AF919F918F9181
:1009C0007F916F915F914F913F912F910F900FBE4B
:1009D0000F901F9018951F920F920FB60F9211242F
:1009E0002F933F938F939F9329B323708091970206
:1009F000281791F1833041F4223099F480919202CA
:100A000090919302019709C0823059F4233049F440
:100A10008091920290919302019690939302809319
:100A2000920280919202909193028D52914030F007
:100A30008CE291E0909393028093920280919202D3
:100A400090919302449730F484E190E09093930264
:100A500080939202209397029F918F913F912F91C3
:100A60000F900FBE0F901F90189589B7816089BFB6
:100A70008BE083BF8AEF81BF089580917D00846001
:100A800080937D00089585E20E94040C80917D0092
:100A90008B7F80937D00089589B7816089BF8BE04B
:100AA00087BD82E382BD0895E199FECF9FBB8EBBD7
:100AB000E09A8DB399270895E199FECF9FBB8EBB35
:100AC0006DBBF894E29AE19A789408950F931F937E
:100AD000CF93DF938C0181E00D32180710F00CE208
:100AE00011E00431110510F404E110E010939102BB
:100AF000009390021093930200939202812F992702
:100B0000682F85E090E00E945C056091900286E08D
:100B100090E00E945C0580919002909191020E9469
:100B2000770EC0E0D0E7E8E3F9E3980144275527C2
:100B3000BE01CF010E94151DFA01E90193E0F6956F
:100B4000E795D795C7959A95D1F7BE01CF0126E0D5
:100B500030E040E050E00E94151DFA01E901CA01B1
:100B6000AA27BB279C01009731F4D0939602C0932B
:100B7000950281E061C0887F892B69F403E0F695D6
:100B8000E795D795C7950A95D1F7D0939602C0936C
:100B9000950282E051C0C901807F892B69F414E07D
:100BA000F695E795D795C7951A95D1F7D093960204
:100BB000C093950286E040C0C901807E892B69F40C
:100BC000B5E0F695E795D795C795BA95D1F7D09347
:100BD0009602C093950287E02FC0C901807C892BC3
:100BE00069F4A6E0F695E795D795C795AA95D1F74C
:100BF000D0939602C093950283E01EC0C901807015
:100C0000892B51F48D2F9E2FAF2FBB2790939602E7
:100C10008093950284E010C020703C7F232B79F4F0
:100C20006AE0F695E795D795C7956A95D1F7D09381
:100C30009602C093950285E080938A0002C01092CC
:100C40008A008091950290919602909581959F4F90
:100C500090939602809395029093890080938800E8
:100C6000DF91CF911F910F9108950F931F93809162
:100C70006B00816080936B0080916B008260809339
:100C80006B008BB788608BBF85E090E00E945405B5
:100C90009927182F002786E090E00E945405992795
:100CA000802B912B0E9466051092660280917D0038
:100CB000846080937D001F910F910895159BFECF56
:100CC00083B980E090E00895CF93DF93EC018881B1
:100CD000882331F089910E945E0688818823D1F7AC
:100CE000DF91CF9108950F931F93CF93DF93EC0182
:100CF00000E117E2CE01B8010E94011D61157105E6
:100D000081F0862F805D0E945E06CE01B8010E94B0
:100D1000011DEC01C8016AE070E00E94011D8B0119
:100D20000EC0CE01B8010E94011DEC01C8016AE0AD
:100D300070E00E94011D8B016A307105D8F6011523
:100D40001105A9F0CE01B8010E94011DCB01805D03
:100D50000E945E06CE01B8010E94011DEC01C8018F
:100D60006AE070E00E94011D8B01672B59F7DF914B
:100D7000CF911F910F9108958F708A3010F4805D8C
:100D800001C0895C0E945E0608950895CF93DF93A9
:100D9000EC01892F992782958F70009711F00E949E
:100DA000BC068D2F9927009711F00E94BC06CE013A
:100DB00044E0969587954A95E1F7009711F00E94D7
:100DC000BC068C2F0E94BC06DF91CF91089582B1A2
:100DD000992787FD90958827990F881F992708954F
:100DE000179BFECF83B19927089523E330E081B1AB
:100DF000886181B920B91CBE05C00E94F0068AE056
:100E00000E94A5070E94E706AC01892BB1F70F9A53
:100E10002FE130E08AB188698AB929B940BD80ECF8
:100E20008ABB8CE38BBB8BEB87BB18BA8FEF84BB81
:100E300081BB86B981E58DB90895CFEFD4E0DEBFDF
:100E4000CDBF0E94F5060E9435060E9435058091AF
:100E50009002809394020E94BC090E941508789425
:100E60000E94080A8091BF0299278830910509F4F1
:100E700052C089309105CCF48330910579F18430EA
:100E8000910554F48130910561F1823091050CF0A7
:100E900057C0892BB1F1E4CF8530910551F18530F0
:100EA0009105A4F1079729F1DBCF8C30910509F466
:100EB00041C08D30910524F40A9709F441C01BC04C
:100EC0008E30910531F08E30910584F00F9771F0DE
:100ED000C7CF109267020E94D90FC2CF109267024B
:100EE0002CC0109267020E946D12BACF1092670256
:100EF00005C081E001C082E0809367020E949B19D7
:100F0000AFCF109267020E94A008AACF109267028A
:100F10000E940610A5CF109267020E943D050E9414
:100F2000300C0E94080A8091BF028830D1F30E94E1
:100F3000430596CF82E0809367020E945D1690CFB2
:100F40000E94300C0E940A0E8BCF20EA3FE0E22F75
:100F5000F32F3197F1F78A95D1F70895CF93C82FE2
:100F6000C150CF3F71F08AEF0E94A5078AEF0E941F
:100F7000A5078AEF0E94A5078AEF0E94A507C15026
:100F800090F7CF9108951F920F920FB60F921124F0
:100F90008F939F93EF93FF939CB1983FB1F480910F
:100FA0006702813021F0949A85E0809370028091ED
:100FB000C803882349F180916802909169020196E3
:100FC00090936902809368021FC080916B02E82FA2
:100FD000FF27E756FD4F90838F5F80936B028091D0
:100FE0006B028F7180936B0290916B0280916C0207
:100FF000981751F480916C028F5F80936C028091FE
:101000006C028F7180936C02FF91EF919F918F9191
:101010000F900FBE0F901F90189599270E945405AE
:10102000803108F08FE09927089583E00E940D0831
:101030008093B90284E00E940D088093980208957D
:1010400090916C0280916B02981719F081E090E00A
:10105000089580E090E00895089590916C02809149
:101060006B029817D1F3F89480916C02E82FFF2758
:10107000E756FD4F8F5F80936C02908180916C02E8
:101080008F7180936C027894892F992708950E941C
:101090002008892BC1F00E942D0887FF14C0682FFB
:1010A00062956F70482F55276F3059F09A012F7055
:1010B00030708091B90299272817390721F460937D
:1010C0006A02CA01089580E090E008950895909121
:1010D0006502891731F480E00E94FF0F8FEF809343
:1010E000650208950895CF93C82F962F60E0992345
:1010F00019F40E94670810C0809165028F3F09F0C3
:1011000061E08C2F8951953610F041E001C040E03C
:101110000E94E40FC0936502CF9108955D9BFECFBE
:101120008CB980E090E0089580919802806B0E94D5
:101130008E088BE70E948E0880E00E948E0808953A
:101140001F93CF930E9443050E94450C8091B902E2
:101150000E94570C0E94080A84E60E94A5070E947C
:10116000080A84E60E94A5070E94080A1091C60298
:101170008FEF809365020E94080AC091BF02CC23C2
:1011800019F00E94940857C06091C602161771F0BA
:101190006093B90283E090E00E945C050E94450CD8
:1011A0008091B9020E94570C1091C6020E9420083B
:1011B000892B09F30E942D08482F582F551F5527BA
:1011C000551FA1F0682F62956F706F3049F0992715
:1011D0008F7090702091B90233278217930719F40A
:1011E00060936A0203C0C0936A02C5CF80916A020D
:1011F00099278830910589F0099709F0BCCF5523CC
:1012000021F00E942D08C82F01C0C42F0E942D0874
:10121000682F8C2F0E947308AECF552321F00E94B7
:101220002D08C82F01C0C42F0E942D08682F8C2FB5
:101230000E946708A0CFCF911F910895CF93C82F28
:101240008091980280690E948E088C2F99278F7355
:101250009070892B11F480E003C08C2F8F73875E10
:101260000E948E088C2F829586958695837080FFCC
:1012700003C08091020102C0809100010E948E088B
:10128000CF910895CF93C82F8091980280680E94D3
:101290008E088C2F99278F739070892B11F480E022
:1012A00003C0CF738C2F875E0E948E08809101014E
:1012B0000E948E08CF91089580916702823029F0B4
:1012C0008CEF0E948E080E94940808950895CF9391
:1012D0000E944B04C82F809167028130D1F0CC234B
:1012E00011F00E9443059498979A85E00E94A50703
:1012F00080919502909196020A979093890080932D
:1013000088001092720210926602CC2311F00E94A3
:101310003D05CF91089580916702813009F097983B
:101320000895089590B3991F9927991F80916F028E
:10133000882339F4992329F090936F0281E090E09B
:10134000089590936F0280E090E00895089590B31F
:10135000991F9927991F80916E02882339F099234C
:1013600029F490936E0281E090E0089590936E02CC
:1013700080E090E00895089581B3806F81BB82B3CF
:101380008F7082BB08958FE091B3982391BB92B385
:10139000982392BB0895DE980895AC01F894C09804
:1013A0000000000000000000C09A20E01FB8779BFA
:1013B000FECFFA01E20FF11D8FB180832F5F233042
:1013C000A8F37894089599B3969596959F70292FD0
:1013D000269526952695892F86958270282B892F0C
:1013E0009927880F991F382F3470232B880F991F46
:1013F000880F991F8870282B8FE0821B99270895EA
:10140000DE9A089589B3869586958F7099270895F9
:10141000AF92BF92CF92DF92EF92FF920F931F9302
:10142000CF93DF93CDB7DEB726970FB6F894DEBF24
:101430000FBECDBF20919202309193028091900215
:10144000909191022817390731F080919202909182
:1014500093020E946605A3ECB2E0ECEBF2E042E0FE
:1014600011921D92415047FFFBCF8091730284314E
:1014700008F490C0109273020E94CB09CE0101962D
:101480000E94CD098091C0028C838091C1028D831E
:101490008091C2028E8340E001E010E06E01C00E38
:1014A000D11E842F869586958695A82FBB27BD01D2
:1014B00060547D4F842F8770980102C0220F331F24
:1014C0008A95E2F7C901FB013081232F2823FD0112
:1014D000E953FD4FE081E823AC0DBD1DAC91A8237D
:1014E0004F5F8095222331F03823EA2B3E2BDB011E
:1014F0003C9305C03823EA233E2BFB01308348315F
:1015000080F20E94E309482F8091C602481749F0F3
:101510008091BB02481729F44093C60281E0809372
:1015200074024093BB020E94000A63ECE62E62E064
:10153000F62E0CEB12E060EC72E057ECA52E52E0B8
:10154000B52EF60142E08081D5018D935D012381A6
:10155000DB018D91BD01922F98278923D8018D93AE
:101560008D019223D7019D937D014150319647FF14
:10157000EACF0E94020A482F8091BF02481731F03B
:101580008091BA02481711F44093BF024093BA0207
:101590000E940A0E26960FB6F894DEBF0FBECDBF8E
:1015A000DF91CF911F910F91FF90EF90DF90CF903F
:1015B000BF90AF900895282F883118F080E090E018
:1015C0000895869586958695E82FFF27E054FD4F70
:1015D00080819927277002C0959587952A95E2F713
:1015E0009C012170307080FF03C081E090E008957D
:1015F000C90108950895282F883118F080E090E0FF
:101600000895869586958695E82FFF27E454FD4F2B
:1016100080819927277002C0959587952A95E2F7D2
:101620009C012170307080FF03C081E090E008953C
:10163000C90108950895282F883118F080E090E0BE
:101640000895869586958695E82FFF27ED53FD4FE3
:1016500080819927277002C0959587952A95E2F792
:101660009C012170307080FF03C081E090E00895FC
:10167000C901089508958091C002882359F480918A
:10168000C102882339F48091C202882319F481E0D1
:1016900090E0089580E090E008950895FF920F9300
:1016A0001F93CF93DF93FF2400E010E0CBE0D1E065
:1016B00088810E94DB0A882311F0C80109C0F394D5
:1016C00021960F5F1F4F8CE08F1594F78FEF9FEFE0
:1016D000DF91CF911F910F91FF900895CF93C0E0BC
:1016E000EC2FFF27ED5FFE4F80810E94DB0AEC2F7D
:1016F000EF5F882319F08E2F992705C0CE2FE83091
:1017000078F380E090E0CF910895CF93C0E0EC2F84
:10171000FF27ED5FFE4F80810E94FB0AEC2FEF5FF9
:10172000882319F08E2F992705C0CE2FE83078F343
:1017300080E090E0CF91089580917402109274023D
:1017400099270895282F883290F486958695869556
:10175000E82FFF27E658FD4F277081E090E002C098
:10176000880F991F2A95E2F72081282B208308955E
:101770000895282F883290F4869586958695E82FCF
:10178000FF27EB58FD4F277081E090E002C0880FE3
:10179000991F2A95E2F72081282B20830895089528
:1017A000282F8832A0F4869586958695E82FFF2706
:1017B000EB58FD4F277081E090E002C0880F991F21
:1017C0002A95E2F7982F9095808189238083089548
:1017D0000895282F883218F080E090E008958695CB
:1017E00086958695E82FFF27EB58FD4F277081E0FF
:1017F00090E002C0880F991F2A95E2F720812823E4
:10180000822F992708950895282F8832A0F486956D
:1018100086958695E82FFF27E658FD4F277081E0D3
:1018200090E002C0880F991F2A95E2F7982F9095B3
:1018300080818923808308950895282F8695869531
:101840008695EAE7F2E0E80FF11D8081992727707D
:1018500002C0959587952A95E2F78170907008955A
:1018600010927E0210927D0210927C0210927B02F6
:1018700010927A02109279021092780210927702F6
:10188000109276021092750208950F931F93CF93D2
:1018900005E411E0CFE0F80181918F010E94040C72
:1018A000C150C7FFF8CFCF911F910F91089580319C
:1018B00038F4E82FFF27EB5BFE4F80810E94A20BDC
:1018C00008950895803138F4E82FFF27EB5BFE4F31
:1018D00080810E94B90B08950895803118F020E0AE
:1018E00030E009C0E82FFF27EB5BFE4F80810E94AC
:1018F0001D0C282F3327C9010895803118F080E08E
:1019000090E00895E82FFF27EB5BFE4F80810E9457
:10191000E90B992708950895883138F4E82FFF27B7
:10192000E35DFE4F80810E94A20B089508958831E7
:1019300038F4E82FFF27E35DFE4F80810E94B90B4A
:1019400008950895883138F4E82FFF27E35DFE4FAE
:1019500080810E94040C089508950F931F93CF93E4
:101960000DE211E0C7E1F80181918F010E94040CA2
:10197000C150C7FFF8CFCF911F910F910895E82F65
:101980008150883030F4FF27EC5DFE4F80810E944B
:10199000A20B089508951F93CF93182F81E0E82F8D
:1019A000FF27C82FCF5F811731F4EC5DFE4F808198
:1019B0000E94A20B05C0EC5DFE4F80810E94040CCA
:1019C0008C2FC93060F3CF911F910895E82F81507B
:1019D000883030F4FF27EC5DFE4F80810E94040CBC
:1019E00008950895E82F8150883030F4FF27EC5D8A
:1019F000FE4F80810E94B90B08950895E82F815011
:101A0000883040F4FF27EC5DFE4F80810E94E90B97
:101A10009927089580E090E008950895E82F815077
:101A2000883048F4FF27EC5DFE4F80810E941D0C3A
:101A3000282F332702C020E030E0C90108950F931A
:101A40001F93CF9305E211E0C7E0F80181918F0168
:101A50000E94040CC150C7FFF8CFCF911F910F9186
:101A600008958D3038F4E82FFF27E85EFE4F80811F
:101A70000E94A20B089508958D3038F4E82FFF27B7
:101A8000E85EFE4F80810E94040C089508958D3019
:101A900038F4E82FFF27E85EFE4F80810E94B90BE3
:101AA00008950895E8E1F1E0E80FF11D80810E94BA
:101AB000E90B992708950F931F93CF9308E111E045
:101AC000CCE0F80181918F010E94040CC150C7FF46
:101AD000F8CFCF911F910F9108950E945B0D84E084
:101AE0000E94040C83E00E94040C88E00E94040C15
:101AF00081E00E94040C82E00E94040C0895CF93C0
:101B0000C82F84E00E94040CC23021F483E00E94BC
:101B1000B90B0FC083E00E94040C83E00E94D00B3D
:101B2000C13011F483E003C0CF3F19F484E00E9478
:101B3000A20BCF910895CF92DF92EF92FF920F9375
:101B40001F93CF93DF93182F87FF04C086E10E9475
:101B50008C0C03C086E10E94A20C812F8295869591
:101B60008695837080FF04C085E10E948C0C03C0C1
:101B700085E10E94A20C1F7311F4012F15C01731CB
:101B800010F40FEF11C0143218F41C5000E00CC018
:101B9000103318F4185101E007C01C3318F4145224
:101BA00002E002C003E01053802F0E947F0D11233A
:101BB00031F40E945B0D84E10E948C0C22C084E110
:101BC0000E94A20C98E1C92E91E0D92E8BE0E82E5C
:101BD000F12C0CE0C12FDD27EC16FD0621F0F601FB
:101BE00080810E94040C01500894E11CF11C0894AF
:101BF000C11CD11C07FFEECFC35FDE4F88810E945E
:101C0000A20BDF91CF911F910F91FF90EF90DF908A
:101C1000CF900895F894DF98EAE7F2E080818FB9D9
:101C2000779BFECF319682E0EE37F807B9F3B4F335
:101C3000DF9A78940895A5E7B2E0EAE7F2E024E0BD
:101C400080819D91892B8193215027FFF9CF0895A1
:101C5000A5E7B2E0EAE7F2E024E09D91909580816B
:101C600089238193215027FFF8CF0895A5E7B2E09B
:101C7000EAE7F2E034E020819C91822F892319F079
:101C80009095292320831D923150319637FFF3CF51
:101C90000895AC0120E0322F6115710581F0FA0141
:101CA000E30FF11D80812827E22FFF27EB5AFE4F1B
:101CB00020813F5F832F99278617970780F3822F14
:101CC000992708950F931F93CF93DF9361157105A3
:101CD00049F08C01EB01F80181918F010E945E06B1
:101CE0002197C9F7DF91CF911F910F9108950F931D
:101CF0001F939C010AEC12E082E48093CA021092C6
:101D0000CB0282E08093CC02832F99278093CD026F
:101D10002093CE0265E070E0C8010E94490E8093D6
:101D2000CF0266E070E0C8010E94620E1F910F9121
:101D300008950F931F930AEC12E090E89093CA0263
:101D40001092CB0291E09093CC028093CD0264E09C
:101D500070E0C8010E94490E8093CE0265E070E0F9
:101D6000C8010E94620E1F910F9108951F920F9259
:101D70000FB60F921124EF92FF921F932F933F9370
:101D80004F935F936F937F938F939F93AF93BF9383
:101D9000CF93DF93EF93FF93C3B1809155028823D4
:101DA00009F4F1C080917F0290918002895E934096
:101DB00030F00E94450C0E940A0E1092820280911F
:101DC0008202803448F4E82FFF27E65FFC4FC0838F
:101DD0008F5F8093820204C00E94990E109282024B
:101DE0001092800210927F0220918202233008F428
:101DF000CAC0F0900A0380910B03682F7727762FD3
:101E0000662780910C039927682B792B3327CB0108
:101E100004962817390708F4B6C0FB01E65FFC4FAB
:101E20001381EB012396BE018AE093E00E94490EE4
:101E3000181771F0BE018AE093E00E94490E9927BD
:101E40000E94C6061092820280E00E94990E9BC0FA
:101E50008F2D99278131910551F18231910544F4FB
:101E60008130910509F488C0409709F460C086C0AC
:101E70008034910521F08134910541F07FC080913B
:101E80009002909191020E94770E7BC080910C038A
:101E9000823009F073C080910D039927982F88270D
:101EA00020910E03820F911D0E9466056AC08091E9
:101EB0000C03823009F062C080910D0390910E03F3
:101EC000C82FDD2763E0CC0FDD1F6A95E1F7C90F4E
:101ED000D11D89E18093CA021092CB0280E18093E8
:101EE000CC020F2EFDECEF2EF2E0FF2EF02DC2956E
:101EF000D295D07FDC27C07FDC271FE0CE010E9477
:101F00001C11F70181937F011150219617FFF6CF25
:101F100063E170E08AEC92E00E94490E8093DD025A
:101F200064E170E08AEC92E00E94620E2AC0809127
:101F30000C03823119F580910D0390910E03C82F87
:101F4000DD2733E0CC0FDD1F3A95E1F7C90FD11D36
:101F50002FE0E22E23E0F22E94E0CC0FDD1F9A95C5
:101F6000E1F71FE0BE01F70181917F010E94DD10C2
:101F70001150219617FFF6CF81E001C080E00E944A
:101F8000990E10928202FF91EF91DF91CF91BF9154
:101F9000AF919F918F917F916F915F914F913F9101
:101FA0002F911F91FF90EF900F900FBE0F901F90F9
:101FB00018950E94080A8091BF028E30D1F30E94CA
:101FC000300C0E940A0E089590E03A98803408F090
:101FD0008FE3611160E4442311F440E801C0492F0C
:101FE000882349F0862B842B85BB3A9A9F5F9832D1
:101FF000E8F3399A0895642B65BB08950895882302
:1020000011F0AE9A01C039983A9808957F928F9254
:102010009F92AF92BF92CF92DF92EF92FF920F9377
:102020001F93CF93CC24DD247724072D0E944305F2
:102030000E94450C0E94080A0E949C0B5601460112
:102040000E94080A8091BF02843019F00E9494080F
:10205000A7C0809198020E946D0C882331F40E94E1
:10206000450C809198020E94570C0E949C0B88237B
:1020700049F08091C60280939802682F84E090E036
:102080000E945C058C2D0E947F0DC0E066E5E62E67
:1020900062E0F62EF70180810E94FB0A8823B9F0E6
:1020A0001C2F180D195E402F672D812F0E94E40F01
:1020B000802F992756E0880F991F5A95E1F7812BB9
:1020C0000E941E0941E0742E8C2F0E94310DF701F1
:1020D00080810E941B0B882381F02C2F2A0D295E02
:1020E000802F992736E0880F991F3A95E1F7822BC8
:1020F0000E9442098C2F0E943C0DCF5F0894E11C86
:10210000F11CCD3038F28FE00E94FB0A882371F079
:10211000F2E0CF16D104F4F40894C11CD11C8CE079
:1021200090E0880E991EA80EB91E14C08EE00E9481
:10213000FB0A882379F09FEFC9169FEFD90651F06B
:102140004CF00894C108D108E4EFFFEF8E0E9F1EFB
:10215000AE0EBF1E85E10E94FB0A882371F080E06D
:10216000002309F481E0082F882321F081E00E94F8
:10217000A20B03C081E00E94040C83B399278F73E4
:102180009070892B09F45CCF0E943B0B882309F4E3
:1021900057CF80E00E94FF0F77240E945B0D50CF45
:1021A000CF911F910F91FF90EF90DF90CF90BF9054
:1021B000AF909F908F907F900895282FF89495E08E
:1021C000C09800000000000000009FB9779BFECF80
:1021D00000000000000000001FB8779BFECF8FB109
:1021E000C09A000000000000000080FDE9CFC09808
:1021F0000000000086E08FB9779BFECF0000000052
:10220000C09A0000000000000000C098000000001C
:1022100082E08FB9779BFECF872F99278FB9779B65
:10222000FECF6FB9779BFECF2FB9779BFECF000013
:102230000000C09A789408959C01F894C09800001A
:10224000000083E08FB9779BFECF832F99278FB94A
:10225000779BFECF2FB9779BFECF000000001FB801
:10226000779BFECF8FB1C09A7894992708951092EA
:102270006E031092750310926A0380E00E94FF0FB4
:102280000E94300C0E94360E0E949C0B0895109202
:102290006F0384E20E94040C0E94300C0E94360EF0
:1022A0001092750380E00E94FF0F089581E08093F3
:1022B0006F0384E20E94A20B0E94450C0895892FAF
:1022C0009927282F2F71822F992787FD909534E029
:1022D000969587953A95E1F7892B09F0206E822F24
:1022E000992787FD9095089520916C032770809120
:1022F0006C0390916D03F3E096958795FA95E1F75D
:10230000622F8F700E94AA1560916C0370916D030B
:102310009B0144275527DA01C90180709078A0708D
:10232000B070892F9A2FAB2FBB2780938A02DA01D6
:10233000C90180709074A070B070892F9A2FAB2F54
:10234000BB2780938C022070307240705070BB2786
:10235000A52F942F832F80938B0210927203CB01B1
:102360000E945F119927089581E080936E0381E2B6
:102370000E94A20B10928C0280918C0280938B029F
:1023800080918B0280938A0210926A0310927503E7
:1023900080914A0390914B0390936D0380936C035B
:1023A0008F5F9F4F89F01092710310927203109209
:1023B0008F020E947411809384028091660280FDD6
:1023C000FCCF81E080936A030E94450C08958091C0
:1023D0008402882321F483E00E94040C0CC087FF50
:1023E00007C083E00E94040C84E00E94A20B0895C1
:1023F00083E00E94A20B84E00E94040C08950895DB
:10240000FF920F931F93CF93DF93C82FDD2703E035
:10241000CC0FDD1F0A95E1F7C60FD11D15E0CC0FDB
:10242000DD1F1A95E1F7BFE0FB2EC050D84F0AE43C
:1024300013E0CE010E941C119927982F8827F801DC
:1024400080839183CE0101960E941C11282F33278F
:10245000F80180819181822B932B819391938F013D
:10246000FA942296F7FEE5CFDF91CF911F910F915D
:10247000FF900895FF920F931F93CF93DF93C82F80
:10248000DD2753E0CC0FDD1F5A95E1F7C60FD11DB4
:1024900045E0CC0FDD1F4A95E1F73FE0F32E0AE45B
:1024A00013E0C050D84FF80180819181892F99277E
:1024B000BE010E94DD102196F801819191918F015A
:1024C000BE010E94DD10FA942196F7FEECCFDF9159
:1024D000CF911F910F91FF9008951F93CF93DF939A
:1024E0000E943D058091C602877080936B03109215
:1024F000700310926F0310926E0310926A03109291
:102500007503109271038FEF9FEF90936D0380938B
:102510006C03109267020E94450C0E94360E0E94C6
:10252000080A8091BF02813071F00E944305109229
:10253000750310926A0380E00E94FF0F0E94300C26
:102540000E940A0EF4C280916F03882361F5809186
:102550006E03882341F50E949C0B882359F08091DB
:10256000C602877080936B03609170030E94001213
:102570000E94450C80916B030E94570C0E946E0BC9
:10258000C82F882359F00E945B0D8C2F81508093B7
:102590007003682F80916B030E940012809170037A
:1025A0008F5F0E94BF0C81E00E94FB0A882379F0B4
:1025B00080916E03882319F00E94371108C0809122
:1025C0006F03882311F00E9447110E94B41180917B
:1025D0006E03882329F480916F03882309F463C074
:1025E000809171030E947D0C882311F40E94360EA5
:1025F000809171030E94620C80916C0390916D0335
:102600008F5F9F4F21F40E946D0D80E046C080E0F7
:102610000E94040C80916C0390916D0343E09695A9
:1026200087954A95E1F78F700E94570C80916C0353
:1026300090916D0397FF04C088E00E94A20B03C035
:1026400088E00E94040C80916C0390916D03AA278E
:10265000BB273EE0B695A795979587953A95D1F714
:1026600081709070892B21F081E00E94A20B03C041
:1026700081E00E94040C80916C0390916D03AA2765
:10268000BB272DE0B695A795979587952A95D1F705
:1026900081709070892B21F082E00E94A20B03C010
:1026A00082E00E94040C88E00E94FB0A882331F437
:1026B00083E00E94FB0A882309F478C010916E031E
:1026C000112309F073C0812F0E94FF0FC0916F0387
:1026D000CC2309F442C088E00E94FB0A8823D1F091
:1026E000809171039927019640976CF48091710352
:1026F000E82FFF27EE0FFF1FE65BFC4F80819181E3
:102700008F5F9F4F19F41093710330C08091710354
:102710008F5F20C0809171038823C9F48091710379
:1027200099270196409714F580917103E82FFF27B0
:10273000EE0FFF1FE65BFC4F808191818F5F9F4F03
:10274000A9F0809171038F5F80937103E7CF80912F
:10275000710381508093710309C088E00E94FB0AD5
:10276000882321F00E945611C09371038091710358
:10277000E82FFF27EE0FFF1FE65BFC4F8081918162
:1027800090936D0380936C03109275038F5F9F4F3E
:1027900069F00E94741180938402109272038091F8
:1027A000660280FDFCCF81E08093750387E10E9483
:1027B000FB0A882339F180916F038823E9F0809127
:1027C000710399270196409764F480917103E82F73
:1027D000FF27EE0FFF1FE65BFC4F8FEF9FEF82831B
:1027E00093838FEF9FEF90936D0380936C030E9410
:1027F000471180E00E94040C6091700380916B038C
:102800000E943A1280916F03882309F47FC180915E
:102810006C0390916D038F5F9F4F09F40FC184E1AA
:102820000E94FB0A882311F180917103E82FFF2792
:10283000EE0FFF1FE65BFC4F8081918120E030E8C6
:1028400082279327808391838081918190936D0368
:1028500080936C03AA27BB2780709078A070B0701B
:10286000892F9A2FAB2FBB2780938A0285E10E9484
:10287000FB0A882311F180917103E82FFF27EE0FE7
:10288000FF1FE65BFC4F8081918120E030E48227CE
:102890009327808391838081918190936D038093AE
:1028A0006C03AA27BB2780709074A070B070892F2A
:1028B0009A2FAB2FBB2780938C0286E10E94FB0AE4
:1028C000882311F180917103E82FFF27EE0FFF1F7E
:1028D000E65BFC4F8081918120E030E282279327E4
:1028E000808391838081918190936D0380936C03A9
:1028F000AA27BB2780709072A070B070892F9A2F82
:10290000AB2FBB2780938B028FE00E94DB0A8823CA
:1029100031F48EE00E94DB0A882309F47DC00E9416
:102920004E0BC82FDD27C7FDD0958FE00E94FB0A14
:10293000882329F48EE00E94FB0A882351F00E942C
:10294000360E0E945B0D83E00E94040C84E00E941E
:10295000040C8FE00E94DB0A882349F183E00E9487
:10296000A20B8FEFCF3FD807C9F00E94360E2091FF
:102970006C0330916D03307E9C2F8827282B392BD8
:1029800030936D0320936C0380917103E82FFF2730
:10299000EE0FFF1FE65BFC4F2083318380916C03B9
:1029A00090916D030E945F118093840232C08EE08B
:1029B0000E94DB0A882309F441C084E00E94A20B34
:1029C0002FEFCF3FD207E1F00E94360E20916C032B
:1029D00030916D03307E2C97CF71D0709C2F88275B
:1029E000282B392B30936D0320936C038091710356
:1029F000E82FFF27EE0FFF1FE65BFC4F208331839C
:102A000080916C0390916D030E945F11809384020A
:102A1000845F0E94470D12C08FE00E941B0B882329
:102A200029F48EE00E941B0B882341F083E00E9472
:102A3000040C84E00E94040C0E94360E8FE00E9479
:102A4000DB0A882309F062C08EE00E94DB0A88233B
:102A500009F05CC00E94850BC82F882329F40E94CE
:102A60009C0B882309F447C00E941F0D0E94450C4F
:102A7000CC2359F480916C0390916D038F5F9F4F2D
:102A800029F0C0916C03C77001C0C150109275034A
:102A900080E00E94FF0F4091C602242F332763E09D
:102AA000220F331F6A95E1F78C2F9927282B392B9A
:102AB00030936D0320936C0380917103E82FFF27FF
:102AC000EE0FFF1FE65BFC4F208331836C2F842FBA
:102AD0000E94AA151092720310928B0280918B02B1
:102AE00080938C0280918C0280938A0210928402DF
:102AF00081E0809375030E94E71180916C039091AF
:102B00006D038770907001960E94CB0C80916E03CC
:102B1000882309F404CD0E94E71180916C03909101
:102B20006D038770907001960E94CB0CF8CCDF91FA
:102B3000CF911F91089581E080936F0384E20E94FA
:102B4000A20B0E94450C80E00E94570C80E00E947E
:102B5000FF0F0895EF92FF920F931F93CF93DF9390
:102B6000182F062F0E940A0EC12FDD2723E0CC0F5D
:102B7000DD1F2A95E1F7C00FD11D94E0CC0FDD1FBA
:102B80009A95E1F787E7E82E83E0F82E1FE0CE0163
:102B90000E941C11F70181937F011150219617FFAC
:102BA000F6CF1092850280E00E94D00B0E940A0EA0
:102BB000DF91CF911F910F91FF90EF900895EF92C9
:102BC000FF920F931F93CF93DF93182F062F0E942E
:102BD0000A0EC12FDD2753E0CC0FDD1F5A95E1F718
:102BE000C00FD11D47E7E42E43E0F42E34E0CC0FB4
:102BF000DD1F3A95E1F71FE0BE01F70181917F01EA
:102C00000E94DD101150219617FFF6CF0E940A0E88
:102C1000DF91CF911F910F91FF90EF900895109247
:102C2000720381E08093730381E20E94A20B80E033
:102C30000E94FF0F80916702882321F48091660231
:102C400080FDFCCF81E0809375038093C8038AEFF9
:102C50000E948E08089510926F0384E20E94040C73
:102C60001092850280E00E94040C0E94360E0E94A1
:102C7000AD0C0E94450C8091C6020E94570C80E06A
:102C80000E94FF0F0895109275030E94AD0C0E94E0
:102C9000450C0E94360E8091C6020E94570C10927D
:102CA000730381E20E94040C80E00E94FF0F1092E7
:102CB000C8038CEF0E948E080895CF92DF92EF92A6
:102CC000FF920F931F93CF93DF93C090BF02109298
:102CD000740310926F031092730310927503109295
:102CE000720310928F0280916702882399F40E94E8
:102CF0003D0514C00E9443051092750380E00E94B8
:102D0000FF0F0E948B090E945C090E94300C0E94F8
:102D10000A0EEFC20E9443050E94BC090E94080AE5
:102D20008091C60280937603609174030E94AA1575
:102D30000E94300C8091C6020E94570C0E94080A23
:102D40008091BF028C15B1F6909176038091C602F6
:102D50009817D1F080917303882311F00E944316D5
:102D600080916F03882311F00E942B168091C60278
:102D700080937603609174030E94AA150E94450C0B
:102D80008091C6020E94570C809173038823E1F45E
:102D900080916F038823C1F4809174038F5F0E9438
:102DA000BF0C0E946E0BC82F882371F00E945B0D30
:102DB0008C2F0E94BF0C8C2F815080937403682F3E
:102DC000809176030E94AA1580E00E94FB0A882366
:102DD000B1F080917303882391F082E20E94A20BEC
:102DE00007E713E0CFE00E945500F80181938F01BF
:102DF000C150C7FFF8CF81E0809385020CC080E00E
:102E00000E941B0B882339F080917303882319F0EB
:102E100082E20E94040C8091C8038823B9F080915B
:102E20006702823099F480916802909169021816C5
:102E3000190664F480916802909169020397909357
:102E40006902809368020E94740078CF80916702C3
:102E5000823041F40E944708D82E882319F0992720
:102E60000E94C60680917303882399F080916702BF
:102E7000882329F481E00E94FB0A882339F4809199
:102E80006702823031F4FCEFDF1619F40E9443161A
:102E900019C080916702882329F481E00E94FB0A0F
:102EA000882341F480916702823061F48D2D8A5F1E
:102EB000823040F480916F03882311F00E942B161A
:102EC0000E940F1680917303882329F480916F0369
:102ED000882309F439C100917203E02EFF24E70131
:102EE000C958DC4F18811F7385E10E94FB0A8823B3
:102EF00049F01F3339F0888190E48927888381E085
:102F00008093850286E10E94FB0A882361F01F33CB
:102F100051F0F701E958FC4F808190E889278083C0
:102F200081E0809385021F3341F0112331F0173186
:102F300010F4CFEF0DC0143210F4C0E009C010330C
:102F400010F4C1E005C01C3310F4C2E001C0C3E0BE
:102F500084E10E94FB0A811110E08FE00E94FB0ACD
:102F6000882339F01F3329F0112319F0C2300CF4F3
:102F7000145F8EE00E94FB0A882341F01F3331F07A
:102F8000112321F0CF3F11F00CF01C5084E00E947F
:102F9000FB0A882331F08CE0C802C0011124182FED
:102FA000195E89E00E94FB0A882331F08CE0C80298
:102FB000C0011124182F185E85E00E94FB0A8823A7
:102FC00031F08CE0C802C0011124182F175E8AE08E
:102FD0000E94FB0A882331F08CE0C802C001112452
:102FE000182F165EC3300CF063C086E00E94FB0A07
:102FF000882331F08CE0C802C0011124182F155E1F
:1030000087E00E94FB0A882331F08CE0C802C001EF
:103010001124182F145E8BE00E94FB0A882331F0E4
:103020008CE0C802C0011124182F135E81E10E94B8
:10303000FB0A882331F08CE0C802C0011124182F4C
:10304000125E8CE00E94FB0A882331F08CE0C802FB
:10305000C0011124182F115E82E10E94FB0A88230F
:1030600031F08CE0C802C0011124182F105E8DE0F1
:103070000E94FB0A882331F08CE0C802C0011124B1
:10308000182F1F5D80E10E94FB0A882331F08CE03D
:10309000C802C0011124182F1E5D83E10E94FB0AA3
:1030A000882331F08CE0C802C0011124182F1D5D67
:1030B000202F3327F901E958FC4F80818F3F11F40D
:1030C0001F3319F48081807C182BE901C958DC4F2B
:1030D00088811817F1F080916F03882331F080E028
:1030E0000E94FF0F81E00E94A507188381E0809372
:1030F000850280916F03882361F0812F82958695E8
:10310000869583708170482F60E0812F8F730E94B5
:10311000E40F1F3F71F0812F0E949B0D809185026B
:10312000882321F080E00E94B90B0EC00E94040C9D
:103130000BC00E946D0D80E00E94D00B83E00E94C6
:10314000D00B80E00E94A20B88E00E94FB0A88233B
:1031500031F483E00E94FB0A882309F4A4C0609143
:103160008F0280916F03882309F475C0C62FCC1F8E
:10317000CC27CC1F8C2F0E94FF0F81E00E94A50757
:1031800088E00E94FB0A8823B1F08091720399279E
:10319000019640974CF480917203E82FFF27E9587D
:1031A000FC4F80818F3F19F41092720320C08091F0
:1031B00072038F5F1AC080917203882399F4809103
:1031C00072038F30A0F480917203E82FFF27E95833
:1031D000FC4F80818F3F59F0809172038F5F809305
:1031E0007203EDCF809172038150809372030E942D
:1031F000450C809172030E94570C80917203E82F56
:10320000FF27E958FC4F808180938F028F3F69F43C
:1032100081E00E94040C82E00E94040C80E00E9485
:10322000A20B80E00E94D00B3EC080E00E94040C04
:1032300080918502882319F080E00E94B90B90915B
:103240008F02892F82958695869583708170482F8D
:103250006C2F892F21C088E00E94FB0A882319F176
:10326000C0917303CC23F9F40E949B15C0937203A1
:1032700080917203E82FFF27E958FC4FE081E0932B
:103280008F02EF3F81F08E2F829586958695837011
:103290008170482F6C2F8E2F8F730E94E40F8091C6
:1032A0008F020E949B0D87E10E94FB0A882309F48C
:1032B00045CD80916F03882381F080917203992717
:1032C0000196409744F480917203E82FFF27E95854
:1032D000FC4F8FEF81830E942B16609174038091C5
:1032E000C6020E94DF151092850280E00E94D00B7A
:1032F00025CDDF91CF911F910F91FF90EF90DF903F
:10330000CF90089540E0DB01FC0190818C919817EB
:1033100019F080E090E0089580818F3F19F481E0FA
:1033200090E008954F5F31961196403270F381E03E
:1033300090E008950895EF92FF920F931F93CF931B
:10334000FF24E090BF0280916702882319F40E9455
:103350003D050BC00E94430580916702813019F43E
:103360000E94C30902C00E94BC090E94300C0E9446
:10337000360E1092A7038091A703809387038FEFE7
:103380008093A8038091A8038093880381E00E9422
:10339000BF0C1092C8031092710310927203109226
:1033A0006D0310926C031092C70310928302109267
:1033B00084020E94450C8091BF028F3021F08B3037
:1033C00011F08730D1F48091C6021AC01092C80360
:1033D0000E948B090E945C09109283021092840261
:1033E00010928B0210928A0210928C020E94300C72
:1033F0000E94360E0E940A0EFEC28091C60287709D
:1034000080938902809388028091C6020E94570CA3
:103410000E94080A8091BF028E15C1F687E10E94C2
:10342000FB0A882329F180918602909187028650B9
:103430009D40D0F480918602909187028E549140F5
:1034400098F0209186023091870280E69AEEB901C9
:103450000E94011D7093870260938602809186020C
:10346000909187020E946605109287021092860250
:1034700080E00E94FB0A882349F00E945B0D0E94B5
:10348000360E82E20E94A20B10928D0280E00E9412
:103490001B0B882329F1A9ECB3E0E7E8F3E0CFE1C7
:1034A0008D918193C150C7FFFBCF8091C8038823C2
:1034B000A1F4A7E8B3E0E7EAF3E0CFE18D918193CF
:1034C000C150C7FFFBCF809183028093840283E0C9
:1034D0000E94040C84E00E94040C82E20E94040C0E
:1034E00080E00E94DB0A882361F1C0E080918D02B8
:1034F000C81760F4EC2FFF27E753FC4F808188301A
:1035000028F48F5F0E94BF0CCF5FF0CF0E94850B25
:10351000C82F882309F44EC180918D02803208F0B3
:1035200049C1E82FFF27E753FC4FC150C0838F5F8D
:1035300080938D02E82FFF27E753FC4F8FEF8083A6
:1035400039C18FE00E94DB0A882331F48EE00E94AB
:10355000DB0A882309F46DC00E944E0BC82F8FE050
:103560000E94FB0A882329F48EE00E94FB0A88232C
:1035700039F00E945B0D0E94360E82E20E94040C1C
:103580008FE00E94DB0A882301F184E00E94040C92
:1035900083E00E94A20BCF3F11F0C0938302809181
:1035A000840287FD0AC00E94520D882331F40E94D4
:1035B000360E809184020E94470D90918302809183
:1035C0008402981761F1892F28C08EE00E94DB0ADF
:1035D000882329F183E00E94040C84E00E94A20B5E
:1035E000CF3F19F0CC50C09383028091840218160B
:1035F00064F0845F0E94520D882339F40E94360ED5
:1036000080918402845F0E94470D90918302809193
:103610008402981721F0892F845F0E94310D8091D8
:10362000C803882309F0C6C0809183028093840276
:10363000C1C08FE00E941B0B882329F48EE00E94FA
:103640001B0B882321F00E945B0D0E94360E0E9406
:103650006E0BC82F882331F40E949C0B882309F439
:1036600046C01FC00E941F0DC150C09387038091A8
:1036700087038093C9038FEF809388038091880329
:103680008093CA038091C803882319F5A7E8B3E0A3
:10369000E7EAF3E0CFE18D918193C150C7FFFBCF03
:1036A00018C08091BF028F3021F08B3011F087302D
:1036B00019F48091C60203C08091C602877080937E
:1036C00088028091C803882321F480918802809326
:1036D00089028091C803882351F40E94450C80918F
:1036E00088020E94570C809183028093840267EACB
:1036F00073E087E893E00E9482198823F9F48091AF
:1037000088038F3F49F48091A8038F3F29F480916B
:10371000A7038F5F0E94F20CC0E007E813E0F801F6
:103720008081893008F044C0D8018D918D018F5F70
:103730000E94BF0CCF5FC03290F33AC0C0E007EAEE
:1037400013E0F8018081893098F58091C8038823BF
:10375000E1F08091C703E82FFF27E955FC4FD8011E
:103760009C918081981789F48C918F5F0E94FE0C48
:103770008823C9F4F80180818F5F0E94E60CD8018C
:103780008C918F5F0E94F20C0EC0F80180818F5FD8
:103790000E94FE0C882311F00E94360ED8018C91F5
:1037A0008F5F0E94BF0CCF5F0F5F1F4FC03248F288
:1037B0000E94E7118091C803882351F1809167022C
:1037C000823089F480916802909169021816190676
:1037D000FCF48091680290916902039790936902CA
:1037E0008093680212C0813099F4809171029091A7
:1037F00072021816190664F4809171029091720297
:10380000039790937202809371020E94740000CE1D
:1038100080916702823019F40E944708F82E809147
:103820006702882349F481E00E94FB0A882321F083
:103830008091C803882371F480916702823021F45B
:10384000BCEFFB1639F02BC0813049F50E94A70967
:10385000882329F11092C80380E00E94FF0F0E9484
:103860005C0980916702813011F00E948B0981E22E
:103870000E94040C0E94360E0E94450C8091BF02EB
:103880008F3021F08B3011F0873019F48091C6020F
:1038900003C08091C60287700E94570C68C0809157
:1038A0006702882349F481E00E94FB0A882321F003
:1038B0008091C803882389F080916702823029F4BF
:1038C0008F2D8A5F823048F052C0813009F04FC09E
:1038D0000E949209882309F44AC081E20E94A20B47
:1038E0008091BF028F3021F08B3011F0873039F496
:1038F0006091A7038091C6020E94AA1511C0809111
:10390000C6026091A70387700E94001280914A034B
:1039100090914B0390936D0380936C030E947411FC
:1039200010928F0280916702823019F4EBEFFE163D
:1039300031F01092C703109272031092710310922B
:10394000660210926902109268021092720210923E
:1039500072021092710281E08093C8038AEF0E9484
:103960008E0880916702813011F00E94670986E11C
:103970000E94FB0A882389F090E080918B028823C3
:1039800009F491E090938B02992321F082E00E9448
:10399000A20B03C082E00E94040C85E10E94FB0A96
:1039A000882389F090E080918C02882309F491E0CB
:1039B00090938C02992321F081E00E94A20B03C016
:1039C00081E00E94040C84E10E94FB0A882309F430
:1039D0001FCD90E080918A02882309F491E09093B2
:1039E0008A02992321F088E00E94A20B11CD88E081
:1039F0000E94040C0DCDCF911F910F91FF90EF907D
:103A00000895AA1BBB1B51E107C0AA1FBB1FA61725
:103A1000B70710F0A61BB70B881F991F5A95A9F777
:103A200080959095BC01CD010895A1E21A2EAA1BA4
:103A3000BB1BFD010DC0AA1FBB1FEE1FFF1FA2175E
:103A4000B307E407F50720F0A21BB30BE40BF50B5B
:103A5000661F771F881F991F1A9469F760957095E4
:0E3A6000809590959B01AC01BD01CF010895AA
:103A6E0064207F04050607111210130409050A06C7
:103A7E00070B110C120D1013201B191C1A180F0C0A
:103A8E000E0B0D0A0920191A180C0B0A09222125F2
:103A9E002320191A18241B1C0F0E0D04030A0C0BDD
:103AAE00090801020026271D1E1F101211131415DE
:103ABE00161705060700070E091C1B1215383F3690
:103ACE003124232A2D70777E796C6B6265484F46C0
:103ADE004154535A5DE0E7EEE9FCFBF2F5D8DFD630
:103AEE00D1C4C3CACD90979E998C8B8285A8AFA660
:103AFE00A1B4B3BABDC7C0C9CEDBDCD5D2FFF8F1D5
:103B0E00F6E3E4EDEAB7B0B9BEABACA5A28F8881FF
:103B1E008693949D9A2720292E3B3C35321F1811EF
:103B2E001603040D0A5750595E4B4C45426F68619F
:103B3E006673747D7A898E878095929B9CB1B6BF91
:103B4E00B8ADAAA3A4F9FEF7F0E5E2EBECC1C6CF3F
:103B5E00C8DDDAD3D4696E676075727B7C51565FAF
:103B6E00584D4A4344191E171005020B0C21262FDF
:103B7E00283D3A33344E49404752555C5B76717856
:103B8E007F6A6D64633E39303722252C2B0601087F
:103B9E000F1A1D1413AEA9A0A7B2B5BCBB9691986F
:103BAE009F8A8D8483DED9D0D7C2C5CCCBE6E1E81F
:103BBE00EFFAFDF4F3010409050A06070B110C12C6
:043BCE000D101300C3
:00000001FF
