:100000000C9438000C9453000C9453000C9453003F
:100010000C94BB040C9453000C9453000C945300A8
:100020000C9453000C94EF030C9453000C94530065
:100030000C9453000C9453000C9453000C945300F4
:100040000C9423040C9453000C9453000C948307D9
:100050000C94570E0C9453000C9453000C945300C2
:100060000C9453000C9453000C9453000C945300C4
:1000700011241FBECFEFD4E0DEBFCDBF12E0A0E061
:10008000B1E0E4EBF9E302C005900D92A436B107AC
:10009000D9F713E0A4E6B2E001C01D92A93EB10772
:1000A000E1F70C94E5060C94000090919402292F3E
:1000B000221F2227221F892F82958695869583707D
:1000C0002827892F82958F702827892F86958695D6
:1000D00028272170892F9927880F991F282B209373
:1000E0009402822F99270895FF920F931F93F894FB
:1000F000809167028150823020F18091BF0284306C
:1001000001F180917202863010F01092720280919B
:10011000720280FF02C0949804C0949A88EF0E94F3
:100120004E0880917202882339F0809172028F5FAD
:100130008093720278944FC3809172028F5F809394
:1001400072028091660280FFE8C18091BF02992708
:100150008830910561F18930910594F483309105DF
:1001600009F48EC0843091051CF4019741F112C34B
:100170008530910509F422C1079709F4A5C00AC387
:100180008C30910509F47CC08D30910544F48930A0
:10019000910509F413C10B9709F496C0FBC28D3089
:1001A000910509F40BC10F9709F48EC0F3C280E0EA
:1001B0000E94A00F80918F020E94E308EBC2809101
:1001C0007503882321F480916A03882361F090915C
:1001D0008F029F3F41F0991F9927991F80918B02B1
:1001E000892B0E94A00F80916A03882309F4D2C250
:1001F00080917203803150F480917203E82FFF27C1
:10020000E958FC4F80818F3F09F0C4C210927203FD
:10021000809171038F5F80937103809171038031AE
:1002200068F480917103E82FFF27EE0FFF1FE65B54
:10023000FC4F808191818F5F9F4F11F41092710369
:1002400080917103E82FFF27EE0FFF1FE65BFC4F45
:100250008081918190936D0380936C0380916C03F6
:1002600090916D038F5F9F4F21F48FEF8093770301
:1002700091C20E941111809384020E94E60B8AC2EF
:1002800080917503882309F485C280918F028F3F86
:1002900029F0881F8827881F0E94A00F8091720371
:1002A0008F5F8093720380917203803150F480914C
:1002B0007203E82FFF27E958FC4F80818F3F09F038
:1002C00069C21092720366C28091C803882309F440
:1002D00061C290918F029F3F41F0991F9927991F0A
:1002E00080918B02892B0E94A00F20918F02822F78
:1002F00099278F739070892B21F080918402820F4F
:1003000001C0822F0E94E30880917203803150F473
:1003100080917203E82FFF27E958FC4F80818F3FBF
:1003200009F038C2109272038091C7038F5F8093E7
:10033000C7038091C703803248F48091C703E82F38
:10034000FF27E955FC4F80818F3F11F41092C703BE
:1003500067EA73E087E893E00E942519882331F06B
:1003600090918902809188029817A1F0A7E8B3E0E4
:10037000E7EAF3E09FE18D918193915097FFFBCFE6
:100380001092C70310928402109283020E94FC0C08
:100390000E94D70D80918802809389028091830208
:1003A000809384028091C703E82FFF27E955FC4F13
:1003B0006081809189020E944715ECC18091C80339
:1003C000882309F4E7C190918F029F3F41F0991F64
:1003D0009927991F80918B02892B0E94A00F209151
:1003E0008F02822F99278F739070892B59F010916B
:1003F0008402120F80916C0390916D030E94FC1097
:10040000810F01C0822F0E94E30880917203803126
:1004100050F480917203E82FFF27E958FC4F808148
:100420008F3F09F0B7C11092720380917103803140
:1004300070F480917103E82FFF27EE0FFF1FE65B3A
:10044000FC4F808191818F5F9F4F09F050C01092C7
:1004500071038091C7038F5F8093C7038091C703A7
:10046000803248F48091C703E82FFF27E955FC4FFD
:1004700080818F3F59F51092C70367EA73E087E8E0
:1004800093E00E942519882331F090918902809190
:100490008802981791F0A7E8B3E0E7EAF3E09FE15C
:1004A0008D918193915097FFFBCF1092840210920F
:1004B00083020E94FC0C0E94D70D809188028093D9
:1004C0008902809183028093840205C08091C703D2
:1004D0008F5F8093C7038091C703E82FFF27E955FB
:1004E000FC4F6081809189020E949D1105C080911E
:1004F00071038F5F8093710380917103E82FFF2751
:10050000EE0FFF1FE65BFC4F8081918190936D039E
:1005100080936C030E9411113DC18091BF02992705
:100520008830910561F18930910594F4833091050B
:1005300009F492C0843091051CF4019791F12AC10D
:100540008530910509F4C3C0079709F4B6C022C1EC
:100550008C30910509F480C08D30910544F48930C8
:10056000910509F4B4C00B9709F4A7C013C18D30ED
:10057000910509F4ACC00F9709F49FC00BC180919D
:100580008F028093650280918E0280938F020E9479
:10059000550080938E0280918F0240E0642F8F730C
:1005A000F3C080917503882329F480916A0388231E
:1005B00009F4F0C080917503882379F0809172036B
:1005C000803148F480917203E82FFF27E958FC4FEF
:1005D00080818F3F11F41092720360918F026093BB
:1005E000650280917203E82FFF27E958FC4F8F5F67
:1005F00080937203E081E0938F02EF3F09F4CAC059
:1006000080918A02882319F0E07CE0938F02209188
:100610008F02822F99278F739070422F42954695B3
:1006200046954370661F6627661F2F73892B59F006
:10063000417080918C02482B80918B02682B8091B5
:100640008402820F37C0417080918C02482B8091C8
:100650008B02682B822F2EC080917503882309F4AA
:1006600099C00E94E60B809172030E94F80B809162
:100670008F028093650280917203E82FFF27E9586B
:10068000FC4F808180938F028F3F09F483C00E94CA
:100690003C0D20918F02922F92959695969593708E
:1006A000917080916502881F8827881F492F682FC5
:1006B000822F8F730E94850F6DC08091C80388239D
:1006C00031F00E94E60B809172030E94F80B80913A
:1006D000C803882309F45EC000918F02009365026D
:1006E00080917203E82FFF27E958FC4F8F5F8093BA
:1006F0007203E081E0938F02EF3F09F44BC08091D9
:100700008A02882319F0E07CE0938F0220918F0207
:10071000822F99278F739070422F42954695469568
:100720004370602F661F6627661F2F73892B21F188
:1007300051E0F52EF42280918C02F82A00918B0270
:10074000062B10918402120F80916C0390916D031F
:100750000E94FC104F2D602F810F0E94850F109179
:100760008F0280918402180F80916C0390916D0329
:100770000E94FC10810F0CC0417080918C02482BAC
:1007800080918B02682B822F0E94850F80918F02AF
:100790000E94BF0880916602843030F485E20E9496
:1007A000430B0E94C90D09C080916602883028F46D
:1007B00085E20E94A50B0E94BC0D0E94AB0D8091AA
:1007C00066028F5F8093660280916602883010F027
:1007D0001092660278941F910F91FF9008951F92D6
:1007E0000F920FB60F9211242F933F934F935F9365
:1007F0006F937F938F939F93AF93BF93EF93FF93E9
:100800008091950290919602909389008093880040
:100810000E947400FF91EF91BF91AF919F918F91D2
:100820007F916F915F914F913F912F910F900FBEEC
:100830000F901F90189580917D0086958695992739
:100840008170907008951F920F920FB60F9211242D
:100850002F933F934F935F936F937F938F939F93C8
:10086000AF93BF93CF93EF93FF93809173028F3F2A
:1008700029F0809173028F5F8093730280918602CA
:10088000909187028F5F9F4F49F0809186029091EF
:1008900087020196909387028093860280917F025F
:1008A000909180028F5F9F4F49F080917F029091DD
:1008B000800201969093800280937F028091700263
:1008C00090917102892B81F0809170029091710258
:1008D00001979093710280937002809170029091C1
:1008E0007102892B09F49498809167028130C1F4D8
:1008F000C0B3C295CF70C17080916D02882371F42E
:10090000CC2361F0809171029091720201969093D4
:1009100072028093710288EF0E944E08C0936D02AC
:100920000E941B04982F8823A1F480916402883CC4
:1009300029F4909364020E94C90D06C0809164025C
:10094000843611F40E94BC0D809164028F5F809305
:100950006402FF91EF91CF91BF91AF919F918F91E1
:100960007F916F915F914F913F912F910F900FBEAB
:100970000F901F9018951F920F920FB60F9211248F
:100980002F933F938F939F9329B323708091970266
:10099000281791F1833041F4223099F4809192022A
:1009A00090919302019709C0823059F4233049F4A1
:1009B000809192029091930201969093930280937A
:1009C000920280919202909193028D52914030F068
:1009D0008CE291E090939302809392028091920234
:1009E00090919302449730F484E190E090939302C5
:1009F00080939202209397029F918F913F912F9124
:100A00000F900FBE0F901F90189589B7816089BF16
:100A10008BE083BF8AEF81BF089580917D00846061
:100A200080937D00089585E20E94A50B80917D0052
:100A30008B7F80937D000895E199FECF9FBB8EBB95
:100A4000E09A8DB399270895E199FECF9FBB8EBBA5
:100A50006DBBF894E29AE19A789408950F931F93EE
:100A6000CF93DF938C0181E00D32180710F00CE278
:100A700011E00431110510F404E110E0109391022B
:100A8000009390021093930200939202812F992772
:100A9000682F85E090E00E9424056091900286E036
:100AA00090E00E94240580919002909191020E9412
:100AB000180EC0E0D0E7E8E3F9E398014427552792
:100AC000BE01CF010E94B81CFA01E90193E0F6953E
:100AD000E795D795C7959A95D1F7BE01CF0126E046
:100AE00030E040E050E00E94B81CFA01E901CA0180
:100AF000AA27BB279C01009731F4D0939602C0939C
:100B0000950281E061C0887F892B69F403E0F69546
:100B1000E795D795C7950A95D1F7D0939602C093DC
:100B2000950282E051C0C901807F892B69F414E0ED
:100B3000F695E795D795C7951A95D1F7D093960274
:100B4000C093950286E040C0C901807E892B69F47C
:100B5000B5E0F695E795D795C795BA95D1F7D093B7
:100B60009602C093950287E02FC0C901807C892B33
:100B700069F4A6E0F695E795D795C795AA95D1F7BC
:100B8000D0939602C093950283E01EC0C901807085
:100B9000892B51F48D2F9E2FAF2FBB279093960258
:100BA0008093950284E010C020703C7F232B79F461
:100BB0006AE0F695E795D795C7956A95D1F7D093F2
:100BC0009602C093950285E080938A0002C010923D
:100BD0008A008091950290919602909581959F4F01
:100BE0009093960280939502909389008093880059
:100BF000DF91CF911F910F9108950F931F938091D3
:100C00006B00816080936B0080916B0082608093A9
:100C10006B008BB788608BBF85E090E00E941C055D
:100C20009927182F002786E090E00E941C0599273D
:100C3000802B912B0E942E051092660280917D00E0
:100C4000846080937D001F910F910895159BFECFC6
:100C500083B980E090E00895CF93DF93EC01888121
:100C6000882331F089910E94260688818823D1F754
:100C7000DF91CF9108950F931F93CF93DF93EC01F2
:100C800000E117E2CE01B8010E94A41C61157105B4
:100C900081F0862F805D0E942606CE01B8010E9459
:100CA000A41CEC01C8016AE070E00E94A41C8B0146
:100CB0000EC0CE01B8010E94A41CEC01C8016AE07C
:100CC00070E00E94A41C8B016A307105D8F60115F2
:100CD0001105A9F0CE01B8010E94A41CCB01805DD2
:100CE0000E942606CE01B8010E94A41CEC01C80196
:100CF0006AE070E00E94A41C8B01672B59F7DF911A
:100D0000CF911F910F9108958F708A3010F4805DFC
:100D100001C0895C0E94260608950895CF93DF9351
:100D2000EC01892F992782958F70009711F00E940E
:100D300084068D2F9927009711F00E948406CE011A
:100D400044E0969587954A95E1F7009711F00E9447
:100D500084068C2F0E948406DF91CF91089582B182
:100D6000992787FD90958827990F881F99270895BF
:100D7000179BFECF83B19927089523E330E081B11B
:100D8000886181B920B91CBE05C00E94B8068AE0FE
:100D90000E946D070E94AF06AC01892BB1F70F9A34
:100DA0002FE130E08AB188698AB929B940BD80EC69
:100DB0008ABB8CE38BBB8BEB87BB18BA8FEF84BBF2
:100DC00081BB86B981E58DB90895CFEFD4E0DEBF50
:100DD000CDBF0E94BD060E94FD050E9405058091C1
:100DE0009002809394020E945D090E94D507789436
:100DF0000E94A9098091BF0299278830910509F4C2
:100E000052C089309105CCF48330910579F184305A
:100E1000910554F48130910561F1823091050CF017
:100E200057C0892BB1F1E4CF8530910551F1853060
:100E30009105A4F1079729F1DBCF8C30910509F4D6
:100E400041C08D30910524F40A9709F441C01BC0BC
:100E50008E30910531F08E30910584F00F9771F04E
:100E6000C7CF109267020E947A0FC2CF109267021A
:100E70002CC0109267020E940A12BACF1092670229
:100E800005C081E001C082E0809367020E943E19A4
:100E9000AFCF109267020E946008AACF109267023B
:100EA0000E94A70FA5CF109267020E940D050E9415
:100EB000D10B0E94A9098091BF028830D1F30E9412
:100EC000130596CF82E0809367020E94F61590CFBB
:100ED0000E94D10B0E94AB0D8BCF20EA3FE0E22FA6
:100EE000F32F3197F1F78A95D1F708958AEF0E9491
:100EF0006D078AEF0E946D078AEF0E946D078AEFE7
:100F00000E946D0708951F920F920FB60F92112441
:100F10008F939F93EF93FF939CB1983FB1F480918F
:100F20006702813021F0949A85E08093700280916D
:100F3000C803882349F18091680290916902019663
:100F400090936902809368021FC080916B02E82F22
:100F5000FF27E756FD4F90838F5F80936B02809150
:100F60006B028F7180936B0290916B0280916C0287
:100F7000981751F480916C028F5F80936C0280917E
:100F80006C028F7180936C02FF91EF919F918F9112
:100F90000F900FBE0F901F90189599270E941C0567
:100FA000803108F08FE09927089583E00E94CD07F3
:100FB0008093B90284E00E94CD078093980208953F
:100FC00090916C0280916B02981719F081E090E08B
:100FD000089580E090E00895089590916C028091CA
:100FE0006B029817D1F3F89480916C02E82FFF27D9
:100FF000E756FD4F8F5F80936C02908180916C0269
:101000008F7180936C027894892F992708950E949C
:10101000E007892BC1F00E94ED0787FF14C0682FFD
:1010200062956F70482F55276F3059F09A012F70D5
:1010300030708091B90299272817390721F46093FD
:101040006A02CA01089580E090E0089508959091A1
:101050006502891731F480E00E94A00F8FEF809322
:10106000650208950895CF93C82F962F60E09923C5
:1010700019F40E94270810C0809165028F3F09F083
:1010800061E08C2F8951953610F041E001C040E0BD
:101090000E94850FC0936502CF9108955D9BFECF9E
:1010A0008CB980E090E0089580919802806B0E9456
:1010B0004E088BE70E944E0880E00E944E0808957B
:1010C0000F931F930E9413050E94E60B8091B902B3
:1010D0000E94F80B8FEF809365020E94A90980910E
:1010E000BF02882319F00E94540846C00E943D0B9D
:1010F000882379F08091C6028093B902682F83E03B
:1011000090E00E9424050E94E60B8091B9020E94A3
:10111000F80B0E94E007892B01F30E94ED0787FF7F
:10112000DCCF482F42954F704F3049F099278F7090
:1011300090702091B90233278217930771F640937C
:101140006A02842F99278830910561F0099729F662
:101150000E94ED078C010E94ED07682F802F0E94EE
:101160003308BBCF0E94ED078C010E94ED07682F6A
:10117000802F0E942708B1CF1F910F910895CF9320
:10118000C82F8091980280690E944E088C2F992761
:101190008F739070892B11F480E003C08C2F8F73B4
:1011A000875E0E944E088C2F829586958695837067
:1011B00080FF03C08091020102C0809100010E9463
:1011C0004E08CF910895CF93C82F809198028068E0
:1011D0000E944E088C2F99278F739070892B11F4E1
:1011E00080E003C0CF738C2F875E0E944E088091F1
:1011F00001010E944E08CF910895809167028230CC
:1012000029F08CEF0E944E080E945408089508951A
:10121000CF930E941B04C82F809167028130D1F0C8
:10122000CC2311F00E9413059498979A85E00E94B0
:101230006D0780919502909196020A97909389008C
:10124000809388001092720210926602CC2311F0F3
:101250000E940D05CF91089580916702813009F0B9
:1012600097980895089590B3991F9927991F809191
:101270006F02882339F4992329F090936F0281E05B
:1012800090E0089590936F0280E090E008950895B3
:1012900090B3991F9927991F80916E02882339F086
:1012A000992329F490936E0281E090E00895909341
:1012B0006E0280E090E00895089581B3806F81BB55
:1012C00082B38F7082BB08958FE091B3982391BB56
:1012D00092B3982392BB0895DE980895AC01F894D8
:1012E000C0980000000000000000C09A20E01FB875
:1012F000779BFECFFA01E20FF11D8FB180832F5F44
:101300002330A8F37894089599B3969596959F7095
:10131000292F269526952695892F86958270282B2C
:10132000892F9927880F991F382F3470232B880F06
:10133000991F880F991F8870282B8FE0821B99278F
:101340000895DE9A089589B3869586958F709927BA
:101350000895AF92BF92CF92DF92EF92FF920F93D8
:101360001F93CF93DF93CDB7DEB726970FB6F894D0
:10137000DEBF0FBECDBF20919202309193028091CB
:101380009002909191022817390731F080919202D2
:10139000909193020E942E05A3ECB2E0ECEBF2E0F8
:1013A00042E011921D92415047FFFBCF80917302A2
:1013B000843108F490C0109273020E946C09CE012F
:1013C00001960E946E098091C0028C838091C102B7
:1013D0008D838091C2028E8340E001E010E06E01B7
:1013E000C00ED11E842F869586958695A82FBB2783
:1013F000BD0160547D4F842F8770980102C0220F79
:10140000331F8A95E2F7C901FB013081232F28237E
:10141000FD01E953FD4FE081E823AC0DBD1DAC910A
:10142000A8234F5F8095222331F03823EA2B3E2BEF
:10143000DB013C9305C03823EA233E2BFB013083BC
:10144000483180F20E948409482F8091C6024817D3
:1014500049F08091BB02481729F44093C60281E00D
:10146000809374024093BB020E94A10963ECE62EB4
:1014700062E0F62E0CEB12E060EC72E057ECA52E69
:1014800052E0B52EF60142E08081D5018D935D01D9
:101490002381DB018D91BD01922F98278923D801EB
:1014A0008D938D019223D7019D937D0141503196FB
:1014B00047FFEACF0E94A309482F8091BF02481737
:1014C00031F08091BA02481711F44093BF02409363
:1014D000BA020E94AB0D26960FB6F894DEBF0FBE7F
:1014E000CDBFDF91CF911F910F91FF90EF90DF90D3
:1014F000CF90BF90AF900895282F883118F080E0EA
:1015000090E00895869586958695E82FFF27E0540C
:10151000FD4F80819927277002C0959587952A9560
:10152000E2F79C012170307080FF03C081E090E001
:101530000895C90108950895282F883118F080E092
:1015400090E00895869586958695E82FFF27E454C8
:10155000FD4F80819927277002C0959587952A9520
:10156000E2F79C012170307080FF03C081E090E0C1
:101570000895C90108950895282F883118F080E052
:1015800090E00895869586958695E82FFF27ED5380
:10159000FD4F80819927277002C0959587952A95E0
:1015A000E2F79C012170307080FF03C081E090E081
:1015B0000895C901089508958091C002882359F4BF
:1015C0008091C102882339F48091C202882319F4E2
:1015D00081E090E0089580E090E008950895FF9202
:1015E0000F931F93CF93DF93FF2400E010E0CBE035
:1015F000D1E088810E947C0A882311F0C80109C0CB
:10160000F39421960F5F1F4F8CE08F1594F78FEFA7
:101610009FEFDF91CF911F910F91FF900895CF938E
:10162000C0E0EC2FFF27ED5FFE4F80810E947C0A17
:10163000EC2FEF5F882319F08E2F992705C0CE2F4E
:10164000E83078F380E090E0CF910895CF93C0E048
:10165000EC2FFF27ED5FFE4F80810E949C0AEC2F4C
:10166000EF5F882319F08E2F992705C0CE2FE83021
:1016700078F380E090E0CF91089580917402109209
:10168000740299270895282F883290F486958695BC
:101690008695E82FFF27E658FD4F277081E090E000
:1016A00002C0880F991F2A95E2F72081282B2083FA
:1016B00008950895282F883290F48695869586950A
:1016C000E82FFF27EB58FD4F277081E090E002C024
:1016D000880F991F2A95E2F72081282B20830895EF
:1016E0000895282F8832A0F4869586958695E82F50
:1016F000FF27EB58FD4F277081E090E002C0880F74
:10170000991F2A95E2F7982F9095808189238083ED
:1017100008950895282F883218F080E090E0089509
:10172000869586958695E82FFF27EB58FD4F277005
:1017300081E090E002C0880F991F2A95E2F720818E
:101740002823822F992708950895282F8832A0F4FE
:10175000869586958695E82FFF27E658FD4F2770DA
:1017600081E090E002C0880F991F2A95E2F7982F38
:10177000909580818923808308950895282F8695E8
:1017800086958695EAE7F2E0E80FF11D80819927BA
:10179000277002C0959587952A95E2F78170907021
:1017A000089510927E0210927D0210927C02109297
:1017B0007B0210927A0210927902109278021092B3
:1017C0007702109276021092750208950F931F937C
:1017D000CF9305E411E0CFE0F80181918F010E94E1
:1017E000A50BC150C7FFF8CFCF911F910F9108955E
:1017F000803138F4E82FFF27EB5BFE4F80810E9499
:10180000430B08950895803138F4E82FFF27EB5BF0
:10181000FE4F80810E945A0B08950895803118F080
:1018200020E030E009C0E82FFF27EB5BFE4F80810E
:101830000E94BE0B282F3327C9010895803118F06C
:1018400080E090E00895E82FFF27EB5BFE4F80815A
:101850000E948A0B992708950895883138F4E82F5B
:10186000FF27E35DFE4F80810E94430B089508959A
:10187000883138F4E82FFF27E35DFE4F80810E9416
:101880005A0B08950895883138F4E82FFF27E35D57
:10189000FE4F80810E94A50B089508950F931F931A
:1018A000CF930DE211E0C7E1F80181918F010E9411
:1018B000A50BC150C7FFF8CFCF911F910F9108958D
:1018C000E82F8150883030F4FF27EC5DFE4F808197
:1018D0000E94430B089508951F93CF93182F81E022
:1018E000E82FFF27C82FCF5F811731F4EC5DFE4F43
:1018F00080810E94430B05C0EC5DFE4F80810E94F9
:10190000A50B8C2FC93060F3CF911F910895E82F5C
:101910008150883030F4FF27EC5DFE4F80810E94BB
:10192000A50B08950895E82F8150883030F4FF27E3
:10193000EC5DFE4F80810E945A0B08950895E82FB8
:101940008150883040F4FF27EC5DFE4F80810E947B
:101950008A0B9927089580E090E008950895E82F74
:101960008150883048F4FF27EC5DFE4F80810E9453
:10197000BE0B282F332702C020E030E0C9010895B4
:101980000F931F93CF9305E211E0C7E0F801819117
:101990008F010E94A50BC150C7FFF8CFCF911F91B7
:1019A0000F9108958D3038F4E82FFF27E85EFE4F41
:1019B00080810E94430B089508958D3038F4E82FFC
:1019C000FF27E85EFE4F80810E94A50B08950895D1
:1019D0008D3038F4E82FFF27E85EFE4F80810E94AB
:1019E0005A0B08950895E8E1F1E0E80FF11D8081B8
:1019F0000E948A0B992708950F931F93CF9308E1B4
:101A000011E0CCE0F80181918F010E94A50BC1503B
:101A1000C7FFF8CFCF911F910F9108950E94FC0C42
:101A200084E00E94A50B83E00E94A50B88E00E9441
:101A3000A50B81E00E94A50B82E00E94A50B0895F2
:101A4000CF93C82F84E00E94A50BC23021F483E01D
:101A50000E945A0B0FC083E00E94A50B83E00E94F6
:101A6000710BC13011F483E003C0CF3F19F484E05F
:101A70000E94430BCF910895CF92DF92EF92FF9295
:101A80000F931F93CF93DF93182F87FF04C086E136
:101A90000E942D0C03C086E10E94430C812F829589
:101AA00086958695837080FF04C085E10E942D0C89
:101AB00003C085E10E94430C1F7311F4012F15C070
:101AC000173110F40FEF11C0143218F41C5000E05D
:101AD0000CC0103318F4185101E007C01C3318F47F
:101AE000145202E002C003E01053802F0E94200D28
:101AF000112331F40E94FC0C84E10E942D0C22C0C1
:101B000084E10E94430C98E1C92E91E0D92E8BE02C
:101B1000E82EF12C0CE0C12FDD27EC16FD0621F09C
:101B2000F60180810E94A50B01500894E11CF11C74
:101B30000894C11CD11C07FFEECFC35FDE4F888124
:101B40000E94430BDF91CF911F910F91FF90EF9077
:101B5000DF90CF900895F894DF98EAE7F2E0808173
:101B60008FB9779BFECF319682E0EE37F807B9F355
:101B7000B4F3DF9A78940895A5E7B2E0EAE7F2E0DB
:101B800024E080819D91892B8193215027FFF9CFFB
:101B90000895A5E7B2E0EAE7F2E024E09D91909590
:101BA000808189238193215027FFF8CF0895A5E7ED
:101BB000B2E0EAE7F2E034E020819C91822F8923B1
:101BC00019F09095292320831D923150319637FFCB
:101BD000F3CF0895AC0120E0322F6115710581F03B
:101BE000FA01E30FF11D80812827E22FFF27EB5A2E
:101BF000FE4F20813F5F832F99278617970780F339
:101C0000822F992708950F931F93CF93DF93611528
:101C1000710549F08C01EB01F80181918F010E945F
:101C200026062197C9F7DF91CF911F910F91089553
:101C30000F931F939C010AEC12E082E48093CA0286
:101C40001092CB0282E08093CC02832F992780935D
:101C5000CD022093CE0265E070E0C8010E94EA0D3B
:101C60008093CF0266E070E0C8010E94030E1F91CE
:101C70000F9108950F931F930AEC12E090E8909350
:101C8000CA021092CB0291E09093CC028093CD02D5
:101C900064E070E0C8010E94EA0D8093CE0265E026
:101CA00070E0C8010E94030E1F910F9108951F92CA
:101CB0000F920FB60F921124EF92FF921F932F9362
:101CC0003F934F935F936F937F938F939F93AF93C4
:101CD000BF93CF93DF93EF93FF93C3B180915502EE
:101CE000882309F4F1C080917F0290918002895E7F
:101CF000934030F00E94E60B0E94AB0D10928202DE
:101D000080918202803448F4E82FFF27E65FFC4F81
:101D1000C0838F5F8093820204C00E943A0E1092AB
:101D200082021092800210927F0220918202233060
:101D300008F4CAC0F0900A0380910B03682F77273C
:101D4000762F662780910C039927682B792B3327F0
:101D5000CB0104962817390708F4B6C0FB01E65FEB
:101D6000FC4F1381EB012396BE018AE093E00E94B1
:101D7000EA0D181771F0BE018AE093E00E94EA0DA7
:101D800099270E948E061092820280E00E943A0EED
:101D90009BC08F2D99278131910551F18231910599
:101DA00044F48130910509F488C0409709F460C07B
:101DB00086C08034910521F08134910541F07FC0C7
:101DC00080919002909191020E94180E7BC08091A8
:101DD0000C03823009F073C080910D039927982F6E
:101DE000882720910E03820F911D0E942E056AC044
:101DF00080910C03823009F062C080910D039091B4
:101E00000E03C82FDD2763E0CC0FDD1F6A95E1F7D5
:101E1000C90FD11D89E18093CA021092CB0280E1E3
:101E20008093CC020F2EFDECEF2EF2E0FF2EF02D72
:101E3000C295D295D07FDC27C07FDC271FE0CE0182
:101E40000E94B910F70181937F011150219617FF6D
:101E5000F6CF63E170E08AEC92E00E94EA0D809395
:101E6000DD0264E170E08AEC92E00E94030E2AC079
:101E700080910C03823119F580910D0390910E032E
:101E8000C82FDD2733E0CC0FDD1F3A95E1F7C90FEE
:101E9000D11D2FE0E22E23E0F22E94E0CC0FDD1FC7
:101EA0009A95E1F71FE0BE01F70181917F010E9441
:101EB0007A101150219617FFF6CF81E001C080E023
:101EC0000E943A0E10928202FF91EF91DF91CF9122
:101ED000BF91AF919F918F917F916F915F914F9142
:101EE0003F912F911F91FF90EF900F900FBE0F9099
:101EF0001F9018950E94A9098091BF028E30D1F3DE
:101F00000E94D10B0E94AB0D089590E03A98803466
:101F100008F08FE3611160E4442311F440E801C04C
:101F2000492F882349F0862B842B85BB3A9A9F5FE3
:101F30009832E8F3399A0895642B65BB08950895A3
:101F4000882311F0AE9A01C039983A9808957F928B
:101F50008F929F92AF92BF92CF92DF92EF92FF92B9
:101F60000F931F93CF93CC24DD247724072D0E9459
:101F700013050E94E60B560146010E94A9098091B3
:101F8000BF02843019F00E945408A7C080919802C3
:101F90000E940E0C882331F40E94E60B8091980277
:101FA0000E94F80B0E943D0B882349F08091C602E5
:101FB00080939802682F84E090E00E9424058C2D85
:101FC0000E94200DC0E066E5E62E62E0F62EF701E5
:101FD00080810E949C0A8823B9F01C2F180D195E7D
:101FE000402F672D812F0E94850F802F992756E063
:101FF000880F991F5A95E1F7812B0E94BF0841E095
:10200000742E8C2F0E94D20CF70180810E94BC0A92
:10201000882381F02C2F2A0D295E802F992736E006
:10202000880F991F3A95E1F7822B0E94E3088C2FC5
:102030000E94DD0CCF5F0894E11CF11CCD3038F21A
:102040008FE00E949C0A882371F0F2E0CF16D10441
:10205000F4F40894C11CD11C8CE090E0880E991E09
:10206000A80EB91E14C08EE00E949C0A882379F045
:102070009FEFC9169FEFD90651F04CF00894C108A4
:10208000D108E4EFFFEF8E0E9F1EAE0EBF1E85E15E
:102090000E949C0A882371F080E0002309F481E00B
:1020A000082F882321F081E00E94430B03C081E0C8
:1020B0000E94A50B83B399278F739070892B09F425
:1020C0005CCF0E94DC0A882309F457CF80E00E948D
:1020D000A00F77240E94FC0C50CFCF911F910F913D
:1020E000FF90EF90DF90CF90BF90AF909F908F9038
:1020F0007F900895282FF89495E0C0980000000084
:10210000000000009FB9779BFECF00000000000098
:1021100000001FB8779BFECF8FB1C09A000000006F
:102120000000000080FDE9CFC0980000000086E0BC
:102130008FB9779BFECF00000000C09A000000001E
:1021400000000000C0980000000082E08FB9779B7B
:10215000FECF872F99278FB9779BFECF6FB9779BDB
:10216000FECF2FB9779BFECF00000000C09A789475
:1021700008959C01F894C0980000000083E08FB996
:10218000779BFECF832F99278FB9779BFECF2FB9EF
:10219000779BFECF000000001FB8779BFECF8FB16A
:1021A000C09A78949927089510926E03109275033F
:1021B00010926A0380E00E94A00F0E94D10B0E943F
:1021C000D70D0E943D0B089510926F0384E20E9488
:1021D000A50B0E94D10B0E94D70D1092750380E0D1
:1021E0000E94A00F089581E080936F0384E20E9413
:1021F000430B0E94E60B0895892F9927282F2F71F2
:10220000822F992787FD909534E0969587953A958A
:10221000E1F7892B09F0206E822F992787FD909591
:10222000089520916C03277080916C0390916D0349
:10223000F3E096958795FA95E1F7622F8F700E94EB
:10224000471560916C0370916D039B0144275527DE
:10225000DA01C90180709078A070B070892F9A2F30
:10226000AB2FBB2780938A02DA01C901807090747A
:10227000A070B070892F9A2FAB2FBB2780938C0250
:102280002070307240705070BB27A52F942F832F81
:1022900080938B0210927203CB010E94FC1099274D
:1022A000089581E080936E0381E20E94430B1092B7
:1022B0008C0280918C0280938B0280918B028093A0
:1022C0008A0210926A031092750380914A039091DA
:1022D0004B0390936D0380936C038F5F9F4F89F046
:1022E000109271031092720310928F020E941111CA
:1022F000809384028091660280FDFCCF81E0809310
:102300006A030E94E60B089580918402882321F4D9
:1023100083E00E94A50B0CC087FF07C083E00E94EA
:10232000A50B84E00E94430B089583E00E94430BB9
:1023300084E00E94A50B08950895FF920F931F93C8
:10234000CF93DF93C82FDD2703E0CC0FDD1F0A9565
:10235000E1F7C60FD11D15E0CC0FDD1F1A95E1F78F
:10236000BFE0FB2EC050D84F0AE413E0CE010E941C
:10237000B9109927982F8827F80180839183CE017F
:1023800001960E94B910282F3327F801808191818E
:10239000822B932B819391938F01FA942296F7FECF
:1023A000E5CFDF91CF911F910F91FF900895FF929C
:1023B0000F931F93CF93DF93C82FDD2753E0CC0FEC
:1023C000DD1F5A95E1F7C60FD11D45E0CC0FDD1F8B
:1023D0004A95E1F73FE0F32E0AE413E0C050D84FEE
:1023E000F80180819181892F9927BE010E947A107E
:1023F0002196F801819191918F01BE010E947A107E
:10240000FA942196F7FEECCFDF91CF911F910F91B7
:10241000FF9008951F93CF93DF930E940D05809145
:10242000C602877080936B031092700310926F0343
:1024300010926E0310926A0310927503109271034A
:102440008FEF9FEF90936D0380936C031092670260
:102450000E94E60B0E94D70D0E94A9098091BF023D
:10246000813071F00E9413051092750310926A0377
:1024700080E00E94A00F0E94D10B0E94AB0DF4C21D
:1024800080916F03882361F580916E03882341F565
:102490000E943D0B882359F08091C602877080937B
:1024A0006B03609170030E949D110E94E60B809166
:1024B0006B030E94F80B0E940F0BC82F882359F062
:1024C0000E94FC0C8C2F815080937003682F8091A8
:1024D0006B030E949D11809170038F5F0E94600CBE
:1024E00081E00E949C0A882379F080916E03882302
:1024F00019F00E94D41008C080916F03882311F056
:102500000E94E4100E94511180916E03882329F4E7
:1025100080916F03882309F463C0809171030E9446
:102520001E0C882311F40E94D70D809171030E9424
:10253000030C80916C0390916D038F5F9F4F21F48A
:102540000E940E0D80E046C080E00E94A50B8091A5
:102550006C0390916D0343E0969587954A95E1F75A
:102560008F700E94F80B80916C0390916D0397FF20
:1025700004C088E00E94430B03C088E00E94A50BC2
:1025800080916C0390916D03AA27BB273EE0B6951E
:10259000A795979587953A95D1F781709070892B7B
:1025A00021F081E00E94430B03C081E00E94A50B53
:1025B00080916C0390916D03AA27BB272DE0B695FF
:1025C000A795979587952A95D1F781709070892B5B
:1025D00021F082E00E94430B03C082E00E94A50B21
:1025E00088E00E949C0A882331F483E00E949C0AC0
:1025F000882309F478C010916E03112309F073C089
:10260000812F0E94A00FC0916F03CC2309F442C018
:1026100088E00E949C0A8823D1F080917103992759
:10262000019640976CF480917103E82FFF27EE0F1D
:10263000FF1FE65BFC4F808191818F5F9F4F19F4F4
:102640001093710330C0809171038F5F20C080911F
:1026500071038823C9F480917103992701964097EB
:1026600014F580917103E82FFF27EE0FFF1FE65B43
:10267000FC4F808191818F5F9F4FA9F08091710302
:102680008F5F80937103E7CF8091710381508093B6
:10269000710309C088E00E949C0A882321F00E94EF
:1026A000F310C093710380917103E82FFF27EE0FA1
:1026B000FF1FE65BFC4F8081918190936D038093B7
:1026C0006C03109275038F5F9F4F69F00E94111188
:1026D00080938402109272038091660280FDFCCF89
:1026E00081E08093750387E10E949C0A882339F179
:1026F00080916F038823E9F08091710399270196F7
:10270000409764F480917103E82FFF27EE0FFF1FBD
:10271000E65BFC4F8FEF9FEF828393838FEF9FEFFA
:1027200090936D0380936C030E94E41080E00E94FC
:10273000A50B6091700380916B030E94D71180916B
:102740006F03882309F47FC180916C0390916D031E
:102750008F5F9F4F09F40FC184E10E949C0A882378
:1027600011F180917103E82FFF27EE0FFF1FE65B49
:10277000FC4F8081918120E030E88227932780837D
:1027800091838081918190936D0380936C03AA273C
:10279000BB2780709078A070B070892F9A2FAB2FD4
:1027A000BB2780938A0285E10E949C0A882311F14D
:1027B00080917103E82FFF27EE0FFF1FE65BFC4FB0
:1027C0008081918120E030E4822793278083918368
:1027D0008081918190936D0380936C03AA27BB271E
:1027E00080709074A070B070892F9A2FAB2FBB2788
:1027F00080938C0286E10E949C0A882311F18091CB
:102800007103E82FFF27EE0FFF1FE65BFC4F80816F
:10281000918120E030E28227932780839183808119
:10282000918190936D0380936C03AA27BB278070DE
:102830009072A070B070892F9A2FAB2FBB27809316
:102840008B028FE00E947C0A882331F48EE00E9484
:102850007C0A882309F47DC00E94EF0AC82FDD2777
:10286000C7FDD0958FE00E949C0A882329F48EE052
:102870000E949C0A882351F00E94D70D0E94FC0CF4
:1028800083E00E94A50B84E00E94A50B8FE00E94CC
:102890007C0A882349F183E00E94430B8FEFCF3FEE
:1028A000D807C9F00E94D70D20916C0330916D03B9
:1028B000307E9C2F8827282B392B30936D03209353
:1028C0006C0380917103E82FFF27EE0FFF1FE65B7B
:1028D000FC4F2083318380916C0390916D030E94A3
:1028E000FC108093840232C08EE00E947C0A882310
:1028F00009F441C084E00E94430B2FEFCF3FD20781
:10290000E1F00E94D70D20916C0330916D03307E71
:102910002C97CF71D0709C2F8827282B392B309380
:102920006D0320936C0380917103E82FFF27EE0F56
:10293000FF1FE65BFC4F2083318380916C039091F5
:102940006D030E94FC1080938402845F0E94E80C57
:1029500012C08FE00E94BC0A882329F48EE00E94F6
:10296000BC0A882341F083E00E94A50B84E00E940A
:10297000A50B0E94D70D8FE00E947C0A882309F0E6
:1029800062C08EE00E947C0A882309F05CC00E942D
:10299000260BC82F882329F40E943D0B882309F4B5
:1029A00047C00E94C00C0E94E60BCC2359F48091D2
:1029B0006C0390916D038F5F9F4F29F0C0916C0362
:1029C000C77001C0C1501092750380E00E94A00F33
:1029D0004091C602242F332763E0220F331F6A95EC
:1029E000E1F78C2F9927282B392B30936D032093F7
:1029F0006C0380917103E82FFF27EE0FFF1FE65B4A
:102A0000FC4F208331836C2F842F0E944715109236
:102A1000720310928B0280918B0280938C028091C2
:102A20008C0280938A021092840281E08093750365
:102A30000E94841180916C0390916D038770907057
:102A400001960E946C0C80916E03882309F404CDDA
:102A50000E94841180916C0390916D038770907037
:102A600001960E946C0CF8CCDF91CF911F910895D4
:102A700081E080936F0384E20E94430B0E94E60B87
:102A800080E00E94F80B80E00E94A00F0895EF9272
:102A9000FF920F931F93CF93DF93182F062F0E945F
:102AA000AB0DC12FDD2723E0CC0FDD1F2A95E1F709
:102AB000C00FD11D94E0CC0FDD1F9A95E1F787E799
:102AC000E82E83E0F82E1FE0CE010E94B910F70136
:102AD00081937F011150219617FFF6CF1092850246
:102AE00080E00E94710B0E94AB0DDF91CF911F918E
:102AF0000F91FF90EF900895EF92FF920F931F9325
:102B0000CF93DF93182F062F0E94AB0DC12FDD2727
:102B100053E0CC0FDD1F5A95E1F7C00FD11D47E7F9
:102B2000E42E43E0F42E34E0CC0FDD1F3A95E1F7BC
:102B30001FE0BE01F70181917F010E947A101150C0
:102B4000219617FFF6CF0E94AB0DDF91CF911F9119
:102B50000F91FF90EF9008951092720381E080939F
:102B6000730381E20E94430B80E00E94A00F8091DA
:102B7000660280FDFCCF81E0809375038093C803DB
:102B80008AEF0E944E08089510926F0384E20E941B
:102B9000A50B1092850280E00E94A50B0E94D70D24
:102BA0000E944E0C0E94E60B8091C6020E94F80B18
:102BB00080E00E94A00F0895109275030E944E0CB1
:102BC0000E94E60B0E94D70D8091C6020E94F80B6E
:102BD0001092730381E20E94A50B80E00E94A00F77
:102BE0001092C8038CEF0E944E080895CF92DF9296
:102BF000EF92FF920F931F93CF93DF93C090BF028A
:102C00001092740310926F03109273031092750365
:102C10001092720310928F0280916702882399F4B8
:102C20000E940D0514C00E9413051092750380E0E8
:102C30000E94A00F0E942C090E94FD080E94D10B47
:102C40000E94AB0DF9C20E9413050E945D090E940B
:102C5000A9098091C60280937603609174030E9453
:102C600047150E94D10B8091C6020E94F80B0E946A
:102C7000A9098091BF028C15B1F6909176038091DD
:102C8000C6029817D1F080917303882311F00E9437
:102C9000DC1580916F03882311F00E94C415809188
:102CA000C60280937603609174030E9447150E94C8
:102CB000E60B8091C6020E94F80B80917303882373
:102CC000E1F480916F038823C1F4809174038F5FD6
:102CD0000E94600C0E940F0BC82F882371F00E9485
:102CE000FC0C8C2F0E94600C8C2F815080937403FD
:102CF000682F809176030E94471580E00E949C0A0D
:102D00008823B1F080917303882391F082E20E94BE
:102D1000430B07E713E0CFE00E945500F8018193D1
:102D20008F01C150C7FFF8CF81E0809385020CC0AE
:102D300080E00E94BC0A882339F0809173038823C5
:102D400019F082E20E94A50B8091C8038823B9F094
:102D500080916702823099F48091680290916902B3
:102D60001816190664F4809168029091690203971D
:102D700090936902809368020E94740078CF8091DA
:102D80006702823019F40E940708D82E80916702EA
:102D9000823031F4DD2021F08D2D99270E948E069E
:102DA00080917303882399F080916702882329F426
:102DB00081E00E949C0A882339F480916702823066
:102DC00031F4FCEFDF1619F40E94DC1519C0809174
:102DD0006702882329F481E00E949C0A882341F439
:102DE00080916702823061F48D2D8A5F823040F4D9
:102DF00080916F03882311F00E94C4150E94AC15C6
:102E000080917303882329F480916F03882309F448
:102E10003DC100917203E02EFF24E701C958DC4F49
:102E200018811F7385E10E949C0A882349F01F3393
:102E300039F0888190E48927888381E08093850236
:102E400086E10E949C0A882361F01F3351F0F7014C
:102E5000E958FC4F808190E88927808381E0809346
:102E600085021F3341F0112331F0173110F4CFEFF9
:102E70000DC0143210F4C0E009C0103310F4C1E0EA
:102E800005C01C3310F4C2E001C0C3E084E10E941D
:102E90009C0A811110E08FE00E949C0A882339F07F
:102EA0001F3329F0112319F0C2300CF4145F8EE0A7
:102EB0000E949C0A882341F01F3331F0112321F036
:102EC000CF3F11F00CF01C5084E00E949C0A882334
:102ED00031F08CE0C802C0011124182F195E89E07E
:102EE0000E949C0A882331F08CE0C802C0011124A2
:102EF000182F185E85E00E949C0A882331F08CE030
:102F0000C802C0011124182F175E8AE00E949C0A93
:102F1000882331F08CE0C802C0011124182F165EFE
:102F2000C3300CF063C086E00E949C0A882331F015
:102F30008CE0C802C0011124182F155E87E00E94A2
:102F40009C0A882331F08CE0C802C0011124182F9C
:102F5000145E8BE00E949C0A882331F08CE0C8024A
:102F6000C0011124182F135E81E10E949C0A88235E
:102F700031F08CE0C802C0011124182F125E8CE0E1
:102F80000E949C0A882331F08CE0C802C001112401
:102F9000182F115E82E10E949C0A882331F08CE098
:102FA000C802C0011124182F105E8DE00E949C0AF7
:102FB000882331F08CE0C802C0011124182F1F5D56
:102FC00080E10E949C0A882331F08CE0C802C00195
:102FD0001124182F1E5D83E10E949C0A882331F082
:102FE0008CE0C802C0011124182F1D5D202F33274B
:102FF000F901E958FC4F80818F3F11F41F3319F418
:103000008081807C182BE901C958DC4F8881181712
:1030100011F180916F03882331F080E00E94A00FAE
:1030200081E00E946D07188381E080938502809182
:103030006F03882381F0812F829586958695837012
:103040008170912F991F9927991F482F692F812FE0
:103050008F730E94850F1F3F71F0812F0E943C0DDE
:1030600080918502882321F080E00E945A0B0EC0D7
:103070000E94A50B0BC00E940E0D80E00E94710BF8
:1030800083E00E94710B80E00E94430B88E00E9465
:103090009C0A882331F483E00E949C0A882309F467
:1030A000A5C080916F03882309F474C080E00E945A
:1030B000A00F81E00E946D0788E00E949C0A88238F
:1030C000B1F0809172039927019640974CF480915A
:1030D0007203E82FFF27E958FC4F80818F3F19F4D6
:1030E0001092720320C0809172038F5F1AC080918A
:1030F0007203882399F4809172038F30A0F4809139
:103100007203E82FFF27E958FC4F80818F3F59F069
:10311000809172038F5F80937203EDCF8091720371
:103120008150809372030E94E60B809172030E948B
:10313000F80B80917203E82FFF27E958FC4F80813C
:1031400080938F028F3F69F481E00E94A50B82E09B
:103150000E94A50B80E00E94430B80E00E94710B4F
:1031600045C080E00E94A50B80918502882319F05C
:1031700080E00E945A0B80918F02982F929596952D
:10318000969593709170282F221F2227221F492F76
:10319000622F25C088E00E949C0A882339F1C091E3
:1031A0007303CC2319F50E943815C09372038091E4
:1031B0007203E82FFF27E958FC4FE081E0938F026C
:1031C000EF3FA1F08E2F8295869586958370817052
:1031D0009E2F991F9927991F482F692F8E2F8F7324
:1031E0000E94850F80918F020E943C0D87E10E9412
:1031F0009C0A882309F43BCD80916F03882381F0DA
:103200008091720399270196409744F4809172034C
:10321000E82FFF27E958FC4F8FEF81830E94C415E8
:10322000609174038091C6020E947C151092850201
:1032300080E00E94710B1BCDDF91CF911F910F9108
:10324000FF90EF90DF90CF90089540E0DB01FC010C
:1032500090818C91981719F080E090E0089580811A
:103260008F3F19F481E090E008954F5F31961196F9
:10327000403270F381E090E008950895EF92FF925C
:103280000F931F93CF93FF24E090BF0280916702BA
:10329000882319F40E940D050BC00E94130580912C
:1032A0006702813019F40E94640902C00E945D091E
:1032B0000E94D10B0E94D70D1092A7038091A70303
:1032C000809387038FEF8093A8038091A803809356
:1032D000880381E00E94600C1092C8031092710371
:1032E0001092720310926D0310926C031092C70338
:1032F00010928302109284020E94E60B8091BF021A
:103300008F3021F08B3011F08730D1F48091C602DC
:103310001AC01092C8030E942C090E94FD08109246
:1033200083021092840210928B0210928A021092F1
:103330008C020E94D10B0E94D70D0E94AB0DFEC2E1
:103340008091C60287708093890280938802809161
:10335000C6020E94F80B0E94A9098091BF028E1537
:10336000C1F687E10E949C0A882329F18091860298
:103370009091870286509D40D0F480918602909172
:1033800087028E54914098F02091860230918702F6
:1033900080E69AEEB9010E94A41C709387026093A4
:1033A000860280918602909187020E942E051092DB
:1033B00087021092860280E00E949C0A882349F0CE
:1033C0000E94FC0C0E94D70D82E20E94430B1092D7
:1033D0008D0280E00E94BC0A882329F1A9ECB3E0A9
:1033E000E7E8F3E0CFE18D918193C150C7FFFBCFB8
:1033F0008091C8038823A1F4A7E8B3E0E7EAF3E0EB
:10340000CFE18D918193C150C7FFFBCF80918302A3
:103410008093840283E00E94A50B84E00E94A50BA8
:1034200082E20E94A50B80E00E947C0A882361F161
:10343000C0E080918D02C81760F4EC2FFF27E7539E
:10344000FC4F8081883028F48F5F0E94600CCF5F32
:10345000F0CF0E94260BC82F882309F44EC180911B
:103460008D02803208F049C1E82FFF27E753FC4F57
:10347000C150C0838F5F80938D02E82FFF27E753F1
:10348000FC4F8FEF808339C18FE00E947C0A882334
:1034900031F48EE00E947C0A882309F46DC00E94FA
:1034A000EF0AC82F8FE00E949C0A882329F48EE03F
:1034B0000E949C0A882339F00E94FC0C0E94D70DC0
:1034C00082E20E94A50B8FE00E947C0A882301F112
:1034D00084E00E94A50B83E00E94430BCF3F11F0D4
:1034E000C09383028091840287FD0AC00E94F30C7E
:1034F000882331F40E94D70D809184020E94E80C49
:103500009091830280918402981761F1892F28C0DD
:103510008EE00E947C0A882329F183E00E94A50B9B
:1035200084E00E94430BCF3F19F0CC50C09383023C
:1035300080918402181664F0845F0E94F30C882343
:1035400039F40E94D70D80918402845F0E94E80CB8
:103550009091830280918402981721F0892F845FD3
:103560000E94D20C8091C803882309F0C6C08091C4
:10357000830280938402C1C08FE00E94BC0A88232A
:1035800029F48EE00E94BC0A882321F00E94FC0CE2
:103590000E94D70D0E940F0BC82F882331F40E9480
:1035A0003D0B882309F446C01FC00E94C00CC150C7
:1035B000C0938703809187038093C9038FEF809323
:1035C0008803809188038093CA038091C80388236D
:1035D00019F5A7E8B3E0E7EAF3E0CFE18D91819335
:1035E000C150C7FFFBCF18C08091BF028F3021F0C0
:1035F0008B3011F0873019F48091C60203C080919E
:10360000C6028770809388028091C803882321F4C2
:1036100080918802809389028091C803882351F4A5
:103620000E94E60B809188020E94F80B8091830231
:103630008093840267EA73E087E893E00E9425198B
:103640008823F9F4809188038F3F49F48091A8037F
:103650008F3F29F48091A7038F5F0E94930CC0E0F5
:1036600007E813E0F8018081893008F044C0D801F0
:103670008D918D018F5F0E94600CCF5FC03290F3FF
:103680003AC0C0E007EA13E0F8018081893098F57C
:103690008091C8038823E1F08091C703E82FFF27BA
:1036A000E955FC4FD8019C918081981789F48C9141
:1036B0008F5F0E949F0C8823C9F4F80180818F5F7F
:1036C0000E94870CD8018C918F5F0E94930C0EC0D2
:1036D000F80180818F5F0E949F0C882311F00E9467
:1036E000D70DD8018C918F5F0E94600CCF5F0F5F68
:1036F0001F4FC03248F20E9484118091C803882372
:1037000051F180916702823089F480916802909132
:10371000690218161906FCF48091680290916902FA
:103720000397909369028093680212C0813099F4E4
:1037300080917102909172021816190664F48091BA
:1037400071029091720203979093720280937102BA
:103750000E94740000CE80916702823019F40E94AA
:103760000708F82E80916702882349F481E00E94BF
:103770009C0A882321F08091C803882371F48091EA
:103780006702823021F4BCEFFB1639F02BC0813088
:1037900049F50E944809882329F11092C80380E066
:1037A0000E94A00F0E94FD0880916702813011F0F5
:1037B0000E942C0981E20E94A50B0E94D70D0E9455
:1037C000E60B8091BF028F3021F08B3011F08730F3
:1037D00019F48091C60203C08091C60287700E94CE
:1037E000F80B68C080916702882349F481E00E9449
:1037F0009C0A882321F08091C803882389F0809156
:103800006702823029F48F2D8A5F823048F052C0DF
:10381000813009F04FC00E943309882309F44AC05F
:1038200081E20E94430B8091BF028F3021F08B30E8
:1038300011F0873039F46091A7038091C6020E948D
:10384000471511C08091C6026091A70387700E943E
:103850009D1180914A0390914B0390936D03809347
:103860006C030E94111110928F02809167028230C6
:1038700019F4EBEFFE1631F01092C70310927203A9
:1038800010927103109266021092690210926802FF
:1038900010927202109272021092710281E0809373
:1038A000C8038AEF0E944E0880916702813011F0B0
:1038B0000E94080986E10E949C0A882389F090E012
:1038C00080918B02882309F491E090938B029923D5
:1038D00021F082E00E94430B03C082E00E94A50B0E
:1038E00085E10E949C0A882389F090E080918C02F7
:1038F000882309F491E090938C02992321F081E0D0
:103900000E94430B03C081E00E94A50B84E10E944A
:103910009C0A882309F41FCD90E080918A028823B5
:1039200009F491E090938A02992321F088E00E94A3
:10393000430B11CD88E00E94A50B0DCDCF911F91B7
:103940000F91FF90EF900895AA1BBB1B51E107C098
:10395000AA1FBB1FA617B70710F0A61BB70B881F1F
:10396000991F5A95A9F780959095BC01CD010895AE
:10397000A1E21A2EAA1BBB1BFD010DC0AA1FBB1F73
:10398000EE1FFF1FA217B307E407F50720F0A21BE5
:10399000B30BE40BF50B661F771F881F991F1A9452
:1039A00069F760957095809590959B01AC01BD017C
:0439B000CF010895A6
:1039B40064207F04050607111210130409050A0682
:1039C400070B110C120D1013201B191C1A180F0CC5
:1039D4000E0B0D0A0920191A180C0B0A09222125AD
:1039E4002320191A18241B1C0F0E0D04030A0C0B98
:1039F400090801020026271D1E1F10121113141599
:103A0400161705060700070E091C1B1215383F364A
:103A14003124232A2D70777E796C6B6265484F467A
:103A24004154535A5DE0E7EEE9FCFBF2F5D8DFD6EA
:103A3400D1C4C3CACD90979E998C8B8285A8AFA61A
:103A4400A1B4B3BABDC7C0C9CEDBDCD5D2FFF8F18F
:103A5400F6E3E4EDEAB7B0B9BEABACA5A28F8881BA
:103A64008693949D9A2720292E3B3C35321F1811AA
:103A74001603040D0A5750595E4B4C45426F68615A
:103A84006673747D7A898E878095929B9CB1B6BF4C
:103A9400B8ADAAA3A4F9FEF7F0E5E2EBECC1C6CFFA
:103AA400C8DDDAD3D4696E676075727B7C51565F6A
:103AB400584D4A4344191E171005020B0C21262F9A
:103AC400283D3A33344E49404752555C5B76717811
:103AD4007F6A6D64633E39303722252C2B0601083A
:103AE4000F1A1D1413AEA9A0A7B2B5BCBB9691982A
:103AF4009F8A8D8483DED9D0D7C2C5CCCBE6E1E8DA
:103B0400EFFAFDF4F3010409050A06070B110C1280
:043B14000D1013007D
:00000001FF
