:100000000C9438000C9453000C9453000C9453003F
:100010000C94E7040C9453000C9453000C9453007C
:100020000C9453000C9419040C9453000C9453003A
:100030000C9453000C9453000C9453000C945300F4
:100040000C944D040C9453000C9453000C94BE0774
:100050000C949B0E0C9453000C9453000C9453007E
:100060000C9453000C9453000C9453000C945300C4
:1000700011241FBECFEFD4E0DEBFCDBF12E0A0E061
:10008000B1E0EAE0FAE302C005900D92A436B107B0
:10009000D9F713E0A4E6B2E001C01D92AB3EB10770
:1000A000E1F70C9418070C94000090919602292F08
:1000B000221F2227221F892F82958695869583707D
:1000C0002827892F82958F702827892F86958695D6
:1000D00028272170892F9927880F991F282B209373
:1000E0009602822F99270895FF920F931F93F894F9
:1000F000809167028150823020F18091C10284306A
:1001000001F180917402863010F010927402809197
:10011000740280FF02C0949804C0949A88EF0E94F1
:10012000860880917402882339F0809174028F5F71
:1001300080937402789479C3809174028F5F809366
:10014000740280916602883010F0109266028091ED
:10015000660280FF12C28091C10299278830910502
:1001600061F18930910594F48330910509F48EC0D2
:10017000843091051CF4019741F13CC38530910511
:1001800009F449C1079709F4A5C034C38C3091051F
:1001900009F47CC08D30910544F48930910509F44F
:1001A0003AC10B9709F496C025C38D30910509F427
:1001B00032C10F9709F48EC01DC380E00E94E30F87
:1001C000809191020E943A0915C380917703882398
:1001D00021F480916C03882361F0909191029F3FFC
:1001E00041F0991F9927991F80918D02892B0E94B8
:1001F000E30F80916C03882309F4FCC2809174039F
:10020000803150F480917403E82FFF27E758FC4FAA
:1002100080818F3F09F0EEC21092740380917303C6
:100220008F5F8093730380917303803168F48091B2
:100230007303E82FFF27EE0FFF1FE45BFC4F808165
:1002400091818F5F9F4F11F410927303809173031C
:10025000E82FFF27EE0FFF1FE45BFC4F80819181A9
:1002600090936F0380936E0380916E0390916F0360
:100270008F5F9F4F21F48FEF80937903BBC20E9461
:100280005511809386020E94300CB4C2809177038E
:10029000882309F4AFC2809191028F3F29F0881F13
:1002A0008827881F0E94E30F809174038F5F8093DB
:1002B000740380917403803150F480917403E82FAB
:1002C000FF27E758FC4F80818F3F09F093C21092BF
:1002D000740390C28091CA03882309F48BC2809171
:1002E00091028F3F09F1881F8827881F9927209145
:1002F0008D023327822B932B892B21F081E00E94E2
:10030000E30F12C080E00E94E30F20919102822F40
:1003100099278F739070892B21F080918602820F2C
:1003200001C0822F0E943A09409165024F3FC9F0F7
:10033000842F881F8827881F992720918D023327B3
:10034000822B932B892B69F0842F99278F739070C0
:10035000892B21F080918602840F01C0842F0E9496
:100360003A0980917403803150F480917403E82F2E
:10037000FF27E758FC4F80818F3F09F03BC2109266
:1003800074038091C9038F5F8093C9038091C9036F
:10039000803248F48091C903E82FFF27E755FC4FCE
:1003A00080818F3F11F41092C90369EA73E089E8F4
:1003B00093E00E945119882331F090918B02809133
:1003C0008A029817A1F0A9E8B3E0E9EAF3E09FE117
:1003D0008D918193915097FFFBCF1092C90310929A
:1003E0008602109285020E94380D0E94130E8091A1
:1003F0008A0280938B02809185028093860280918D
:10040000C903E82FFF27E755FC4F608180918B02DD
:100410000E947915EFC18091CA03882309F4EAC1CB
:10042000809191028F3F41F1881F8827881F99276B
:1004300020918D023327822B932B892B21F081E091
:100440000E94E30F19C080E00E94E30F2091910207
:10045000822F99278F739070892B59F01091860203
:10046000120F80916E0390916F030E944311810FD0
:1004700001C0822F0E943A0980917403803150F4A8
:1004800080917403E82FFF27E758FC4F80818F3F4E
:1004900009F0B0C110927403809173038F5F809351
:1004A000730380917303803170F480917303E82F9C
:1004B000FF27EE0FFF1FE45BFC4F808191818F5F70
:1004C0009F4F09F049C0109273038091C9038F5F59
:1004D0008093C9038091C903803248F48091C90395
:1004E000E82FFF27E755FC4F80818F3F51F5109291
:1004F000C90369EA73E089E893E00E9451198823EF
:1005000031F090918B0280918A02981791F0A9E8BE
:10051000B3E0E9EAF3E09FE18D918193915097FF79
:10052000FBCF10928602109285020E94380D0E9425
:10053000130E80918A0280938B02809185028093B2
:1005400086028091C903E82FFF27E755FC4F6081A1
:1005500080918B020E94E01180917303E82FFF27A6
:10056000EE0FFF1FE45BFC4F8081918190936F033E
:1005700080936E030E9455113DC18091C10299275D
:100580008830910561F18930910594F483309105AB
:1005900009F492C0843091051CF4019791F12AC1AD
:1005A0008530910509F4C3C0079709F4B6C022C18C
:1005B0008C30910509F480C08D30910544F4893068
:1005C000910509F4B4C00B9709F4A7C013C18D308D
:1005D000910509F4ACC00F9709F49FC00BC180913D
:1005E00091028093650280919002809391020E9413
:1005F0005500809390028091910240E0642F8F73A8
:10060000F3C080917703882329F480916C038823B9
:1006100009F4F0C080917703882379F08091740306
:10062000803148F480917403E82FFF27E758FC4F8E
:1006300080818F3F11F41092740360919102609356
:10064000650280917403E82FFF27E758FC4F8F5F06
:1006500080937403E081E0939102EF3F09F4CAC0F4
:1006600080918C02882319F0E07CE0939102209124
:100670009102822F99278F739070422F4295469551
:1006800046954370661F6627661F2F73892B59F0A6
:10069000417080918E02482B80918D02682B809151
:1006A0008602820F37C0417080918E02482B809164
:1006B0008D02682B822F2EC080917703882309F446
:1006C00099C00E94300C809174030E94420C80916A
:1006D00091028093650280917403E82FFF27E75809
:1006E000FC4F8081809391028F3F09F483C00E9468
:1006F000780D20919102922F9295969596959370F0
:10070000917080916502881F8827881F492F682F64
:10071000822F8F730E94C90F6DC08091CA038823F6
:1007200031F00E94300C809174030E94420C809141
:10073000CA03882309F45EC0009191020093650208
:1007400080917403E82FFF27E758FC4F8F5F809359
:100750007403E081E0939102EF3F09F44BC0809174
:100760008C02882319F0E07CE093910220919102A1
:10077000822F99278F739070422F42954695469508
:100780004370602F661F6627661F2F73892B21F128
:1007900051E0F52EF42280918E02F82A00918D020C
:1007A000062B10918602120F80916E0390916F03B9
:1007B0000E9443114F2D602F810F0E94C90F10918D
:1007C000910280918602180F80916E0390916F03C1
:1007D0000E944311810F0CC0417080918E02482B02
:1007E00080918D02682B822F0E94C90F8091910207
:1007F0000E94160980916602843030F485E20E94DE
:10080000920B0E94050E09C080916602883028F480
:1008100085E20E94F00B0E94F80D0E94E70D809186
:1008200066028F5F8093660278941F910F91FF900C
:1008300008951F920F920FB60F9211242F933F939A
:100840004F935F936F937F938F939F93AF93BF93D8
:10085000EF93FF9380919702909198029093890073
:10086000809388000E947400FF91EF91BF91AF9137
:100870009F918F917F916F915F914F913F912F91B8
:100880000F900FBE0F901F90189580917D00869558
:10089000869599278170907008951F920F920FB6D8
:1008A0000F9211242F933F934F935F936F937F93F6
:1008B0008F939F93AF93BF93CF93EF93FF938091C9
:1008C00075028F3F29F0809175028F5F80937502CA
:1008D00080918802909189028F5F9F4F49F08091AB
:1008E00088029091890201969093890280938802F0
:1008F00080918102909182028F5F9F4F49F0809199
:1009000081029091820201969093820280938102EB
:10091000209167022130B1F08091700290917102B4
:10092000892B81F0809170029091710201979093D0
:100930007102809370028091700290917102892BF4
:1009400009F494982130C1F4C0B3C295CF70C1703E
:1009500080916D02882371F4CC2361F08091720242
:10096000909173020196909373028093720288EFC4
:100970000E948608C0936D020E944504982F882328
:10098000A1F480916402883C29F4909364020E944F
:10099000050E06C080916402843611F40E94F80DA1
:1009A000809164028F5F80936402FF91EF91CF91F9
:1009B000BF91AF919F918F917F916F915F914F9177
:1009C0003F912F910F900FBE0F901F9018951F927F
:1009D0000F920FB60F9211242F933F938F939F93F3
:1009E00029B3237080919902281791F1833041F443
:1009F000223099F48091940290919502019709C058
:100A0000823059F4233049F48091940290919502F8
:100A10000196909395028093940280919402909114
:100A200095028D52914030F08CE291E090939502C6
:100A3000809394028091940290919502449730F4AF
:100A400084E190E090939502809394022093990220
:100A50009F918F913F912F910F900FBE0F901F90FC
:100A6000189589B7816089BF8BE083BF8AEF81BF0A
:100A7000089580917D00846080937D00089585E2D3
:100A80000E94F00B80917D008B7F80937D00089504
:100A900089B7816089BF8BE087BD82E382BD0895FD
:100AA000E199FECF9FBB8EBBE09A8DB39927089545
:100AB000E199FECF9FBB8EBB6DBBF894E29AE19AA1
:100AC000789408950F931F93CF93DF938C0181E067
:100AD0000D32180710F00CE211E00431110510F48A
:100AE00004E110E010939302009392021093950298
:100AF00000939402812F9927682F85E090E00E944F
:100B000058056091920286E090E00E94580580911D
:100B10009202909193020E945C0EC0E0D0E7E8E35D
:100B2000F9E3980144275527BE01CF010E94E31C39
:100B3000FA01E90193E0F695E795D795C7959A955F
:100B4000D1F7BE01CF0126E030E040E050E00E9446
:100B5000E31CFA01E901CA01AA27BB279C010097FF
:100B600031F4D0939802C093970281E061C0887FEE
:100B7000892B69F403E0F695E795D795C7950A9513
:100B8000D1F7D0939802C093970282E051C0C90177
:100B9000807F892B69F414E0F695E795D795C79582
:100BA0001A95D1F7D0939802C093970286E040C07F
:100BB000C901807E892B69F4B5E0F695E795D79554
:100BC000C795BA95D1F7D0939802C093970287E062
:100BD0002FC0C901807C892B69F4A6E0F695E795C2
:100BE000D795C795AA95D1F7D0939802C09397024D
:100BF00083E01EC0C9018070892B51F48D2F9E2F78
:100C0000AF2FBB27909398028093970284E010C087
:100C100020703C7F232B79F46AE0F695E795D79511
:100C2000C7956A95D1F7D0939802C093970285E053
:100C300080938A0002C010928A008091970290915E
:100C40009802909581959F4F909398028093970278
:100C50009093890080938800DF91CF911F910F912D
:100C600008950F931F9380916B00816080936B00B8
:100C700080916B00826080936B008BB788608BBF24
:100C800085E090E00E9450059927182F002786E004
:100C900090E00E9450059927802B912B0E946205BD
:100CA0001092660280917D00846080937D001F9188
:100CB0000F910895159BFECF83B980E090E00895D1
:100CC000CF93DF93EC018881882331F089910E94D2
:100CD0005A0688818823D1F7DF91CF9108950F9329
:100CE0001F93CF93DF93EC0100E117E2CE01B8012F
:100CF0000E94CF1C6115710581F0862F805D0E94D6
:100D00005A06CE01B8010E94CF1CEC01C8016AE06E
:100D100070E00E94CF1C8B010EC0CE01B8010E9472
:100D2000CF1CEC01C8016AE070E00E94CF1C8B016F
:100D30006A307105D8F601151105A9F0CE01B80188
:100D40000E94CF1CCB01805D0E945A06CE01B801E3
:100D50000E94CF1CEC01C8016AE070E00E94CF1C29
:100D60008B01672B59F7DF91CF911F910F91089558
:100D70008F708A3010F4805D01C0895C0E945A0631
:100D80000895CF93DF93EC01892F992782958F7077
:100D9000009711F00E94B8068D2F9927009711F047
:100DA0000E94B806CE0144E0969587954A95E1F7F2
:100DB000009711F00E94B8068C2F0E94B806DF91B0
:100DC000CF91089582B1992787FD90958827990F33
:100DD000881F99270895179BFECF83B199270895FF
:100DE00023E330E081B1886181B920B91CBE05C020
:100DF0000E94EB068AE00E94A0070E94E206AC0176
:100E0000892BB1F70F9A2FE130E08AB188698AB94E
:100E100029B940BD80EC8ABB8CE38BBB8BEB87BBD5
:100E200018BA8FEF84BB81BB86B981E58DB908956F
:100E3000CFEFD4E0DEBFCDBF0E94F0060E943106A6
:100E40000E94310580919202809396020E94B0091F
:100E50000E94100878940E94FC098091C102992791
:100E60008830910509F452C089309105CCF4833063
:100E7000910579F18430910554F48130910561F147
:100E8000823091050CF057C0892BB1F1E4CF853049
:100E9000910551F185309105A4F1079729F1DBCF38
:100EA0008C30910509F441C08D30910524F40A97E6
:100EB00009F441C01BC08E30910531F08E30910590
:100EC00084F00F9771F0C7CF109267020E94BE0F97
:100ED000C2CF109267022CC0109267020E944E127D
:100EE000BACF1092670205C081E001C082E0809312
:100EF00067020E946919AFCF109267020E9498089A
:100F0000AACF109267020E94EA0FA5CF1092670243
:100F10000E9439050E941B0C0E94FC098091C102AD
:100F20008830D1F30E943F0596CF82E0809367021C
:100F30000E942C1690CF0E941B0C0E94E70D8BCFB5
:100F400020EA3FE0E22FF32F3197F1F78A95D1F7AE
:100F50000895CF93C82FC150CF3F71F08AEF0E9400
:100F6000A0078AEF0E94A0078AEF0E94A0078AEFDD
:100F70000E94A007C15090F7CF9108951F920F9241
:100F80000FB60F9211248F939F93EF93FF939CB111
:100F9000983FB1F480916702813021F0949A85E006
:100FA000809370028091CA03882349F1809168027E
:100FB00090916902019690936902809368021FC024
:100FC00080916B02E82FFF27E556FD4F90838F5FDE
:100FD00080936B0280916B028F7180936B02909172
:100FE0006B0280916C02981751F480916C028F5FB4
:100FF00080936C0280916C028F7180936C02FF91E0
:10100000EF919F918F910F900FBE0F901F901895A9
:1010100099270E945005803108F08FE099270895A4
:1010200083E00E9408088093BB0284E00E940808C5
:1010300080939A02089590916C0280916B029817A8
:1010400019F081E090E0089580E090E0089590919B
:101050006C0280916B029817D1F3F89480916C0226
:10106000E82FFF27E556FD4F8F5F80936C0290813C
:1010700080916C028F7180936C027894892F9927EC
:1010800008950E941B08892BC1F00E94270887FF42
:1010900014C0682F62956F70482F55276F3059F034
:1010A0009A012F7030708091BB0299272817390759
:1010B00021F460936A02CA01089580E090E00895E7
:1010C00090916502891731F480E00E94E30F8FEF61
:1010D000809365020895CF93C82F962F60E09923DF
:1010E00019F40E94600810C0809165028F3F09F0DA
:1010F00061E08C2F8951953610F041E001C040E04D
:101100000E94C90FC0936502CF9108955D9BFECFE9
:101110008CB980E090E0089580919A02806B0E94E3
:1011200086088BE70E94860880E00E948608089562
:101130001F93CF930E943F050E94300C8091BB0209
:101140000E94420C0E94FC0984E60E94A0070E94B3
:10115000FC0984E60E94A0070E94FC091091C802C5
:101160008FEF809365020E94FC09C091C102CC23DD
:1011700019F00E948C0857C06091C802161771F0D0
:101180006093BB0283E090E00E9458050E94300CFF
:101190008091BB020E94420C1091C8020E941B0861
:1011A000892B09F30E942708482F582F551F5527D0
:1011B000551FA1F0682F62956F706F3049F0992725
:1011C0008F7090702091BB0233278217930719F418
:1011D00060936A0203C0C0936A02C5CF80916A021D
:1011E00099278830910589F0099709F0BCCF5523DC
:1011F00021F00E942708C82F01C0C42F0E94270891
:10120000682F8C2F0E946B08AECF552321F00E94CF
:101210002708C82F01C0C42F0E942708682F8C2FD1
:101220000E946008A0CFCF911F910895CF93C82F3F
:1012300080919A0280690E9486088C2F99278F736B
:101240009070892B11F480E003C08C2F8F73875E20
:101250000E9486088C2F829586958695837080FFE4
:1012600003C08091020102C0809100010E948608A3
:10127000CF910895CF93C82F80919A0280680E94E1
:1012800086088C2F99278F739070892B11F480E03A
:1012900003C0CF738C2F875E0E9486088091010166
:1012A0000E948608CF91089580916702823029F0CC
:1012B0008CEF0E9486080E948C080895CF930E94AC
:1012C0004504C82F809167028130D1F0CC2311F002
:1012D0000E943F059498979A85E00E94A00780910C
:1012E0009702909198020A979093890080938800C2
:1012F0001092740210926602CC2311F00E943905FC
:10130000CF91089580916702813009F097980895F0
:1013100090B3991F9927991F80916F02882339F400
:10132000992329F090936F0281E090E008959093C3
:101330006F0280E090E0089590B3991F9927991F5C
:1013400080916E02882339F0992329F490936E02DC
:1013500081E090E0089590936E0280E090E008951F
:1013600081B3806F81BB82B38F7082BB08958FE0A1
:1013700091B3982391BB92B3982392BB0895DE98C2
:101380000895AC01F894C09800000000000000002F
:10139000C09A20E01FB8779BFECFFA01E20FF11D43
:1013A0008FB180832F5F2330A8F37894089599B389
:1013B000969596959F70292F269526952695892F87
:1013C00086958270282B892F9927880F991F382F8F
:1013D0003470232B880F991F880F991F8870282B32
:1013E0008FE0821B99270895DE9A089589B3869528
:1013F00086958F7099270895AF92BF92CF92DF9212
:10140000EF92FF920F931F93CF93DF93CDB7DEB789
:1014100026970FB6F894DEBF0FBECDBF2091940281
:10142000309195028091920290919302281739078A
:1014300031F080919402909195020E946205A5EC92
:10144000B2E0EEEBF2E062E011921D92615067FFB4
:10145000FBCF80917502843108F490C01092750220
:101460000E94BF09CE0101960E94C1098091C2026B
:101470008C838091C3028D838091C4028E8360E04F
:1014800001E010E06E01C00ED11E862F8695869574
:101490008695A82FBB27AD014E535D4F862F8770D1
:1014A000980102C0220F331F8A95E2F7C901FA01A1
:1014B0003081232F2823FD01E753FD4FE081E823EE
:1014C000AC0DBD1DAC91A8238095222331F03823AB
:1014D000EA2B3E2BDA013C9305C03823EA233E2B4E
:1014E000FA0130836F5F683180F20E94D709682F5C
:1014F0008091C802681749F08091BD02681729F4ED
:101500006093C80281E0809376026093BD020E94DE
:10151000F40975ECE72E72E0F72E0EEB12E042ECC8
:1015200052E069ECA62E62E0B62EF60162E0808100
:10153000D5018D935D012381DA018D91AD01922F4B
:1015400098278923D8018D938D019223D7019D93EC
:101550007D016150319667FFEACF0E94F609682F3E
:101560008091C102681731F08091BC02681711F4B4
:101570006093C1026093BC020E94E70D26960FB6ED
:10158000F894DEBF0FBECDBFDF91CF911F910F91B9
:10159000FF90EF90DF90CF90BF90AF900895282FED
:1015A000883118F080E090E00895869586958695BC
:1015B000E82FFF27EE53FD4F80819927277002C047
:1015C000959587952A95E2F79C012170307080FFF0
:1015D00003C081E090E00895C9010895282F883163
:1015E00018F080E090E00895869586958695E82F1E
:1015F000FF27E254FD4F80819927277002C09595FF
:1016000087952A95E2F79C012170307080FF03C016
:1016100081E090E00895C9010895282F883118F0DD
:1016200080E090E00895869586958695E82FFF27BF
:10163000EB53FD4F80819927277002C095958795C0
:101640002A95E2F79C012170307080FF03C081E091
:1016500090E00895C90108958091C202882359F449
:101660008091C302882339F48091C402882319F43D
:1016700081E090E0089580E090E00895FF920F935C
:101680001F93CF93DF93FF2400E010E0CBE0D1E085
:1016900088810E94CF0A882311F0C80109C0F39401
:1016A00021960F5F1F4F8CE08F1594F78FEF9FEF00
:1016B000DF91CF911F910F91FF900895CF93C0E0DC
:1016C000EC2FFF27ED5FFE4F80810E94CF0AEC2FA9
:1016D000EF5F882319F08E2F992705C0CE2FE830B1
:1016E00078F380E090E0CF910895CF93C0E0EC2FA5
:1016F000FF27ED5FFE4F80810E94EE0AEC2FEF5F27
:10170000882319F08E2F992705C0CE2FE83078F363
:1017100080E090E0CF910895809176021092760259
:1017200099270895282F883290F486958695869576
:10173000E82FFF27E458FD4F277081E090E002C0BA
:10174000880F991F2A95E2F72081282B208308957E
:10175000282F883290F4869586958695E82FFF2766
:10176000E958FD4F277081E090E002C0880F991F73
:101770002A95E2F72081282B20830895282F88328C
:10178000A0F4869586958695E82FFF27E958FD4FAA
:10179000277081E090E002C0880F991F2A95E2F738
:1017A000982F90958081892380830895282F8832EF
:1017B00018F080E090E00895869586958695E82F4C
:1017C000FF27E958FD4F277081E090E002C0880FA5
:1017D000991F2A95E2F720812823822F99270895BF
:1017E000282F8832A0F4869586958695E82FFF27C6
:1017F000E458FD4F277081E090E002C0880F991FE8
:101800002A95E2F7982F9095808189238083089507
:10181000282F869586958695ECE7F2E0E80FF11D76
:1018200080819927277002C0959587952A95E2F7C0
:101830008170907008951092800210927F02109231
:101840007E0210927D0210927C0210927B02109216
:101850007A0210927902109278021092770208951B
:101860000F931F93CF9305E411E0CFE0F80181912E
:101870008F010E94F00BC150C7FFF8CFCF911F918D
:101880000F910895803138F4E82FFF27EB5BFE4F6E
:1018900080810E94920B0895803138F4E82FFF2751
:1018A000EB5BFE4F80810E94A80B0895803118F0F9
:1018B00020E030E009C0E82FFF27EB5BFE4F80817E
:1018C0000E94080C282F3327C9010895803118F091
:1018D00080E090E00895E82FFF27EB5BFE4F8081CA
:1018E0000E94D60B99270895883138F4E82FFF27F6
:1018F000E35DFE4F80810E94920B0895883138F499
:10190000E82FFF27E35DFE4F80810E94A80B08951A
:10191000883138F4E82FFF27E35DFE4F80810E9475
:10192000F00B08950F931F93CF930DE211E0C7E1E1
:10193000F80181918F010E94F00BC150C7FFF8CFD1
:10194000CF911F910F910895E82F8150883030F486
:10195000FF27EC5DFE4F80810E94920B08950F934C
:101960001F93CF93DF93082F11E0C5E2D1E010174A
:1019700021F488810E94920B03C088810E94F00BA1
:101980001F5F2196193098F3DF91CF911F910F912E
:101990000895E82F8150883030F4FF27EC5DFE4F2A
:1019A00080810E94F00B0895E82F8150883030F438
:1019B000FF27EC5DFE4F80810E94A80B0895E82F61
:1019C0008150883040F4FF27EC5DFE4F80810E94FB
:1019D000D60B9927089580E090E00895E82F815074
:1019E000883048F4FF27EC5DFE4F80810E94080C90
:1019F000282F332702C020E030E0C90108950F935B
:101A00001F93CF9305E211E0C7E0F80181918F01A8
:101A10000E94F00BC150C7FFF8CFCF911F910F91DB
:101A200008958D3038F4E82FFF27E85EFE4F80815F
:101A30000E94920B08958D3038F4E82FFF27E85E5E
:101A4000FE4F80810E94F00B08958D3038F4E82F0E
:101A5000FF27E85EFE4F80810E94A80B0895E8E111
:101A6000F1E0E80FF11D80810E94D60B99270895BF
:101A70000F931F93CF9308E111E0CCE0F80181911F
:101A80008F010E94F00BC150C7FFF8CFCF911F917B
:101A90000F9108950E94380D84E00E94F00B83E0BE
:101AA0000E94F00B88E00E94F00B81E00E94F00B96
:101AB00082E00E94F00B0895CF93C82F84E00E942B
:101AC000F00BC23021F483E00E94A80B0FC083E02A
:101AD0000E94F00B83E00E94BE0BC13011F483E042
:101AE00003C0CF3F19F484E00E94920BCF91089578
:101AF000CF92DF92EF92FF920F931F93CF93DF93DA
:101B0000182F87FF04C086E10E94740C03C086E191
:101B10000E94880C812F829586958695837080FF20
:101B200004C085E10E94740C03C085E10E94880C0A
:101B30001F7311F4012F15C0173110F40FEF11C0EE
:101B4000143218F41C5000E00CC0103318F4185173
:101B500001E007C01C3318F4145202E002C003E095
:101B60001053802F0E945C0D112331F40E94380D18
:101B700084E10E94740C22C084E10E94880C98E1E8
:101B8000C92E91E0D92E8BE0E82EF12C0CE0C12F6C
:101B9000DD27EC16FD0621F0F60180810E94F00B96
:101BA00001500894E11CF11C0894C11CD11C07FFD2
:101BB000EECFC35FDE4F88810E94920BDF91CF9101
:101BC0001F910F91FF90EF90DF90CF900895F894C0
:101BD000DF98ECE7F2E080818FB9779BFECF3196FA
:101BE00082E0E038F807B9F3B4F3DF9A7894089507
:101BF000A7E7B2E0ECE7F2E024E080819D91892B39
:101C00008193215027FFF9CF0895A7E7B2E0ECE7D1
:101C1000F2E024E09D919095808189238193215069
:101C200027FFF8CF0895A7E7B2E0ECE7F2E034E051
:101C300020819C91822F892319F09095292320835C
:101C40001D923150319637FFF3CF0895AC0120E05B
:101C5000322F6115710581F0FA01E30FF11D8081CA
:101C60002827E22FFF27EB5AFE4F20813F5F832F6B
:101C700099278617970780F3822F99270895EF9267
:101C8000FF920F931F93CF93DF937B01C0E0D0E0CF
:101C9000C617D70750F48C01F80181918F010E947B
:101CA0005A062196CE15DF05B8F3DF91CF911F912B
:101CB0000F91FF90EF9008950F931F939C010CECF0
:101CC00012E082E48093CC021092CD0282E08093F5
:101CD000CE02832F99278093CF022093D00265E014
:101CE00070E0C8010E94260E8093D10266E070E089
:101CF000C8010E943F0E1F910F9108950F931F93EB
:101D00000CEC12E090E89093CC021092CD0291E09E
:101D10009093CE028093CF0264E070E0C8010E94ED
:101D2000260E8093D00265E070E0C8010E943F0E4D
:101D30001F910F9108951F920F920FB60F921124C9
:101D4000EF92FF921F932F933F934F935F936F9365
:101D50007F938F939F93AF93BF93CF93DF93EF9333
:101D6000FF93C3B180915502882309F4F1C080919B
:101D7000810290918202895E934030F00E94300C83
:101D80000E94E70D1092840280918402803448F40E
:101D9000E82FFF27E45FFC4FC0838F5F80938402AE
:101DA00004C00E947E0E1092840210928202109251
:101DB000810220918402233008F4CAC0F0900C0301
:101DC00080910D03682F7727762F662780910E0369
:101DD0009927682B792B3327CB01049628173907CD
:101DE00008F4B6C0FB01E45FFC4F1381EB012396BE
:101DF000BE018CE093E00E94260E181771F0BE0120
:101E00008CE093E00E94260E99270E94C106109252
:101E1000840280E00E947E0E9BC08F2D9927813125
:101E2000910551F18231910544F48130910509F415
:101E300088C0409709F460C086C08034910521F0C5
:101E40008134910541F07FC080919202909193027C
:101E50000E945C0E7BC080910E03823009F073C03B
:101E600080910F039927982F882720911003820FC4
:101E7000911D0E9462056AC080910E03823009F0B4
:101E800062C080910F0390911003C82FDD2763E09B
:101E9000CC0FDD1F6A95E1F7C90FD11D89E1809351
:101EA000CC021092CD0280E18093CE020F2EFFEC87
:101EB000EF2EF2E0FF2EF02DC295D295D07FDC27D9
:101EC000C07FDC271FE0CE010E940011F701819343
:101ED0007F011150219617FFF6CF63E170E08CEC83
:101EE00092E00E94260E8093DF0264E170E08CECA9
:101EF00092E00E943F0E2AC080910E03823119F5B4
:101F000080910F0390911003C82FDD2733E0CC0F91
:101F1000DD1F3A95E1F7C90FD11D21E1E22E23E043
:101F2000F22E94E0CC0FDD1F9A95E1F71FE0BE0181
:101F3000F70181917F010E94C1101150219617FF76
:101F4000F6CF81E001C080E00E947E0E10928402F4
:101F5000FF91EF91DF91CF91BF91AF919F918F91C1
:101F60007F916F915F914F913F912F911F91FF90C2
:101F7000EF900F900FBE0F901F9018950E94FC09D4
:101F80008091C1028E30D1F30E941B0C0E94E70D9C
:101F9000089590E03A98803408F08FE3611160E48E
:101FA000442311F440E801C0492F882349F0862BCF
:101FB000842B85BB3A9A9F5F9832E8F3399A08954B
:101FC000642B65BB0895882311F0AE9A01C039983F
:101FD0003A9808957F928F929F92AF92BF92CF923C
:101FE000DF92EF92FF920F931F93CF93CC24DD24C7
:101FF0007724072D0E943F050E94300C0E94FC09A7
:102000000E948C0B560146010E94FC098091C1027E
:10201000843019F00E948C08A7C080919A020E9417
:10202000560C882331F40E94300C80919A020E9451
:10203000420C0E948C0B882349F08091C802809347
:102040009A02682F84E090E00E9458058C2D0E942F
:102050005C0DC0E066E5E62E62E0F62EF7018081B9
:102060000E94EE0A8823B9F01C2F180D195E402F2C
:10207000672D812F0E94C90F802F992756E0880F66
:10208000991F5A95E1F7812B0E94160941E0742EA1
:102090008C2F0E94110DF70180810E940D0B882367
:1020A00081F02C2F2A0D295E802F992736E0880F8A
:1020B000991F3A95E1F7822B0E943A098C2F0E94D2
:1020C0001B0DCF5F0894E11CF11CCD3038F28FE07E
:1020D0000E94EE0A882371F0F2E0CF16D104F4F4E6
:1020E0000894C11CD11C8CE090E0880E991EA80EAB
:1020F000B91E14C08EE00E94EE0A882379F09FEF8B
:10210000C9169FEFD90651F04CF00894C108D108C8
:10211000E4EFFFEF8E0E9F1EAE0EBF1E85E10E9404
:10212000EE0A882371F080E0002309F481E0082F93
:10213000882321F081E00E94920B03C081E00E947D
:10214000F00B83B399278F739070892B09F45CCFC0
:102150000E942C0B882309F457CF80E00E94E30FE4
:1021600077240E94380D50CFCF911F910F91FF908F
:10217000EF90DF90CF90BF90AF909F908F907F9027
:102180000895282FF894C098000000000000000077
:1021900085E08FB9779BFECF0000000000000000B3
:1021A0001FB8779BFECF8FB1C09A000000000000DF
:1021B000000080FDE8CFC0980000000086E08FB9E5
:1021C000779BFECF00000000C09A000000000000D6
:1021D0000000C0980000000082E08FB9779BFECF1E
:1021E000872F99278FB9779BFECF6FB9779BFECF4B
:1021F0002FB9779BFECF00000000C09A7894089515
:102200009C01F894C0980000000083E08FB9779B90
:10221000FECF832F99278FB9779BFECF2FB9779B5E
:10222000FECF000000001FB8779BFECF8FB1C09A91
:102230007894992708951092700310927703109262
:102240006C0380E00E94E30F0E941B0C0E94130E9F
:102250000E948C0B08951092710384E20E94F00B8F
:102260000E941B0C0E94130E1092770380E00E94C4
:10227000E30F089581E08093710384E20E94920B42
:102280000E94300C0895892F9927282F2F71822FB3
:10229000992787FD909580719070892B09F0206EA9
:1022A000822F992787FD9095089520916E032770BE
:1022B00080916E0390916F03F3E096958795FA9560
:1022C000E1F7622F8F700E94791560916E03709113
:1022D0006F039B0144275527DA01C901807090786C
:1022E000A070B070892F9A2FAB2FBB2780938C02E0
:1022F000DA01C90180709074A070B070892F9A2F94
:10230000AB2FBB2780938E022070307240705070CC
:10231000BB27A52F942F832F80938D0210927403D7
:10232000CB010E9443119927089581E080937003A7
:1023300081E20E94920B10928E0280918E02809315
:102340008D0280918D0280938C0210926C0310920A
:10235000770380914C0390914D0390936F0380938A
:102360006E038F5F9F4F89F0109273031092740376
:10237000109291020E94551180938602809166020C
:1023800080FDFCCF81E080936C030E94300C0895A7
:1023900080918602882321F483E00E94F00B0CC018
:1023A00087FF07C083E00E94F00B84E00E94920B3D
:1023B000089583E00E94920B84E00E94F00B089540
:1023C000FF920F931F93CF93DF93C82FDD2703E076
:1023D000CC0FDD1F0A95E1F7C60FD11D15E0CC0F1C
:1023E000DD1F1A95E1F7BFE0FB2EC050D84F0CE47B
:1023F00013E0CE010E9400119927982F8827F80139
:1024000091838083CE0101960E940011282F3327EB
:10241000F80180819181822B932B91838083329666
:102420008F01FA942296F7FEE4CFDF91CF911F91AE
:102430000F91FF900895FF920F931F93CF93DF9317
:10244000C82FDD2753E0CC0FDD1F5A95E1F7C60FEB
:10245000D11D45E0CC0FDD1F4A95E1F73FE0F32E9B
:102460000CE413E0C050D84FF80180819181892F8E
:102470009927BE010E94C1102196F8018191919186
:102480008F01BE010E94C110FA942196F7FEECCF95
:10249000DF91CF911F910F91FF9008951F93CF93DC
:1024A000DF930E9439058091C802877080936D0385
:1024B00010927203109271031092700310926C03C9
:1024C00010927703109273038FEF9FEF90936F0337
:1024D00080936E03109267020E94300C0E94130ECC
:1024E0000E94FC098091C102813071F00E943F0579
:1024F0001092770310926C0380E00E94E30F0E9419
:102500001B0C0E94E70DE2C280917103882361F5E4
:1025100080917003882341F50E948C0B882359F029
:102520008091C802877080936D03609172030E944E
:10253000E0110E94300C80916D030E94420C0E94B9
:102540005E0BC82F882359F00E94380D8C2F8150C4
:1025500080937203682F80916D030E94E011809137
:1025600072038F5F0E94A40C81E00E94EE0A882310
:1025700079F080917003882319F00E941B1108C024
:1025800080917103882311F00E942B110E949511F4
:1025900080917003882329F480917103882309F4C2
:1025A00051C0809173030E94660C882311F40E942D
:1025B000130E809173030E944C0C80916E039091D6
:1025C0006F038F5F9F4F21F40E944A0D80E034C05B
:1025D00080E00E94F00B80916E0390916F0323E0E6
:1025E000969587952A95E1F78F700E94420C80910D
:1025F0006E0390916F0397FF04C088E00E94920BD6
:1026000003C088E00E94F00B80916E0390916F03ED
:10261000AA27BB2796FF04C081E00E94920B03C04B
:1026200081E00E94F00B80916E0390916F03AA27C6
:10263000BB2795FF04C082E00E94920B03C082E09A
:102640000E94F00B88E00E94EE0A882331F483E0B8
:102650000E94EE0A882309F478C0109170031123B8
:1026600009F073C0812F0E94E30FC0917103CC2346
:1026700009F442C088E00E94EE0A8823D1F08091DC
:1026800073039927019640976CF480917303E82FA8
:10269000FF27EE0FFF1FE45BFC4F808191818F5F6E
:1026A0009F4F19F41093730330C0809173038F5FB1
:1026B00020C0809173038823C9F480917303992704
:1026C0000196409714F580917303E82FFF27EE0FD2
:1026D000FF1FE45BFC4F808191818F5F9F4FA9F0CA
:1026E000809173038F5F80937303E7CF80917303AF
:1026F00081508093730309C088E00E94EE0A88230A
:1027000021F00E943A11C093730380917303E82F64
:10271000FF27EE0FFF1FE45BFC4F808191819093B8
:102720006F0380936E03109277038F5F9F4F69F062
:102730000E94551180938602109274038091660264
:1027400080FDFCCF81E08093770387E10E94EE0A51
:10275000882339F1809171038823E9F08091730314
:1027600099270196409764F480917303E82FFF271F
:10277000EE0FFF1FE45BFC4F8FEF9FEF938382838D
:102780008FEF9FEF90936F0380936E030E942B1146
:1027900080E00E94F00B6091720380916D030E94B3
:1027A0001B1280917103882309F47FC180916E030D
:1027B00090916F038F5F9F4F09F40FC184E10E94D6
:1027C000EE0A882311F180917303E82FFF27EE0FA3
:1027D000FF1FE45BFC4F8081918120E030E882277D
:1027E0009327918380838081918190936F0380935D
:1027F0006E03AA27BB2780709078A070B070892FD5
:102800009A2FAB2FBB2780938C0285E10E94EE0AA2
:10281000882311F180917303E82FFF27EE0FFF1F2C
:10282000E45BFC4F8081918120E030E48227932794
:10283000918380838081918190936F0380936E0355
:10284000AA27BB2780709074A070B070892F9A2F30
:10285000AB2FBB2780938E0286E10E94EE0A88236D
:1028600011F180917303E82FFF27EE0FFF1FE45B48
:10287000FC4F8081918120E030E282279327918371
:1028800080838081918190936F0380936E03AA2748
:10289000BB2780709072A070B070892F9A2FAB2FD9
:1028A000BB2780938D028FE00E94CF0A882331F4EA
:1028B0008EE00E94CF0A882309F47DC00E943E0B5F
:1028C000C82FDD27C7FDD0958FE00E94EE0A882330
:1028D00029F48EE00E94EE0A882351F00E94130E24
:1028E0000E94380D83E00E94F00B84E00E94F00B00
:1028F0008FE00E94CF0A882349F183E00E94920B67
:102900008FEFCF3FD807C9F00E94130E20916E03BE
:1029100030916F03307E9C2F8827282B392B3093E2
:102920006F0320936E0380917303E82FFF27EE0F50
:10293000FF1FE45BFC4F3183208380916E039091F5
:102940006F030E9443118093860232C08EE00E9482
:10295000CF0A882309F441C084E00E94920B2FEF34
:10296000CF3FD207E1F00E94130E20916E03309109
:102970006F03307E2C97CF71D0709C2F8827282B27
:10298000392B30936F0320936E0380917303E82FEC
:10299000FF27EE0FFF1FE45BFC4F31832083809104
:1029A0006E0390916F030E94431180938602845FAF
:1029B0000E94250D12C08FE00E940D0B882329F480
:1029C0008EE00E940D0B882341F083E00E94F00B03
:1029D00084E00E94F00B0E94130E8FE00E94CF0A49
:1029E000882309F062C08EE00E94CF0A882309F094
:1029F0005CC00E94750BC82F882329F40E948C0BA1
:102A0000882309F447C00E94FF0C0E94300CCC239D
:102A100059F480916E0390916F038F5F9F4F29F05F
:102A2000C0916E03C77001C0C1501092770380E05F
:102A30000E94E30F4091C802242F332763E0220F46
:102A4000331F6A95E1F78C2F9927282B392B309368
:102A50006F0320936E0380917303E82FFF27EE0F1F
:102A6000FF1FE45BFC4F318320836C2F842F0E9477
:102A700079151092740310928D0280918D028093CB
:102A80008E0280918E0280938C021092860281E0E9
:102A9000809377030E94C81180916E0390916F0319
:102AA0008770907001960E94AF0C8091700388230C
:102AB00009F416CD0E94C81180916E0390916F03A6
:102AC0008770907001960E94AF0C0ACDDF91CF9174
:102AD0001F91089581E08093710384E20E94920B1C
:102AE0000E94300C80E00E94420C80E00E94E30FC4
:102AF0000895EF92FF920F931F93CF93DF93182FB8
:102B0000062F0E94E70DC12FDD2723E0CC0FDD1F2C
:102B10002A95E1F7C00FD11D94E0CC0FDD1F9A95E7
:102B2000E1F789E7E82E83E0F82E1FE0CE010E944E
:102B30000011F70181937F011150219617FFF6CF05
:102B40001092870280E00E94BE0B0E94E70DDF9189
:102B5000CF911F910F91FF90EF900895EF92FF9208
:102B60000F931F93CF93DF93182F062F0E94E70D2B
:102B7000C12FDD2753E0CC0FDD1F5A95E1F7C00FC1
:102B8000D11D49E7E42E43E0F42E34E0CC0FDD1FE5
:102B90003A95E1F71FE0BE01F70181917F010E94A4
:102BA000C1101150219617FFF6CF0E94E70DDF915B
:102BB000CF911F910F91FF90EF90089510927403A1
:102BC00081E08093750381E20E94920B80E00E9475
:102BD000E30F80916702882321F48091660280FDD3
:102BE000FCCF81E0809377038093CA038AEF0E9431
:102BF000860808951092710384E20E94F00B1092EF
:102C0000870280E00E94F00B0E94130E0E94920C3B
:102C10000E94300C8091C8020E94420C80E00E9409
:102C2000E30F0895109277030E94920C0E94300CDB
:102C30000E94130E8091C8020E94420C10927503EC
:102C400081E20E94F00B80E00E94E30F1092CA0321
:102C50008CEF0E9486080895CF92DF92EF92FF9248
:102C60000F931F93CF93DF93C090C102109276030E
:102C700010927103109275031092770310927403EF
:102C80001092910280916702882399F40E9439057D
:102C900014C00E943F051092770380E00E94E30F6A
:102CA0000E9482090E9454090E941B0C0E94E70D99
:102CB000EFC20E943F050E94B0090E94FC0980916A
:102CC000C80280937803609176030E9479150E9470
:102CD0001B0C8091C8020E94420C0E94FC0980914A
:102CE000C1028C15B1F6909178038091C8029817B3
:102CF000D1F080917503882311F00E941216809103
:102D00007103882311F00E94FA158091C802809304
:102D10007803609176030E9479150E94300C8091AF
:102D2000C8020E94420C809175038823E1F48091CF
:102D300071038823C1F4809176038F5F0E94A40CF5
:102D40000E945E0BC82F882371F00E94380D8C2FD3
:102D50000E94A40C8C2F815080937603682F809161
:102D600078030E94791580E00E94EE0A8823B1F072
:102D700080917503882391F082E20E94920B09E70B
:102D800013E0CFE00E945500F80181938F01C150FC
:102D9000C7FFF8CF81E0809387020CC080E00E94DB
:102DA0000D0B882339F080917503882319F082E296
:102DB0000E94F00B8091CA038823B9F080916702CA
:102DC000823099F480916802909169021816190670
:102DD00064F480916802909169020397909369026C
:102DE000809368020E94740078CF809167028230DD
:102DF00041F40E944108D82E882319F099270E9497
:102E0000C10680917503882399F080916702882319
:102E100029F481E00E94EE0A882339F48091670248
:102E2000823031F4FCEFDF1619F40E94121619C03B
:102E300080916702882329F481E00E94EE0A8823AA
:102E400041F480916702823061F48D2D8A5F823077
:102E500040F480917103882311F00E94FA150E94BA
:102E6000DE1580917503882329F4809171038823EE
:102E700009F439C100917403E02EFF24E701C7581B
:102E8000DC4F18811F7385E10E94EE0A882349F008
:102E90001F3339F0888190E48927888381E080930B
:102EA000870286E10E94EE0A882361F01F3351F009
:102EB000F701E758FC4F808190E88927808381E003
:102EC000809387021F3341F0112331F0173110F442
:102ED000CFEF0DC0143210F4C0E009C0103310F46D
:102EE000C1E005C01C3310F4C2E001C0C3E084E1BE
:102EF0000E94EE0A811110E08FE00E94EE0A882302
:102F000039F01F3329F0112319F0C2300CF4145F8B
:102F10008EE00E94EE0A882341F01F3331F0112326
:102F200021F0CF3F11F00CF01C5084E00E94EE0A1B
:102F3000882331F08CE0C802C0011124182F195EDB
:102F400089E00E94EE0A882331F08CE0C802C001BB
:102F50001124182F185E85E00E94EE0A882331F0B4
:102F60008CE0C802C0011124182F175E8AE00E946D
:102F7000EE0A882331F08CE0C802C0011124182F1A
:102F8000165EC3300CF063C086E00E94EE0A882310
:102F900031F08CE0C802C0011124182F155E87E0C3
:102FA0000E94EE0A882331F08CE0C802C00111248F
:102FB000182F145E8BE00E94EE0A882331F08CE01B
:102FC000C802C0011124182F135E81E10E94EE0A8D
:102FD000882331F08CE0C802C0011124182F125E42
:102FE0008CE00E94EE0A882331F08CE0C802C00118
:102FF0001124182F115E82E10E94EE0A882331F01D
:103000008CE0C802C0011124182F105E8DE00E94D0
:10301000EE0A882331F08CE0C802C0011124182F79
:103020001F5D80E10E94EE0A882331F08CE0C80227
:10303000C0011124182F1E5D83E10E94EE0A88232F
:1030400031F08CE0C802C0011124182F1D5D202F23
:103050003327F901E758FC4F80818F3F11F41F336C
:1030600019F48081807C182BE901C758DC4F8881D6
:103070001817F1F080917103882331F080E00E94ED
:10308000E30F81E00E94A007188381E0809387020C
:1030900080917103882361F0812F829586958695B2
:1030A00083708170482F60E0812F8F730E94C90F59
:1030B0001F3F71F0812F0E94780D80918702882335
:1030C00021F080E00E94A80B0EC00E94F00B0BC004
:1030D0000E944A0D80E00E94BE0B83E00E94BE0B5E
:1030E00080E00E94920B88E00E94EE0A882331F46F
:1030F00083E00E94EE0A882309F4A4C06091910243
:1031000080917103882309F475C0C62FCC1FCC278A
:10311000CC1F8C2F0E94E30F81E00E94A00788E063
:103120000E94EE0A8823B1F08091740399270196DA
:1031300040974CF480917403E82FFF27E758FC4F29
:1031400080818F3F19F41092740320C08091740322
:103150008F5F1AC080917403882399F4809174035F
:103160008F30A0F480917403E82FFF27E758FC4FBD
:1031700080818F3F59F0809174038F5F8093740337
:10318000EDCF809174038150809374030E94300CC2
:10319000809174030E94420C80917403E82FFF27F2
:1031A000E758FC4F8081809391028F3F69F481E062
:1031B0000E94F00B82E00E94F00B80E00E94920BD4
:1031C00080E00E94BE0B3EC080E00E94F00B809128
:1031D0008702882319F080E00E94A80B9091910249
:1031E000892F82958695869583708170482F6C2FE4
:1031F000892F21C088E00E94EE0A882319F1C0912E
:103200007503CC23F9F40E946A15C093740380916E
:103210007403E82FFF27E758FC4FE081E093910209
:10322000EF3F81F08E2F8295869586958370817011
:10323000482F6C2F8E2F8F730E94C90F809191029F
:103240000E94780D87E10E94EE0A882309F445CD9B
:1032500080917103882381F08091740399270196EE
:10326000409744F480917403E82FFF27E758FC4F00
:103270008FEF81830E94FA15609176038091C802D6
:103280000E94AE151092870280E00E94BE0B25CDF1
:10329000DF91CF911F910F91FF90EF90DF90CF9032
:1032A000089540E0DB01FC0190818C91981719F0A2
:1032B00080E090E0089580818F3F19F481E090E0F4
:1032C00008954F5F31961196403270F381E090E09F
:1032D0000895EF92FF920F931F93CF93FF24E090F6
:1032E000C10280916702882319F40E9439050BC03E
:1032F0000E943F0580916702813019F40E94B7094E
:1033000002C00E94B0090E941B0C0E94130E109272
:10331000A9038091A903809389038FEF8093AA0367
:103320008091AA0380938A0381E00E94A40C1092EA
:10333000CA03109273031092740310926F031092D9
:103340006E031092C90310928502109286020E94A9
:10335000300C8091C1028F3021F08B3011F087301A
:10336000D1F48091C8021AC01092CA030E94820947
:103370000E945409109285021092860210928D02CA
:1033800010928C0210928E020E941B0C0E94130E4F
:103390000E94E70DFEC28091C802877080938B0265
:1033A00080938A028091C8020E94420C0E94FC090C
:1033B0008091C1028E15C1F687E10E94EE0A882332
:1033C00029F1809188029091890286509D40D0F425
:1033D00080918802909189028E54914098F02091BA
:1033E00088023091890280E69AEEB9010E94CF1CD2
:1033F000709389026093880280918802909189027B
:103400000E946205109289021092880280E00E9458
:10341000EE0A882349F00E94380D0E94130E82E2C2
:103420000E94920B10928F0280E00E940D0B882365
:1034300029F1ABECB3E0E9E8F3E0CFE18D918193C2
:10344000C150C7FFFBCF8091CA038823A1F4A9E82C
:10345000B3E0E9EAF3E0CFE18D918193C150C7FF7A
:10346000FBCF809185028093860283E00E94F00B5F
:1034700084E00E94F00B82E20E94F00B80E00E9448
:10348000CF0A882361F1C0E080918F02C81760F4F1
:10349000EC2FFF27E553FC4F8081883028F48F5FA5
:1034A0000E94A40CCF5FF0CF0E94750BC82F882319
:1034B00009F44EC180918F02803208F049C1E82F93
:1034C000FF27E553FC4FC150C0838F5F80938F026D
:1034D000E82FFF27E553FC4F8FEF808339C18FE042
:1034E0000E94CF0A882331F48EE00E94CF0A8823FD
:1034F00009F46DC00E943E0BC82F8FE00E94EE0AB7
:10350000882329F48EE00E94EE0A882339F00E9475
:10351000380D0E94130E82E20E94F00B8FE00E9491
:10352000CF0A882301F184E00E94F00B83E00E941F
:10353000920BCF3F11F0C09385028091860287FDE8
:103540000AC00E942F0D882331F40E94130E80912F
:1035500086020E94250D909185028091860298171F
:1035600061F1892F28C08EE00E94CF0A882329F1BB
:1035700083E00E94F00B84E00E94920BCF3F19F091
:10358000CC50C093850280918602181664F0845F47
:103590000E942F0D882339F40E94130E8091860219
:1035A000845F0E94250D9091850280918602981774
:1035B00021F0892F845F0E94110D8091CA03882316
:1035C00009F0C6C08091850280938602C1C08FE059
:1035D0000E940D0B882329F48EE00E940D0B882396
:1035E00021F00E94380D0E94130E0E945E0BC82F1E
:1035F000882331F40E948C0B882309F446C01FC035
:103600000E94FF0CC150C09389038091890380936D
:10361000CB038FEF80938A0380918A038093CC033E
:103620008091CA03882319F5A9E8B3E0E9EAF3E039
:10363000CFE18D918193C150C7FFFBCF18C080911E
:10364000C1028F3021F08B3011F0873019F4809156
:10365000C80203C08091C802877080938A0280915B
:10366000CA03882321F480918A0280938B0280917F
:10367000CA03882351F40E94300C80918A020E9470
:10368000420C809185028093860269EA73E089E8A2
:1036900093E00E9451198823F9F480918A038F3FA7
:1036A00049F48091AA038F3F29F48091A9038F5F89
:1036B0000E94D40CC0E009E813E0F8018081893051
:1036C00008F044C0D8018D918D018F5F0E94A40C39
:1036D000CF5FC03290F33AC0C0E009EA13E0F801CE
:1036E0008081893098F58091CA038823E1F0809128
:1036F000C903E82FFF27E755FC4FD8019C91808133
:10370000981789F48C918F5F0E94DF0C8823C9F48D
:10371000F80180818F5F0E94C90CD8018C918F5F66
:103720000E94D40C0EC0F80180818F5F0E94DF0CD4
:10373000882311F00E94130ED8018C918F5F0E9494
:10374000A40CCF5F0F5F1F4FC03248F20E94C81118
:103750008091CA03882351F180916702823089F4F5
:10376000809168029091690218161906FCF4809104
:1037700068029091690203979093690280936802AE
:1037800012C0813099F480917202909173021816E0
:10379000190664F4809172029091730203979093DA
:1037A0007302809372020E94740000CE80916702BF
:1037B000823019F40E944108F82E80916702882314
:1037C00049F481E00E94EE0A882321F08091CA0327
:1037D000882371F480916702823021F4BCEFFB16DC
:1037E00039F02BC0813049F50E949C09882329F1CA
:1037F0001092CA0380E00E94E30F0E945409809156
:103800006702813011F00E94820981E20E94F00B70
:103810000E94130E0E94300C8091C1028F3021F063
:103820008B3011F0873019F48091C80203C0809169
:10383000C80287700E94420C68C08091670288238A
:1038400049F481E00E94EE0A882321F08091CA03A6
:10385000882389F080916702823029F48F2D8A5F56
:10386000823048F052C0813009F04FC00E94880970
:10387000882309F44AC081E20E94920B8091C10220
:103880008F3021F08B3011F0873039F46091A9032B
:103890008091C8020E94791511C08091C802609180
:1038A000A90387700E94E01180914C0390914D0311
:1038B00090936F0380936E030E94551110929102B2
:1038C00080916702823019F4EBEFFE1631F010920E
:1038D000C90310927403109273031092660210923F
:1038E0006902109268021092740210927302109290
:1038F000720281E08093CA038AEF0E948608809159
:103900006702813011F00E945E0986E10E94EE0A92
:10391000882389F090E080918D02882309F491E05A
:1039200090938D02992321F082E00E94920B03C0B4
:1039300082E00E94F00B85E10E94EE0A882389F064
:1039400090E080918E02882309F491E090938E029A
:10395000992321F081E00E94920B03C081E00E9434
:10396000F00B84E10E94EE0A882309F41FCD90E059
:1039700080918C02882309F491E090938C02992322
:1039800021F088E00E94920B11CD88E00E94F00B9C
:103990000DCDCF911F910F91FF90EF900895AA1B2D
:1039A000BB1B51E107C0AA1FBB1FA617B70710F02A
:1039B000A61BB70B881F991F5A95A9F7809590955C
:1039C000BC01CD010895A1E21A2EAA1BBB1BFD016B
:1039D0000DC0AA1FBB1FEE1FFF1FA217B307E407EE
:1039E000F50720F0A21BB30BE40BF50B661F771F46
:1039F000881F991F1A9469F7609570958095909526
:0A3A00009B01AC01BD01CF01089548
:103A0A0064207F04050607111210130409050A062B
:103A1A00070B110C120D1013201B191C1A180F0C6E
:103A2A000E0B0D0A0920191A180C0B0A0922212556
:103A3A002320191A18241B1C0F0E0D04030A0C0B41
:103A4A00090801020026271D1E1F10121113141542
:103A5A00161705060700070E091C1B1215383F36F4
:103A6A003124232A2D70777E796C6B6265484F4624
:103A7A004154535A5DE0E7EEE9FCFBF2F5D8DFD694
:103A8A00D1C4C3CACD90979E998C8B8285A8AFA6C4
:103A9A00A1B4B3BABDC7C0C9CEDBDCD5D2FFF8F139
:103AAA00F6E3E4EDEAB7B0B9BEABACA5A28F888164
:103ABA008693949D9A2720292E3B3C35321F181154
:103ACA001603040D0A5750595E4B4C45426F686104
:103ADA006673747D7A898E878095929B9CB1B6BFF6
:103AEA00B8ADAAA3A4F9FEF7F0E5E2EBECC1C6CFA4
:103AFA00C8DDDAD3D4696E676075727B7C51565F14
:103B0A00584D4A4344191E171005020B0C21262F43
:103B1A00283D3A33344E49404752555C5B767178BA
:103B2A007F6A6D64633E39303722252C2B060108E3
:103B3A000F1A1D1413AEA9A0A7B2B5BCBB969198D3
:103B4A009F8A8D8483DED9D0D7C2C5CCCBE6E1E883
:103B5A00EFFAFDF4F3010409050A06070B110C122A
:043B6A000D10130027
:00000001FF
