:100000000C9438000C9453000C9453000C9453003F
:100010000C947E040C9453000C9453000C945300E5
:100020000C9453000C94E3030C9453000C94530071
:100030000C9453000C9453000C9453000C945300F4
:100040000C940F040C9453000C9453000C943F0731
:100050000C94090E0C9453000C9453000C94530010
:100060000C9453000C9453000C9453000C945300C4
:1000700011241FBECFEFD4E0DEBFCDBF12E0A0E061
:10008000B1E0EEEFF7E302C005900D92A038B107A2
:10009000D9F714E0A0E8B2E001C01D92A130B10789
:1000A000E1F70C940F060C9400009091AC02292FFC
:1000B000221F2227221F892F82958695869583707D
:1000C0002827892F82958F702827892F86958695D6
:1000D00028272170892F9927880F991F282B209373
:1000E000AC02822F99270895FF920F931F93F894E3
:1000F000809182028150823000F180918D028630A1
:1001000010F010928D0280918D0280FF02C09498B1
:1001100004C0949A88EF0E940A0880918D02882377
:1001200039F080918D028F5F80938D02789447C360
:1001300080918D028F5F80938D028091810280FF7C
:10014000E4C18091D70299278830910541F1893027
:10015000910594F48330910509F48AC084309105A7
:100160001CF4019721F10AC38530910509F41EC1E1
:10017000079709F4A1C002C38B30910509F49CC014
:100180008C30910524F4099709F410C1F7C28D3021
:10019000910509F40BC10F9709F48EC0EFC280E0FE
:1001A0000E94470F8091A7020E94D208E7C2809167
:1001B0008D03882321F480918203882361F090913C
:1001C000A7029F3F41F0991F9927991F8091A30291
:1001D000892B0E94470F80918203882309F4CEC2A5
:1001E00080918A03803150F480918A03E82FFF27A1
:1001F000E157FC4F80818F3F09F0C0C210928A0303
:10020000809189038F5F8093890380918903803176
:1002100068F480918903E82FFF27EE0FFF1FEE5946
:10022000FC4F808191818F5F9F4F11F41092890361
:1002300080918903E82FFF27EE0FFF1FEE59FC4F37
:1002400080819181909385038093840380918403BE
:10025000909185038F5F9F4F21F48FEF80938F03E1
:100260008DC20E94C31080939D020E94D50B86C24E
:1002700080918D03882309F481C28091A7028F3F6A
:1002800029F0881F8827881F0E94470F80918A03C2
:100290008F5F80938A0380918A03803150F480912C
:1002A0008A03E82FFF27E157FC4F80818F3F09F039
:1002B00065C210928A0362C28091E003882309F428
:1002C0005DC29091A7029F3F41F0991F9927991F06
:1002D0008091A302892B0E94470F2091A702822FB1
:1002E00099278F739070892B21F080919D02820F46
:1002F00001C0822F0E94D20880918A03803150F47D
:1003000080918A03E82FFF27E157FC4F80818F3FC0
:1003100009F034C210928A038091DF038F5F8093CB
:10032000DF038091DF03803248F48091DF03E82F00
:10033000FF27E154FC4F80818F3F11F41092DF03BF
:100340006FEB73E08FE993E00E944A18882331F045
:100350009091A1028091A0029817A1F0AFE9B3E0BB
:10036000EFEBF3E09FE18D918193915097FFFBCFED
:100370001092DF0310929D0210929C020E94E00CEA
:100380000E94890D8091A0028093A10280919C021D
:1003900080939D028091DF03E82FFF27E154FC4FFB
:1003A00060818091A1020E941015E8C18091E00354
:1003B000882309F4E3C19091A7029F3F41F0991F60
:1003C0009927991F8091A302892B0E94470F2091A2
:1003D000A702822F99278F739070892B59F0109163
:1003E0009D02120F80918403909185030E94AE10AC
:1003F000810F01C0822F0E94D20880918A03803130
:1004000050F480918A03E82FFF27E157FC4F808149
:100410008F3F09F0B3C110928A0380918903803124
:1004200070F480918903E82FFF27EE0FFF1FEE592C
:10043000FC4F808191818F5F9F4F09F050C01092D7
:1004400089038091DF038F5F8093DF038091DF0357
:10045000803248F48091DF03E82FFF27E154FC4FFE
:1004600080818F3F59F51092DF036FEB73E08FE9C6
:1004700093E00E944A18882331F09091A102809164
:10048000A002981791F0AFE9B3E0EFEBF3E09FE142
:100490008D918193915097FFFBCF10929D02109206
:1004A0009C020E94E00C0E94890D8091A002809322
:1004B000A10280919C0280939D0205C08091DF0380
:1004C0008F5F8093DF038091DF03E82FFF27E154E4
:1004D000FC4F60818091A1020E944F1105C0809164
:1004E00089038F5F8093890380918903E82FFF2719
:1004F000EE0FFF1FEE59FC4F808191819093850391
:10050000809384030E94C31039C18091D702992738
:100510008830910541F18930910594F4833091053B
:1005200009F48EC0843091051CF4019771F126C145
:100530008530910509F4BFC0079709F4B2C01EC108
:100540008B30910509F4ADC08C30910524F40997E6
:1005500009F4B1C013C18D30910509F4ACC00F97F7
:1005600009F49FC00BC18091A70280938002809103
:10057000A6028093A7020E9455008093A602809154
:10058000A70240E0642F8F73F3C080918D0388230E
:1005900029F480918203882309F4F0C080918D03AF
:1005A000882379F080918A03803148F480918A030E
:1005B000E82FFF27E157FC4F80818F3F11F4109205
:1005C0008A036091A7026093800280918A03E82FDA
:1005D000FF27E157FC4F8F5F80938A03E081E09310
:1005E000A702EF3F09F4CAC08091A202882319F044
:1005F000E07CE093A7022091A702822F99278F73B6
:100600009070422F4295469546954370661F662727
:10061000661F2F73892B59F041708091A402482BDB
:100620008091A302682B80919D02820F37C0417098
:100630008091A402482B8091A302682B822F2EC0A8
:1006400080918D03882309F499C00E94D50B809175
:100650008A030E94E70B8091A70280938002809119
:100660008A03E82FFF27E157FC4F80818093A70280
:100670008F3F09F483C00E94200D2091A702922F82
:100680009295969596959370917080918002881FAF
:100690008827881F492F682F822F8F730E942C0F65
:1006A0006DC08091E003882331F00E94D50B8091CA
:1006B0008A030E94E70B8091E003882309F45EC05F
:1006C0000091A7020093800280918A03E82FFF2700
:1006D000E157FC4F8F5F80938A03E081E093A7028C
:1006E000EF3F09F44BC08091A202882319F0E07C0F
:1006F000E093A7022091A702822F99278F73907011
:10070000422F4295469546954370602F661F662797
:10071000661F2F73892B21F151E0F52EF422809171
:10072000A402F82A0091A302062B10919D02120F39
:1007300080918403909185030E94AE104F2D602F0D
:10074000810F0E942C0F1091A70280919D02180F1B
:1007500080918403909185030E94AE10810F0CC09C
:1007600041708091A402482B8091A302682B822FB4
:100770000E942C0F8091A7020E94AE0880918102F6
:10078000843030F485E20E94320B0E947B0D09C058
:1007900080918102883028F485E20E94940B0E94A7
:1007A0006E0D0E945D0D809181028F5F80938102AA
:1007B00080918102883010F01092810278941F910C
:1007C0000F91FF9008951F920F920FB60F92112470
:1007D0002F933F934F935F936F937F938F939F9349
:1007E000AF93BF93EF93FF938091AD029091AE02D0
:1007F00090938900809388000E947400FF91EF918C
:10080000BF91AF919F918F917F916F915F914F9128
:100810003F912F910F900FBE0F901F9018951F9230
:100820000F920FB60F9211242F933F934F935F9324
:100830006F937F938F939F93AF93BF93CF93EF93D8
:10084000FF9380918E028F3F29F080918E028F5FFF
:1008500080938E0280919E0290919F028F5F9F4FA6
:1008600049F080919E0290919F02019690939F0281
:1008700080939E0280918B0290918C02892B81F053
:1008800080918B0290918C02019790938C028093BF
:100890008B0280918B0290918C02892B09F49498A1
:1008A000809182028130C1F4C0B3C295CF70C17013
:1008B00080918802882371F4CC2361F080918C02AE
:1008C00090918D02019690938D0280938C0288EF17
:1008D0000E940A08C0938802FF91EF91CF91BF91C7
:1008E000AF919F918F917F916F915F914F913F91C8
:1008F0002F910F900FBE0F901F9018951F920F927F
:100900000FB60F9211242F933F938F939F9329B388
:1009100023708091AF02281791F1833041F4223087
:1009200099F48091AA029091AB02019709C082309C
:1009300059F4233049F48091AA029091AB020196B8
:100940009093AB028093AA028091AA029091AB028D
:100950008D52914030F08CE291E09093AB02809305
:10096000AA028091AA029091AB02449730F484E1EC
:1009700090E09093AB028093AA022093AF029F91E4
:100980008F913F912F910F900FBE0F901F90189550
:1009900043E350E081B1886981B940B920E030E09B
:1009A0002CBF4FE150E08AB188698AB949B920BDAE
:1009B00080EC8ABB8CE38BBB8BEB87BB18BA8FEFC9
:1009C00084BB81BB86B981E58DB9089589B7816003
:1009D00089BF8BE083BF8AEF81BF089580917D003E
:1009E000846080937D00089585E20E94940B80913D
:1009F0007D008B7F80937D000895E199FECF9FBBA2
:100A00008EBBE09A8DB39927089580917D008695DD
:100A100086959927817090700895E199FECF9FBBCC
:100A20008EBB6DBBF894E29AE19A789408950F9387
:100A30001F93CF93DF938C0181E00D32180710F0E4
:100A40000CE211E00431110510F404E110E0109300
:100A5000A9020093A8021093AB020093AA02812F6F
:100A60009927682F85E090E00E940D056091A8020B
:100A700086E090E00E940D058091A8029091A90265
:100A80000E94CA0DC0E0D0E7E8E3F9E398014427EB
:100A90005527BE01CF010E94DD1BFA01E90193E059
:100AA000F695E795D795C7959A95D1F7BE01CF01F1
:100AB00026E030E040E050E00E94DD1BFA01E90151
:100AC000CA01AA27BB279C01009731F4D093AE023C
:100AD000C093AD0281E061C0887F892B69F403E097
:100AE000F695E795D795C7950A95D1F7D093AE02BD
:100AF000C093AD0282E051C0C901807F892B69F4A7
:100B000014E0F695E795D795C7951A95D1F7D09348
:100B1000AE02C093AD0286E040C0C901807E892B41
:100B200069F4B5E0F695E795D795C795BA95D1F7ED
:100B3000D093AE02C093AD0287E02FC0C901807C84
:100B4000892B69F4A6E0F695E795D795C795AA9500
:100B5000D1F7D093AE02C093AD0283E01EC0C901AD
:100B60008070892B51F48D2F9E2FAF2FBB27909330
:100B7000AE028093AD0284E010C020703C7F232B36
:100B800079F46AE0F695E795D795C7956A95D1F718
:100B9000D093AE02C093AD0285E080938A0002C07C
:100BA00010928A008091AD029091AE02909581954D
:100BB0009F4F9093AE028093AD02909389008093F3
:100BC0008800DF91CF911F910F9108950F931F938C
:100BD00080916B00816080936B0080916B008260DC
:100BE00080936B008BB788608BBF85E090E00E949C
:100BF000FD049927182F002786E090E00E94FD044D
:100C00009927802B912B0E941705109281028091C9
:100C10007D00846080937D001F910F910895CFEF38
:100C2000D4E0DEBFCDBF0E94C8040E94E6050E944A
:100C3000E6048091A8028093AC020E944C090E94B5
:100C4000910778940E9498098091D702992788305B
:100C5000910509F453C089309105CCF48330910596
:100C600071F18430910554F48130910569F182303D
:100C700091050CF052C0892BB9F1E4CF8530910574
:100C800059F185309105ACF1079731F1DBCF8C300C
:100C9000910509F442C08D3091051CF40A97E9F1E1
:100CA0001DC08E30910531F08E30910594F00F9774
:100CB00081F0C8CF109282020E94210FC3CF109200
:100CC00082020E949815BECF109282020E94BC112F
:100CD000B9CF1092820205C081E001C082E080930A
:100CE00082020E946318AECF109282020E941C08FA
:100CF000A9CF109282020E944E0FA4CF10928202BE
:100D00000E94EE040E94C00B0E9498098091D702B5
:100D10008830D1F30E94F40495CF0E94C00B0E944A
:100D20005D0D90CF159BFECF83B980E090E00895D4
:100D3000CF93DF93EC018881882331F089910E9461
:100D4000920688818823D1F7DF91CF9108950F9380
:100D50001F93CF93DF93EC0100E117E2CE01B801BE
:100D60000E94C91B6115710581F0862F805D0E946C
:100D70009206CE01B8010E94C91BEC01C8016AE0CD
:100D800070E00E94C91B8B010EC0CE01B8010E9409
:100D9000C91BEC01C8016AE070E00E94C91B8B010D
:100DA0006A307105D8F601151105A9F0CE01B80118
:100DB0000E94C91BCB01805D0E949206CE01B80142
:100DC0000E94C91BEC01C8016AE070E00E94C91BC7
:100DD0008B01672B59F7DF91CF911F910F910895E8
:100DE0008F708A3010F4805D01C0895C0E94920689
:100DF00008950895CF93DF93EC01892F9927829569
:100E00008F70009711F00E94F0068D2F99270097A0
:100E100011F00E94F006CE0144E0969587954A9520
:100E2000E1F7009711F00E94F0068C2F0E94F00667
:100E3000DF91CF91089582B1992787FD90958827FA
:100E4000990F881F99270895179BFECF83B1992783
:100E5000089520EA3FE0E22FF32F3197F1F78A95CA
:100E6000D1F708958AEF0E9429078AEF0E94290787
:100E70008AEF0E9429078AEF0E94290708951F928E
:100E80000F920FB60F9211248F939F93EF93FF93BE
:100E90009CB1983FB1F480918202813021F0949A04
:100EA00085E080938B028091E003882349F1809153
:100EB000830290918402019690938402809383022E
:100EC0001FC080918602E82FFF27EF54FD4F9083CB
:100ED0008F5F80938602809186028F718093860255
:100EE0009091860280918702981751F48091870231
:100EF0008F5F80938702809187028F718093870232
:100F0000FF91EF919F918F910F900FBE0F901F90C7
:100F1000189599270E94FD04803108F08FE09927E9
:100F2000089583E00E9489078093D10284E00E94A3
:100F300089078093B002089590918702809186027C
:100F4000981719F081E090E0089580E090E008950E
:100F5000089590918702809186029817D1F3F894B2
:100F600080918702E82FFF27EF54FD4F8F5F80931A
:100F700087029081809187028F7180938702789495
:100F8000892F992708950E949C07892BC1F00E9400
:100F9000A90787FF14C0682F62956F70482F5527E7
:100FA0006F3059F09A012F7030708091D1029927DB
:100FB0002817390721F460938502CA01089580E05B
:100FC00090E00895089590918002891731F480E0AF
:100FD0000E94470F8FEF8093800208950895CF936A
:100FE000C82F962F60E0992319F40E94E30710C0E0
:100FF000809180028F3F09F061E08C2F8A519536F5
:1010000010F041E001C040E00E942C0FC09380022C
:10101000CF9108955D9BFECF8CB980E090E008955C
:101020008091B002806B0E940A088BE70E940A0838
:1010300080E00E940A0808950F931F93CF930E94A7
:10104000F4040E94D50B8091D1020E94E70BC0915D
:10105000DE028FEF809380020E9498098091D70270
:10106000882319F00E94100875C00E942C0B882359
:1010700039F14C2F55278091DE02992701969C016A
:10108000207F3170821B930B2091D10248175907A2
:1010900021F4222339F0215003C02F3019F02F5FA3
:1010A0002093D1026091D10283E090E00E940D056F
:1010B0000E94D50B8091D1020E94E70BC091DE0205
:1010C0000E949C07892B41F20E94A907082F87FFE5
:1010D000C3CF482F42954F704F3051F099278F70F2
:1010E00090702091D10233278217930709F0B4CF73
:1010F00040938502842F99278930910551F08A30D9
:1011000091051CF4089779F018C00E9709F4A4CF44
:1011100014C00E94A9078C010E94A907682F802F84
:101120000E94EF0799CF0E94A9078C010E94A9078E
:10113000682F802F0E94E3078FCF83E091E00E9409
:101140009806802F99270E94FA068DE191E00E946F
:10115000980682CFCF911F910F910895CF93C82FFA
:101160008091B00280690E940A088C2F99278F73A2
:101170009070892B11F480E003C08C2F8F73875EF1
:101180000E940A088C2F829586958695837080FF31
:1011900003C08091020102C0809100010E940A08F0
:1011A000CF910895CF93C82F8091B00280680E949C
:1011B0000A088C2F99278F739070892B11F480E087
:1011C00003C0CF738C2F875E0E940A0880910101B3
:1011D0000E940A08CF91089580918202823029F0FE
:1011E0008CEF0E940A080E94100808950895CF937A
:1011F0000E940505C82F809182028130D1F0CC2356
:1012000011F00E94F4049498979A85E00E942907AF
:101210008091AD029091AE020A97909389008093DD
:10122000880010928D0210928102CC2311F00E944E
:10123000EE04CF91089580918202813009F0979851
:101240000895089590B3991F9927991F80918A0254
:10125000882339F4992329F090938A0281E090E061
:10126000089590938A0280E090E00895089590B3E5
:10127000991F9927991F80918902882339F0992312
:1012800029F49093890281E090E008959093890277
:1012900080E090E00895089581B3806F81BB82B3B0
:1012A0008F7082BB08958FE091B3982391BB92B366
:1012B000982392BB0895DE980895AC01F894C098E5
:1012C0000000000000000000C09A20E01FB8779BDB
:1012D000FECFFA01E20FF11D8FB180832F5F233023
:1012E000A8F37894089599B3969596959F70292FB1
:1012F000269526952695892F86958270282B892FED
:101300009927880F991F382F3470232B880F991F26
:10131000880F991F8870282B8FE0821B99270895CA
:10132000DE9A089589B3869586958F7099270895DA
:10133000AF92BF92CF92DF92EF92FF920F931F93E3
:10134000CF93DF93CDB7DEB726970FB6F894DEBF05
:101350000FBECDBF2091AA023091AB028091A802AE
:101360009091A9022817390731F08091AA02909133
:10137000AB020E941705ABEDB2E0E4EDF2E042E013
:1013800011921D92415047FFFBCF80918E02843114
:1013900008F490C010928E020E945B09CE01019663
:1013A0000E945D098091D8028C838091D9028D833F
:1013B0008091DA028E8340E001E010E06E01C00E01
:1013C000D11E842F869586958695A82FBB27BD01B3
:1013D00068527D4F842F8770980102C0220F331FFF
:1013E0008A95E2F7C901FB013081232F2823FD01F3
:1013F000E152FD4FE081E823AC0DBD1DAC91A82367
:101400004F5F8095222331F03823EA2B3E2BDB01FE
:101410003C9305C03823EA233E2BFB01308348313F
:1014200080F20E947309482F8091DE02481749F02C
:101430008091D302481729F44093DE0281E0809323
:101440008F024093D3020E9490096BEDE62E62E07A
:10145000F62E04ED12E068ED72E05FEDA52E52E08D
:10146000B52EF60142E08081D5018D935D01238187
:10147000DB018D91BD01922F98278923D8018D938F
:101480008D019223D7019D937D014150319647FFF5
:10149000EACF0E949209482F8091D702481731F075
:1014A0008091D202481711F44093D7024093D202A0
:1014B0000E945D0D26960FB6F894DEBF0FBECDBF1D
:1014C000DF91CF911F910F91FF90EF90DF90CF9020
:1014D000BF90AF900895282F883118F080E090E0F9
:1014E0000895869586958695E82FFF27E852FD4F4B
:1014F00080819927277002C0959587952A95E2F7F4
:101500009C012170307080FF03C081E090E008955D
:10151000C90108950895282F883118F080E090E0DF
:101520000895869586958695E82FFF27EC52FD4F06
:1015300080819927277002C0959587952A95E2F7B3
:101540009C012170307080FF03C081E090E008951D
:10155000C90108950895282F883118F080E090E09F
:101560000895869586958695E82FFF27E552FD4FCD
:1015700080819927277002C0959587952A95E2F773
:101580009C012170307080FF03C081E090E00895DD
:10159000C901089508958091D802882359F4809153
:1015A000D902882339F48091DA02882319F481E082
:1015B00090E0089580E090E008950895FF920F93E1
:1015C0001F93CF93DF93FF2400E010E0C8E2D1E047
:1015D00088810E946B0A882311F0C80109C0F39426
:1015E00021960F5F1F4F8CE08F1594F78FEF9FEFC1
:1015F000DF91CF911F910F91FF900895CF93C0E09D
:10160000EC2FFF27E05EFE4F80810E946B0AEC2FDB
:10161000EF5F882319F08E2F992705C0CE2FE83071
:1016200078F380E090E0CF910895CF93C0E0EC2F65
:10163000FF27E05EFE4F80810E948B0AEC2FEF5F58
:10164000882319F08E2F992705C0CE2FE83078F324
:1016500080E090E0CF91089580918F0210928F02E8
:1016600099270895282F883290F486958695869537
:10167000E82FFF27EB56FD4F277081E090E002C076
:10168000880F991F2A95E2F72081282B208308953F
:101690000895282F883290F4869586958695E82FB0
:1016A000FF27E057FD4F277081E090E002C0880FD0
:1016B000991F2A95E2F72081282B20830895089509
:1016C000282F8832A0F4869586958695E82FFF27E7
:1016D000E057FD4F277081E090E002C0880F991F0E
:1016E0002A95E2F7982F9095808189238083089529
:1016F0000895282F883218F080E090E008958695AC
:1017000086958695E82FFF27E057FD4F277081E0EB
:1017100090E002C0880F991F2A95E2F720812823C4
:10172000822F992708950895282F8832A0F486954E
:1017300086958695E82FFF27EB56FD4F277081E0B1
:1017400090E002C0880F991F2A95E2F7982F909594
:1017500080818923808308950895282F8695869512
:101760008695E5E9F2E0E80FF11D80819927277061
:1017700002C0959587952A95E2F78170907008953B
:10178000109299021092980210929702109296026B
:10179000109295021092940210929302109292026B
:1017A000109291021092900208950F931F93CF937D
:1017B00002E611E0CFE0F80181918F010E94940BC5
:1017C000C150C7FFF8CFCF911F910F91089580317D
:1017D00038F4E82FFF27EE59FE4F80810E94320B2C
:1017E00008950895803138F4E82FFF27EE59FE4F11
:1017F00080810E94490B08950895803118F020E0FF
:1018000030E009C0E82FFF27EE59FE4F80810E948B
:10181000AD0B282F3327C9010895803118F080E0DF
:1018200090E00895E82FFF27EE59FE4F80810E9437
:10183000790B992708950895883138F4E82FFF2708
:10184000E65BFE4F80810E94320B08950895883137
:1018500038F4E82FFF27E65BFE4F80810E94490B9A
:1018600008950895883138F4E82FFF27E65BFE4F8E
:1018700080810E94940B089508950F931F93CF9336
:101880000AE411E0C7E1F80181918F010E94940BF5
:10189000C150C7FFF8CFCF911F910F910895E82F46
:1018A0008150883030F4FF27EF5BFE4F80810E942B
:1018B000320B089508951F93CF93182F81E0E82FDE
:1018C000FF27C82FCF5F811731F4EF5BFE4F808178
:1018D0000E94320B05C0EF5BFE4F80810E94940B8B
:1018E0008C2FC93060F3CF911F910895E82F81505C
:1018F000883030F4FF27EF5BFE4F80810E94940B0D
:1019000008950895E82F8150883030F4FF27EF5B69
:10191000FE4F80810E94490B08950895E82F815061
:10192000883040F4FF27EF5BFE4F80810E94790BE7
:101930009927089580E090E008950895E82F815058
:10194000883048F4FF27EF5BFE4F80810E94AD0B8B
:10195000282F332702C020E030E0C90108950F93FB
:101960001F93CF9302E411E0C7E0F80181918F014A
:101970000E94940BC150C7FFF8CFCF911F910F91D8
:1019800008958D3038F4E82FFF27EB5CFE4F8081FF
:101990000E94320B089508958D3038F4E82FFF2708
:1019A000EB5CFE4F80810E94490B08950895E5E3AA
:1019B000F1E0E80FF11D80810E94790B99270895CD
:1019C0000F931F93CF9305E311E0CCE0F8018191D1
:1019D0008F010E94940BC150C7FFF8CFCF911F9188
:1019E0000F9108950E94E00C84E00E94940B83E024
:1019F0000E94940B88E00E94940B81E00E94940B5B
:101A000082E00E94940B0895CF93C82F84E00E9437
:101A1000940BC23021F483E00E94490B0FC083E095
:101A20000E94940B83E00E94600BC13011F483E0AC
:101A300003C0CF3F19F484E00E94320BCF91089588
:101A4000CF93C82F0E94F20CC7FF03C086E10E940B
:101A50001C0C8C2F829586958695837080FF03C021
:101A600085E10E941C0CCF7311F48C2F15C0C73177
:101A700010F48FEF11C0C43218F4CC5080E00CC0C9
:101A8000C03318F4C85181E007C0CC3318F4C452F5
:101A900082E002C083E0C0530E94040DCC2321F4F5
:101AA00084E10E941C0C07C0EC2FFF27E65DFE4F6F
:101AB00080810E94320BCF910895F894DF98E5E978
:101AC000F2E080818FB9779BFECF319682E0E939D1
:101AD000F807B9F3B4F3DF9A78940895A0E9B2E077
:101AE000E5E9F2E024E080819D91892B81932150EA
:101AF00027FFF9CF0895A0E9B2E0E5E9F2E024E09C
:101B00009D919095808189238193215027FFF8CF63
:101B10000895A0E9B2E0E5E9F2E034E020819C918B
:101B2000822F892319F09095292320831D9231500B
:101B3000319637FFF3CF0895AC0120E0322F6115C5
:101B4000710581F0FA01E30FF11D80812827E22F52
:101B5000FF27EE58FE4F20813F5F832F992786177E
:101B6000970780F3822F992708950F931F93CF93A0
:101B7000DF936115710549F08C01EB01F80181914A
:101B80008F010E9492062197C9F7DF91CF911F9193
:101B90000F9108950F931F939C0102EE12E082E4CF
:101BA0008093E2021092E30282E08093E402832FAA
:101BB00099278093E5022093E60265E070E0C80172
:101BC0000E949C0D8093E70266E070E0C8010E94CD
:101BD000B50D1F910F9108950F931F9302EE12E020
:101BE00090E89093E2021092E30291E09093E40275
:101BF0008093E50264E070E0C8010E949C0D809330
:101C0000E60265E070E0C8010E94B50D1F910F91DA
:101C100008951F920F920FB60F921124EF92FF9228
:101C20001F932F933F934F935F936F937F938F9364
:101C30009F93AF93BF93CF93DF93EF93FF9393B1B2
:101C400080917202882309F4E4C080919B02803461
:101C500048F4E82FFF27EE5DFC4F90838F5F809361
:101C60009B0204C00E94EC0D10929B0220919B02EB
:101C7000233008F4CEC0F090220380912303682F14
:101C80007727762F6627809124039927682B792B55
:101C90003327CB0104962817390708F4BAC0FB0193
:101CA000EE5DFC4F1381EB012396BE0182E293E0CF
:101CB0000E949C0D181791F0BE0182E293E00E94F1
:101CC0009C0D99270E94FA0610929B0280E00E94C8
:101CD000EC0D0E94D50B0E945D0D9DC08F2D9927A4
:101CE0008131910551F18231910544F481309105A2
:101CF00009F488C0409709F460C086C0803491051B
:101D000021F08134910541F07FC08091A80290912B
:101D1000A9020E94CA0D7BC080912403823009F081
:101D200073C0809125039927982F88272091260337
:101D3000820F911D0E9417056AC080912403823092
:101D400009F062C08091250390912603C82FDD27FA
:101D500063E0CC0FDD1F6A95E1F7C90FD11D89E162
:101D60008093E2021092E30280E18093E4020F2E5E
:101D7000F5EEEF2EF2E0FF2EF02DC295D295D07F3A
:101D8000DC27C07FDC271FE0CE010E946B10F7012B
:101D900081937F011150219617FFF6CF63E170E028
:101DA00082EE92E00E949C0D8093F50264E170E067
:101DB00082EE92E00E94B50D2AC080912403823108
:101DC00019F58091250390912603C82FDD2733E074
:101DD000CC0FDD1F3A95E1F7C90FD11D27E2E22EA6
:101DE00023E0F22E94E0CC0FDD1F9A95E1F71FE07F
:101DF000BE01F70181917F010E942C1011502196A4
:101E000017FFF6CF81E001C080E00E94EC0D109238
:101E10009B020E94D50BFF91EF91DF91CF91BF9173
:101E2000AF919F918F917F916F915F914F913F9172
:101E30002F911F91FF90EF900F900FBE0F901F906A
:101E400018950E9498098091D7028E30D1F30E9494
:101E5000C00B0E945D0D089590E03A98803408F020
:101E60008FE3611160E4442311F440E801C0492F7D
:101E7000882349F0862B842B85BB3A9A9F5F983242
:101E8000E8F3399A0895642B65BB08950895882373
:101E900011F0AE9A01C039983A9808957F928F92C6
:101EA0009F92AF92BF92CF92DF92EF92FF920F93E9
:101EB0001F93CF93DF93EE24FF248824982C0E9455
:101EC000EE040E94D50B7090DE02670157010E945C
:101ED00098098091D702843019F00E941008AEC092
:101EE0008091B00299270E94FD0B892B31F40E944A
:101EF000D50B8091B0020E94E70B0E942C0B882327
:101F000009F1472D55278091DE02992701969C0102
:101F1000207F3170821B930B2091B0024817590724
:101F200021F4222339F0215003C02F3019F02F5F04
:101F30002093B0026091B00284E090E00E940D0511
:101F40007090DE028E2D0E94040D00E0C3E7D2E007
:101F500088810E948B0A8823A1F0102F1A0D195E28
:101F6000492D682D812F0E942C0F892D992756E02D
:101F7000880F991F5A95E1F7812B0E94AE0841E026
:101F8000842E88810E94AB0A882369F0202F2C0DB3
:101F9000295E892D992736E0880F991F3A95E1F738
:101FA000822B0E94D2080F5F21960D3088F28FE0BD
:101FB0000E948B0A882351F082E0E816F104D4F4E1
:101FC0000894E11CF11C8CE090E010C08EE00E94AF
:101FD0008B0A882379F09FEFE9169FEFF90651F0FD
:101FE0004CF00894E108F10884EF9FEFA80EB91EA9
:101FF000C80ED91E85E10E948B0A882371F080E00B
:10200000992009F481E0982E882321F081E00E9434
:10201000320B03C081E00E94940B83B399278F7326
:102020009070892B09F453CF0E94CB0A882309F4BE
:102030004ECF80E00E94470F882449CFDF91CF9197
:102040001F910F91FF90EF90DF90CF90BF90AF90D6
:102050009F908F907F900895282FF89495E0C098D6
:1020600000000000000000009FB9779BFECF000039
:102070000000000000001FB8779BFECF8FB1C09A10
:10208000000000000000000080FDE9CFC0980000C3
:10209000000086E08FB9779BFECF00000000C09A59
:1020A0000000000000000000C0980000000082E076
:1020B0008FB9779BFECF872F99278FB9779BFECF5C
:1020C0006FB9779BFECF2FB9779BFECF0000000042
:1020D000C09A789408959C01F894C098000000007C
:1020E00083E08FB9779BFECF832F99278FB9779B9A
:1020F000FECF2FB9779BFECF000000001FB8779B63
:10210000FECF8FB1C09A78949927089510928603D4
:1021100010928D031092820380E00E94470F0E946C
:10212000C00B0E94890D0E942C0B0895109287030A
:1021300084E20E94940B0E94C00B0E94890D1092B1
:102140008D0380E00E94470F089581E0809387030C
:1021500084E20E94320B0E94D50B0895892F9927A3
:10216000282F2F71822F992787FD909534E096951F
:1021700087953A95E1F7892B09F0206E822F9927F0
:1021800087FD9095089520918403277080918403A2
:1021900090918503F3E096958795FA95E1F7622F84
:1021A0008F700E94101560918403709185039B01CC
:1021B00044275527DA01C90180709078A070B0706B
:1021C000892F9A2FAB2FBB278093A202DA01C90176
:1021D00080709074A070B070892F9A2FAB2FBB279E
:1021E0008093A4022070307240705070BB27A52FDE
:1021F000942F832F8093A30210928A03CB010E9415
:10220000AE109927089581E08093860381E20E94B1
:10221000320B1092A4028091A4028093A3028091B9
:10222000A3028093A2021092820310928D038091E8
:1022300062039091630390938503809384038F5F7F
:102240009F4F89F01092890310928A031092A7027F
:102250000E94C31080939D028091810280FDFCCF7B
:1022600081E0809382030E94D50B089580919D02A6
:10227000882321F483E00E94940B0CC087FF07C0E1
:1022800083E00E94940B84E00E94320B089583E067
:102290000E94320B84E00E94940B08950895FF92EF
:1022A0000F931F93CF93DF93C82FDD2703E0CC0F4D
:1022B000DD1F0A95E1F7C60FD11D15E0CC0FDD1F1C
:1022C0001A95E1F7BFE0FB2EC050D84F02E613E0AD
:1022D000CE010E946B109927982F8827F8018083E0
:1022E0009183CE0101960E946B10282F3327F801AD
:1022F00080819181822B932B819391938F01FA940A
:102300002296F7FEE5CFDF91CF911F910F91FF90BD
:102310000895FF920F931F93CF93DF93C82FDD276C
:1023200053E0CC0FDD1F5A95E1F7C60FD11D45E0F4
:10233000CC0FDD1F4A95E1F73FE0F32E02E613E0F4
:10234000C050D84FF80180819181892F9927BE0113
:102350000E942C102196F801819191918F01BE016C
:102360000E942C10FA942196F7FEECCFDF91CF91CA
:102370001F910F91FF9008951F93CF93DF930E94B9
:10238000EE048091DE0287708093830310928803AD
:1023900010928703109286031092820310928D038D
:1023A000109289038FEF9FEF9093850380938403AE
:1023B000109282020E94D50B0E94890D0E949809FA
:1023C0008091D702813071F00E94F40410928D0345
:1023D0001092820380E00E94470F0E94C00B0E946F
:1023E0005D0DF4C280918703882361F58091860397
:1023F000882341F50E942C0B882359F08091DE023E
:10240000877080938303609188030E944F110E941C
:10241000D50B809183030E94E70B0E94FE0AC82F10
:10242000882359F00E94E00C8C2F81508093880300
:10243000682F809183030E944F11809188038F5FE2
:102440000E944F0C81E00E948B0A882379F08091D2
:102450008603882319F00E94861008C080918703A4
:10246000882311F00E9496100E9403118091860328
:10247000882329F480918703882309F463C080911D
:1024800089030E940D0C882311F40E94890D80910C
:1024900089030E94F20B80918403909185038F5FE2
:1024A0009F4F21F40E94F20C80E046C080E00E9421
:1024B000940B809184039091850343E096958795D2
:1024C0004A95E1F78F700E94E70B80918403909109
:1024D000850397FF04C088E00E94320B03C088E0A8
:1024E0000E94940B8091840390918503AA27BB27B7
:1024F0003EE0B695A795979587953A95D1F7817067
:102500009070892B21F081E00E94320B03C081E0A2
:102510000E94940B8091840390918503AA27BB2786
:102520002DE0B695A795979587952A95D1F7817057
:102530009070892B21F082E00E94320B03C082E070
:102540000E94940B88E00E948B0A882331F483E078
:102550000E948B0A882309F478C010918603112306
:1025600009F073C0812F0E94470FC0918703CC23CD
:1025700009F442C088E00E948B0A8823D1F0809140
:1025800089039927019640976CF480918903E82F7D
:10259000FF27EE0FFF1FEE59FC4F808191818F5F67
:1025A0009F4F19F41093890330C0809189038F5F86
:1025B00020C0809189038823C9F4809189039927D9
:1025C0000196409714F580918903E82FFF27EE0FBD
:1025D000FF1FEE59FC4F808191818F5F9F4FA9F0C3
:1025E000809189038F5F80938903E7CF809189036E
:1025F00081508093890309C088E00E948B0A882358
:1026000021F00E94A510C093890380918903E82FCF
:10261000FF27EE0FFF1FEE59FC4F808191819093B1
:1026200085038093840310928D038F5F9F4F69F021
:102630000E94C31080939D0210928A0380918102B0
:1026400080FDFCCF81E080938D0387E10E948B0A9F
:10265000882339F1809187038823E9F080918903E9
:1026600099270196409764F480918903E82FFF270A
:10267000EE0FFF1FEE59FC4F8FEF9FEF8283938386
:102680008FEF9FEF90938503809384030E949610B1
:1026900080E00E94940B60918803809183030E94E4
:1026A000891180918703882309F47FC18091840375
:1026B000909185038F5F9F4F09F40FC184E10E94C1
:1026C0008B0A882311F180918903E82FFF27EE0FF1
:1026D000FF1FEE59FC4F8081918120E030E8822776
:1026E0009327808391838081918190938503809348
:1026F0008403AA27BB2780709078A070B070892FC0
:102700009A2FAB2FBB278093A20285E10E948B0AF0
:10271000882311F180918903E82FFF27EE0FFF1F17
:10272000EE59FC4F8081918120E030E4822793278D
:10273000808391838081918190938503809384032A
:10274000AA27BB2780709074A070B070892F9A2F31
:10275000AB2FBB278093A40286E10E948B0A8823BB
:1027600011F180918903E82FFF27EE0FFF1FEE592B
:10277000FC4F8081918120E030E282279327808383
:102780009183808191819093850380938403AA270C
:10279000BB2780709072A070B070892F9A2FAB2FDA
:1027A000BB278093A3028FE00E946B0A882331F439
:1027B0008EE00E946B0A882309F47DC00E94DE0A25
:1027C000C82FDD27C7FDD0958FE00E948B0A882394
:1027D00029F48EE00E948B0A882351F00E94890D13
:1027E0000E94E00C83E00E94940B84E00E94940B12
:1027F0008FE00E946B0A882349F183E00E94320B2C
:102800008FEFCF3FD807C9F00E94890D2091840334
:1028100030918503307E9C2F8827282B392B3093CD
:1028200085032093840380918903E82FFF27EE0F0F
:10283000FF1FEE59FC4F20833183809184039091D8
:1028400085030E94AE1080939D0232C08EE00E94EC
:102850006B0A882309F441C084E00E94320B2FEFF9
:10286000CF3FD207E1F00E94890D2091840330917F
:102870008503307E2C97CF71D0709C2F8827282B12
:10288000392B309385032093840380918903E82FAB
:10289000FF27EE0FFF1FEE59FC4F208331838091FD
:1028A0008403909185030E94AE1080939D02845F03
:1028B0000E94CC0C12C08FE00E94AB0A882329F43E
:1028C0008EE00E94AB0A882341F083E00E94940BC3
:1028D00084E00E94940B0E94890D8FE00E946B0A95
:1028E000882309F062C08EE00E946B0A882309F0F9
:1028F0005CC00E94150BC82F882329F40E942C0B62
:10290000882309F447C00E94AF0C0E94D50BCC234A
:1029100059F480918403909185038F5F9F4F29F034
:10292000C0918403C77001C0C15010928D0380E034
:102930000E94470F4091DE02242F332763E0220FCD
:10294000331F6A95E1F78C2F9927282B392B309369
:1029500085032093840380918903E82FFF27EE0FDE
:10296000FF1FEE59FC4F208331836C2F842F0E9470
:10297000101510928A031092A3028091A3028093F3
:10298000A4028091A4028093A20210929D0281E091
:1029900080938D030E94361180918403909185036A
:1029A0008770907001960E945B0C8091860388234B
:1029B00009F404CD0E94361180918403909185031F
:1029C0008770907001960E945B0CF8CCDF91CF91DC
:1029D0001F91089510928A0381E080938B0381E216
:1029E0000E94320B80E00E94470F0E94EE0480910B
:1029F000810280FDFCCF81E080938D03089581E00A
:102A00008093870384E20E94320B0E94D50B80E002
:102A10000E94E70B0E94F40480E00E94470F089593
:102A2000EF92FF920F931F93CF93DF93182F062FF0
:102A30000E945D0DC12FDD2723E0CC0FDD1F2A95FD
:102A4000E1F7C00FD11D94E0CC0FDD1F9A95E1F79F
:102A50008FE8E82E83E0F82E1FE0CE010E946B1075
:102A6000F70181937F011150219617FFF6CF0E9445
:102A70005D0DDF91CF911F910F91FF90EF90089521
:102A8000EF92FF920F931F93CF93DF93182F062F90
:102A90000E945D0DC12FDD2753E0CC0FDD1F5A953D
:102AA000E1F7C00FD11D4FE8E42E43E0F42E34E0EF
:102AB000CC0FDD1F3A95E1F71FE0BE01F7018191D0
:102AC0007F010E942C101150219617FFF6CF0E9413
:102AD0005D0DDF91CF911F910F91FF90EF900895C1
:102AE0001092870384E20E94940B0E943D0C0E9486
:102AF000D50B8091DE020E94E70B0E94EE0480E07D
:102B00000E94470F08950E94F40410928D030E94C2
:102B10003D0C0E94D50B8091DE020E94E70B1092C3
:102B20008B0381E20E94940B80E00E94470F08957E
:102B3000EF92FF920F931F93CF93DF9310928C032A
:102B40001092870310928B0310928D0310928A03C8
:102B50001092A702109282020E9498098091DE02D0
:102B600080938E0360918C030E9410150E94C00B0D
:102B70008091DE020E94E70B0E94EE040E949809F9
:102B80008091D702833081F00E94F40410928D036B
:102B900080E00E94470F0E941B090E94EC080E94DF
:102BA000C00B0E945D0D6FC290918E038091DE027A
:102BB0009817D1F080918B03882311F00E94831520
:102BC00080918703882311F00E9470158091DE02A6
:102BD00080938E0360918C030E9410150E94D50B88
:102BE0008091DE020E94E70B80918B038823E1F441
:102BF000809187038823C1F480918C038F5F0E94AA
:102C00004F0C0E94FE0AC82F882371F00E94E00C2E
:102C10008C2F0E944F0C8C2F815080938C03682F37
:102C200080918E030E94101580E00E948B0A8823F9
:102C300099F080918B03882379F082E20E94320B15
:102C40000FE813E0CFE00E945500F80181938F0157
:102C5000C150C7FFF8CF0CC080E00E94AB0A8823A8
:102C600039F080918B03882319F082E20E94940B43
:102C700081E00E948B0A882379F080918B0388235E
:102C800019F00E94831508C080918703882311F0F2
:102C90000E9470150E94EA1480918B03882329F406
:102CA00080918703882309F427C100918A03E02ECD
:102CB000FF24E701C157DC4F18811F7385E10E9493
:102CC0008B0A882331F01F3321F0888190E4892713
:102CD000888386E10E948B0A882349F01F3339F0EC
:102CE000F701E157FC4F808190E8892780831F33EB
:102CF00041F0112331F0173110F4CFEF0DC0143231
:102D000010F4C0E009C0103310F4C1E005C01C335A
:102D100010F4C2E001C0C3E084E10E948B0A81117B
:102D200010E08FE00E948B0A882339F01F3329F0CE
:102D3000112319F01C160CF0145F8EE00E948B0A10
:102D4000882341F01F3331F0112321F0CF3F11F0E0
:102D50000CF01C5084E00E948B0A882331F08CE038
:102D6000C802C0011124182F195E89E00E948B0A45
:102D7000882331F08CE0C802C0011124182F185E9E
:102D800085E00E948B0A882331F08CE0C802C001E4
:102D90001124182F175E8AE00E948B0A882331F0D5
:102DA0008CE0C802C0011124182F165EC3300CF04D
:102DB00063C086E00E948B0A882331F08CE0C80251
:102DC000C0011124182F155E87E00E948B0A88230A
:102DD00031F08CE0C802C0011124182F145E8BE082
:102DE0000E948B0A882331F08CE0C802C0011124B4
:102DF000182F135E81E10E948B0A882331F08CE04A
:102E0000C802C0011124182F125E8CE00E948B0AA8
:102E1000882331F08CE0C802C0011124182F115E04
:102E200082E10E948B0A882331F08CE0C802C00145
:102E30001124182F105E8DE00E948B0A882331F038
:102E40008CE0C802C0011124182F1F5D80E10E9490
:102E50008B0A882331F08CE0C802C0011124182F9E
:102E60001E5D83E10E948B0A882331F08CE0C8024A
:102E7000C0011124182F1D5D202F3327F901E157C0
:102E8000FC4F80818F3F11F41F3319F48081807CC7
:102E9000182BE901C157DC4F88811817F9F0809190
:102EA0008703882331F080E00E94470F81E00E9471
:102EB0002907188380918703882381F0812F8295C9
:102EC0008695869583708170912F991F9927991FF8
:102ED000482F692F812F8F730E942C0F1F3F39F0CD
:102EE000812F0E94200D80E00E94940B05C00E945B
:102EF000F20C80E00E94320B88E00E948B0A88234B
:102F000031F483E00E948B0A882309F49BC08091EE
:102F10008703882309F46AC080E00E94470F81E09C
:102F20000E94290788E00E948B0A8823B1F08091D3
:102F30008A039927019640974CF480918A03E82FE1
:102F4000FF27E157FC4F80818F3F19F410928A03CD
:102F500020C080918A038F5F1AC080918A038823E2
:102F600099F480918A038F30A0F480918A03E82F2E
:102F7000FF27E157FC4F80818F3F59F080918A03F2
:102F80008F5F80938A03EDCF80918A038150809375
:102F90008A030E94D50B80918A030E94E70B8091DF
:102FA0008A03E82FFF27E157FC4F80818093A70217
:102FB0008F3F51F481E00E94940B82E00E94940BB9
:102FC00080E00E94320B3EC080E00E94940B809112
:102FD000A702982F92959695969593709170282FA9
:102FE000221F2227221F492F622F25C088E00E941E
:102FF0008B0A882339F1C0918B03CC2319F50E94E9
:10300000FF14C0938A0380918A03E82FFF27E157BA
:10301000FC4FE081E093A702EF3FA1F08E2F829555
:1030200086958695837081709E2F991F9927991F89
:10303000482F692F8E2F8F730E942C0F8091A7022B
:103040000E94200D87E10E948B0A882309F496CD07
:1030500080918703882381F080918A0399270196C4
:10306000409744F480918A03E82FFF27E157FC4FF3
:103070008FEF81830E94701560918C038091DE0236
:103080000E9440157BCDDF91CF911F910F91FF9052
:10309000EF90089540E0DB01FC0190818C9198173E
:1030A00019F080E090E0089580818F3F19F481E06D
:1030B00090E008954F5F31961196403270F381E0B1
:1030C00090E008950895EF92FF920F931F93CF938E
:1030D000FF24E090D70280918202882319F40E9495
:1030E000EE040BC00E94F40480918202813019F436
:1030F0000E94530902C00E944C090E94C00B0E940A
:10310000890D1092BF038091BF0380939F038FEFBF
:103110008093C0038091C0038093A00381E00E944C
:103120004F0C1092E0031092890310928A031092C0
:103130008503109284031092DF0310929C02109278
:103140009D020E94D50B8091D7028F3021F08B30E9
:1031500011F08730D1F48091DE021AC01092E003A2
:103160000E941B090E94EC0810929C0210929D0282
:103170001092A3021092A2021092A4020E94C00B0D
:103180000E94890D0E945D0DFEC28091DE02877053
:103190008093A1028093A0028091DE020E94E70B3F
:1031A0000E9498098091D7028E15C1F687E10E948E
:1031B0008B0A882329F180919E0290919F0286506C
:1031C0009D40D0F480919E0290919F028E54914038
:1031D00098F020919E0230919F0280E69AEEB9010C
:1031E0000E94C91B70939F0260939E0280919E0271
:1031F00090919F020E94170510929F0210929E02CA
:1032000080E00E948B0A882349F00E94E00C0E9413
:10321000890D82E20E94320B1092A50280E00E948A
:10322000AB0A882329F1A1EEB3E0EFE9F3E0CFE1A7
:103230008D918193C150C7FFFBCF8091E00388231C
:10324000A1F4AFE9B3E0EFEBF3E0CFE18D9181932F
:10325000C150C7FFFBCF80919C0280939D0283E009
:103260000E94940B84E00E94940B82E20E94940BD3
:1032700080E00E946B0A882361F1C0E08091A50282
:10328000C81760F4EC2FFF27EF51FC4F8081883086
:1032900028F48F5F0E944F0CCF5FF0CF0E94150B78
:1032A000C82F882309F44EC18091A502803208F00E
:1032B00049C1E82FFF27EF51FC4FC150C0838F5FFA
:1032C0008093A502E82FFF27EF51FC4F8FEF8083FB
:1032D00039C18FE00E946B0A882331F48EE00E948E
:1032E0006B0A882309F46DC00E94DE0AC82F8FE0A4
:1032F0000E948B0A882329F48EE00E948B0A88237F
:1033000039F00E94E00C0E94890D82E20E94940B29
:103310008FE00E946B0A882301F184E00E94940BE5
:1033200083E00E94320BCF3F11F0C0939C0280914A
:103330009D0287FD0AC00E94D70C882331F40E94A9
:10334000890D80919D020E94CC0C90919C028091ED
:103350009D02981761F1892F28C08EE00E946B0AA8
:10336000882329F183E00E94940B84E00E94320BB1
:10337000CF3F19F0CC50C0939C0280919D0218164B
:1033800064F0845F0E94D70C882339F40E94890D71
:1033900080919D02845F0E94CC0C90919C02809150
:1033A0009D02981721F0892F845F0E94C10C8091A3
:1033B000E003882309F0C6C080919C0280939D029F
:1033C000C1C08FE00E94AB0A882329F48EE00E94DE
:1033D000AB0A882321F00E94E00C0E94890D0E9414
:1033E000FE0AC82F882331F40E942C0B882309F48D
:1033F00046C01FC00E94AF0CC150C0939F03809174
:103400009F038093E1038FEF8093A0038091A0033B
:103410008093E2038091E003882319F5AFE9B3E0DC
:10342000EFEBF3E0CFE18D918193C150C7FFFBCF6C
:1034300018C08091D7028F3021F08B3011F0873087
:1034400019F48091DE0203C08091DE0287708093C0
:10345000A0028091E003882321F48091A002809350
:10346000A1028091E003882351F40E94D50B809142
:10347000A0020E94E70B80919C0280939D026FEB5B
:1034800073E08FE993E00E944A188823F9F4809151
:10349000A0038F3F49F48091C0038F3F29F48091AE
:1034A000BF038F5F0E94820CC0E00FE913E0F801B8
:1034B0008081893008F044C0D8018D918D018F5FE3
:1034C0000E944F0CCF5FC03290F33AC0C0E00FEBC8
:1034D00013E0F8018081893098F58091E00388231A
:1034E000E1F08091DF03E82FFF27E154FC4FD80182
:1034F0009C918081981789F48C918F5F0E948E0C2B
:103500008823C9F4F80180818F5F0E94760CD8016E
:103510008C918F5F0E94820C0EC0F80180818F5FBA
:103520000E948E0C882311F00E94890DD8018C9185
:103530008F5F0E944F0CCF5F0F5F1F4FC03248F26A
:103540000E9436118091E003882351F1809182021C
:10355000823089F4809183029091840218161906B2
:10356000FCF48091830290918402039790938402EB
:103570008093830212C0813099F480918C029091E3
:103580008D021816190664F480918C0290918D02B8
:10359000039790938D0280938C020E94740000CE5A
:1035A00080918202823019F40E94C307F82E809124
:1035B0008202882349F481E00E948B0A882321F04B
:1035C0008091E003882371F480918202823021F49B
:1035D000BCEFFB1639F02BC0813049F50E9437094A
:1035E000882329F11092E00380E00E94470F0E9497
:1035F000EC0880918202813011F00E941B0981E267
:103600000E94940B0E94890D0E94D50B8091D702D5
:103610008F3021F08B3011F0873019F48091DE0269
:1036200003C08091DE0287700E94E70B68C0809122
:103630008202882349F481E00E948B0A882321F0CA
:103640008091E003882389F080918202823029F4FE
:103650008F2D8A5F823048F052C0813009F04FC010
:103660000E942209882309F44AC081E20E94320B99
:103670008091D7028F3021F08B3011F0873039F4F0
:103680006091BF038091DE020E94101511C08091ED
:10369000DE026091BF0387700E944F118091620328
:1036A0009091630390938503809384030E94C310D9
:1036B0001092A70280918202823019F4EBEFFE167D
:1036C00031F01092DF0310928A0310928903109256
:1036D0008102109284021092830210928D02109245
:1036E0008D0210928C0281E08093E0038AEF0E94A9
:1036F0000A0880918202813011F00E94F70886E169
:103700000E948B0A882389F090E08091A30288238D
:1037100009F491E09093A302992321F082E00E94A2
:10372000320B03C082E00E94940B85E10E948B0A59
:10373000882389F090E08091A402882309F491E025
:103740009093A402992321F081E00E94320B03C0E0
:1037500081E00E94940B84E10E948B0A882309F483
:103760001FCD90E08091A202882309F491E090930C
:10377000A202992321F088E00E94320B11CD88E04B
:103780000E94940B0DCDCF911F910F91FF90EF9060
:103790000895AA1BBB1B51E107C0AA1FBB1FA61798
:1037A000B70710F0A61BB70B881F991F5A95A9F7EA
:1037B00080959095BC01CD010895A1E21A2EAA1B17
:1037C000BB1BFD010DC0AA1FBB1FEE1FFF1FA217D1
:1037D000B307E407F50720F0A21BB30BE40BF50BCE
:1037E000661F771F881F991F1A9469F76095709557
:0E37F000809590959B01AC01BD01CF0108951D
:1037FE0064207F526563656976656420556E6B6ED5
:10380E006F776E204D4944493A203078000A0D00FA
:10381E0004050607111210130409050A06070B11F9
:10382E000C120D1013201B191C1A180F0C0E0B0D59
:10383E000A0920191A180C0B0A092221252320190E
:10384E001A18241B1C0F0E0D04030A0C0B09080179
:10385E00020026271D1E1F10121113141516170510
:10386E00060700070E091C1B1215383F363124239C
:10387E002A2D70777E796C6B6265484F46415453A2
:10388E005A5DE0E7EEE9FCFBF2F5D8DFD6D1C4C312
:10389E00CACD90979E998C8B8285A8AFA6A1B4B302
:1038AE00BABDC7C0C9CEDBDCD5D2FFF8F1F6E3E472
:1038BE00EDEAB7B0B9BEABACA5A28F888186939462
:1038CE009D9A2720292E3B3C35321F1811160304D2
:1038DE000D0A5750595E4B4C45426F6861667374C2
:1038EE007D7A898E878095929B9CB1B6BFB8ADAA22
:1038FE00A3A4F9FEF7F0E5E2EBECC1C6CFC8DDDA22
:10390E00D3D4696E676075727B7C51565F584D4A91
:10391E004344191E171005020B0C21262F283D3A81
:10392E0033344E49404752555C5B7671787F6A6DF1
:10393E0064633E39303722252C2B0601080F1A1DE1
:10394E001413AEA9A0A7B2B5BCBB9691989F8A8D51
:10395E008483DED9D0D7C2C5CCCBE6E1E8EFFAFD41
:10396E00F4F3010409050A06070B110C120D1013CE
:00000001FF
