:100000000C9438000C9453000C9453000C9453003F
:100010000C9482040C9453000C9453000C945300E1
:100020000C9453000C94E7030C9453000C9453006D
:100030000C9453000C9453000C9453000C945300F4
:100040000C9413040C9453000C9453000C94480724
:100050000C94EA0D0C9453000C9453000C94530030
:100060000C9453000C9453000C9453000C945300C4
:1000700011241FBECFEFD4E0DEBFCDBF12E0A0E061
:10008000B1E0E0E1F8E302C005900D92A436B107BB
:10009000D9F713E0A4E6B2E001C01D92A63EB10775
:1000A000E1F70C9413060C94000090919102292F13
:1000B000221F2227221F892F82958695869583707D
:1000C0002827892F82958F702827892F86958695D6
:1000D00028272170892F9927880F991F282B209373
:1000E0009102822F99270895FF920F931F93F894FE
:1000F000809166028150823020F18091BC02843070
:1001000001F180917102863010F01092710280919D
:10011000710280FF02C0949804C0949A88EF0E94F4
:10012000130880917102882339F0809171028F5FEA
:1001300080937102789447C3809171028F5F80939E
:1001400071028091650280FFE4C18091BC02992711
:100150008830910541F18930910594F483309105FF
:1001600009F48AC0843091051CF4019721F10AC377
:100170008530910509F41EC1079709F4A1C002C397
:100180008B30910509F49CC08C30910524F40997BB
:1001900009F410C1F7C28D30910509F40BC10F9716
:1001A00009F48EC0EFC280E00E94280F80918C027B
:1001B0000E94A808E7C280917203882321F48091ED
:1001C0006703882361F090918C029F3F41F0991F53
:1001D0009927991F80918802892B0E94280F80916E
:1001E0006703882309F4CEC280916F03803150F4F5
:1001F00080916F03E82FFF27EC58FC4F80818F3FE1
:1002000009F0C0C210926F0380916E038F5F8093DC
:100210006E0380916E03803168F480916E03E82F45
:10022000FF27EE0FFF1FE95BFC4F808191818F5FFD
:100230009F4F11F410926E0380916E03E82FFF27F9
:10024000EE0FFF1FE95BFC4F8081918190936A0361
:10025000809369038091690390916A038F5F9F4F38
:1002600021F48FEF809374038DC20E949A108093C3
:1002700081020E94AB0B86C280917203882309F42D
:1002800081C280918C028F3F29F0881F8827881FA8
:100290000E94280F80916F038F5F80936F0380917E
:1002A0006F03803150F480916F03E82FFF27EC58E3
:1002B000FC4F80818F3F09F065C210926F0362C2CC
:1002C0008091C503882309F45DC290918C029F3F01
:1002D00041F0991F9927991F80918802892B0E94CC
:1002E000280F20918C02822F99278F739070892B71
:1002F00021F080918102820F01C0822F0E94A80804
:1003000080916F03803150F480916F03E82FFF27B5
:10031000EC58FC4F80818F3F09F034C210926F037C
:100320008091C4038F5F8093C4038091C4038032A3
:1003300048F48091C403E82FFF27EC55FC4F8081DF
:100340008F3F11F41092C40364EA73E084E893E0F1
:100350000E945318882331F0909186028091850283
:100360009817A1F0A4E8B3E0E4EAF3E09FE18D91EF
:100370008193915097FFFBCF1092C403109281029A
:10038000109280020E94C10C0E946A0D8091850229
:100390008093860280918002809381028091C403C1
:1003A000E82FFF27EC55FC4F6081809186020E9468
:1003B000E314E8C18091C503882309F4E3C1909157
:1003C0008C029F3F41F0991F9927991F80918802C5
:1003D000892B0E94280F20918C02822F99278F73DE
:1003E0009070892B59F010918102120F809169034E
:1003F00090916A030E948510810F01C0822F0E9494
:10040000A80880916F03803150F480916F03E82F2A
:10041000FF27EC58FC4F80818F3F09F0B3C1109249
:100420006F0380916E03803170F480916E03E82F2A
:10043000FF27EE0FFF1FE95BFC4F808191818F5FEB
:100440009F4F09F050C010926E038091C4038F5FDC
:100450008093C4038091C403803248F48091C40324
:10046000E82FFF27EC55FC4F80818F3F59F5109204
:10047000C40364EA73E084E893E00E94531888237D
:1004800031F09091860280918502981791F0A4E84E
:10049000B3E0E4EAF3E09FE18D918193915097FFFF
:1004A000FBCF10928102109280020E94C10C0E9428
:1004B0006A0D8091850280938602809180028093EC
:1004C000810205C08091C4038F5F8093C403809133
:1004D000C403E82FFF27EC55FC4F60818091860212
:1004E0000E94261105C080916E038F5F80936E037A
:1004F00080916E03E82FFF27EE0FFF1FE95BFC4F93
:100500008081918190936A03809369030E949A107D
:1005100039C18091BC0299278830910541F1893019
:10052000910594F48330910509F48EC084309105CF
:100530001CF4019771F126C18530910509F4BFC003
:10054000079709F4B2C01EC18B30910509F4ADC004
:100550008C30910524F4099709F4B1C013C18D3092
:10056000910509F4ACC00F9709F49FC00BC18091AD
:100570008C028093640280918B0280938C020E9493
:10058000550080938B0280918C0240E0642F8F7322
:10059000F3C080917203882329F480916703882334
:1005A00009F4F0C080917203882379F080916F0381
:1005B000803148F480916F03E82FFF27EC58FC4FFF
:1005C00080818F3F11F410926F0360918C026093D1
:1005D000640280916F03E82FFF27EC58FC4F8F5F78
:1005E00080936F03E081E0938C02EF3F09F4CAC06F
:1005F00080918702882319F0E07CE0938C0220919F
:100600008C02822F99278F739070422F42954695C6
:1006100046954370661F6627661F2F73892B59F016
:10062000417080918902482B80918802682B8091CB
:100630008102820F37C0417080918902482B8091DE
:100640008802682B822F2EC080917203882309F4C0
:1006500099C00E94AB0B80916F030E94BD0B8091EB
:100660008C028093640280916F03E82FFF27EC587F
:10067000FC4F808180938C028F3F09F483C00E94DD
:10068000010D20918C02922F9295969596959370DC
:10069000917080916402881F8827881F492F682FD6
:1006A000822F8F730E940D0F6DC08091C503882328
:1006B00031F00E94AB0B80916F030E94BD0B8091C3
:1006C000C503882309F45EC000918C020093640284
:1006D00080916F03E82FFF27EC58FC4F8F5F8093CA
:1006E0006F03E081E0938C02EF3F09F44BC08091EF
:1006F0008702882319F0E07CE0938C0220918C0221
:10070000822F99278F739070422F42954695469578
:100710004370602F661F6627661F2F73892B21F198
:1007200051E0F52EF42280918902F82A0091880286
:10073000062B10918102120F8091690390916A0338
:100740000E9485104F2D602F810F0E940D0F109178
:100750008C0280918102180F8091690390916A0345
:100760000E948510810F0CC0417080918902482B36
:1007700080918802682B822F0E940D0F80918C023D
:100780000E94840880916502843030F485E20E94E2
:10079000080B0E945C0D09C080916502883028F426
:1007A00085E20E946A0B0E944F0D0E943E0D8091CF
:1007B00065028F5F8093650280916502883010F03A
:1007C0001092650278941F910F91FF9008951F92E7
:1007D0000F920FB60F9211242F933F934F935F9375
:1007E0006F937F938F939F93AF93BF93EF93FF93F9
:1007F0008091920290919302909389008093880057
:100800000E947400FF91EF91BF91AF919F918F91E2
:100810007F916F915F914F913F912F910F900FBEFC
:100820000F901F9018951F920F920FB60F921124E0
:100830002F933F934F935F936F937F938F939F93E8
:10084000AF93BF93CF93EF93FF93809172028F3F4B
:1008500029F0809172028F5F8093720280918302EF
:10086000909184028F5F9F4F49F080918302909115
:1008700084020196909384028093830280916F0298
:1008800090917002892B81F080916F02909170029B
:1008900001979093700280936F0280916F02909104
:1008A0007002892B09F49498809166028130C1F41A
:1008B000C0B3C295CF70C17080916C02882371F46F
:1008C000CC2361F080917002909171020196909317
:1008D00071028093700288EF0E941308C0936C022B
:1008E000FF91EF91CF91BF91AF919F918F917F91A8
:1008F0006F915F914F913F912F910F900FBE0F908D
:100900001F9018951F920F920FB60F9211242F93DC
:100910003F938F939F9329B323708091940228175C
:1009200091F1833041F4223099F480918F029091BB
:100930009002019709C0823059F4233049F4809124
:100940008F029091900201969093900280938F0273
:1009500080918F02909190028D52914030F08CE204
:1009600091E09093900280938F0280918F029091FA
:100970009002449730F484E190E090939002809349
:100980008F02209394029F918F913F912F910F900E
:100990000FBE0F901F90189543E350E081B1886916
:1009A00081B940B920E030E02CBF4FE150E08AB17E
:1009B00088698AB949B920BD80EC8ABB8CE38BBBBE
:1009C0008BEB87BB18BA8FEF84BB81BB86B981E5FF
:1009D0008DB9089589B7816089BF8BE083BF8AEFA5
:1009E00081BF089580917D00846080937D0008958B
:1009F00085E20E946A0B80917D008B7F80937D0051
:100A00000895E199FECF9FBB8EBBE09A8DB39927E5
:100A1000089580917D0086958695992781709070C4
:100A20000895E199FECF9FBB8EBB6DBBF894E29A0F
:100A3000E19A789408950F931F93CF93DF938C01DD
:100A400081E00D32180710F00CE211E004311105BD
:100A500010F404E110E010938E0200938D021093C5
:100A6000900200938F02812F9927682F85E090E0F4
:100A70000E94110560918D0286E090E00E941105B0
:100A800080918D0290918E020E94AB0DC0E0D0E764
:100A9000E8E3F9E3980144275527BE01CF010E94FE
:100AA000E61BFA01E90193E0F695E795D795C7951E
:100AB0009A95D1F7BE01CF0126E030E040E050E04A
:100AC0000E94E61BFA01E901CA01AA27BB279C0183
:100AD000009731F4D0939302C093920281E061C0F9
:100AE000887F892B69F403E0F695E795D795C7953C
:100AF0000A95D1F7D0939302C093920282E051C03D
:100B0000C901807F892B69F414E0F695E795D795A4
:100B1000C7951A95D1F7D0939302C093920286E0BD
:100B200040C0C901807E892B69F4B5E0F695E79550
:100B3000D795C795BA95D1F7D0939302C0939202F7
:100B400087E02FC0C901807C892B69F4A6E0F69567
:100B5000E795D795C795AA95D1F7D0939302C093FF
:100B6000920283E01EC0C9018070892B51F48D2F41
:100B70009E2FAF2FBB27909393028093920284E025
:100B800010C020703C7F232B79F46AE0F695E7953E
:100B9000D795C7956A95D1F7D0939302C0939202E7
:100BA00085E080938A0002C010928A0080919202B0
:100BB00090919302909581959F4F9093930280938B
:100BC00092029093890080938800DF91CF911F91CA
:100BD0000F9108950F931F9380916B008160809314
:100BE0006B0080916B00826080936B008BB7886094
:100BF0008BBF85E090E00E9401059927182F002700
:100C000086E090E00E9401059927802B912B0E949D
:100C10001B051092650280917D00846080937D00A9
:100C20001F910F910895CFEFD4E0DEBFCDBF0E949A
:100C3000CC040E94EA050E94EA0480918D02809310
:100C400091020E9422090E949A0778940E946E09DC
:100C50008091BC0299278830910509F452C08930EF
:100C60009105CCF48330910579F18430910554F4E9
:100C70008130910561F1823091050CF057C0892BCC
:100C8000B1F1E4CF8530910551F185309105A4F1A2
:100C9000079729F1DBCF8C30910509F441C08D30E5
:100CA000910524F40A9709F441C01BC08E309105C8
:100CB00031F08E30910584F00F9771F0C7CF10920C
:100CC00066020E94020FC2CF109266022CC01092E0
:100CD00066020E949311BACF1092660205C081E0AD
:100CE00001C082E0809366020E946C18AFCF109220
:100CF00066020E942508AACF109266020E942F0F5A
:100D0000A5CF109266020E94F2040E94960B0E94E8
:100D10006E098091BC028830D1F30E94F80496CF0E
:100D200082E0809366020E94761590CF0E94960B17
:100D30000E943E0D8BCF159BFECF83B980E090E0E3
:100D40000895CF93DF93EC018881882331F0899156
:100D50000E949B0688818823D1F7DF91CF91089567
:100D60000F931F93CF93DF93EC0100E117E2CE01C5
:100D7000B8010E94D21B6115710581F0862F805D3C
:100D80000E949B06CE01B8010E94D21BEC01C80153
:100D90006AE070E00E94D21B8B010EC0CE01B80148
:100DA0000E94D21BEC01C8016AE070E00E94D21BD5
:100DB0008B016A307105D8F601151105A9F0CE0135
:100DC000B8010E94D21BCB01805D0E949B06CE0120
:100DD000B8010E94D21BEC01C8016AE070E00E94D9
:100DE000D21B8B01672B59F7DF91CF911F910F9188
:100DF00008958F708A3010F4805D01C0895C0E9474
:100E00009B0608950895CF93DF93EC01892F9927CE
:100E100082958F70009711F00E94F9068D2F992707
:100E2000009711F00E94F906CE0144E0969587954F
:100E30004A95E1F7009711F00E94F9068C2F0E9465
:100E4000F906DF91CF91089582B1992787FD90959A
:100E50008827990F881F99270895179BFECF83B184
:100E60009927089520EA3FE0E22FF32F3197F1F719
:100E70008A95D1F708958AEF0E9432078AEF0E947F
:100E800032078AEF0E9432078AEF0E9432070895E4
:100E90001F920F920FB60F9211248F939F93EF938F
:100EA000FF939CB1983FB1F480916602813021F0AC
:100EB000949A85E080936F028091C503882349F15D
:100EC00080916702909168020196909368028093E6
:100ED00067021FC080916A02E82FFF27EA56FD4F84
:100EE00090838F5F80936A0280916A028F718093F2
:100EF0006A0290916A0280916B02981751F4809176
:100F00006B028F5F80936B0280916B028F71809375
:100F10006B02FF91EF919F918F910F900FBE0F90F9
:100F20001F90189599270E940105803108F08FE0E5
:100F30009927089583E00E9492078093B60284E087
:100F40000E94920780939502089590916B02809180
:100F50006A02981719F081E090E0089580E090E02F
:100F60000895089590916B0280916A029817D1F3C9
:100F7000F89480916B02E82FFF27EA56FD4F8F5FB0
:100F800080936B02908180916B028F7180936B02D2
:100F90007894892F992708950E94A507892BC1F07D
:100FA0000E94B20787FF14C0682F62956F70482FA8
:100FB00055276F3059F09A012F7030708091B6022A
:100FC00099272817390721F460936902CA01089507
:100FD00080E090E00895089590916402891731F4BB
:100FE00080E00E94280F8FEF809364020895089597
:100FF000CF93C82F962F60E0992319F40E94EC0735
:1010000010C0809164028F3F09F061E08C2F8951FC
:10101000953610F041E001C040E00E940D0FC093F2
:101020006402CF9108955D9BFECF8CB980E090E083
:10103000089580919502806B0E9413088BE70E94AF
:10104000130880E00E94130808950F931F930E94D5
:10105000F8040E94AB0B8091B6020E94BD0B8FEF8B
:10106000809364020E946E098091BC02882319F06B
:101070000E94190846C00E94020B882379F08091D3
:10108000C3028093B602682F83E090E00E941105AE
:101090000E94AB0B8091B6020E94BD0B0E94A50777
:1010A000892B01F30E94B20787FFDCCF482F4295BE
:1010B0004F704F3049F099278F7090702091B60291
:1010C00033278217930771F640936902842F99277B
:1010D0008830910561F0099729F60E94B2078C01CA
:1010E0000E94B207682F802F0E94F807BBCF0E9492
:1010F000B2078C010E94B207682F802F0E94EC0774
:10110000B1CF1F910F910895CF93C82F8091950271
:1011100080690E9413088C2F99278F739070892BF8
:1011200011F480E003C08C2F8F73875E0E94130838
:101130008C2F829586958695837080FF03C0809161
:10114000020102C0809100010E941308CF9108950E
:10115000CF93C82F8091950280680E9413088C2F2E
:1011600099278F739070892B11F480E003C0CF739F
:101170008C2F875E0E941308809101010E94130842
:10118000CF91089580916602823029F08CEF0E9401
:1011900013080E94190808950895CF930E94090525
:1011A000C82F809166028130D1F0CC2311F00E94CB
:1011B000F8049498979A85E00E94320780919202F1
:1011C000909193020A9790938900809388001092DF
:1011D000710210926502CC2311F00E94F204CF91AB
:1011E000089580916602813009F0979808950895D6
:1011F00090B3991F9927991F80916E02882339F423
:10120000992329F090936E0281E090E008959093E5
:101210006E0280E090E00895089590B3991F992799
:10122000991F80916D02882339F0992329F49093B6
:101230006D0281E090E0089590936D0280E090E06F
:101240000895089581B3806F81BB82B38F7082BB94
:1012500008958FE091B3982391BB92B3982392BBEA
:101260000895DE980895AC01F894C098000000003D
:1012700000000000C09A20E01FB8779BFECFFA0163
:10128000E20FF11D8FB180832F5F2330A8F3789494
:10129000089599B3969596959F70292F2695269532
:1012A0002695892F86958270282B892F9927880F5C
:1012B000991F382F3470232B880F991F880F991F7F
:1012C0008870282B8FE0821B99270895DE9A089555
:1012D00089B3869586958F7099270895AF92BF92AE
:1012E000CF92DF92EF92FF920F931F93CF93DF93F2
:1012F000CDB7DEB726970FB6F894DEBF0FBECDBFD1
:1013000020918F023091900280918D0290918E02F7
:101310002817390731F080918F02909190020E9436
:101320001B05A0ECB2E0E9EBF2E042E011921D9265
:10133000415047FFFBCF80917202843108F490C086
:10134000109272020E943109CE0101960E94330967
:101350008091BD028C838091BE028D838091BF02FB
:101360008E8340E001E010E06E01C00ED11E842F9C
:10137000869586958695A82FBB27BD0163547D4F22
:10138000842F8770980102C0220F331F8A95E2F7DD
:10139000C901FB013081232F2823FD01EC53FD4FB0
:1013A000E081E823AC0DBD1DAC91A8234F5F809573
:1013B000222331F03823EA2B3E2BDB013C9305C07E
:1013C0003823EA233E2BFB013083483180F20E9410
:1013D0004909482F8091C302481749F08091B8020B
:1013E000481729F44093C30281E08093730240932D
:1013F000B8020E94660960ECE62E62E0F62E09EB68
:1014000012E06DEB72E054ECA52E52E0B52EF60121
:1014100042E08081D5018D935D012381DB018D91B7
:10142000BD01922F98278923D8018D938D01922396
:10143000D7019D937D014150319647FFEACF0E942D
:101440006809482F8091BC02481731F08091B7029B
:10145000481711F44093BC024093B7020E943E0D1E
:1014600026960FB6F894DEBF0FBECDBFDF91CF91A9
:101470001F910F91FF90EF90DF90CF90BF90AF90B2
:101480000895282F883118F080E090E0089586951F
:1014900086958695E82FFF27E354FD4F8081992795
:1014A000277002C0959587952A95E2F79C012170D7
:1014B000307080FF03C081E090E00895C901089575
:1014C0000895282F883118F080E090E008958695DF
:1014D00086958695E82FFF27E754FD4F8081992751
:1014E000277002C0959587952A95E2F79C01217097
:1014F000307080FF03C081E090E00895C901089535
:101500000895282F883118F080E090E0089586959E
:1015100086958695E82FFF27E054FD4F8081992717
:10152000277002C0959587952A95E2F79C01217056
:10153000307080FF03C081E090E00895C9010895F4
:1015400008958091BD02882359F48091BE028823BA
:1015500039F48091BF02882319F481E090E0089566
:1015600080E090E008950895FF920F931F93CF932A
:10157000DF93FF2400E010E0CBE0D1E088810E94FF
:10158000410A882311F0C80109C0F39421960F5F26
:101590001F4F8CE08F1594F78FEF9FEFDF91CF9166
:1015A0001F910F91FF900895CF93C0E0EC2FFF277C
:1015B000ED5FFE4F80810E94410AEC2FEF5F882390
:1015C00019F08E2F992705C0CE2FE83078F380E0F0
:1015D00090E0CF910895CF93C0E0EC2FFF27ED5F0F
:1015E000FE4F80810E94610AEC2FEF5F882319F083
:1015F0008E2F992705C0CE2FE83078F380E090E059
:10160000CF910895809173021092730299270895E3
:10161000282F883290F4869586958695E82FFF27A7
:10162000E758FD4F277081E090E002C0880F991FB6
:101630002A95E2F72081282B208308950895282FEA
:10164000883290F4869586958695E82FFF27EC588A
:10165000FD4F277081E090E002C0880F991F2A9506
:10166000E2F72081282B208308950895282F8832BF
:10167000A0F4869586958695E82FFF27EC58FD4FB8
:10168000277081E090E002C0880F991F2A95E2F749
:10169000982F909580818923808308950895282F1D
:1016A000883218F080E090E00895869586958695BA
:1016B000E82FFF27EC58FD4F277081E090E002C033
:1016C000880F991F2A95E2F720812823822F9927D6
:1016D00008950895282F8832A0F4869586958695DA
:1016E000E82FFF27E758FD4F277081E090E002C008
:1016F000880F991F2A95E2F7982F9095808189236A
:10170000808308950895282F869586958695E9E724
:10171000F2E0E80FF11D80819927277002C09595AE
:1017200087952A95E2F781709070089510927D0256
:1017300010927C0210927B0210927A02109279022F
:10174000109278021092770210927602109275022F
:101750001092740208950F931F93CF9305E411E044
:10176000CFE0F80181918F010E946A0BC150C7FF41
:10177000F8CFCF911F910F910895803138F4E82F61
:10178000FF27EB5BFE4F80810E94080B08950895B0
:10179000803138F4E82FFF27EB5BFE4F80810E94F9
:1017A0001F0B08950895803118F020E030E009C043
:1017B000E82FFF27EB5BFE4F80810E94830B282FD1
:1017C0003327C9010895803118F080E090E0089532
:1017D000E82FFF27EB5BFE4F80810E944F0B99277C
:1017E00008950895883138F4E82FFF27E35DFE4F10
:1017F00080810E94080B08950895883138F4E82FFD
:10180000FF27E35DFE4F80810E941F0B089508951E
:10181000883138F4E82FFF27E35DFE4F80810E9476
:101820006A0B089508950F931F93CF930DE211E073
:10183000C7E1F80181918F010E946A0BC150C7FF77
:10184000F8CFCF911F910F910895E82F81508830E4
:1018500030F4FF27EC5DFE4F80810E94080B089555
:1018600008951F93CF93182F81E0E82FFF27C82FEB
:10187000CF5F811731F4EC5DFE4F80810E94080B31
:1018800005C0EC5DFE4F80810E946A0B8C2FC93031
:1018900060F3CF911F910895E82F8150883030F484
:1018A000FF27EC5DFE4F80810E946A0B089508952A
:1018B000E82F8150883030F4FF27EC5DFE4F8081A7
:1018C0000E941F0B08950895E82F8150883040F43E
:1018D000FF27EC5DFE4F80810E944F0B99270895F2
:1018E00080E090E008950895E82F8150883048F412
:1018F000FF27EC5DFE4F80810E94830B282F33274A
:1019000002C020E030E0C90108950F931F93CF93E8
:1019100005E211E0C7E0F80181918F010E946A0B96
:10192000C150C7FFF8CFCF911F910F9108958D300F
:1019300038F4E82FFF27E85EFE4F80810E94080BF5
:10194000089508958D3038F4E82FFF27E85EFE4FA4
:1019500080810E946A0B089508958D3038F4E82F35
:10196000FF27E85EFE4F80810E941F0B08950895B7
:10197000E8E1F1E0E80FF11D80810E944F0B99270B
:1019800008950F931F93CF9308E111E0CCE0F80185
:1019900081918F010E946A0BC150C7FFF8CFCF9190
:1019A0001F910F9108950E94C10C84E00E946A0B60
:1019B00083E00E946A0B88E00E946A0B81E00E942B
:1019C0006A0B82E00E946A0B0895CF93C82F84E0CF
:1019D0000E946A0BC23021F483E00E941F0B0FC0EB
:1019E00083E00E946A0B83E00E94360BC13011F441
:1019F00083E003C0CF3F19F484E00E94080BCF912D
:101A00000895CF93C82F0E94D30CC7FF03C086E16F
:101A10000E94F20B8C2F829586958695837080FFAD
:101A200003C085E10E94F20BCF7311F48C2F15C017
:101A3000C73110F48FEF11C0C43218F4CC5080E0DD
:101A40000CC0C03318F4C85181E007C0CC3318F47F
:101A5000C45282E002C083E0C0530E94E50CCC2354
:101A600021F484E10E94F20B07C0EC2FFF27E35F13
:101A7000FE4F80810E94080BCF910895F894DF9863
:101A8000E9E7F2E080818FB9779BFECF319682E063
:101A9000ED37F807B9F3B4F3DF9A78940895A4E723
:101AA000B2E0E9E7F2E024E080819D91892B819307
:101AB000215027FFF9CF0895A4E7B2E0E9E7F2E06B
:101AC00024E09D919095808189238193215027FF67
:101AD000F8CF0895A4E7B2E0E9E7F2E034E020812E
:101AE0009C91822F892319F09095292320831D92A0
:101AF0003150319637FFF3CF0895AC0120E0322FFB
:101B00006115710581F0FA01E30FF11D808128272D
:101B1000E22FFF27EB5AFE4F20813F5F832F99274B
:101B20008617970780F3822F992708950F931F93A5
:101B3000CF93DF936115710549F08C01EB01F8013A
:101B400081918F010E949B062197C9F7DF91CF9168
:101B50001F910F9108950F931F939C0107EC12E0C2
:101B600082E48093C7021092C80282E08093C90287
:101B7000832F99278093CA022093CB0265E070E0FF
:101B8000C8010E947D0D8093CC0266E070E0C80120
:101B90000E94960D1F910F9108950F931F9307ECCC
:101BA00012E090E89093C7021092C80291E09093DF
:101BB000C9028093CA0264E070E0C8010E947D0DF2
:101BC0008093CB0265E070E0C8010E94960D1F91E2
:101BD0000F9108951F920F920FB60F921124EF925A
:101BE000FF921F932F933F934F935F936F937F9336
:101BF0008F939F93AF93BF93CF93DF93EF93FF9315
:101C000093B180915502882309F4E4C080917F024A
:101C1000803448F4E82FFF27E95FFC4F90838F5F03
:101C200080937F0204C00E94CD0D10927F0220910C
:101C30007F02233008F4CEC0F090070380910803A0
:101C4000682F7727762F6627809109039927682BBD
:101C5000792B3327CB0104962817390708F4BAC02B
:101C6000FB01E95FFC4F1381EB012396BE0187E086
:101C700093E00E947D0D181791F0BE0187E093E07C
:101C80000E947D0D99270E94030710927F0280E039
:101C90000E94CD0D0E94AB0B0E943E0D9DC08F2D6A
:101CA00099278131910551F18231910544F48130B8
:101CB000910509F488C0409709F460C086C080345B
:101CC000910521F08134910541F07FC080918D0212
:101CD00090918E020E94AB0D7BC0809109038230EF
:101CE00009F073C080910A039927982F88272091C3
:101CF0000B03820F911D0E941B056AC0809109038E
:101D0000823009F062C080910A0390910B03C82FC2
:101D1000DD2763E0CC0FDD1F6A95E1F7C90FD11D08
:101D200089E18093C7021092C80280E18093C902C2
:101D30000F2EFAECEF2EF2E0FF2EF02DC295D29589
:101D4000D07FDC27C07FDC271FE0CE010E9442103D
:101D5000F70181937F011150219617FFF6CF63E1C0
:101D600070E087EC92E00E947D0D8093DA0264E1DE
:101D700070E087EC92E00E94960D2AC080910903E2
:101D8000823119F580910A0390910B03C82FDD274A
:101D900033E0CC0FDD1F3A95E1F7C90FD11D2CE0E0
:101DA000E22E23E0F22E94E0CC0FDD1F9A95E1F7AE
:101DB0001FE0BE01F70181917F010E9403101150C5
:101DC000219617FFF6CF81E001C080E00E94CD0D83
:101DD00010927F020E94AB0BFF91EF91DF91CF91A8
:101DE000BF91AF919F918F917F916F915F914F9133
:101DF0003F912F911F91FF90EF900F900FBE0F908A
:101E00001F9018950E946E098091BC028E30D1F30C
:101E10000E94960B0E943E0D089590E03A988034FF
:101E200008F08FE3611160E4442311F440E801C03D
:101E3000492F882349F0862B842B85BB3A9A9F5FD4
:101E40009832E8F3399A0895642B65BB0895089594
:101E5000882311F0AE9A01C039983A9808957F927C
:101E60008F929F92AF92BF92CF92DF92EF92FF92AA
:101E70000F931F93CF93CC24DD247724072D0E944A
:101E8000F2040E94AB0B560146010E946E0980913C
:101E9000BC02843019F00E941908A8C080919502F4
:101EA00099270E94D30B892B31F40E94AB0B8091B0
:101EB00095020E94BD0B0E94020B882349F080917D
:101EC000C30280939502682F84E090E00E94110580
:101ED0008C2D0E94E50CC0E066E5E62E62E0F62E51
:101EE000F70180810E94610A8823B9F01C2F180D28
:101EF000195E402F672D812F0E940D0F802F99278B
:101F000056E0880F991F5A95E1F7812B0E948408AB
:101F100041E0742E8C2F0E94970CF70180810E9463
:101F2000810A882381F02C2F2A0D295E802F992782
:101F300036E0880F991F3A95E1F7822B0E94A80896
:101F40008C2F0E94A20CCF5F0894E11CF11CCD30B5
:101F500038F28FE00E94610A882371F0F2E0CF1618
:101F6000D104F4F40894C11CD11C8CE090E0880EDC
:101F7000991EA80EB91E14C08EE00E94610A882323
:101F800079F09FEFC9169FEFD90651F04CF00894F5
:101F9000C108D108E4EFFFEF8E0E9F1EAE0EBF1EEC
:101FA00085E10E94610A882371F080E0002309F432
:101FB00081E0082F882321F081E00E94080B03C0F4
:101FC00081E00E946A0B83B399278F739070892BED
:101FD00009F45BCF0E94A10A882309F456CF80E060
:101FE0000E94280F77240E94C10C4FCFCF911F91E0
:101FF0000F91FF90EF90DF90CF90BF90AF909F90A8
:102000008F907F900895282FF89495E0C098000055
:102010000000000000009FB9779BFECF0000000089
:10202000000000001FB8779BFECF8FB1C09A000060
:1020300000000000000080FDE9CFC0980000000013
:1020400086E08FB9779BFECF00000000C09A0000A9
:10205000000000000000C0980000000082E08FB97E
:10206000779BFECF872F99278FB9779BFECF6FB9CC
:10207000779BFECF2FB9779BFECF00000000C09A60
:10208000789408959C01F894C0980000000083E0C3
:102090008FB9779BFECF832F99278FB9779BFECF80
:1020A0002FB9779BFECF000000001FB8779BFECFB3
:1020B0008FB1C09A78949927089510926B0310926B
:1020C00072031092670380E00E94280F0E94960B13
:1020D0000E946A0D0E94020B089510926C0384E224
:1020E0000E946A0B0E94960B0E946A0D1092720366
:1020F00080E00E94280F089581E080936C0384E2C1
:102100000E94080B0E94AB0B0895892F9927282F56
:102110002F71822F992787FD909534E096958795AA
:102120003A95E1F7892B09F0206E822F992787FDD8
:10213000909508952091690327708091690390918B
:102140006A03F3E096958795FA95E1F7622F8F7011
:102150000E94E3146091690370916A039B01442714
:102160005527DA01C90180709078A070B070892F6E
:102170009A2FAB2FBB2780938702DA01C9018070A9
:102180009074A070B070892F9A2FAB2FBB278093CB
:1021900089022070307240705070BB27A52F942F99
:1021A000832F8093880210926F03CB010E948510C9
:1021B0009927089581E080936B0381E20E94080BC8
:1021C000109289028091890280938802809188020E
:1021D00080938702109267031092720380914703E5
:1021E0009091480390936A03809369038F5F9F4F98
:1021F00089F010926E0310926F0310928C020E946D
:102200009A10809381028091650280FDFCCF81E06D
:10221000809367030E94AB0B08958091810288230D
:1022200021F483E00E946A0B0CC087FF07C083E0A3
:102230000E946A0B84E00E94080B089583E00E94CC
:10224000080B84E00E946A0B08950895FF920F9393
:102250001F93CF93DF93C82FDD2703E0CC0FDD1F43
:102260000A95E1F7C60FD11D15E0CC0FDD1F1A95B9
:10227000E1F7BFE0FB2EC050D84F07E413E0CE01DA
:102280000E9442109927982F8827F8018083918314
:10229000CE0101960E944210282F3327F801808139
:1022A0009181822B932B819391938F01FA942296A3
:1022B000F7FEE5CFDF91CF911F910F91FF90089529
:1022C000FF920F931F93CF93DF93C82FDD2753E027
:1022D000CC0FDD1F5A95E1F7C60FD11D45E0CC0F9D
:1022E000DD1F4A95E1F73FE0F32E07E413E0C0500D
:1022F000D84FF80180819181892F9927BE010E94D2
:1023000003102196F801819191918F01BE010E94E5
:102310000310FA942196F7FEECCFDF91CF911F9135
:102320000F91FF9008951F93CF93DF930E94F204C3
:102330008091C30287708093680310926D0310929E
:102340006C0310926B031092670310927203109249
:102350006E038FEF9FEF90936A038093690310924F
:1023600066020E94AB0B0E946A0D0E946E0980916A
:10237000BC02813071F00E94F80410927203109236
:10238000670380E00E94280F0E94960B0E943E0D7A
:10239000F4C280916C03882361F580916B038823DC
:1023A00041F50E94020B882359F08091C302877087
:1023B0008093680360916D030E9426110E94AB0B0D
:1023C000809168030E94BD0B0E94D40AC82F882305
:1023D00059F00E94C10C8C2F815080936D03682F9F
:1023E000809168030E94261180916D038F5F0E9487
:1023F000250C81E00E94610A882379F080916B03AB
:10240000882319F00E945D1008C080916C03882316
:1024100011F00E946D100E94DA1080916B038823E6
:1024200029F480916C03882309F463C080916E03C2
:102430000E94E30B882311F40E946A0D80916E03C1
:102440000E94C80B8091690390916A038F5F9F4F30
:1024500021F40E94D30C80E046C080E00E946A0B09
:102460008091690390916A0343E0969587954A9518
:10247000E1F78F700E94BD0B8091690390916A0310
:1024800097FF04C088E00E94080B03C088E00E9408
:102490006A0B8091690390916A03AA27BB273EE0EB
:1024A000B695A795979587953A95D1F781709070D5
:1024B000892B21F081E00E94080B03C081E00E947B
:1024C0006A0B8091690390916A03AA27BB272DE0CC
:1024D000B695A795979587952A95D1F781709070B5
:1024E000892B21F082E00E94080B03C082E00E9449
:1024F0006A0B88E00E94610A882331F483E00E941D
:10250000610A882309F478C010916B03112309F044
:1025100073C0812F0E94280FC0916C03CC2309F453
:1025200042C088E00E94610A8823D1F080916E0346
:102530009927019640976CF480916E03E82FFF274E
:10254000EE0FFF1FE95BFC4F808191818F5F9F4FF2
:1025500019F410936E0330C080916E038F5F20C01A
:1025600080916E038823C9F480916E0399270196A8
:10257000409714F580916E03E82FFF27EE0FFF1FA1
:10258000E95BFC4F808191818F5F9F4FA9F0809123
:102590006E038F5F80936E03E7CF80916E0381504F
:1025A00080936E0309C088E00E94610A882321F0AD
:1025B0000E947C10C0936E0380916E03E82FFF276A
:1025C000EE0FFF1FE95BFC4F8081918190936A03BE
:1025D00080936903109272038F5F9F4F69F00E948E
:1025E0009A108093810210926F038091650280FDA2
:1025F000FCCF81E08093720387E10E94610A882307
:1026000039F180916C038823E9F080916E0399275A
:102610000196409764F480916E03E82FFF27EE0F38
:10262000FF1FE95BFC4F8FEF9FEF828393838FEF58
:102630009FEF90936A03809369030E946D1080E07E
:102640000E946A0B60916D03809168030E94601183
:1026500080916C03882309F47FC180916903909174
:102660006A038F5F9F4F09F40FC184E10E94610AE2
:10267000882311F180916E03E82FFF27EE0FFF1FD3
:10268000E95BFC4F8081918120E030E8822793272D
:10269000808391838081918190936A038093690301
:1026A000AA27BB2780709078A070B070892F9A2FCE
:1026B000AB2FBB278093870285E10E94610A8823A4
:1026C00011F180916E03E82FFF27EE0FFF1FE95BEA
:1026D000FC4F8081918120E030E482279327808322
:1026E00091838081918190936A0380936903AA27E3
:1026F000BB2780709074A070B070892F9A2FAB2F79
:10270000BB278093890286E10E94610A882311F128
:1027100080916E03E82FFF27EE0FFF1FE95BFC4F50
:102720008081918120E030E282279327808391830A
:102730008081918190936A0380936903AA27BB27C4
:1027400080709072A070B070892F9A2FAB2FBB272A
:10275000809388028FE00E94410A882331F48EE042
:102760000E94410A882309F47DC00E94B40AC82F40
:10277000DD27C7FDD0958FE00E94610A882329F4E8
:102780008EE00E94610A882351F00E946A0D0E9427
:10279000C10C83E00E946A0B84E00E946A0B8FE008
:1027A0000E94410A882349F183E00E94080B8FEFC1
:1027B000CF3FD807C9F00E946A0D2091690330917C
:1027C0006A03307E9C2F8827282B392B30936A038D
:1027D0002093690380916E03E82FFF27EE0FFF1F00
:1027E000E95BFC4F208331838091690390916A03F8
:1027F0000E9485108093810232C08EE00E94410ABF
:10280000882309F441C084E00E94080B2FEFCF3FDA
:10281000D207E1F00E946A0D2091690330916A03AA
:10282000307E2C97CF71D0709C2F8827282B392B86
:1028300030936A032093690380916E03E82FFF278A
:10284000EE0FFF1FE95BFC4F20833183809169030A
:1028500090916A030E94851080938102845F0E9498
:10286000AD0C12C08FE00E94810A882329F48EE00B
:102870000E94810A882341F083E00E946A0B84E071
:102880000E946A0B0E946A0D8FE00E94410A882311
:1028900009F062C08EE00E94410A882309F05CC002
:1028A0000E94EB0AC82F882329F40E94020B882378
:1028B00009F447C00E94850C0E94AB0BCC2359F44D
:1028C0008091690390916A038F5F9F4F29F0C091B7
:1028D0006903C77001C0C1501092720380E00E946A
:1028E000280F4091C302242F332763E0220F331FA8
:1028F0006A95E1F78C2F9927282B392B30936A039F
:102900002093690380916E03E82FFF27EE0FFF1FCE
:10291000E95BFC4F208331836C2F842F0E94E314EA
:1029200010926F031092880280918802809389022E
:1029300080918902809387021092810281E08093C6
:1029400072030E940D118091690390916A03877050
:10295000907001960E94310C80916B03882309F4DA
:1029600004CD0E940D118091690390916A038770D4
:10297000907001960E94310CF8CCDF91CF911F919D
:10298000089510926F0381E08093700381E20E94AA
:10299000080B80E00E94280F8091650280FDFCCF2B
:1029A00081E080937203089581E080936C0384E258
:1029B0000E94080B0E94AB0B80E00E94BD0B80E0E0
:1029C0000E94280F0895EF92FF920F931F93CF93C9
:1029D000DF93182F062F0E943E0DC12FDD2723E025
:1029E000CC0FDD1F2A95E1F7C00FD11D94E0CC0F6D
:1029F000DD1F9A95E1F784E7E82E83E0F82E1FE0CB
:102A0000CE010E944210F70181937F01115021965F
:102A100017FFF6CF1092820280E090E00E94360B02
:102A20000E943E0DDF91CF911F910F91FF90EF908B
:102A30000895EF92FF920F931F93CF93DF93182F78
:102A4000062F0E943E0DC12FDD2753E0CC0FDD1F66
:102A50005A95E1F7C00FD11D44E7E42E43E0F42E70
:102A600034E0CC0FDD1F3A95E1F71FE0BE01F7011E
:102A700081917F010E9403101150219617FFF6CF1C
:102A80000E943E0DDF91CF911F910F91FF90EF902B
:102A9000089510926C0384E20E946A0B10928202E5
:102AA00080E00E946A0B80E090E00E94360B0E945A
:102AB000130C0E94AB0B8091C3020E94BD0B80E0FF
:102AC0000E94280F0895109272030E94130C0E9416
:102AD000AB0B8091C3020E94BD0B1092700381E288
:102AE0000E946A0B80E00E94280F0895EF92FF92E7
:102AF0000F931F93CF93DF931092710310926C0387
:102B0000109270031092720310926F0310928C0255
:102B100080916602882319F40E94F2041BC00E946F
:102B2000F80480916602813099F40E94290912C04C
:102B30000E94F8041092720380E00E94280F0E9405
:102B4000F1080E94C2080E94960B0E943E0DA4C28A
:102B50000E9422090E946E098091C3028093730330
:102B6000609171030E94E3140E94960B8091C3024E
:102B70000E94BD0B0E946E098091BC028330C1F699
:102B8000909173038091C3029817D1F080917003E4
:102B9000882311F00E94631580916C03882311F043
:102BA0000E9449158091C302809373036091710361
:102BB0000E94E3140E94AB0B8091C3020E94BD0BE4
:102BC000809170038823E1F480916C038823C1F421
:102BD000809171038F5F0E94250C0E94D40AC82F38
:102BE000882371F00E94C10C8C2F0E94250C8C2F21
:102BF000815080937103682F809173030E94E314C6
:102C000080E00E94610A8823B1F0809170038823DC
:102C100091F082E20E94080B04E713E0CFE00E94EB
:102C20005500F80181938F01C150C7FFF8CF81E0B3
:102C3000809382020CC080E00E94810A882339F0D0
:102C400080917003882319F082E20E946A0B81E070
:102C50000E94610A882379F080917003882319F01B
:102C60000E94631508C080916C03882311F00E94B4
:102C700049150E94C11480917003882329F4809122
:102C80006C03882309F43BC100916F03E02EFF24FD
:102C9000E701CC58DC4F18811F7385E10E94610A5F
:102CA000882349F01F3339F0888190E4892788838D
:102CB00081E08093820286E10E94610A882361F0AC
:102CC0001F3351F0F701EC58FC4F808190E88927C1
:102CD000808381E0809382021F3341F0112331F021
:102CE000173110F4CFEF0DC0143210F4C0E009C05A
:102CF000103310F4C1E005C01C3310F4C2E001C071
:102D0000C3E084E10E94610A811110E08FE00E941B
:102D1000610A882339F01F3329F0112319F01C169A
:102D20000CF0145F8EE00E94610A882341F01F338B
:102D300031F0112321F0CF3F11F00CF01C5084E052
:102D40000E94610A882331F08CE0C802C00111247E
:102D5000182F195E89E00E94610A882331F08CE007
:102D6000C802C0011124182F185E85E00E94610A74
:102D7000882331F08CE0C802C0011124182F175E9F
:102D80008AE00E94610A882331F08CE0C802C00109
:102D90001124182F165EC3300CF063C086E00E9429
:102DA000610A882331F08CE0C802C0011124182F79
:102DB000155E87E00E94610A882331F08CE0C8022A
:102DC000C0011124182F145E8BE00E94610A882331
:102DD00031F08CE0C802C0011124182F135E81E18C
:102DE0000E94610A882331F08CE0C802C0011124DE
:102DF000182F125E8CE00E94610A882331F08CE06B
:102E0000C802C0011124182F115E82E10E94610ADC
:102E1000882331F08CE0C802C0011124182F105E05
:102E20008DE00E94610A882331F08CE0C802C00165
:102E30001124182F1F5D80E10E94610A882331F060
:102E40008CE0C802C0011124182F1E5D83E10E948E
:102E5000610A882331F08CE0C802C0011124182FC8
:102E60001D5D202F3327F901EC58FC4F80818F3FE7
:102E700011F41F3319F48081807C182BE901CC58A0
:102E8000DC4F8881181711F180916C03882331F091
:102E900080E00E94280F81E00E943207188381E0C1
:102EA0008093820280916C03882381F0812F829528
:102EB0008695869583708170912F991F9927991F08
:102EC000482F692F812F8F730E940D0F1F3F71F0C4
:102ED000812F0E94010D80918202882321F080E0E1
:102EE0000E941F0B0CC00E946A0B09C00E94D30CE9
:102EF00080E090E00E94360B80E00E94080B88E0A2
:102F00000E94610A882331F483E00E94610A8823C9
:102F100009F49BC080916C03882309F46AC080E0A7
:102F20000E94280F81E00E94320788E00E94610A17
:102F30008823B1F080916F039927019640974CF454
:102F400080916F03E82FFF27EC58FC4F80818F3F63
:102F500019F410926F0320C080916F038F5F1AC025
:102F600080916F03882399F480916F038F30A0F4D0
:102F700080916F03E82FFF27EC58FC4F80818F3F33
:102F800059F080916F038F5F80936F03EDCF809135
:102F90006F03815080936F030E94AB0B80916F038E
:102FA0000E94BD0B80916F03E82FFF27EC58FC4F68
:102FB000808180938C028F3F51F481E00E946A0BE4
:102FC00082E00E946A0B80E00E94080B3EC080E015
:102FD0000E946A0B80918C02982F929596959695F7
:102FE00093709170282F221F2227221F492F622FB2
:102FF00025C088E00E94610A882339F1C0917003DE
:10300000CC2319F50E94D414C0936F0380916F03F1
:10301000E82FFF27EC58FC4FE081E0938C02EF3F54
:10302000A1F08E2F829586958695837081709E2F54
:10303000991F9927991F482F692F8E2F8F730E94F0
:103040000D0F80918C020E94010D87E10E94610AA0
:10305000882309F48FCD80916C03882381F08091BF
:103060006F0399270196409744F480916F03E82FEE
:10307000FF27EC58FC4F8FEF81830E944915609128
:1030800071038091C3020E9419151092820280E0A0
:1030900090E00E94360B6ECDDF91CF911F910F9182
:1030A000FF90EF90089540E0DB01FC0190818C914E
:1030B000981719F080E090E0089580818F3F19F40F
:1030C00081E090E008954F5F31961196403270F3A1
:1030D00081E090E008950895EF92FF920F931F937F
:1030E000CF93FF24E090BC0280916602882319F4FC
:1030F0000E94F2040BC00E94F804809166028130A5
:1031000019F40E94290902C00E9422090E94960B0C
:103110000E946A0D1092A4038091A40380938403FB
:103120008FEF8093A5038091A5038093850381E0B1
:103130000E94250C1092C50310926E0310926F032B
:1031400010926A03109269031092C40310928002D5
:10315000109281020E94AB0B8091BC028F3021F053
:103160008B3011F08730D1F48091C3021AC01092D5
:10317000C5030E94F1080E94C208109280021092BA
:1031800081021092880210928702109289020E9496
:10319000960B0E946A0D0E943E0DFEC28091C302F2
:1031A000877080938602809385028091C3020E947B
:1031B000BD0B0E946E098091BC028E15C1F687E19D
:1031C0000E94610A882329F18091830290918402F0
:1031D00086509D40D0F480918302909184028E5459
:1031E000914098F0209183023091840280E69AEE1B
:1031F000B9010E94D21B7093840260938302809174
:103200008302909184020E941B0510928402109206
:10321000830280E00E94610A882349F00E94C10C69
:103220000E946A0D82E20E94080B10928A0280E0DE
:103230000E94810A882329F1A6ECB3E0E4E8F3E0D8
:10324000CFE18D918193C150C7FFFBCF8091C50322
:103250008823A1F4A4E8B3E0E4EAF3E0CFE18D91A0
:103260008193C150C7FFFBCF809180028093810280
:1032700083E00E946A0B84E00E946A0B82E20E9453
:103280006A0B80E00E94410A882361F1C0E08091CE
:103290008A02C81760F4EC2FFF27EA53FC4F8081A5
:1032A000883028F48F5F0E94250CCF5FF0CF0E94FA
:1032B000EB0AC82F882309F44EC180918A0280321C
:1032C00008F049C1E82FFF27EA53FC4FC150C083E3
:1032D0008F5F80938A02E82FFF27EA53FC4F8FEF1E
:1032E000808339C18FE00E94410A882331F48EE047
:1032F0000E94410A882309F46DC00E94B40AC82FB5
:103300008FE00E94610A882329F48EE00E94610AFE
:10331000882339F00E94C10C0E946A0D82E20E944B
:103320006A0B8FE00E94410A882301F184E00E9429
:103330006A0B83E00E94080BCF3F11F0C09380021C
:103340008091810287FD0AC00E94B80C882331F465
:103350000E946A0D809181020E94AD0C90918002C2
:1033600080918102981761F1892F28C08EE00E9418
:10337000410A882329F183E00E946A0B84E00E94BD
:10338000080BCF3F19F0CC50C0938002809181028E
:10339000181664F0845F0E94B80C882339F40E94E8
:1033A0006A0D80918102845F0E94AD0C9091800231
:1033B00080918102981721F0892F845F0E94970CD9
:1033C0008091C503882309F0C6C080918002809354
:1033D0008102C1C08FE00E94810A882329F48EE017
:1033E0000E94810A882321F00E94C10C0E946A0D6C
:1033F0000E94D40AC82F882331F40E94020B88232C
:1034000009F446C01FC00E94850CC150C0938403BC
:10341000809184038093C6038FEF8093850380910E
:1034200085038093C7038091C503882319F5A4E819
:10343000B3E0E4EAF3E0CFE18D918193C150C7FF9F
:10344000FBCF18C08091BC028F3021F08B3011F07F
:10345000873019F48091C30203C08091C302877042
:10346000809385028091C503882321F48091850291
:10347000809386028091C503882351F40E94AB0B90
:10348000809185020E94BD0B809180028093810211
:1034900064EA73E084E893E00E9453188823F9F407
:1034A000809185038F3F49F48091A5038F3F29F4D4
:1034B0008091A4038F5F0E94580CC0E004E813E0E1
:1034C000F8018081893008F044C0D8018D918D01C8
:1034D0008F5F0E94250CCF5FC03290F33AC0C0E0EE
:1034E00004EA13E0F8018081893098F58091C503E2
:1034F0008823E1F08091C403E82FFF27EC55FC4FAF
:10350000D8019C918081981789F48C918F5F0E94DB
:10351000640C8823C9F4F80180818F5F0E944C0CF1
:10352000D8018C918F5F0E94580C0EC0F8018081E9
:103530008F5F0E94640C882311F00E946A0DD801ED
:103540008C918F5F0E94250CCF5F0F5F1F4FC032A1
:1035500048F20E940D118091C503882351F180919A
:103560006602823089F48091670290916802181691
:103570001906FCF48091670290916802039790937A
:1035800068028093670212C0813099F480917002C2
:10359000909171021816190664F48091700290914E
:1035A0007102039790937102809370020E947400DD
:1035B00000CE80916602823019F40E94CC07F82E6A
:1035C00080916602882349F481E00E94610A882381
:1035D00021F08091C503882371F4809166028230C6
:1035E00021F4BCEFFB1639F02BC0813049F50E9465
:1035F0000D09882329F11092C50380E00E94280F4D
:103600000E94C20880916602813011F00E94F10888
:1036100081E20E946A0B0E946A0D0E94AB0B8091AE
:10362000BC028F3021F08B3011F0873019F480917B
:10363000C30203C08091C30287700E94BD0B68C0A3
:1036400080916602882349F481E00E94610A882300
:1036500021F08091C503882389F080916602823031
:1036600029F48F2D8A5F823048F052C0813009F0F2
:103670004FC00E94F808882309F44AC081E20E94E2
:10368000080B8091BC028F3021F08B3011F0873015
:1036900039F46091A4038091C3020E94E31411C025
:1036A0008091C3026091A40387700E9426118091CB
:1036B00047039091480390936A03809369030E94A3
:1036C0009A1010928C0280916602823019F4EBEF0E
:1036D000FE1631F01092C40310926F0310926E0325
:1036E00010926502109268021092670210927102A5
:1036F000109271021092700281E08093C5038AEFEC
:103700000E94130880916602813011F00E94CD085A
:1037100086E10E94610A882389F090E08091880206
:10372000882309F491E090938802992321F082E0A4
:103730000E94080B03C082E00E946A0B85E10E9490
:10374000610A882389F090E080918902882309F436
:1037500091E090938902992321F081E00E94080B67
:1037600003C081E00E946A0B84E10E94610A882301
:1037700009F41FCD90E080918702882309F491E03D
:1037800090938702992321F088E00E94080B11CDC5
:1037900088E00E946A0B0DCDCF911F910F91FF9091
:1037A000EF900895AA1BBB1B51E107C0AA1FBB1FC6
:1037B000A617B70710F0A61BB70B881F991F5A95BD
:1037C000A9F780959095BC01CD010895A1E21A2E2C
:1037D000AA1BBB1BFD010DC0AA1FBB1FEE1FFF1FB5
:1037E000A217B307E407F50720F0A21BB30BE40B05
:1037F000F50B661F771F881F991F1A9469F760954C
:103800007095809590959B01AC01BD01CF01089505
:1038100064207F04050607111210130409050A0627
:10382000070B110C120D1013201B191C1A180F0C6A
:103830000E0B0D0A0920191A180C0B0A0922212552
:103840002320191A18241B1C0F0E0D04030A0C0B3D
:10385000090801020026271D1E1F1012111314153E
:10386000161705060700070E091C1B1215383F36F0
:103870003124232A2D70777E796C6B6265484F4620
:103880004154535A5DE0E7EEE9FCFBF2F5D8DFD690
:10389000D1C4C3CACD90979E998C8B8285A8AFA6C0
:1038A000A1B4B3BABDC7C0C9CEDBDCD5D2FFF8F135
:1038B000F6E3E4EDEAB7B0B9BEABACA5A28F888160
:1038C0008693949D9A2720292E3B3C35321F181150
:1038D0001603040D0A5750595E4B4C45426F686100
:1038E0006673747D7A898E878095929B9CB1B6BFF2
:1038F000B8ADAAA3A4F9FEF7F0E5E2EBECC1C6CFA0
:10390000C8DDDAD3D4696E676075727B7C51565F0F
:10391000584D4A4344191E171005020B0C21262F3F
:10392000283D3A33344E49404752555C5B767178B6
:103930007F6A6D64633E39303722252C2B060108DF
:103940000F1A1D1413AEA9A0A7B2B5BCBB969198CF
:103950009F8A8D8483DED9D0D7C2C5CCCBE6E1E87F
:10396000EFFAFDF4F3010409050A06070B110C1226
:043970000D10130023
:00000001FF
