:100000000C9438000C9453000C9453000C9453003F
:100010000C94E5040C9453000C9453000C9453007E
:100020000C9453000C9419040C9453000C9453003A
:100030000C9453000C9453000C9453000C945300F4
:100040000C944D040C9453000C9453000C94BC0776
:100050000C94990E0C9453000C9453000C94530080
:100060000C9453000C9453000C9453000C945300C4
:1000700011241FBECFEFD4E0DEBFCDBF12E0A0E061
:10008000B1E0E6E0FAE302C005900D92A436B107B4
:10009000D9F713E0A4E6B2E001C01D92A93EB10772
:1000A000E1F70C9416070C94000090919402292F0C
:1000B000221F2227221F892F82958695869583707D
:1000C0002827892F82958F702827892F86958695D6
:1000D00028272170892F9927880F991F282B209373
:1000E0009402822F99270895FF920F931F93F894FB
:1000F000809167028150823020F18091BF0284306C
:1001000001F180917202863010F01092720280919B
:10011000720280FF02C0949804C0949A88EF0E94F3
:10012000840880917202882339F0809172028F5F77
:1001300080937202789479C3809172028F5F80936A
:1001400072028091660280FF12C28091BF029927DD
:100150008830910561F18930910594F483309105DF
:1001600009F48EC0843091051CF4019741F13CC321
:100170008530910509F449C1079709F4A5C034C336
:100180008C30910509F47CC08D30910544F48930A0
:10019000910509F43AC10B9709F496C025C38D3037
:1001A000910509F432C10F9709F48EC01DC380E098
:1001B0000E94E10F80918F020E94380915C380913F
:1001C0007503882321F480916A03882361F090915C
:1001D0008F029F3F41F0991F9927991F80918B02B1
:1001E000892B0E94E10F80916A03882309F4FCC2E5
:1001F00080917203803150F480917203E82FFF27C1
:10020000E958FC4F80818F3F09F0EEC210927203D3
:10021000809171038F5F80937103809171038031AE
:1002200068F480917103E82FFF27EE0FFF1FE65B54
:10023000FC4F808191818F5F9F4F11F41092710369
:1002400080917103E82FFF27EE0FFF1FE65BFC4F45
:100250008081918190936D0380936C0380916C03F6
:1002600090916D038F5F9F4F21F48FEF8093770301
:10027000BBC20E945311809384020E942E0CB4C210
:1002800080917503882309F4AFC280918F028F3F5C
:1002900029F0881F8827881F0E94E10F8091720330
:1002A0008F5F8093720380917203803150F480914C
:1002B0007203E82FFF27E958FC4F80818F3F09F038
:1002C00093C21092720390C28091C803882309F4EC
:1002D0008BC280918F028F3F09F1881F8827881F6A
:1002E000992720918B023327822B932B892B21F086
:1002F00081E00E94E10F12C080E00E94E10F209196
:100300008F02822F99278F739070892B21F0809113
:100310008402820F01C0822F0E9438094091650239
:100320004F3FC9F0842F881F8827881F9927209165
:100330008B023327822B932B892B69F0842F9927EB
:100340008F739070892B21F080918402840F01C0FB
:10035000842F0E94380980917203803150F480917B
:100360007203E82FFF27E958FC4F80818F3F09F087
:100370003BC2109272038091C7038F5F8093C703C3
:100380008091C703803248F48091C703E82FFF278C
:10039000E955FC4F80818F3F11F41092C70367EA43
:1003A00073E087E893E00E944F19882331F0909121
:1003B0008902809188029817A1F0A7E8B3E0E7EAE4
:1003C000F3E09FE18D918193915097FFFBCF1092C5
:1003D000C70310928402109283020E94360D0E947D
:1003E000110E80918802809389028091830280930C
:1003F00084028091C703E82FFF27E955FC4F6081F5
:10040000809189020E947715EFC18091C8038823EB
:1004100009F4EAC180918F028F3F41F1881F88273C
:10042000881F992720918B023327822B932B892BAE
:1004300021F081E00E94E10F19C080E00E94E10FED
:1004400020918F02822F99278F739070892B59F0FA
:1004500010918402120F80916C0390916D030E94A1
:100460004111810F01C0822F0E94380980917203CF
:10047000803150F480917203E82FFF27E958FC4F38
:1004800080818F3F09F0B0C1109272038091710397
:100490008F5F8093710380917103803170F480913C
:1004A0007103E82FFF27EE0FFF1FE65BFC4F8081F3
:1004B00091818F5F9F4F09F049C010927103809125
:1004C000C7038F5F8093C7038091C703803248F4CE
:1004D0008091C703E82FFF27E955FC4F80818F3FAC
:1004E00051F51092C70367EA73E087E893E00E9432
:1004F0004F19882331F090918902809188029817D2
:1005000091F0A7E8B3E0E7EAF3E09FE18D918193F2
:10051000915097FFFBCF10928402109283020E94A9
:10052000360D0E94110E809188028093890280917D
:100530008302809384028091C703E82FFF27E95547
:10054000FC4F6081809189020E94DE1180917103CD
:10055000E82FFF27EE0FFF1FE65BFC4F80819181A4
:1005600090936D0380936C030E9453113DC1809161
:10057000BF0299278830910561F18930910594F483
:100580008330910509F492C0843091051CF40197E1
:1005900091F12AC18530910509F4C3C0079709F488
:1005A000B6C022C18C30910509F480C08D30910510
:1005B00044F48930910509F4B4C00B9709F4A7C03D
:1005C00013C18D30910509F4ACC00F9709F49FC099
:1005D0000BC180918F028093650280918E0280937F
:1005E0008F020E94550080938E0280918F0240E01E
:1005F000642F8F73F3C080917503882329F4809151
:100600006A03882309F4F0C080917503882379F088
:1006100080917203803148F480917203E82FFF27A4
:10062000E958FC4F80818F3F11F410927203609162
:100630008F026093650280917203E82FFF27E958CB
:10064000FC4F8F5F80937203E081E0938F02EF3F56
:1006500009F4CAC080918A02882319F0E07CE093F3
:100660008F0220918F02822F99278F739070422FD3
:100670004295469546954370661F6627661F2F7301
:10068000892B59F0417080918C02482B80918B020C
:10069000682B80918402820F37C0417080918C0258
:1006A000482B80918B02682B822F2EC0809175037E
:1006B000882309F499C00E942E0C809172030E9435
:1006C000400C80918F028093650280917203E82F25
:1006D000FF27E958FC4F808180938F028F3F09F4F8
:1006E00083C00E94760D20918F02922F929596954D
:1006F00096959370917080916502881F8827881F56
:10070000492F682F822F8F730E94C70F6DC0809171
:10071000C803882331F00E942E0C809172030E943E
:10072000400C8091C803882309F45EC000918F02B9
:100730000093650280917203E82FFF27E958FC4F70
:100740008F5F80937203E081E0938F02EF3F09F4A3
:100750004BC080918A02882319F0E07CE0938F02DD
:1007600020918F02822F99278F739070422F42958C
:10077000469546954370602F661F6627661F2F7348
:10078000892B21F151E0F52EF42280918C02F82A78
:1007900000918B02062B10918402120F80916C0342
:1007A00090916D030E9441114F2D602F810F0E9487
:1007B000C70F10918F0280918402180F80916C03F3
:1007C00090916D030E944111810F0CC04170809186
:1007D0008C02482B80918B02682B822F0E94C70FBE
:1007E00080918F020E94140980916602843030F457
:1007F00085E20E94900B0E94030E09C08091660260
:10080000883028F485E20E94EE0B0E94F60D0E94CB
:10081000E50D809166028F5F80936602809166028B
:10082000883010F01092660278941F910F91FF901B
:1008300008951F920F920FB60F9211242F933F939A
:100840004F935F936F937F938F939F93AF93BF93D8
:10085000EF93FF9380919502909196029093890077
:10086000809388000E947400FF91EF91BF91AF9137
:100870009F918F917F916F915F914F913F912F91B8
:100880000F900FBE0F901F90189580917D00869558
:10089000869599278170907008951F920F920FB6D8
:1008A0000F9211242F933F934F935F936F937F93F6
:1008B0008F939F93AF93BF93CF93EF93FF938091C9
:1008C00073028F3F29F0809173028F5F80937302D0
:1008D00080918602909187028F5F9F4F49F08091AF
:1008E00086029091870201969093870280938602F8
:1008F00080917F02909180028F5F9F4F49F080919D
:100900007F029091800201969093800280937F02F3
:100910008091700290917102892B81F08091700218
:10092000909171020197909371028093700280916F
:10093000700290917102892B09F49498809167025A
:100940008130C1F4C0B3C295CF70C17080916D0287
:10095000882371F4CC2361F080917102909172022E
:100960000196909372028093710288EF0E9484082E
:10097000C0936D020E944504982F8823A1F48091B2
:100980006402883C29F4909364020E94030E06C01E
:1009900080916402843611F40E94F60D8091640205
:1009A0008F5F80936402FF91EF91CF91BF91AF91E0
:1009B0009F918F917F916F915F914F913F912F9177
:1009C0000F900FBE0F901F9018951F920F920FB6A9
:1009D0000F9211242F933F938F939F9329B32370EA
:1009E00080919702281791F1833041F4223099F4D5
:1009F0008091920290919302019709C0823059F43C
:100A0000233049F480919202909193020196909341
:100A100093028093920280919202909193028D5260
:100A2000914030F08CE291E0909393028093920297
:100A30008091920290919302449730F484E190E087
:100A40009093930280939202209397029F918F91AB
:100A50003F912F910F900FBE0F901F90189589B75F
:100A6000816089BF8BE083BF8AEF81BF0895809149
:100A70007D00846080937D00089585E20E94EE0BE6
:100A800080917D008B7F80937D00089589B7816080
:100A900089BF8BE087BD82E382BD0895E199FECFD7
:100AA0009FBB8EBBE09A8DB399270895E199FECF45
:100AB0009FBB8EBB6DBBF894E29AE19A789408953F
:100AC0000F931F93CF93DF938C0181E00D321807B2
:100AD00010F00CE211E00431110510F404E110E013
:100AE000109391020093900210939302009392024C
:100AF000812F9927682F85E090E00E94560560912C
:100B0000900286E090E00E945605809190029091BC
:100B100091020E945A0EC0E0D0E7E8E3F9E39801A1
:100B200044275527BE01CF010E94E11CFA01E901CB
:100B300093E0F695E795D795C7959A95D1F7BE01BD
:100B4000CF0126E030E040E050E00E94E11CFA01D5
:100B5000E901CA01AA27BB279C01009731F4D09371
:100B60009602C093950281E061C0887F892B69F469
:100B700003E0F695E795D795C7950A95D1F7D093F9
:100B80009602C093950282E051C0C901807F892BF3
:100B900069F414E0F695E795D795C7951A95D1F7BE
:100BA000D0939602C093950286E040C0C901807E32
:100BB000892B69F4B5E0F695E795D795C795BA9571
:100BC000D1F7D0939602C093950287E02FC0C90158
:100BD000807C892B69F4A6E0F695E795D795C795B3
:100BE000AA95D1F7D0939602C093950283E01EC0D8
:100BF000C9018070892B51F48D2F9E2FAF2FBB27F9
:100C0000909396028093950284E010C020703C7F00
:100C1000232B79F46AE0F695E795D795C7956A9501
:100C2000D1F7D0939602C093950285E080938A0015
:100C300002C010928A008091950290919602909540
:100C400081959F4F9093960280939502909389008F
:100C500080938800DF91CF911F910F9108950F939A
:100C60001F9380916B00816080936B0080916B007B
:100C7000826080936B008BB788608BBF85E090E0CB
:100C80000E944E059927182F002786E090E00E94C9
:100C90004E059927802B912B0E94600510926602C9
:100CA00080917D00846080937D001F910F91089555
:100CB000159BFECF83B980E090E00895CF93DF933A
:100CC000EC018881882331F089910E94580688813F
:100CD0008823D1F7DF91CF9108950F931F93CF937E
:100CE000DF93EC0100E117E2CE01B8010E94CD1CB8
:100CF0006115710581F0862F805D0E945806CE0136
:100D0000B8010E94CD1CEC01C8016AE070E00E94AD
:100D1000CD1C8B010EC0CE01B8010E94CD1CEC0190
:100D2000C8016AE070E00E94CD1C8B016A30710539
:100D3000D8F601151105A9F0CE01B8010E94CD1C0D
:100D4000CB01805D0E945806CE01B8010E94CD1CE7
:100D5000EC01C8016AE070E00E94CD1C8B01672B9A
:100D600059F7DF91CF911F910F9108958F708A30BD
:100D700010F4805D01C0895C0E9458060895CF93ED
:100D8000DF93EC01892F992782958F70009711F0DE
:100D90000E94B6068D2F9927009711F00E94B60683
:100DA000CE0144E0969587954A95E1F7009711F0BA
:100DB0000E94B6068C2F0E94B606DF91CF9108954F
:100DC00082B1992787FD90958827990F881F9927C9
:100DD0000895179BFECF83B19927089523E330E050
:100DE00081B1886181B920B91CBE05C00E94E906A5
:100DF0008AE00E949E070E94E006AC01892BB1F7B1
:100E00000F9A2FE130E08AB188698AB929B940BDCB
:100E100080EC8ABB8CE38BBB8BEB87BB18BA8FEF64
:100E200084BB81BB86B981E58DB90895CFEFD4E04D
:100E3000DEBFCDBF0E94EE060E942F060E942F0546
:100E400080919002809394020E94AE090E940E0845
:100E500078940E94FA098091BF0299278830910501
:100E600009F452C089309105CCF48330910579F1B1
:100E70008430910554F48130910561F182309105FF
:100E80000CF057C0892BB1F1E4CF8530910551F1B9
:100E900085309105A4F1079729F1DBCF8C309105BE
:100EA00009F441C08D30910524F40A9709F441C03A
:100EB0001BC08E30910531F08E30910584F00F9774
:100EC00071F0C7CF109267020E94BC0FC2CF109280
:100ED00067022CC0109267020E944C12BACF109287
:100EE000670205C081E001C082E0809367020E9432
:100EF0006719AFCF109267020E949608AACF10928E
:100F000067020E94E80FA5CF109267020E94370582
:100F10000E94190C0E94FA098091BF028830D1F317
:100F20000E943D0596CF82E0809367020E942A16B8
:100F300090CF0E94190C0E94E50D8BCF20EA3FE074
:100F4000E22FF32F3197F1F78A95D1F70895CF93D8
:100F5000C82FC150CF3F71F08AEF0E949E078AEFE1
:100F60000E949E078AEF0E949E078AEF0E949E07BA
:100F7000C15090F7CF9108951F920F920FB60F9224
:100F800011248F939F93EF93FF939CB1983FB1F4FB
:100F900080916702813021F0949A85E080937002FD
:100FA0008091C803882349F1809168029091690279
:100FB000019690936902809368021FC080916B0232
:100FC000E82FFF27E756FD4F90838F5F80936B02DA
:100FD00080916B028F7180936B0290916B02809174
:100FE0006C02981751F480916C028F5F80936C02B1
:100FF00080916C028F7180936C02FF91EF919F91B1
:101000008F910F900FBE0F901F90189599270E94F7
:101010004E05803108F08FE09927089583E00E9403
:1010200006088093B90284E00E9406088093980223
:10103000089590916C0280916B02981719F081E0ED
:1010400090E0089580E090E0089590916C02809186
:101050006B029817D1F3F89480916C02E82FFF2768
:10106000E756FD4F8F5F80936C02908180916C02F8
:101070008F7180936C027894892F992708950E942C
:101080001908892BC1F00E94250887FF14C0682F1A
:1010900062956F70482F55276F3059F09A012F7065
:1010A00030708091B90299272817390721F460938D
:1010B0006A02CA01089580E090E008959091650267
:1010C000891731F480E00E94E10F8FEF8093650271
:1010D0000895CF93C82F962F60E0992319F40E94AA
:1010E0005E0810C0809165028F3F09F061E08C2F8F
:1010F0008951953610F041E001C040E00E94C70FD1
:10110000C0936502CF9108955D9BFECF8CB980E0BE
:1011100090E0089580919802806B0E9484088BE78C
:101120000E94840880E00E94840808951F93CF9352
:101130000E943D050E942E0C8091B9020E94400C35
:101140000E94FA0984E60E949E070E94FA0984E63A
:101150000E949E070E94FA091091C6028FEF8093A9
:1011600065020E94FA09C091BF02CC2319F00E94C7
:101170008A0857C06091C602161771F06093B902D1
:1011800083E090E00E9456050E942E0C8091B902E7
:101190000E94400C1091C6020E941908892B09F385
:1011A0000E942508482F582F551F5527551FA1F07D
:1011B000682F62956F706F3049F099278F7090702B
:1011C0002091B90233278217930719F460936A02BA
:1011D00003C0C0936A02C5CF80916A029927883004
:1011E000910589F0099709F0BCCF552321F00E94A1
:1011F0002508C82F01C0C42F0E942508682F8C2FF6
:101200000E946908AECF552321F00E942508C82FFF
:1012100001C0C42F0E942508682F8C2F0E945E08F1
:10122000A0CFCF911F910895CF93C82F809198029E
:1012300080690E9484088C2F99278F739070892B66
:1012400011F480E003C08C2F8F73875E0E948408A6
:101250008C2F829586958695837080FF03C0809140
:10126000020102C0809100010E948408CF9108957C
:10127000CF93C82F8091980280680E9484088C2F99
:1012800099278F739070892B11F480E003C0CF737E
:101290008C2F875E0E948408809101010E9484083F
:1012A000CF91089580916702823029F08CEF0E94DF
:1012B00084080E948A080895CF930E944504C82F8D
:1012C000809167028130D1F0CC2311F00E943D055E
:1012D0009498979A85E00E949E078091950290913C
:1012E00096020A9790938900809388001092720268
:1012F00010926602CC2311F00E943705CF91089519
:1013000080916702813009F09798089590B3991FF2
:101310009927991F80916F02882339F4992329F026
:1013200090936F0281E090E0089590936F0280E0C7
:1013300090E0089590B3991F9927991F80916E02AC
:10134000882339F0992329F490936E0281E090E08C
:10135000089590936E0280E090E0089581B3806FCD
:1013600081BB82B38F7082BB08958FE091B39823C5
:1013700091BB92B3982392BB0895DE980895AC0177
:10138000F894C0980000000000000000C09A20E01F
:101390001FB8779BFECFFA01E20FF11D8FB180835A
:1013A0002F5F2330A8F37894089599B39695969576
:1013B0009F70292F269526952695892F86958270D0
:1013C000282B892F9927880F991F382F3470232BAA
:1013D000880F991F880F991F8870282B8FE0821B18
:1013E00099270895DE9A089589B3869586958F701A
:1013F00099270895AF92BF92CF92DF92EF92FF921A
:101400000F931F93CF93DF93CDB7DEB726970FB619
:10141000F894DEBF0FBECDBF2091920230919302AF
:1014200080919002909191022817390731F08091B4
:101430009202909193020E946005A3ECB2E0ECEB63
:10144000F2E062E011921D92615067FFFBCF809144
:101450007302843108F490C0109273020E94BD0997
:10146000CE0101960E94BF098091C0028C838091B9
:10147000C1028D838091C2028E8360E001E010E0A2
:101480006E01C00ED11E862F869586958695A82F53
:10149000BB27AD0140545D4F862F8770980102C075
:1014A000220F331F8A95E2F7C901FA013081232FF9
:1014B0002823FD01E953FD4FE081E823AC0DBD1D5C
:1014C000AC91A8238095222331F03823EA2B3E2BC0
:1014D000DA013C9305C03823EA233E2BFA0130831E
:1014E0006F5F683180F20E94D509682F8091C60233
:1014F000681749F08091BB02681729F46093C6020F
:1015000081E0809374026093BB020E94F20973EC45
:10151000E72E72E0F72E0CEB12E040EC52E067ECA5
:10152000A62E62E0B62EF60162E08081D5018D9391
:101530005D012381DA018D91AD01922F98278923D6
:10154000D8018D938D019223D7019D937D01615028
:10155000319667FFEACF0E94F409682F8091BF029D
:10156000681731F08091BA02681711F46093BF02D6
:101570006093BA020E94E50D26960FB6F894DEBF7E
:101580000FBECDBFDF91CF911F910F91FF90EF90D4
:10159000DF90CF90BF90AF900895282F883118F03A
:1015A00080E090E00895869586958695E82FFF2740
:1015B000E054FD4F80819927277002C0959587954B
:1015C0002A95E2F79C012170307080FF03C081E012
:1015D00090E00895C9010895282F883118F080E01F
:1015E00090E00895869586958695E82FFF27E45428
:1015F000FD4F80819927277002C0959587952A9580
:10160000E2F79C012170307080FF03C081E090E020
:101610000895C9010895282F883118F080E090E0DE
:101620000895869586958695E82FFF27ED53FD4F03
:1016300080819927277002C0959587952A95E2F7B2
:101640009C012170307080FF03C081E090E008951C
:10165000C90108958091C002882359F48091C10284
:10166000882339F48091C202882319F481E090E044
:10167000089580E090E00895FF920F931F93CF9319
:10168000DF93FF2400E010E0CBE0D1E088810E94EE
:10169000CD0A882311F0C80109C0F39421960F5F89
:1016A0001F4F8CE08F1594F78FEF9FEFDF91CF9155
:1016B0001F910F91FF900895CF93C0E0EC2FFF276B
:1016C000ED5FFE4F80810E94CD0AEC2FEF5F8823F3
:1016D00019F08E2F992705C0CE2FE83078F380E0DF
:1016E00090E0CF910895CF93C0E0EC2FFF27ED5FFE
:1016F000FE4F80810E94EC0AEC2FEF5F882319F0E7
:101700008E2F992705C0CE2FE83078F380E090E047
:10171000CF910895809174021092740299270895D0
:10172000282F883290F4869586958695E82FFF2796
:10173000E658FD4F277081E090E002C0880F991FA6
:101740002A95E2F72081282B20830895282F8832BC
:1017500090F4869586958695E82FFF27EB58FD4FE8
:10176000277081E090E002C0880F991F2A95E2F768
:101770002081282B20830895282F8832A0F4869575
:1017800086958695E82FFF27EB58FD4F277081E05F
:1017900090E002C0880F991F2A95E2F7982F909544
:1017A0008081892380830895282F883218F080E073
:1017B00090E00895869586958695E82FFF27EB584B
:1017C000FD4F277081E090E002C0880F991F2A9595
:1017D000E2F720812823822F99270895282F883225
:1017E000A0F4869586958695E82FFF27E658FD4F4D
:1017F000277081E090E002C0880F991F2A95E2F7D8
:10180000982F90958081892380830895282F86952D
:1018100086958695EAE7F2E0E80FF11D8081992729
:10182000277002C0959587952A95E2F78170907090
:10183000089510927E0210927D0210927C02109206
:101840007B0210927A021092790210927802109222
:101850007702109276021092750208950F931F93EB
:10186000CF9305E411E0CFE0F80181918F010E9450
:10187000EE0BC150C7FFF8CFCF911F910F91089584
:10188000803138F4E82FFF27EB5BFE4F80810E9408
:10189000900B0895803138F4E82FFF27EB5BFE4F63
:1018A00080810E94A60B0895803118F020E030E07E
:1018B00009C0E82FFF27EB5BFE4F80810E94060CDA
:1018C000282F3327C9010895803118F080E090E077
:1018D0000895E82FFF27EB5BFE4F80810E94D40B19
:1018E00099270895883138F4E82FFF27E35DFE4FEC
:1018F00080810E94900B0895883138F4E82FFF27EB
:10190000E35DFE4F80810E94A60B0895883138F474
:10191000E82FFF27E35DFE4F80810E94EE0B0895C4
:101920000F931F93CF930DE211E0C7E1F80181916E
:101930008F010E94EE0BC150C7FFF8CFCF911F91CE
:101940000F910895E82F8150883030F4FF27EC5D27
:10195000FE4F80810E94900B08950F931F93CF93A9
:10196000DF93082F11E0C5E2D1E0101721F4888140
:101970000E94900B03C088810E94EE0B1F5F21968E
:10198000193098F3DF91CF911F910F910895E82FAF
:101990008150883030F4FF27EC5DFE4F80810E943B
:1019A000EE0B0895E82F8150883030F4FF27EC5D6E
:1019B000FE4F80810E94A60B0895E82F8150883049
:1019C00040F4FF27EC5DFE4F80810E94D40B9927E5
:1019D000089580E090E00895E82F8150883048F421
:1019E000FF27EC5DFE4F80810E94060C282F3327D5
:1019F00002C020E030E0C90108950F931F93CF93F8
:101A000005E211E0C7E0F80181918F010E94EE0B21
:101A1000C150C7FFF8CFCF911F910F9108958D301E
:101A200038F4E82FFF27E85EFE4F80810E94900B7C
:101A300008958D3038F4E82FFF27E85EFE4F80814F
:101A40000E94EE0B08958D3038F4E82FFF27E85EF2
:101A5000FE4F80810E94A60B0895E8E1F1E0E80FB7
:101A6000F11D80810E94D40B992708950F931F9335
:101A7000CF9308E111E0CCE0F80181918F010E9441
:101A8000EE0BC150C7FFF8CFCF911F910F91089572
:101A90000E94360D84E00E94EE0B83E00E94EE0B64
:101AA00088E00E94EE0B81E00E94EE0B82E00E9433
:101AB000EE0B0895CF93C82F84E00E94EE0BC23046
:101AC00021F483E00E94A60B0FC083E00E94EE0B7E
:101AD00083E00E94BC0BC13011F483E003C0CF3F10
:101AE00019F484E00E94900BCF910895CF92DF9279
:101AF000EF92FF920F931F93CF93DF93182F87FFDF
:101B000004C086E10E94720C03C086E10E94860C2C
:101B1000812F829586958695837080FF04C085E12C
:101B20000E94720C03C085E10E94860C1F7311F4A1
:101B3000012F15C0173110F40FEF11C0143218F433
:101B40001C5000E00CC0103318F4185101E007C01D
:101B50001C3318F4145202E002C003E01053802F2B
:101B60000E945A0D112331F40E94360D84E10E9427
:101B7000720C22C084E10E94860C98E1C92E91E08B
:101B8000D92E8BE0E82EF12C0CE0C12FDD27EC16CE
:101B9000FD0621F0F60180810E94EE0B01500894B1
:101BA000E11CF11C0894C11CD11C07FFEECFC35FE0
:101BB000DE4F88810E94900BDF91CF911F910F9192
:101BC000FF90EF90DF90CF900895F894DF98EAE7C8
:101BD000F2E080818FB9779BFECF319682E0EE37BD
:101BE000F807B9F3B4F3DF9A78940895A5E7B2E063
:101BF000EAE7F2E024E080819D91892B81932150D6
:101C000027FFF9CF0895A5E7B2E0EAE7F2E024E084
:101C10009D919095808189238193215027FFF8CF52
:101C20000895A5E7B2E0EAE7F2E034E020819C9174
:101C3000822F892319F09095292320831D923150FA
:101C4000319637FFF3CF0895AC0120E0322F6115B4
:101C5000710581F0FA01E30FF11D80812827E22F41
:101C6000FF27EB5AFE4F20813F5F832F992786176E
:101C7000970780F3822F99270895EF92FF920F9391
:101C80001F93CF93DF937B01C0E0D0E0C617D70747
:101C900050F48C01F80181918F010E945806219621
:101CA000CE15DF05B8F3DF91CF911F910F91FF9013
:101CB000EF9008950F931F939C010AEC12E082E4C9
:101CC0008093CA021092CB0282E08093CC02832FD1
:101CD00099278093CD022093CE0265E070E0C80181
:101CE0000E94240E8093CF0266E070E0C8010E943B
:101CF0003D0E1F910F9108950F931F930AEC12E070
:101D000090E89093CA021092CB0291E09093CC029B
:101D10008093CD0264E070E0C8010E94240E80939D
:101D2000CE0265E070E0C8010E943D0E1F910F9148
:101D300008951F920F920FB60F921124EF92FF9207
:101D40001F932F933F934F935F936F937F938F9343
:101D50009F93AF93BF93CF93DF93EF93FF93C3B161
:101D600080915502882309F4F1C080917F029091FF
:101D70008002895E934030F00E942E0C0E94E50D97
:101D80001092820280918202803448F4E82FFF276B
:101D9000E65FFC4FC0838F5F8093820204C00E9485
:101DA0007C0E109282021092800210927F0220918B
:101DB0008202233008F4CAC0F0900A0380910B031A
:101DC000682F7727762F662780910C039927682B39
:101DD000792B3327CB0104962817390708F4B6C0AE
:101DE000FB01E65FFC4F1381EB012396BE018AE005
:101DF00093E00E94240E181771F0BE018AE093E070
:101E00000E94240E99270E94BF061092820280E051
:101E10000E947C0E9BC08F2D99278131910551F135
:101E20008231910544F48130910509F488C04097CE
:101E300009F460C086C08034910521F08134910599
:101E400041F07FC080919002909191020E945A0EC1
:101E50007BC080910C03823009F073C080910D0328
:101E60009927982F882720910E03820F911D0E9499
:101E700060056AC080910C03823009F062C08091D5
:101E80000D0390910E03C82FDD2763E0CC0FDD1FFB
:101E90006A95E1F7C90FD11D89E18093CA021092BA
:101EA000CB0280E18093CC020F2EFDECEF2EF2E00E
:101EB000FF2EF02DC295D295D07FDC27C07FDC2786
:101EC0001FE0CE010E94FE10F70181937F011150A7
:101ED000219617FFF6CF63E170E08AEC92E00E9452
:101EE000240E8093DD0264E170E08AEC92E00E94AF
:101EF0003D0E2AC080910C03823119F580910D03AB
:101F000090910E03C82FDD2733E0CC0FDD1F3A95EB
:101F1000E1F7C90FD11D2FE0E22E23E0F22E94E06D
:101F2000CC0FDD1F9A95E1F71FE0BE01F70181910B
:101F30007F010E94BF101150219617FFF6CF81E05C
:101F400001C080E00E947C0E10928202FF91EF910E
:101F5000DF91CF91BF91AF919F918F917F916F91C1
:101F60005F914F913F912F911F91FF90EF900F90B4
:101F70000FBE0F901F9018950E94FA098091BF0222
:101F80008E30D1F30E94190C0E94E50D089590E067
:101F90003A98803408F08FE3611160E4442311F42F
:101FA00040E801C0492F882349F0862B842B85BB4C
:101FB0003A9A9F5F9832E8F3399A0895642B65BB8B
:101FC0000895882311F0AE9A01C039983A9808957F
:101FD0007F928F929F92AF92BF92CF92DF92EF92B9
:101FE000FF920F931F93CF93CC24DD247724072DEA
:101FF0000E943D050E942E0C0E94FA090E948A0B45
:10200000560146010E94FA098091BF02843019F0FE
:102010000E948A08A7C0809198020E94540C8823CD
:1020200031F40E942E0C809198020E94400C0E9474
:102030008A0B882349F08091C60280939802682F0A
:1020400084E090E00E9456058C2D0E945A0DC0E05D
:1020500066E5E62E62E0F62EF70180810E94EC0A2A
:102060008823B9F01C2F180D195E402F672D812F82
:102070000E94C70F802F992756E0880F991F5A9505
:10208000E1F7812B0E94140941E0742E8C2F0E94ED
:102090000F0DF70180810E940B0B882381F02C2FFC
:1020A0002A0D295E802F992736E0880F991F3A95CF
:1020B000E1F7822B0E9438098C2F0E94190DCF5F07
:1020C0000894E11CF11CCD3038F28FE00E94EC0A3C
:1020D000882371F0F2E0CF16D104F4F40894C11C07
:1020E000D11C8CE090E0880E991EA80EB91E14C079
:1020F0008EE00E94EC0A882379F09FEFC9169FEFCB
:10210000D90651F04CF00894C108D108E4EFFFEF74
:102110008E0E9F1EAE0EBF1E85E10E94EC0A882324
:1021200071F080E0002309F481E0082F882321F07A
:1021300081E00E94900B03C081E00E94EE0B83B30C
:1021400099278F739070892B09F45CCF0E942A0B1A
:10215000882309F457CF80E00E94E10F77240E9482
:10216000360D50CFCF911F910F91FF90EF90DF90E0
:10217000CF90BF90AF909F908F907F900895282F21
:10218000F894C098000000000000000085E08FB9BE
:10219000779BFECF00000000000000001FB8779B77
:1021A000FECF8FB1C09A000000000000000080FD4B
:1021B000E8CFC0980000000086E08FB9779BFECF83
:1021C00000000000C09A0000000000000000C0985D
:1021D0000000000082E08FB9779BFECF872F992700
:1021E0008FB9779BFECF6FB9779BFECF2FB9779BC7
:1021F000FECF00000000C09A789408959C01F894E6
:10220000C0980000000083E08FB9779BFECF832F3A
:1022100099278FB9779BFECF2FB9779BFECF000010
:1022200000001FB8779BFECF8FB1C09A7894992792
:10223000089510926E031092750310926A0380E065
:102240000E94E10F0E94190C0E94110E0E948A0B3D
:10225000089510926F0384E20E94EE0B0E94190C05
:102260000E94110E1092750380E00E94E10F089504
:1022700081E080936F0384E20E94900B0E942E0CF9
:102280000895892F9927282F2F71822F992787FD4D
:10229000909580719070892B09F0206E822F99277C
:1022A00087FD9095089520916C03277080916C03B1
:1022B00090916D03F3E096958795FA95E1F7622F7B
:1022C0008F700E94771560916C0370916D039B0174
:1022D00044275527DA01C90180709078A070B0704A
:1022E000892F9A2FAB2FBB2780938A02DA01C9016D
:1022F00080709074A070B070892F9A2FAB2FBB277D
:1023000080938C022070307240705070BB27A52FD4
:10231000942F832F80938B0210927203CB010E9423
:1023200041119927089581E080936E0381E20E9414
:10233000900B10928C0280918C0280938B02809182
:102340008B0280938A0210926A0310927503809127
:102350004A0390914B0390936D0380936C038F5FBE
:102360009F4F89F0109271031092720310928F02A6
:102370000E945311809384028091660280FDFCCFFD
:1023800081E080936A030E942E0C0895809184025C
:10239000882321F483E00E94EE0B0CC087FF07C066
:1023A00083E00E94EE0B84E00E94900B089583E08E
:1023B0000E94900B84E00E94EE0B0895FF920F9311
:1023C0001F93CF93DF93C82FDD2703E0CC0FDD1FD2
:1023D0000A95E1F7C60FD11D15E0CC0FDD1F1A9548
:1023E000E1F7BFE0FB2EC050D84F0AE413E0CE0166
:1023F0000E94FE109927982F8827F80191838083E7
:10240000CE0101960E94FE10282F3327F80180810B
:102410009181822B932B9183808332968F01FA9442
:102420002296F7FEE4CFDF91CF911F910F91FF909D
:102430000895FF920F931F93CF93DF93C82FDD274B
:1024400053E0CC0FDD1F5A95E1F7C60FD11D45E0D3
:10245000CC0FDD1F4A95E1F73FE0F32E0AE413E0CD
:10246000C050D84FF80180819181892F9927BE01F2
:102470000E94BF102196F801819191918F01BE01B8
:102480000E94BF10FA942196F7FEECCFDF91CF9116
:102490001F910F91FF9008951F93CF93DF930E9498
:1024A00037058091C602877080936B03109270038A
:1024B00010926F0310926E0310926A0310927503CC
:1024C000109271038FEF9FEF90936D0380936C03D5
:1024D000109267020E942E0C0E94110E0E94FA09AF
:1024E0008091BF02813071F00E943D05109275030A
:1024F00010926A0380E00E94E10F0E94190C0E9472
:10250000E50DE2C280916F03882361F580916E032F
:10251000882341F50E948A0B882359F08091C602D6
:10252000877080936B03609170030E94DE110E949C
:102530002E0C80916B030E94400C0E945C0BC82FF4
:10254000882359F00E94360D8C2F815080937003A0
:10255000682F80916B030E94DE11809170038F5F62
:102560000E94A20C81E00E94EC0A882379F08091FD
:102570006E03882319F00E94191108C080916F031F
:10258000882311F00E9429110E94931180916E03FB
:10259000882329F480916F03882309F451C0809126
:1025A00071030E94640C882311F40E94110E809123
:1025B00071030E944A0C80916C0390916D038F5FB0
:1025C0009F4F21F40E94480D80E034C080E00E94BB
:1025D000EE0B80916C0390916D0323E096958795A7
:1025E0002A95E1F78F700E94400C80916C039091C6
:1025F0006D0397FF04C088E00E94900B03C088E041
:102600000E94EE0B80916C0390916D03AA27BB276B
:1026100096FF04C081E00E94900B03C081E00E94FD
:10262000EE0B80916C0390916D03AA27BB2795FF59
:1026300004C082E00E94900B03C082E00E94EE0B77
:1026400088E00E94EC0A882331F483E00E94EC0ABF
:10265000882309F478C010916E03112309F073C028
:10266000812F0E94E10FC0916F03CC2309F442C077
:1026700088E00E94EC0A8823D1F0809171039927A9
:10268000019640976CF480917103E82FFF27EE0FBD
:10269000FF1FE65BFC4F808191818F5F9F4F19F494
:1026A0001093710330C0809171038F5F20C08091BF
:1026B00071038823C9F4809171039927019640978B
:1026C00014F580917103E82FFF27EE0FFF1FE65BE3
:1026D000FC4F808191818F5F9F4FA9F080917103A2
:1026E0008F5F80937103E7CF809171038150809356
:1026F000710309C088E00E94EC0A882321F00E943F
:102700003811C093710380917103E82FFF27EE0FFA
:10271000FF1FE65BFC4F8081918190936D03809356
:102720006C03109275038F5F9F4F69F00E945311E5
:1027300080938402109272038091660280FDFCCF28
:1027400081E08093750387E10E94EC0A882339F1C8
:1027500080916F038823E9F0809171039927019696
:10276000409764F480917103E82FFF27EE0FFF1F5D
:10277000E65BFC4F8FEF9FEF938382838FEF9FEF9A
:1027800090936D0380936C030E94291180E00E9456
:10279000EE0B6091700380916B030E94191280917F
:1027A0006F03882309F47FC180916C0390916D03BE
:1027B0008F5F9F4F09F40FC184E10E94EC0A8823C8
:1027C00011F180917103E82FFF27EE0FFF1FE65BE9
:1027D000FC4F8081918120E030E88227932791830C
:1027E00080838081918190936D0380936C03AA27ED
:1027F000BB2780709078A070B070892F9A2FAB2F74
:10280000BB2780938A0285E10E94EC0A882311F19C
:1028100080917103E82FFF27EE0FFF1FE65BFC4F4F
:102820008081918120E030E4822793279183808307
:102830008081918190936D0380936C03AA27BB27BD
:1028400080709074A070B070892F9A2FAB2FBB2727
:1028500080938C0286E10E94EC0A882311F180911A
:102860007103E82FFF27EE0FFF1FE65BFC4F80810F
:10287000918120E030E282279327918380838081B9
:10288000918190936D0380936C03AA27BB2780707E
:102890009072A070B070892F9A2FAB2FBB278093B6
:1028A0008B028FE00E94CD0A882331F48EE00E94D3
:1028B000CD0A882309F47DC00E943C0BC82FDD2778
:1028C000C7FDD0958FE00E94EC0A882329F48EE0A2
:1028D0000E94EC0A882351F00E94110E0E94360DCE
:1028E00083E00E94EE0B84E00E94EE0B8FE00E94DA
:1028F000CD0A882349F183E00E94900B8FEFCF3FF0
:10290000D807C9F00E94110E20916C0330916D031D
:10291000307E9C2F8827282B392B30936D032093F2
:102920006C0380917103E82FFF27EE0FFF1FE65B1A
:10293000FC4F3183208380916C0390916D030E9442
:1029400041118093840232C08EE00E94CD0A882318
:1029500009F441C084E00E94900B2FEFCF3FD207D3
:10296000E1F00E94110E20916C0330916D03307ED6
:102970002C97CF71D0709C2F8827282B392B309320
:102980006D0320936C0380917103E82FFF27EE0FF6
:10299000FF1FE65BFC4F3183208380916C03909195
:1029A0006D030E94411180938402845F0E94230D75
:1029B00012C08FE00E940B0B882329F48EE00E9446
:1029C0000B0B882341F083E00E94EE0B84E00E9411
:1029D000EE0B0E94110E8FE00E94CD0A882309F0B1
:1029E00062C08EE00E94CD0A882309F05CC00E947C
:1029F000730BC82F882329F40E948A0B882309F4BB
:102A000047C00E94FD0C0E942E0CCC2359F48091EB
:102A10006C0390916D038F5F9F4F29F0C0916C0301
:102A2000C77001C0C1501092750380E00E94E10F91
:102A30004091C602242F332763E0220F331F6A958B
:102A4000E1F78C2F9927282B392B30936D03209396
:102A50006C0380917103E82FFF27EE0FFF1FE65BE9
:102A6000FC4F318320836C2F842F0E9477151092A6
:102A7000720310928B0280918B0280938C02809162
:102A80008C0280938A021092840281E08093750305
:102A90000E94C61180916C0390916D0387709070B5
:102AA00001960E94AD0C80916E03882309F416CD27
:102AB0000E94C61180916C0390916D038770907095
:102AC00001960E94AD0C0ACDDF91CF911F91089520
:102AD00081E080936F0384E20E94900B0E942E0C91
:102AE00080E00E94400C80E00E94E10F0895EF9288
:102AF000FF920F931F93CF93DF93182F062F0E94FF
:102B0000E50DC12FDD2723E0CC0FDD1F2A95E1F76E
:102B1000C00FD11D94E0CC0FDD1F9A95E1F787E738
:102B2000E82E83E0F82E1FE0CE010E94FE10F70190
:102B300081937F011150219617FFF6CF10928502E5
:102B400080E00E94BC0B0E94E50DDF91CF911F91A8
:102B50000F91FF90EF900895EF92FF920F931F93C4
:102B6000CF93DF93182F062F0E94E50DC12FDD278D
:102B700053E0CC0FDD1F5A95E1F7C00FD11D47E799
:102B8000E42E43E0F42E34E0CC0FDD1F3A95E1F75C
:102B90001FE0BE01F70181917F010E94BF1011501B
:102BA000219617FFF6CF0E94E50DDF91CF911F917F
:102BB0000F91FF90EF9008951092720381E080933F
:102BC000730381E20E94900B80E00E94E10F8091EC
:102BD0006702882321F48091660280FDFCCF81E0AA
:102BE000809375038093C8038AEF0E948408089538
:102BF00010926F0384E20E94EE0B1092850280E037
:102C00000E94EE0B0E94110E0E94900C0E942E0C4E
:102C10008091C6020E94400C80E00E94E10F08955E
:102C2000109275030E94900C0E942E0C0E94110EAF
:102C30008091C6020E94400C1092730381E20E94B0
:102C4000EE0B80E00E94E10F1092C8038CEF0E940F
:102C500084080895CF92DF92EF92FF920F931F9313
:102C6000CF93DF93C090BF021092740310926F0352
:102C700010927303109275031092720310928F02D8
:102C800080916702882399F40E94370514C00E943E
:102C90003D051092750380E00E94E10F0E948009BB
:102CA0000E9452090E94190C0E94E50DEFC20E9479
:102CB0003D050E94AE090E94FA098091C6028093E8
:102CC0007603609174030E9477150E94190C80911D
:102CD000C6020E94400C0E94FA098091BF028C1526
:102CE000B1F6909176038091C6029817D1F0809149
:102CF0007303882311F00E94101680916F038823BC
:102D000011F00E94F8158091C602809376036091BD
:102D100074030E9477150E942E0C8091C6020E94B7
:102D2000400C809173038823E1F480916F03882322
:102D3000C1F4809174038F5F0E94A20C0E945C0B0F
:102D4000C82F882371F00E94360D8C2F0E94A20C90
:102D50008C2F815080937403682F809176030E949A
:102D6000771580E00E94EC0A8823B1F0809173030C
:102D7000882391F082E20E94900B07E713E0CFE0F6
:102D80000E945500F80181938F01C150C7FFF8CF11
:102D900081E0809385020CC080E00E940B0B8823A9
:102DA00039F080917303882319F082E20E94EE0BC0
:102DB0008091C8038823B9F080916702823099F42A
:102DC00080916802909169021816190664F4809146
:102DD0006802909169020397909369028093680258
:102DE0000E94740078CF80916702823041F40E9483
:102DF0003F08D82E882319F099270E94BF0680919A
:102E00007303882399F080916702882329F481E075
:102E10000E94EC0A882339F480916702823031F4F1
:102E2000FCEFDF1619F40E94101619C0809167029A
:102E3000882329F481E00E94EC0A882341F48091E0
:102E40006702823061F48D2D8A5F823040F4809178
:102E50006F03882311F00E94F8150E94DC15809101
:102E60007303882329F480916F03882309F439C1FF
:102E700000917203E02EFF24E701C958DC4F18814E
:102E80001F7385E10E94EC0A882349F01F3339F053
:102E9000888190E48927888381E08093850286E198
:102EA0000E94EC0A882361F01F3351F0F701E958C2
:102EB000FC4F808190E88927808381E080938502A0
:102EC0001F3341F0112331F0173110F4CFEF0DC053
:102ED000143210F4C0E009C0103310F4C1E005C092
:102EE0001C3310F4C2E001C0C3E084E10E94EC0A8C
:102EF000811110E08FE00E94EC0A882339F01F3323
:102F000029F0112319F0C2300CF4145F8EE00E94F6
:102F1000EC0A882341F01F3331F0112321F0CF3F19
:102F200011F00CF01C5084E00E94EC0A882331F070
:102F30008CE0C802C0011124182F195E89E00E949C
:102F4000EC0A882331F08CE0C802C0011124182F4C
:102F5000185E85E00E94EC0A882331F08CE0C802FC
:102F6000C0011124182F175E8AE00E94EC0A882302
:102F700031F08CE0C802C0011124182F165EC33056
:102F80000CF063C086E00E94EC0A882331F08CE0EC
:102F9000C802C0011124182F155E87E00E94EC0AB8
:102FA000882331F08CE0C802C0011124182F145E70
:102FB0008BE00E94EC0A882331F08CE0C802C0014B
:102FC0001124182F135E81E10E94EC0A882331F04E
:102FD0008CE0C802C0011124182F125E8CE00E9400
:102FE000EC0A882331F08CE0C802C0011124182FAC
:102FF000115E82E10E94EC0A882331F08CE0C80265
:10300000C0011124182F105E8DE00E94EC0A882365
:1030100031F08CE0C802C0011124182F1F5D80E13F
:103020000E94EC0A882331F08CE0C802C001112410
:10303000182F1E5D83E10E94EC0A882331F08CE09A
:10304000C802C0011124182F1D5D202F3327F9015C
:10305000E958FC4F80818F3F11F41F3319F48081B0
:10306000807C182BE901C958DC4F88811817F1F0D2
:1030700080916F03882331F080E00E94E10F81E0AE
:103080000E949E07188381E08093850280916F03E0
:10309000882361F0812F8295869586958370817053
:1030A000482F60E0812F8F730E94C70F1F3F71F080
:1030B000812F0E94760D80918502882321F080E087
:1030C0000E94A60B0EC00E94EE0B0BC00E94480D82
:1030D00080E00E94BC0B83E00E94BC0B80E00E9459
:1030E000900B88E00E94EC0A882331F483E00E9470
:1030F000EC0A882309F4A4C060918F0280916F03C9
:10310000882309F475C0C62FCC1FCC27CC1F8C2F69
:103110000E94E10F81E00E949E0788E00E94EC0A75
:103120008823B1F0809172039927019640974CF45F
:1031300080917203E82FFF27E958FC4F80818F3F71
:1031400019F41092720320C0809172038F5F1AC02D
:1031500080917203882399F4809172038F30A0F4D8
:1031600080917203E82FFF27E958FC4F80818F3F41
:1031700059F0809172038F5F80937203EDCF80913D
:1031800072038150809372030E942E0C809172030F
:103190000E94400C80917203E82FFF27E958FC4FF2
:1031A000808180938F028F3F69F481E00E94EE0B53
:1031B00082E00E94EE0B80E00E94900B80E00E9473
:1031C000BC0B3EC080E00E94EE0B809185028823FC
:1031D00019F080E00E94A60B90918F02892F8295B2
:1031E0008695869583708170482F6C2F892F21C01A
:1031F00088E00E94EC0A882319F1C0917303CC2364
:10320000F9F40E946815C093720380917203E82F4D
:10321000FF27E958FC4FE081E0938F02EF3F81F0F8
:103220008E2F82958695869583708170482F6C2F9E
:103230008E2F8F730E94C70F80918F020E94760D90
:1032400087E10E94EC0A882309F445CD80916F0341
:10325000882381F08091720399270196409744F466
:1032600080917203E82FFF27E958FC4F8FEF81838D
:103270000E94F815609174038091C6020E94AC15FB
:103280001092850280E00E94BC0B25CDDF91CF918A
:103290001F910F91FF90EF90DF90CF90089540E045
:1032A000DB01FC0190818C91981719F080E090E08F
:1032B000089580818F3F19F481E090E008954F5F79
:1032C00031961196403270F381E090E00895EF92CC
:1032D000FF920F931F93CF93FF24E090BF02809142
:1032E0006702882319F40E9437050BC00E943D0530
:1032F00080916702813019F40E94B50902C00E94D2
:10330000AE090E94190C0E94110E1092A703809121
:10331000A703809387038FEF8093A8038091A8036E
:103320008093880381E00E94A20C1092C80310923F
:1033300071031092720310926D0310926C0310923D
:10334000C70310928302109284020E942E0C809177
:10335000BF028F3021F08B3011F08730D1F4809193
:10336000C6021AC01092C8030E9480090E94520926
:10337000109283021092840210928B0210928A02A1
:1033800010928C020E94190C0E94110E0E94E50DF1
:10339000FEC28091C6028770809389028093880262
:1033A0008091C6020E94400C0E94FA098091BF02DF
:1033B0008E15C1F687E10E94EC0A882329F18091DD
:1033C00086029091870286509D40D0F480918602BB
:1033D000909187028E54914098F02091860230910E
:1033E000870280E69AEEB9010E94CD1C7093870295
:1033F0006093860280918602909187020E94600508
:10340000109287021092860280E00E94EC0A8823C4
:1034100049F00E94360D0E94110E82E20E94900B2C
:1034200010928D0280E00E940B0B882329F1A9ECF9
:10343000B3E0E7E8F3E0CFE18D918193C150C7FF9E
:10344000FBCF8091C8038823A1F4A7E8B3E0E7EAA3
:10345000F3E0CFE18D918193C150C7FFFBCF809105
:1034600083028093840283E00E94EE0B84E00E943A
:10347000EE0B82E20E94EE0B80E00E94CD0A8823D0
:1034800061F1C0E080918D02C81760F4EC2FFF2736
:10349000E753FC4F8081883028F48F5F0E94A20C94
:1034A000CF5FF0CF0E94730BC82F882309F44EC161
:1034B00080918D02803208F049C1E82FFF27E75341
:1034C000FC4FC150C0838F5F80938D02E82FFF2790
:1034D000E753FC4F8FEF808339C18FE00E94CD0A04
:1034E000882331F48EE00E94CD0A882309F46DC050
:1034F0000E943C0BC82F8FE00E94EC0A882329F41D
:103500008EE00E94EC0A882339F00E94360D0E945A
:10351000110E82E20E94EE0B8FE00E94CD0A8823FA
:1035200001F184E00E94EE0B83E00E94900BCF3FFC
:1035300011F0C09383028091840287FD0AC00E942B
:103540002D0D882331F40E94110E809184020E9477
:10355000230D9091830280918402981761F1892F45
:1035600028C08EE00E94CD0A882329F183E00E94C2
:10357000EE0B84E00E94900BCF3F19F0CC50C0932B
:10358000830280918402181664F0845F0E942D0DDE
:10359000882339F40E94110E80918402845F0E9476
:1035A000230D9091830280918402981721F0892F36
:1035B000845F0E940F0D8091C803882309F0C6C064
:1035C0008091830280938402C1C08FE00E940B0B24
:1035D000882329F48EE00E940B0B882321F00E949F
:1035E000360D0E94110E0E945C0BC82F882331F407
:1035F0000E948A0B882309F446C01FC00E94FD0C5C
:10360000C150C0938703809187038093C9038FEFD4
:1036100080938803809188038093CA038091C803B4
:10362000882319F5A7E8B3E0E7EAF3E0CFE18D914D
:103630008193C150C7FFFBCF18C08091BF028F306C
:1036400021F08B3011F0873019F48091C60203C04D
:103650008091C6028770809388028091C803882376
:1036600021F480918802809389028091C803882385
:1036700051F40E942E0C809188020E94400C80918F
:1036800083028093840267EA73E087E893E00E94F4
:103690004F198823F9F4809188038F3F49F4809172
:1036A000A8038F3F29F48091A7038F5F0E94D20C5B
:1036B000C0E007E813E0F8018081893008F044C0D9
:1036C000D8018D918D018F5F0E94A20CCF5FC03217
:1036D00090F33AC0C0E007EA13E0F8018081893036
:1036E00098F58091C8038823E1F08091C703E82F03
:1036F000FF27E955FC4FD8019C918081981789F4E8
:103700008C918F5F0E94DD0C8823C9F4F8018081C1
:103710008F5F0E94C70CD8018C918F5F0E94D20CE2
:103720000EC0F80180818F5F0E94DD0C882311F0AC
:103730000E94110ED8018C918F5F0E94A20CCF5F66
:103740000F5F1F4FC03248F20E94C6118091C8031C
:10375000882351F180916702823089F48091680258
:103760009091690218161906FCF4809168029091F4
:1037700069020397909369028093680212C08130B6
:1037800099F480917102909172021816190664F4EE
:1037900080917102909172020397909372028093CC
:1037A00071020E94740000CE80916702823019F489
:1037B0000E943F08F82E80916702882349F481E037
:1037C0000E94EC0A882321F08091C803882371F4B9
:1037D00080916702823021F4BCEFFB1639F02BC0D8
:1037E000813049F50E949A09882329F11092C80373
:1037F00080E00E94E10F0E945209809167028130AF
:1038000011F00E94800981E20E94EE0B0E94110ECD
:103810000E942E0C8091BF028F3021F08B3011F06E
:10382000873019F48091C60203C08091C602877068
:103830000E94400C68C080916702882349F481E0AF
:103840000E94EC0A882321F08091C803882389F024
:1038500080916702823029F48F2D8A5F823048F090
:1038600052C0813009F04FC00E948609882309F4B4
:103870004AC081E20E94900B8091BF028F3021F0FC
:103880008B3011F0873039F46091A7038091C60224
:103890000E94771511C08091C6026091A7038770BE
:1038A0000E94DE1180914A0390914B0390936D0327
:1038B00080936C030E94531110928F0280916702D3
:1038C000823019F4EBEFFE1631F01092C70310921C
:1038D00072031092710310926602109269021092A4
:1038E000680210927202109272021092710281E0CC
:1038F0008093C8038AEF0E94840880916702813018
:1039000011F00E945C0986E10E94EC0A882389F08C
:1039100090E080918B02882309F491E090938B02D0
:10392000992321F082E00E94900B03C082E00E9464
:10393000EE0B85E10E94EC0A882389F090E08091EB
:103940008C02882309F491E090938C02992321F052
:1039500081E00E94900B03C081E00E94EE0B84E1A5
:103960000E94EC0A882309F41FCD90E080918A021E
:10397000882309F491E090938A02992321F088E04A
:103980000E94900B11CD88E00E94EE0B0DCDCF91DF
:103990001F910F91FF90EF900895AA1BBB1B51E15F
:1039A00007C0AA1FBB1FA617B70710F0A61BB70BAF
:1039B000881F991F5A95A9F780959095BC01CD0154
:1039C0000895A1E21A2EAA1BBB1BFD010DC0AA1F60
:1039D000BB1FEE1FFF1FA217B307E407F50720F078
:1039E000A21BB30BE40BF50B661F771F881F991FF3
:1039F0001A9469F760957095809590959B01AC013C
:063A0000BD01CF01089595
:103A060064207F04050607111210130409050A062F
:103A1600070B110C120D1013201B191C1A180F0C72
:103A26000E0B0D0A0920191A180C0B0A092221255A
:103A36002320191A18241B1C0F0E0D04030A0C0B45
:103A4600090801020026271D1E1F10121113141546
:103A5600161705060700070E091C1B1215383F36F8
:103A66003124232A2D70777E796C6B6265484F4628
:103A76004154535A5DE0E7EEE9FCFBF2F5D8DFD698
:103A8600D1C4C3CACD90979E998C8B8285A8AFA6C8
:103A9600A1B4B3BABDC7C0C9CEDBDCD5D2FFF8F13D
:103AA600F6E3E4EDEAB7B0B9BEABACA5A28F888168
:103AB6008693949D9A2720292E3B3C35321F181158
:103AC6001603040D0A5750595E4B4C45426F686108
:103AD6006673747D7A898E878095929B9CB1B6BFFA
:103AE600B8ADAAA3A4F9FEF7F0E5E2EBECC1C6CFA8
:103AF600C8DDDAD3D4696E676075727B7C51565F18
:103B0600584D4A4344191E171005020B0C21262F47
:103B1600283D3A33344E49404752555C5B767178BE
:103B26007F6A6D64633E39303722252C2B060108E7
:103B36000F1A1D1413AEA9A0A7B2B5BCBB969198D7
:103B46009F8A8D8483DED9D0D7C2C5CCCBE6E1E887
:103B5600EFFAFDF4F3010409050A06070B110C122E
:043B66000D1013002B
:00000001FF
