:100000000C9438000C9453000C9453000C9453003F
:100010000C94E8040C9453000C9453000C9453007B
:100020000C9453000C9419040C9453000C9453003A
:100030000C9453000C9453000C9453000C945300F4
:100040000C944D040C9453000C9453000C94BF0773
:100050000C949C0E0C9453000C9453000C9453007D
:100060000C9453000C9453000C9453000C945300C4
:1000700011241FBECFEFD4E0DEBFCDBF12E0A0E061
:10008000B1E0ECE0FAE302C005900D92A436B107AE
:10009000D9F713E0A4E6B2E001C01D92AB3EB10770
:1000A000E1F70C9419070C94000090919602292F07
:1000B000221F2227221F892F82958695869583707D
:1000C0002827892F82958F702827892F86958695D6
:1000D00028272170892F9927880F991F282B209373
:1000E0009602822F99270895FF920F931F93F894F9
:1000F000809167028150823020F18091C10284306A
:1001000001F180917402863010F010927402809197
:10011000740280FF02C0949804C0949A88EF0E94F1
:10012000870880917402882339F0809174028F5F70
:1001300080937402789479C3809174028F5F809366
:10014000740280916602883010F0109266028091ED
:10015000660280FF12C28091C10299278830910502
:1001600061F18930910594F48330910509F48EC0D2
:10017000843091051CF4019741F13CC38530910511
:1001800009F449C1079709F4A5C034C38C3091051F
:1001900009F47CC08D30910544F48930910509F44F
:1001A0003AC10B9709F496C025C38D30910509F427
:1001B00032C10F9709F48EC01DC380E00E94E40F86
:1001C000809191020E943B0915C380917703882397
:1001D00021F480916C03882361F0909191029F3FFC
:1001E00041F0991F9927991F80918D02892B0E94B8
:1001F000E40F80916C03882309F4FCC2809174039E
:10020000803150F480917403E82FFF27E758FC4FAA
:1002100080818F3F09F0EEC21092740380917303C6
:100220008F5F8093730380917303803168F48091B2
:100230007303E82FFF27EE0FFF1FE45BFC4F808165
:1002400091818F5F9F4F11F410927303809173031C
:10025000E82FFF27EE0FFF1FE45BFC4F80819181A9
:1002600090936F0380936E0380916E0390916F0360
:100270008F5F9F4F21F48FEF80937903BBC20E9461
:100280005611809386020E94310CB4C2809177038C
:10029000882309F4AFC2809191028F3F29F0881F13
:1002A0008827881F0E94E40F809174038F5F8093DA
:1002B000740380917403803150F480917403E82FAB
:1002C000FF27E758FC4F80818F3F09F093C21092BF
:1002D000740390C28091CA03882309F48BC2809171
:1002E00091028F3F09F1881F8827881F9927209145
:1002F0008D023327822B932B892B21F081E00E94E2
:10030000E40F12C080E00E94E40F20919102822F3E
:1003100099278F739070892B21F080918602820F2C
:1003200001C0822F0E943B09409165024F3FC9F0F6
:10033000842F881F8827881F992720918D023327B3
:10034000822B932B892B69F0842F99278F739070C0
:10035000892B21F080918602840F01C0842F0E9496
:100360003B0980917403803150F480917403E82F2D
:10037000FF27E758FC4F80818F3F09F03BC2109266
:1003800074038091C9038F5F8093C9038091C9036F
:10039000803248F48091C903E82FFF27E755FC4FCE
:1003A00080818F3F11F41092C90369EA73E089E8F4
:1003B00093E00E945219882331F090918B02809132
:1003C0008A029817A1F0A9E8B3E0E9EAF3E09FE117
:1003D0008D918193915097FFFBCF1092C90310929A
:1003E0008602109285020E94390D0E94140E80919F
:1003F0008A0280938B02809185028093860280918D
:10040000C903E82FFF27E755FC4F608180918B02DD
:100410000E947A15EFC18091CA03882309F4EAC1CA
:10042000809191028F3F41F1881F8827881F99276B
:1004300020918D023327822B932B892B21F081E091
:100440000E94E40F19C080E00E94E40F2091910205
:10045000822F99278F739070892B59F01091860203
:10046000120F80916E0390916F030E944411810FCF
:1004700001C0822F0E943B0980917403803150F4A7
:1004800080917403E82FFF27E758FC4F80818F3F4E
:1004900009F0B0C110927403809173038F5F809351
:1004A000730380917303803170F480917303E82F9C
:1004B000FF27EE0FFF1FE45BFC4F808191818F5F70
:1004C0009F4F09F049C0109273038091C9038F5F59
:1004D0008093C9038091C903803248F48091C90395
:1004E000E82FFF27E755FC4F80818F3F51F5109291
:1004F000C90369EA73E089E893E00E9452198823EE
:1005000031F090918B0280918A02981791F0A9E8BE
:10051000B3E0E9EAF3E09FE18D918193915097FF79
:10052000FBCF10928602109285020E94390D0E9424
:10053000140E80918A0280938B02809185028093B1
:1005400086028091C903E82FFF27E755FC4F6081A1
:1005500080918B020E94E11180917303E82FFF27A5
:10056000EE0FFF1FE45BFC4F8081918190936F033E
:1005700080936E030E9456113DC18091C10299275C
:100580008830910561F18930910594F483309105AB
:1005900009F492C0843091051CF4019791F12AC1AD
:1005A0008530910509F4C3C0079709F4B6C022C18C
:1005B0008C30910509F480C08D30910544F4893068
:1005C000910509F4B4C00B9709F4A7C013C18D308D
:1005D000910509F4ACC00F9709F49FC00BC180913D
:1005E00091028093650280919002809391020E9413
:1005F0005500809390028091910240E0642F8F73A8
:10060000F3C080917703882329F480916C038823B9
:1006100009F4F0C080917703882379F08091740306
:10062000803148F480917403E82FFF27E758FC4F8E
:1006300080818F3F11F41092740360919102609356
:10064000650280917403E82FFF27E758FC4F8F5F06
:1006500080937403E081E0939102EF3F09F4CAC0F4
:1006600080918C02882319F0E07CE0939102209124
:100670009102822F99278F739070422F4295469551
:1006800046954370661F6627661F2F73892B59F0A6
:10069000417080918E02482B80918D02682B809151
:1006A0008602820F37C0417080918E02482B809164
:1006B0008D02682B822F2EC080917703882309F446
:1006C00099C00E94310C809174030E94430C809168
:1006D00091028093650280917403E82FFF27E75809
:1006E000FC4F8081809391028F3F09F483C00E9468
:1006F000790D20919102922F9295969596959370EF
:10070000917080916502881F8827881F492F682F64
:10071000822F8F730E94CA0F6DC08091CA038823F5
:1007200031F00E94310C809174030E94430C80913F
:10073000CA03882309F45EC0009191020093650208
:1007400080917403E82FFF27E758FC4F8F5F809359
:100750007403E081E0939102EF3F09F44BC0809174
:100760008C02882319F0E07CE093910220919102A1
:10077000822F99278F739070422F42954695469508
:100780004370602F661F6627661F2F73892B21F128
:1007900051E0F52EF42280918E02F82A00918D020C
:1007A000062B10918602120F80916E0390916F03B9
:1007B0000E9444114F2D602F810F0E94CA0F10918B
:1007C000910280918602180F80916E0390916F03C1
:1007D0000E944411810F0CC0417080918E02482B01
:1007E00080918D02682B822F0E94CA0F8091910206
:1007F0000E94170980916602843030F485E20E94DD
:10080000930B0E94060E09C080916602883028F47E
:1008100085E20E94F10B0E94F90D0E94E80D809183
:1008200066028F5F8093660278941F910F91FF900C
:1008300008951F920F920FB60F9211242F933F939A
:100840004F935F936F937F938F939F93AF93BF93D8
:10085000EF93FF9380919702909198029093890073
:10086000809388000E947400FF91EF91BF91AF9137
:100870009F918F917F916F915F914F913F912F91B8
:100880000F900FBE0F901F90189580917D00869558
:10089000869599278170907008951F920F920FB6D8
:1008A0000F9211242F933F934F935F936F937F93F6
:1008B0008F939F93AF93BF93CF93EF93FF938091C9
:1008C00075028F3F29F0809175028F5F80937502CA
:1008D00080918802909189028F5F9F4F49F08091AB
:1008E00088029091890201969093890280938802F0
:1008F00080918102909182028F5F9F4F49F0809199
:1009000081029091820201969093820280938102EB
:10091000809167028230B9F48091700290917102E7
:10092000892B59F1809170029091710201979093F7
:100930007102809370028091700290917102892BF4
:10094000E1F494981AC08130C1F4C0B3C295CF705D
:10095000C17080916D02882371F4CC2361F0809185
:1009600072029091730201969093730280937202C7
:1009700088EF0E948708C0936D020E944504982F5B
:100980008823A1F480916402883C29F49093640246
:100990000E94060E06C080916402843611F40E9403
:1009A000F90D809164028F5F80936402FF91EF9153
:1009B000CF91BF91AF919F918F917F916F915F91F7
:1009C0004F913F912F910F900FBE0F901F90189550
:1009D0001F920F920FB60F9211242F933F938F9374
:1009E0009F9329B3237080919902281791F1833046
:1009F00041F4223099F480919402909195020197EC
:100A000009C0823059F4233049F4809194029091C6
:100A1000950201969093950280939402809194029E
:100A2000909195028D52914030F08CE291E090933C
:100A3000950280939402809194029091950244973C
:100A400030F484E190E09093950280939402209397
:100A500099029F918F913F912F910F900FBE0F9010
:100A60001F90189589B7816089BF8BE083BF8AEF9B
:100A700081BF089580917D00846080937D000895FA
:100A800085E20E94F10B80917D008B7F80937D0039
:100A9000089589B7816089BF8BE087BD82E382BDFD
:100AA0000895E199FECF9FBB8EBBE09A8DB3992745
:100AB0000895E199FECF9FBB8EBB6DBBF894E29A7F
:100AC000E19A789408950F931F93CF93DF938C014D
:100AD00081E00D32180710F00CE211E0043111052D
:100AE00010F404E110E0109393020093920210932B
:100AF000950200939402812F9927682F85E090E05A
:100B00000E9459056091920286E090E00E9459058A
:100B100080919202909193020E945D0EC0E0D0E716
:100B2000E8E3F9E3980144275527BE01CF010E946D
:100B3000E41CFA01E90193E0F695E795D795C7958E
:100B40009A95D1F7BE01CF0126E030E040E050E0B9
:100B50000E94E41CFA01E901CA01AA27BB279C01F3
:100B6000009731F4D0939802C093970281E061C05E
:100B7000887F892B69F403E0F695E795D795C795AB
:100B80000A95D1F7D0939802C093970282E051C0A2
:100B9000C901807F892B69F414E0F695E795D79514
:100BA000C7951A95D1F7D0939802C093970286E023
:100BB00040C0C901807E892B69F4B5E0F695E795C0
:100BC000D795C795BA95D1F7D0939802C09397025D
:100BD00087E02FC0C901807C892B69F4A6E0F695D7
:100BE000E795D795C795AA95D1F7D0939802C0936A
:100BF000970283E01EC0C9018070892B51F48D2FAC
:100C00009E2FAF2FBB27909398028093970284E08A
:100C100010C020703C7F232B79F46AE0F695E795AD
:100C2000D795C7956A95D1F7D0939802C09397024C
:100C300085E080938A0002C010928A00809197021A
:100C400090919802909581959F4F909398028093F0
:100C500097029093890080938800DF91CF911F9134
:100C60000F9108950F931F9380916B008160809383
:100C70006B0080916B00826080936B008BB7886003
:100C80008BBF85E090E00E9451059927182F00271F
:100C900086E090E00E9451059927802B912B0E94BD
:100CA00063051092660280917D00846080937D00D0
:100CB0001F910F910895159BFECF83B980E090E0BE
:100CC0000895CF93DF93EC018881882331F08991D7
:100CD0000E945B0688818823D1F7DF91CF91089528
:100CE0000F931F93CF93DF93EC0100E117E2CE0146
:100CF000B8010E94D01C6115710581F0862F805DBE
:100D00000E945B06CE01B8010E94D01CEC01C80114
:100D10006AE070E00E94D01C8B010EC0CE01B801C9
:100D20000E94D01CEC01C8016AE070E00E94D01C57
:100D30008B016A307105D8F601151105A9F0CE01B5
:100D4000B8010E94D01CCB01805D0E945B06CE01E1
:100D5000B8010E94D01CEC01C8016AE070E00E945A
:100D6000D01C8B01672B59F7DF91CF911F910F9109
:100D700008958F708A3010F4805D01C0895C0E94F4
:100D80005B060895CF93DF93EC01892F9927829515
:100D90008F70009711F00E94B9068D2F9927009748
:100DA00011F00E94B906CE0144E0969587954A95C8
:100DB000E1F7009711F00E94B9068C2F0E94B90646
:100DC000DF91CF91089582B1992787FD909588276B
:100DD000990F881F99270895179BFECF83B19927F4
:100DE000089523E330E081B1886181B920B91CBE48
:100DF00005C00E94EC068AE00E94A1070E94E3065B
:100E0000AC01892BB1F70F9A2FE130E08AB18869E4
:100E10008AB929B940BD80EC8ABB8CE38BBB8BEBD4
:100E200087BB18BA8FEF84BB81BB86B981E58DB9CA
:100E30000895CFEFD4E0DEBFCDBF0E94F1060E943F
:100E400032060E94320580919202809396020E949F
:100E5000B1090E94110878940E94FD098091C10295
:100E600099278830910509F452C089309105CCF456
:100E70008330910579F18430910554F481309105E6
:100E800061F1823091050CF057C0892BB1F1E4CFAC
:100E90008530910551F185309105A4F1079729F12D
:100EA000DBCF8C30910509F441C08D30910524F4DD
:100EB0000A9709F441C01BC08E30910531F08E3085
:100EC000910584F00F9771F0C7CF109267020E94CE
:100ED000BF0FC2CF109267022CC0109267020E940F
:100EE0004F12BACF1092670205C081E001C082E0C4
:100EF000809367020E946A19AFCF109267020E9426
:100F00009908AACF109267020E94EB0FA5CF10920A
:100F100067020E943A050E941C0C0E94FD09809104
:100F2000C1028830D1F30E94400596CF82E08093C1
:100F300067020E942D1690CF0E941C0C0E94E80DA3
:100F40008BCF20EA3FE0E22FF32F3197F1F78A951C
:100F5000D1F70895CF93C82FC150CF3F71F08AEFDA
:100F60000E94A1078AEF0E94A1078AEF0E94A107B1
:100F70008AEF0E94A107C15090F7CF9108951F9268
:100F80000F920FB60F9211248F939F93EF93FF93BD
:100F90009CB1983FB1F480916702813021F0949A1E
:100FA00085E0809370028091CA03882349F1809183
:100FB0006802909169020196909369028093680299
:100FC0001FC080916B02E82FFF27E556FD4F9083ED
:100FD0008F5F80936B0280916B028F7180936B02A5
:100FE00090916B0280916C02981751F480916C0281
:100FF0008F5F80936C0280916C028F7180936C0282
:10100000FF91EF919F918F910F900FBE0F901F90C6
:10101000189599270E945105803108F08FE0992793
:10102000089583E00E9409088093BB0284E00E9437
:10103000090880939A02089590916C0280916B0246
:10104000981719F081E090E0089580E090E008950D
:1010500090916C0280916B029817D1F3F894809173
:101060006C02E82FFF27E556FD4F8F5F80936C02DF
:10107000908180916C028F7180936C027894892F9B
:10108000992708950E941C08892BC1F00E94280806
:1010900087FF14C0682F62956F70482F55276F30F7
:1010A00059F09A012F7030708091BB029927281750
:1010B000390721F460936A02CA01089580E090E044
:1010C000089590916502891731F480E00E94E40F41
:1010D0008FEF809365020895CF93C82F962F60E01D
:1010E000992319F40E94610810C0809165028F3F16
:1010F00009F061E08C2F8951953610F041E001C074
:1011000040E00E94CA0FC0936502CF9108955D9B95
:10111000FECF8CB980E090E0089580919A02806BB8
:101120000E9487088BE70E94870880E00E9487085A
:1011300008951F93CF930E9440050E94310C809127
:10114000BB020E94430C0E94FD0984E60E94A10795
:101150000E94FD0984E60E94A1070E94FD091091EA
:10116000C8028FEF809365020E94FD09C091C10201
:10117000CC2319F00E948D0857C06091C802161741
:1011800071F06093BB0283E090E00E9459050E94D9
:10119000310C8091BB020E94430C1091C8020E9446
:1011A0001C08892B09F30E942808482F582F551F27
:1011B0005527551FA1F0682F62956F706F3049F069
:1011C00099278F7090702091BB0233278217930765
:1011D00019F460936A0203C0C0936A02C5CF80917C
:1011E0006A0299278830910589F0099709F0BCCFE8
:1011F000552321F00E942808C82F01C0C42F0E9447
:101200002808682F8C2F0E946C08AECF552321F040
:101210000E942808C82F01C0C42F0E942808682FE8
:101220008C2F0E946108A0CFCF911F910895CF937A
:10123000C82F80919A0280690E9487088C2F992775
:101240008F739070892B11F480E003C08C2F8F7303
:10125000875E0E9487088C2F82958695869583707D
:1012600080FF03C08091020102C0809100010E94B2
:101270008708CF910895CF93C82F80919A028068F4
:101280000E9487088C2F99278F739070892B11F4F7
:1012900080E003C0CF738C2F875E0E948708809107
:1012A00001010E948708CF910895809167028230E2
:1012B00029F08CEF0E9487080E948D080895CF9333
:1012C0000E944504C82F809167028130D1F0CC2361
:1012D00011F00E9440059498979A85E00E94A1071A
:1012E00080919702909198020A9790938900809339
:1012F00088001092740210926602CC2311F00E94B2
:101300003A05CF91089580916702813009F097984E
:10131000089590B3991F9927991F80916F02882390
:1013200039F4992329F090936F0281E090E00895B9
:1013300090936F0280E090E0089590B3991F9927F1
:10134000991F80916E02882339F0992329F4909394
:101350006E0281E090E0089590936E0280E090E04C
:10136000089581B3806F81BB82B38F7082BB089573
:101370008FE091B3982391BB92B3982392BB0895C9
:10138000DE980895AC01F894C098000000000000B9
:101390000000C09A20E01FB8779BFECFFA01E20F51
:1013A000F11D8FB180832F5F2330A8F378940895C7
:1013B00099B3969596959F70292F269526952695F3
:1013C000892F86958270282B892F9927880F991F3E
:1013D000382F3470232B880F991F880F991F88701E
:1013E000282B8FE0821B99270895DE9A089589B3F0
:1013F000869586958F7099270895AF92BF92CF9268
:10140000DF92EF92FF920F931F93CF93DF93CDB7AD
:10141000DEB726970FB6F894DEBF0FBECDBF209182
:101420009402309195028091920290919302281734
:10143000390731F080919402909195020E946305E2
:10144000A5ECB2E0EEEBF2E062E011921D92615089
:1014500067FFFBCF80917502843108F490C0109231
:1014600075020E94C009CE0101960E94C2098091B6
:10147000C2028C838091C3028D838091C4028E83CB
:1014800060E001E010E06E01C00ED11E862F86954F
:1014900086958695A82FBB27AD014E535D4F862FAD
:1014A0008770980102C0220F331F8A95E2F7C901A5
:1014B000FA013081232F2823FD01E753FD4FE081FE
:1014C000E823AC0DBD1DAC91A8238095222331F0FB
:1014D0003823EA2B3E2BDA013C9305C03823EA235C
:1014E0003E2BFA0130836F5F683180F20E94D80989
:1014F000682F8091C802681749F08091BD02681773
:1015000029F46093C80281E0809376026093BD0263
:101510000E94F50975ECE72E72E0F72E0EEB12E053
:1015200042EC52E069ECA62E62E0B62EF60162E0D3
:101530008081D5018D935D012381DA018D91AD010B
:10154000922F98278923D8018D938D019223D7015B
:101550009D937D016150319667FFEACF0E94F709A4
:10156000682F8091C102681731F08091BC02681722
:1015700011F46093C1026093BC020E94E80D2696AC
:101580000FB6F894DEBF0FBECDBFDF91CF911F9194
:101590000F91FF90EF90DF90CF90BF90AF900895A4
:1015A000282F883118F080E090E008958695869580
:1015B0008695E82FFF27EE53FD4F808199272770EE
:1015C00002C0959587952A95E2F79C0121703070AD
:1015D00080FF03C081E090E00895C9010895282F9D
:1015E000883118F080E090E008958695869586957C
:1015F000E82FFF27E254FD4F80819927277002C012
:10160000959587952A95E2F79C012170307080FFAF
:1016100003C081E090E00895C9010895282F883122
:1016200018F080E090E00895869586958695E82FDD
:10163000FF27EB53FD4F80819927277002C09595B6
:1016400087952A95E2F79C012170307080FF03C0D6
:1016500081E090E00895C90108958091C202882335
:1016600059F48091C302882339F48091C4028823FD
:1016700019F481E090E0089580E090E00895FF92F1
:101680000F931F93CF93DF93FF2400E010E0CBE094
:10169000D1E088810E94D00A882311F0C80109C0D6
:1016A000F39421960F5F1F4F8CE08F1594F78FEF07
:1016B0009FEFDF91CF911F910F91FF900895CF93EE
:1016C000C0E0EC2FFF27ED5FFE4F80810E94D00A23
:1016D000EC2FEF5F882319F08E2F992705C0CE2FAE
:1016E000E83078F380E090E0CF910895CF93C0E0A8
:1016F000EC2FFF27ED5FFE4F80810E94EF0AEC2F59
:10170000EF5F882319F08E2F992705C0CE2FE83080
:1017100078F380E090E0CF91089580917602109266
:10172000760299270895282F883290F48695869519
:101730008695E82FFF27E458FD4F277081E090E061
:1017400002C0880F991F2A95E2F72081282B208359
:101750000895282F883290F4869586958695E82FEF
:10176000FF27E958FD4F277081E090E002C0880F05
:10177000991F2A95E2F72081282B20830895282F8E
:101780008832A0F4869586958695E82FFF27E9583C
:10179000FD4F277081E090E002C0880F991F2A95C5
:1017A000E2F7982F90958081892380830895282FD0
:1017B000883218F080E090E00895869586958695A9
:1017C000E82FFF27E958FD4F277081E090E002C025
:1017D000880F991F2A95E2F720812823822F9927C5
:1017E0000895282F8832A0F4869586958695E82F4F
:1017F000FF27E458FD4F277081E090E002C0880F7A
:10180000991F2A95E2F7982F9095808189238083EC
:101810000895282F869586958695ECE7F2E0E80FE7
:10182000F11D80819927277002C0959587952A958B
:10183000E2F78170907008951092800210927F02FA
:1018400010927E0210927D0210927C0210927B0216
:1018500010927A0210927902109278021092770216
:1018600008950F931F93CF9305E411E0CFE0F801A3
:1018700081918F010E94F10BC150C7FFF8CFCF912A
:101880001F910F910895803138F4E82FFF27EB5B0B
:10189000FE4F80810E94930B0895803138F4E82F29
:1018A000FF27EB5BFE4F80810E94A90B08958031DA
:1018B00018F020E030E009C0E82FFF27EB5BFE4F77
:1018C00080810E94090C282F3327C9010895803197
:1018D00018F080E090E00895E82FFF27EB5BFE4FC3
:1018E00080810E94D70B99270895883138F4E82F1A
:1018F000FF27E35DFE4F80810E94930B089588319E
:1019000038F4E82FFF27E35DFE4F80810E94A90B8A
:101910000895883138F4E82FFF27E35DFE4F80817A
:101920000E94F10B08950F931F93CF930DE211E0E6
:10193000C7E1F80181918F010E94F10BC150C7FFEF
:10194000F8CFCF911F910F910895E82F81508830E3
:1019500030F4FF27EC5DFE4F80810E94930B0895C9
:101960000F931F93CF93DF93082F11E0C5E2D1E0CF
:10197000101721F488810E94930B03C088810E9474
:10198000F10B1F5F2196193098F3DF91CF911F91D2
:101990000F910895E82F8150883030F4FF27EC5DD7
:1019A000FE4F80810E94F10B0895E82F815088300E
:1019B00030F4FF27EC5DFE4F80810E94A90B089553
:1019C000E82F8150883040F4FF27EC5DFE4F808186
:1019D0000E94D70B9927089580E090E00895E82FA2
:1019E0008150883048F4FF27EC5DFE4F80810E94D3
:1019F000090C282F332702C020E030E0C9010895E8
:101A00000F931F93CF9305E211E0C7E0F801819196
:101A10008F010E94F10BC150C7FFF8CFCF911F91EA
:101A20000F9108958D3038F4E82FFF27E85EFE4FC0
:101A300080810E94930B08958D3038F4E82FFF27A2
:101A4000E85EFE4F80810E94F10B08958D3038F4DE
:101A5000E82FFF27E85EFE4F80810E94A90B0895C2
:101A6000E8E1F1E0E80FF11D80810E94D70B992792
:101A700008950F931F93CF9308E111E0CCE0F80194
:101A800081918F010E94F10BC150C7FFF8CFCF9118
:101A90001F910F9108950E94390D84E00E94F10B6F
:101AA00083E00E94F10B88E00E94F10B81E00E942C
:101AB000F10B82E00E94F10B0895CF93C82F84E0D0
:101AC0000E94F10BC23021F483E00E94A90B0FC0E9
:101AD00083E00E94F10B83E00E94BF0BC13011F440
:101AE00083E003C0CF3F19F484E00E94930BCF91B1
:101AF0000895CF92DF92EF92FF920F931F93CF93AF
:101B0000DF93182F87FF04C086E10E94750C03C085
:101B100086E10E94890C812F829586958695837037
:101B200080FF04C085E10E94750C03C085E10E941E
:101B3000890C1F7311F4012F15C0173110F40FEF2A
:101B400011C0143218F41C5000E00CC0103318F40B
:101B5000185101E007C01C3318F4145202E002C00F
:101B600003E01053802F0E945D0D112331F40E9479
:101B7000390D84E10E94750C22C084E10E94890C19
:101B800098E1C92E91E0D92E8BE0E82EF12C0CE0E3
:101B9000C12FDD27EC16FD0621F0F60180810E94A1
:101BA000F10B01500894E11CF11C0894C11CD11CDC
:101BB00007FFEECFC35FDE4F88810E94930BDF915A
:101BC000CF911F910F91FF90EF90DF90CF900895EC
:101BD000F894DF98ECE7F2E080818FB9779BFECF35
:101BE000319682E0E038F807B9F3B4F3DF9A7894DD
:101BF0000895A7E7B2E0ECE7F2E024E080819D9150
:101C0000892B8193215027FFF9CF0895A7E7B2E0F0
:101C1000ECE7F2E024E09D91909580818923819307
:101C2000215027FFF8CF0895A7E7B2E0ECE7F2E0F4
:101C300034E020819C91822F892319F090952923EB
:101C400020831D923150319637FFF3CF0895AC01B8
:101C500020E0322F6115710581F0FA01E30FF11DCB
:101C600080812827E22FFF27EB5AFE4F20813F5F1C
:101C7000832F99278617970780F3822F9927089536
:101C8000EF92FF920F931F93CF93DF937B01C0E0FE
:101C9000D0E0C617D70750F48C01F80181918F016D
:101CA0000E945B062196CE15DF05B8F3DF91CF9138
:101CB0001F910F91FF90EF9008950F931F939C0138
:101CC0000CEC12E082E48093CC021092CD0282E010
:101CD0008093CE02832F99278093CF022093D00246
:101CE00065E070E0C8010E94270E8093D10266E093
:101CF00070E0C8010E94400E1F910F9108950F934C
:101D00001F930CEC12E090E89093CC021092CD025D
:101D100091E09093CE028093CF0264E070E0C8011E
:101D20000E94270E8093D00265E070E0C8010E94F7
:101D3000400E1F910F9108951F920F920FB60F92B0
:101D40001124EF92FF921F932F933F934F935F9332
:101D50006F937F938F939F93AF93BF93CF93DF93B3
:101D6000EF93FF93C3B180915502882309F4F1C02A
:101D70008091810290918202895E934030F00E94AE
:101D8000310C0E94E80D109284028091840280340C
:101D900048F4E82FFF27E45FFC4FC0838F5F8093F8
:101DA000840204C00E947F0E10928402109282026C
:101DB0001092810220918402233008F4CAC0F0906E
:101DC0000C0380910D03682F7727762F662780916B
:101DD0000E039927682B792B3327CB0104962817FC
:101DE000390708F4B6C0FB01E45FFC4F1381EB0137
:101DF0002396BE018CE093E00E94270E181771F025
:101E0000BE018CE093E00E94270E99270E94C20633
:101E10001092840280E00E947F0E9BC08F2D992734
:101E20008131910551F18231910544F48130910560
:101E300009F488C0409709F460C086C080349105D9
:101E400021F08134910541F07FC080919202909100
:101E500093020E945D0E7BC080910E03823009F0D8
:101E600073C080910F039927982F88272091100322
:101E7000820F911D0E9463056AC080910E0382301B
:101E800009F062C080910F0390911003C82FDD27E5
:101E900063E0CC0FDD1F6A95E1F7C90FD11D89E121
:101EA0008093CC021092CD0280E18093CE020F2E5F
:101EB000FFECEF2EF2E0FF2EF02DC295D295D07FF1
:101EC000DC27C07FDC271FE0CE010E940111F70153
:101ED00081937F011150219617FFF6CF63E170E0E7
:101EE0008CEC92E00E94270E8093DF0264E170E0A8
:101EF0008CEC92E00E94400E2AC080910E03823149
:101F000019F580910F0390911003C82FDD2733E05E
:101F1000CC0FDD1F3A95E1F7C90FD11D21E1E22E6B
:101F200023E0F22E94E0CC0FDD1F9A95E1F71FE03D
:101F3000BE01F70181917F010E94C21011502196CC
:101F400017FFF6CF81E001C080E00E947F0E109263
:101F50008402FF91EF91DF91CF91BF91AF919F915B
:101F60008F917F916F915F914F913F912F911F9131
:101F7000FF90EF900F900FBE0F901F9018950E944A
:101F8000FD098091C1028E30D1F30E941C0C0E9489
:101F9000E80D089590E03A98803408F08FE36111DD
:101FA00060E4442311F440E801C0492F882349F03C
:101FB000862B842B85BB3A9A9F5F9832E8F3399A37
:101FC0000895642B65BB0895882311F0AE9A01C073
:101FD00039983A9808957F928F929F92AF92BF92CC
:101FE000CF92DF92EF92FF920F931F93CF93CC2467
:101FF000DD247724072D0E9440050E94310C0E94A9
:10200000FD090E948D0B560146010E94FD09809139
:10201000C102843019F00E948D08A7C080919A02F5
:102020000E94570C882331F40E94310C80919A024F
:102030000E94430C0E948D0B882349F08091C802B6
:1020400080939A02682F84E090E00E9459058C2DBD
:102050000E945D0DC0E066E5E62E62E0F62EF70117
:1020600080810E94EF0A8823B9F01C2F180D195E99
:10207000402F672D812F0E94CA0F802F992756E08D
:10208000880F991F5A95E1F7812B0E94170941E0AB
:10209000742E8C2F0E94120DF70180810E940E0B6E
:1020A000882381F02C2F2A0D295E802F992736E076
:1020B000880F991F3A95E1F7822B0E943B098C2FDC
:1020C0000E941C0DCF5F0894E11CF11CCD3038F24A
:1020D0008FE00E94EF0A882371F0F2E0CF16D1045E
:1020E000F4F40894C11CD11C8CE090E0880E991E79
:1020F000A80EB91E14C08EE00E94EF0A882379F062
:102100009FEFC9169FEFD90651F04CF00894C10813
:10211000D108E4EFFFEF8E0E9F1EAE0EBF1E85E1CD
:102120000E94EF0A882371F080E0002309F481E027
:10213000082F882321F081E00E94930B03C081E0E7
:102140000E94F10B83B399278F739070892B09F448
:102150005CCF0E942D0B882309F457CF80E00E94AA
:10216000E40F77240E94390D50CFCF911F910F912A
:10217000FF90EF90DF90CF90BF90AF909F908F90A7
:102180007F900895282FF894C09800000000000068
:10219000000085E08FB9779BFECF000000000000B3
:1021A00000001FB8779BFECF8FB1C09A00000000DF
:1021B0000000000080FDE8CFC0980000000086E02D
:1021C0008FB9779BFECF00000000C09A000000008E
:1021D00000000000C0980000000082E08FB9779BEB
:1021E000FECF872F99278FB9779BFECF6FB9779B4B
:1021F000FECF2FB9779BFECF00000000C09A7894E5
:1022000008959C01F894C0980000000083E08FB905
:10221000779BFECF832F99278FB9779BFECF2FB95E
:10222000779BFECF000000001FB8779BFECF8FB1D9
:10223000C09A7894992708951092700310927703AA
:1022400010926C0380E00E94E40F0E941C0C0E941C
:10225000140E0E948D0B08951092710384E20E9467
:10226000F10B0E941C0C0E94140E1092770380E068
:102270000E94E40F089581E08093710384E20E943C
:10228000930B0E94310C0895892F9927282F2F71C5
:10229000822F992787FD909580719070892B09F086
:1022A000206E822F992787FD9095089520916E03C7
:1022B000277080916E0390916F03F3E09695879558
:1022C000FA95E1F7622F8F700E947A1560916E0384
:1022D00070916F039B0144275527DA01C901807073
:1022E0009078A070B070892F9A2FAB2FBB27809366
:1022F0008C02DA01C90180709074A070B070892FCF
:102300009A2FAB2FBB2780938E02207030724070C3
:102310005070BB27A52F942F832F80938D0210928E
:102320007403CB010E9444119927089581E08093A2
:10233000700381E20E94930B10928E0280918E02B4
:1023400080938D0280918D0280938C0210926C0399
:102350001092770380914C0390914D0390936F03FB
:1023600080936E038F5F9F4F89F0109273031092DA
:102370007403109291020E945611809386028091FC
:10238000660280FDFCCF81E080936C030E94310CDB
:10239000089580918602882321F483E00E94F10B46
:1023A0000CC087FF07C083E00E94F10B84E00E940D
:1023B000930B089583E00E94930B84E00E94F10B3D
:1023C0000895FF920F931F93CF93DF93C82FDD27BC
:1023D00003E0CC0FDD1F0A95E1F7C60FD11D15E014
:1023E000CC0FDD1F1A95E1F7BFE0FB2EC050D84F90
:1023F0000CE413E0CE010E9401119927982F882741
:10240000F80191838083CE0101960E940111282F4B
:102410003327F80180819181822B932B91838083D4
:1024200032968F01FA942296F7FEE4CFDF91CF9196
:102430001F910F91FF900895FF920F931F93CF93D9
:10244000DF93C82FDD2753E0CC0FDD1F5A95E1F74E
:10245000C60FD11D45E0CC0FDD1F4A95E1F73FE0E7
:10246000F32E0CE413E0C050D84FF8018081918125
:10247000892F9927BE010E94C2102196F8018191EF
:1024800091918F01BE010E94C210FA942196F7FE2D
:10249000ECCFDF91CF911F910F91FF9008951F9383
:1024A000CF93DF930E943A058091C8028770809392
:1024B0006D031092720310927103109270031092C8
:1024C0006C0310927703109273038FEF9FEF90933A
:1024D0006F0380936E03109267020E94310C0E947A
:1024E000140E0E94FD098091C102813071F00E949A
:1024F00040051092770310926C0380E00E94E40F75
:102500000E941C0C0E94E80DE2C280917103882396
:1025100061F580917003882341F50E948D0B88231B
:1025200059F08091C802877080936D0360917203A7
:102530000E94E1110E94310C80916D030E94430CB6
:102540000E945F0BC82F882359F00E94390D8C2FF1
:10255000815080937203682F80916D030E94E11176
:10256000809172038F5F0E94A50C81E00E94EF0AA8
:10257000882379F080917003882319F00E941C1140
:1025800008C080917103882311F00E942C110E94D1
:10259000961180917003882329F480917103882318
:1025A00009F451C0809173030E94670C882311F4D1
:1025B0000E94140E809173030E944D0C80916E0353
:1025C00090916F038F5F9F4F21F40E944B0D80E02D
:1025D00034C080E00E94F10B80916E0390916F03F4
:1025E00023E0969587952A95E1F78F700E94430C1A
:1025F00080916E0390916F0397FF04C088E00E9462
:10260000930B03C088E00E94F10B80916E039091C0
:102610006F03AA27BB2796FF04C081E00E94930B9B
:1026200003C081E00E94F10B80916E0390916F03D3
:10263000AA27BB2795FF04C082E00E94930B03C02A
:1026400082E00E94F10B88E00E94EF0A882331F4B7
:1026500083E00E94EF0A882309F478C01091700388
:10266000112309F073C0812F0E94E40FC091710300
:10267000CC2309F442C088E00E94EF0A8823D1F0FD
:10268000809173039927019640976CF480917303AE
:10269000E82FFF27EE0FFF1FE45BFC4F8081918145
:1026A0008F5F9F4F19F41093730330C080917303B1
:1026B0008F5F20C0809173038823C9F480917303D6
:1026C00099270196409714F580917303E82FFF270F
:1026D000EE0FFF1FE45BFC4F808191818F5F9F4F66
:1026E000A9F0809173038F5F80937303E7CF80918C
:1026F000730381508093730309C088E00E94EF0A3E
:10270000882321F00E943B11C093730380917303CF
:10271000E82FFF27EE0FFF1FE45BFC4F80819181C4
:1027200090936F0380936E03109277038F5F9F4F98
:1027300069F00E9456118093860210927403809172
:10274000660280FDFCCF81E08093770387E10E94E1
:10275000EF0A882339F1809171038823E9F0809191
:10276000730399270196409764F480917303E82FCF
:10277000FF27EE0FFF1FE45BFC4F8FEF9FEF93836C
:1027800082838FEF9FEF90936F0380936E030E947D
:102790002C1180E00E94F10B6091720380916D0317
:1027A0000E941C1280917103882309F47FC18091DB
:1027B0006E0390916F038F5F9F4F09F40FC184E107
:1027C0000E94EF0A882311F180917303E82FFF27FD
:1027D000EE0FFF1FE45BFC4F8081918120E030E829
:1027E00082279327918380838081918190936F03C7
:1027F00080936E03AA27BB2780709078A070B0707A
:10280000892F9A2FAB2FBB2780938C0285E10E94E2
:10281000EF0A882311F180917303E82FFF27EE0F51
:10282000FF1FE45BFC4F8081918120E030E4822730
:102830009327918380838081918190936F0380930C
:102840006E03AA27BB2780709074A070B070892F88
:102850009A2FAB2FBB2780938E0286E10E94EF0A4E
:10286000882311F180917303E82FFF27EE0FFF1FDC
:10287000E45BFC4F8081918120E030E28227932746
:10288000918380838081918190936F0380936E0305
:10289000AA27BB2780709072A070B070892F9A2FE2
:1028A000AB2FBB2780938D028FE00E94D00A882334
:1028B00031F48EE00E94D00A882309F47DC00E9482
:1028C0003F0BC82FDD27C7FDD0958FE00E94EF0A90
:1028D000882329F48EE00E94EF0A882351F00E9499
:1028E000140E0E94390D83E00E94F10B84E00E94D7
:1028F000F10B8FE00E94D00A882349F183E00E9407
:10290000930B8FEFCF3FD807C9F00E94140E209190
:102910006E0330916F03307E9C2F8827282B392B34
:1029200030936F0320936E0380917303E82FFF278A
:10293000EE0FFF1FE45BFC4F3183208380916E0319
:1029400090916F030E9444118093860232C08EE002
:102950000E94D00A882309F441C084E00E94930BAE
:102960002FEFCF3FD207E1F00E94140E20916E03AB
:1029700030916F03307E2C97CF71D0709C2F8827B9
:10298000282B392B30936F0320936E0380917303B0
:10299000E82FFF27EE0FFF1FE45BFC4F31832083FE
:1029A00080916E0390916F030E9444118093860280
:1029B000845F0E94260D12C08FE00E940E0B8823B8
:1029C00029F48EE00E940E0B882341F083E00E94E0
:1029D000F10B84E00E94F10B0E94140E8FE00E9424
:1029E000D00A882309F062C08EE00E94D00A8823B2
:1029F00009F05CC00E94760BC82F882329F40E943E
:102A00008D0B882309F447C00E94000D0E94310CF1
:102A1000CC2359F480916E0390916F038F5F9F4F89
:102A200029F0C0916E03C77001C0C15010927703A6
:102A300080E00E94E40F4091C802242F332763E016
:102A4000220F331F6A95E1F78C2F9927282B392BFA
:102A500030936F0320936E0380917303E82FFF2759
:102A6000EE0FFF1FE45BFC4F318320836C2F842F1C
:102A70000E947A151092740310928D0280918D023B
:102A800080938E0280918E0280938C021092860237
:102A900081E0809377030E94C91180916E03909129
:102AA0006F038770907001960E94B00C8091700344
:102AB000882309F416CD0E94C91180916E0390916C
:102AC0006F038770907001960E94B00C0ACDDF9161
:102AD000CF911F91089581E08093710384E20E9459
:102AE000930B0E94310C80E00E94430C80E00E9416
:102AF000E40F0895EF92FF920F931F93CF93DF930C
:102B0000182F062F0E94E80DC12FDD2723E0CC0FE0
:102B1000DD1F2A95E1F7C00FD11D94E0CC0FDD1F1A
:102B20009A95E1F789E7E82E83E0F82E1FE0CE01C1
:102B30000E940111F70181937F011150219617FF27
:102B4000F6CF1092870280E00E94BF0B0E94E80D32
:102B5000DF91CF911F910F91FF90EF900895EF9229
:102B6000FF920F931F93CF93DF93182F062F0E948E
:102B7000E80DC12FDD2753E0CC0FDD1F5A95E1F79B
:102B8000C00FD11D49E7E42E43E0F42E34E0CC0F12
:102B9000DD1F3A95E1F71FE0BE01F70181917F014A
:102BA0000E94C2101150219617FFF6CF0E94E80D27
:102BB000DF91CF911F910F91FF90EF9008951092A8
:102BC000740381E08093750381E20E94930B80E09F
:102BD0000E94E40F80916702882321F480916602AD
:102BE00080FDFCCF81E0809377038093CA038AEF56
:102BF0000E94870808951092710384E20E94F10BED
:102C00001092870280E00E94F10B0E94140E0E9435
:102C1000930C0E94310C8091C8020E94430C80E00A
:102C20000E94E40F0895109277030E94930C0E9473
:102C3000310C0E94140E8091C8020E94430C109225
:102C4000750381E20E94F10B80E00E94E40F109274
:102C5000CA038CEF0E9487080895CF92DF92EF920B
:102C6000FF920F931F93CF93DF93C090C1021092F6
:102C700076031092710310927503109277031092ED
:102C800074031092910280916702882399F40E9444
:102C90003A0514C00E9440051092770380E00E941C
:102CA000E40F0E9483090E9455090E941C0C0E9497
:102CB000E80DEFC20E9440050E94B1090E94FD0983
:102CC0008091C80280937803609176030E947A1500
:102CD0000E941C0C8091C8020E94430C0E94FD09B6
:102CE0008091C1028C15B1F6909178038091C80251
:102CF0009817D1F080917503882311F00E94131664
:102D000080917103882311F00E94FB158091C80205
:102D100080937803609176030E947A150E94310CAB
:102D20008091C8020E94430C809175038823E1F4CE
:102D3000809171038823C1F4809176038F5F0E9494
:102D4000A50C0E945F0BC82F882371F00E94390DDB
:102D50008C2F0E94A50C8C2F815080937603682FB6
:102D6000809178030E947A1580E00E94EF0A882300
:102D7000B1F080917503882391F082E20E94930B59
:102D800009E713E0CFE00E945500F80181938F011D
:102D9000C150C7FFF8CF81E0809387020CC080E06C
:102DA0000E940E0B882339F080917503882319F057
:102DB00082E20E94F10B8091CA038823B9F08091CE
:102DC0006702823099F48091680290916902181626
:102DD000190664F4809168029091690203979093B8
:102DE0006902809368020E94740078CF8091670224
:102DF000823041F40E944208D82E882319F0992786
:102E00000E94C20680917503882399F08091670221
:102E1000882329F481E00E94EF0A882339F4809105
:102E20006702823031F4FCEFDF1619F40E941316AA
:102E300019C080916702882329F481E00E94EF0A7B
:102E4000882341F480916702823061F48D2D8A5F7E
:102E5000823040F480917103882311F00E94FB15A9
:102E60000E94DF1580917503882329F480917103F6
:102E7000882309F439C100917403E02EFF24E7018F
:102E8000C758DC4F18811F7385E10E94EF0A882321
:102E900049F01F3339F0888190E48927888381E0E5
:102EA0008093870286E10E94EF0A882361F01F3336
:102EB00051F0F701E758FC4F808190E88927808323
:102EC00081E0809387021F3341F0112331F01731E5
:102ED00010F4CFEF0DC0143210F4C0E009C010336D
:102EE00010F4C1E005C01C3310F4C2E001C0C3E01F
:102EF00084E10E94EF0A811110E08FE00E94EF0A46
:102F0000882339F01F3329F0112319F0C2300CF453
:102F1000145F8EE00E94EF0A882341F01F3331F0E6
:102F2000112321F0CF3F11F00CF01C5084E00E94DF
:102F3000EF0A882331F08CE0C802C0011124182F59
:102F4000195E89E00E94EF0A882331F08CE0C80204
:102F5000C0011124182F185E85E00E94EF0A882313
:102F600031F08CE0C802C0011124182F175E8AE0EE
:102F70000E94EF0A882331F08CE0C802C0011124BE
:102F8000182F165EC3300CF063C086E00E94EF0A73
:102F9000882331F08CE0C802C0011124182F155E7F
:102FA00087E00E94EF0A882331F08CE0C802C0015C
:102FB0001124182F145E8BE00E94EF0A882331F051
:102FC0008CE0C802C0011124182F135E81E10E9419
:102FD000EF0A882331F08CE0C802C0011124182FB9
:102FE000125E8CE00E94EF0A882331F08CE0C80268
:102FF000C0011124182F115E82E10E94EF0A88237C
:1030000031F08CE0C802C0011124182F105E8DE051
:103010000E94EF0A882331F08CE0C802C00111241D
:10302000182F1F5D80E10E94EF0A882331F08CE0A9
:10303000C802C0011124182F1E5D83E10E94EF0A0F
:10304000882331F08CE0C802C0011124182F1D5DC7
:10305000202F3327F901E758FC4F80818F3F11F46F
:103060001F3319F48081807C182BE901C758DC4F8D
:1030700088811817F1F080917103882331F080E086
:103080000E94E40F81E00E94A107188381E08093F1
:10309000870280917103882361F0812F8295869544
:1030A000869583708170482F60E0812F8F730E9416
:1030B000CA0F1F3F71F0812F0E94790D8091870206
:1030C000882321F080E00E94A90B0EC00E94F10B22
:1030D0000BC00E944B0D80E00E94BF0B83E00E945A
:1030E000BF0B80E00E94930B88E00E94EF0A8823C8
:1030F00031F483E00E94EF0A882309F4A4C06091B0
:10310000910280917103882309F475C0C62FCC1FEA
:10311000CC27CC1F8C2F0E94E40F81E00E94A107D6
:1031200088E00E94EF0A8823B1F080917403992708
:10313000019640974CF480917403E82FFF27E758DD
:10314000FC4F80818F3F19F41092740320C080914E
:1031500074038F5F1AC080917403882399F480915F
:1031600074038F30A0F480917403E82FFF27E75891
:10317000FC4F80818F3F59F0809174038F5F809363
:103180007403EDCF809174038150809374030E9487
:10319000310C809174030E94430C80917403E82FDA
:1031A000FF27E758FC4F8081809391028F3F69F49D
:1031B00081E00E94F10B82E00E94F10B80E00E940E
:1031C000930B80E00E94BF0B3EC080E00E94F10B99
:1031D00080918702882319F080E00E94A90B9091CA
:1031E0009102892F82958695869583708170482FEC
:1031F0006C2F892F21C088E00E94EF0A882319F1E3
:10320000C0917503CC23F9F40E946B15C09374032D
:1032100080917403E82FFF27E758FC4FE081E0938B
:103220009102EF3F81F08E2F82958695869583706F
:103230008170482F6C2F8E2F8F730E94CA0F809140
:1032400091020E94790D87E10E94EF0A882309F418
:1032500045CD80917103882381F080917403992773
:103260000196409744F480917403E82FFF27E758B4
:10327000FC4F8FEF81830E94FB1560917603809154
:10328000C8020E94AF151092870280E00E94BF0B17
:1032900025CDDF91CF911F910F91FF90EF90DF909F
:1032A000CF90089540E0DB01FC0190818C9198174C
:1032B00019F080E090E0089580818F3F19F481E05B
:1032C00090E008954F5F31961196403270F381E09F
:1032D00090E00895EF92FF920F931F93CF93FF24F6
:1032E000E090C10280916702882319F40E943A0598
:1032F0000BC00E94400580916702813019F40E9442
:10330000B80902C00E94B1090E941C0C0E94140E50
:103310001092A9038091A903809389038FEF809372
:10332000AA038091AA0380938A0381E00E94A50CDE
:103330001092CA03109273031092740310926F03D9
:1033400010926E031092C9031092850210928602A9
:103350000E94310C8091C1028F3021F08B3011F02E
:103360008730D1F48091C8021AC01092CA030E941B
:1033700083090E94550910928502109286021092CC
:103380008D0210928C0210928E020E941C0C0E94E0
:10339000140E0E94E80DFEC28091C80287708093CF
:1033A0008B0280938A028091C8020E94430C0E9483
:1033B000FD098091C1028E15C1F687E10E94EF0AD6
:1033C000882329F1809188029091890286509D403E
:1033D000D0F480918802909189028E54914098F0A7
:1033E000209188023091890280E69AEEB9010E940C
:1033F000D01C70938902609388028091880290911A
:1034000089020E946305109289021092880280E06E
:103410000E94EF0A882349F00E94390D0E94140E81
:1034200082E20E94930B10928F0280E00E940E0BAA
:10343000882329F1ABECB3E0E9E8F3E0CFE18D912B
:103440008193C150C7FFFBCF8091CA038823A1F4A9
:10345000A9E8B3E0E9EAF3E0CFE18D918193C150AF
:10346000C7FFFBCF809185028093860283E00E9494
:10347000F10B84E00E94F10B82E20E94F10B80E0EC
:103480000E94D00A882361F1C0E080918F02C817A2
:1034900060F4EC2FFF27E553FC4F8081883028F43F
:1034A0008F5F0E94A50CCF5FF0CF0E94760BC82FD4
:1034B000882309F44EC180918F02803208F049C1FF
:1034C000E82FFF27E553FC4FC150C0838F5F8093E7
:1034D0008F02E82FFF27E553FC4F8FEF808339C120
:1034E0008FE00E94D00A882331F48EE00E94D00A37
:1034F000882309F46DC00E943F0BC82F8FE00E9403
:10350000EF0A882329F48EE00E94EF0A882339F01D
:103510000E94390D0E94140E82E20E94F10B8FE08E
:103520000E94D00A882301F184E00E94F10B83E01D
:103530000E94930BCF3F11F0C093850280918602C9
:1035400087FD0AC00E94300D882331F40E94140EBA
:10355000809186020E94260D9091850280918602BC
:10356000981761F1892F28C08EE00E94D00A882325
:1035700029F183E00E94F10B84E00E94930BCF3F7E
:1035800019F0CC50C093850280918602181664F021
:10359000845F0E94300D882339F40E94140E8091BC
:1035A0008602845F0E94260D90918502809186029A
:1035B000981721F0892F845F0E94120D8091CA0311
:1035C000882309F0C6C08091850280938602C1C01D
:1035D0008FE00E940E0B882329F48EE00E940E0BD0
:1035E000882321F00E94390D0E94140E0E945F0B67
:1035F000C82F882331F40E948D0B882309F446C01C
:103600001FC00E94000DC150C0938903809189039F
:103610008093CB038FEF80938A0380918A038093FA
:10362000CC038091CA03882319F5A9E8B3E0E9EA3D
:10363000F3E0CFE18D918193C150C7FFFBCF18C05C
:103640008091C1028F3021F08B3011F0873019F456
:103650008091C80203C08091C802877080938A025B
:103660008091CA03882321F480918A0280938B027F
:103670008091CA03882351F40E94310C80918A0200
:103680000E94430C809185028093860269EA73E070
:1036900089E893E00E9452198823F9F480918A0303
:1036A0008F3F49F48091AA038F3F29F48091A903A9
:1036B0008F5F0E94D50CC0E009E813E0F80180811B
:1036C000893008F044C0D8018D918D018F5F0E9430
:1036D000A50CCF5FC03290F33AC0C0E009EA13E016
:1036E000F8018081893098F58091CA038823E1F040
:1036F0008091C903E82FFF27E755FC4FD8019C9123
:103700008081981789F48C918F5F0E94E00C882348
:10371000C9F4F80180818F5F0E94CA0CD8018C9196
:103720008F5F0E94D50C0EC0F80180818F5F0E94D0
:10373000E00C882311F00E94140ED8018C918F5F49
:103740000E94A50CCF5F0F5F1F4FC03248F20E944E
:10375000C9118091CA03882351F180916702823098
:1037600089F4809168029091690218161906FCF498
:103770008091680290916902039790936902809307
:10378000680212C0813099F48091720290917302A4
:103790001816190664F480917202909173020397CF
:1037A00090937302809372020E94740000CE809105
:1037B0006702823019F40E944208F82E8091670255
:1037C000882349F481E00E94EF0A882321F0809148
:1037D000CA03882371F480916702823021F4BCEF20
:1037E000FB1639F02BC0813049F50E949D098823D2
:1037F00029F11092CA0380E00E94E40F0E9455094B
:1038000080916702813011F00E94830981E20E9459
:10381000F10B0E94140E0E94310C8091C1028F3076
:1038200021F08B3011F0873019F48091C80203C069
:103830008091C80287700E94430C68C08091670223
:10384000882349F481E00E94EF0A882321F08091C7
:10385000CA03882389F080916702823029F48F2D72
:103860008A5F823048F052C0813009F04FC00E9418
:103870008909882309F44AC081E20E94930B809150
:10388000C1028F3021F08B3011F0873039F4609114
:10389000A9038091C8020E947A1511C08091C802C4
:1038A0006091A90387700E94E11180914C0390916F
:1038B0004D0390936F0380936E030E9456111092F4
:1038C000910280916702823019F4EBEFFE1631F01D
:1038D0001092C9031092740310927303109266023F
:1038E0001092690210926802109274021092730290
:1038F0001092720281E08093CA038AEF0E948708C7
:1039000080916702813011F00E945F0986E10E9478
:10391000EF0A882389F090E080918D02882309F4D2
:1039200091E090938D02992321F082E00E94930B05
:1039300003C082E00E94F10B85E10E94EF0A882318
:1039400089F090E080918E02882309F491E09093B1
:103950008E02992321F081E00E94930B03C081E045
:103960000E94F10B84E10E94EF0A882309F41FCD25
:1039700090E080918C02882309F491E090938C026E
:10398000992321F088E00E94930B11CD88E00E94DA
:10399000F10B0DCDCF911F910F91FF90EF900895F6
:1039A000AA1BBB1B51E107C0AA1FBB1FA617B70765
:1039B00010F0A61BB70B881F991F5A95A9F7809581
:1039C0009095BC01CD010895A1E21A2EAA1BBB1B44
:1039D000FD010DC0AA1FBB1FEE1FFF1FA217B307DB
:1039E000E407F50720F0A21BB30BE40BF50B661FF1
:1039F000771F881F991F1A9469F7609570958095B5
:0C3A000090959B01AC01BD01CF01089521
:103A0C0064207F04050607111210130409050A0629
:103A1C00070B110C120D1013201B191C1A180F0C6C
:103A2C000E0B0D0A0920191A180C0B0A0922212554
:103A3C002320191A18241B1C0F0E0D04030A0C0B3F
:103A4C00090801020026271D1E1F10121113141540
:103A5C00161705060700070E091C1B1215383F36F2
:103A6C003124232A2D70777E796C6B6265484F4622
:103A7C004154535A5DE0E7EEE9FCFBF2F5D8DFD692
:103A8C00D1C4C3CACD90979E998C8B8285A8AFA6C2
:103A9C00A1B4B3BABDC7C0C9CEDBDCD5D2FFF8F137
:103AAC00F6E3E4EDEAB7B0B9BEABACA5A28F888162
:103ABC008693949D9A2720292E3B3C35321F181152
:103ACC001603040D0A5750595E4B4C45426F686102
:103ADC006673747D7A898E878095929B9CB1B6BFF4
:103AEC00B8ADAAA3A4F9FEF7F0E5E2EBECC1C6CFA2
:103AFC00C8DDDAD3D4696E676075727B7C51565F12
:103B0C00584D4A4344191E171005020B0C21262F41
:103B1C00283D3A33344E49404752555C5B767178B8
:103B2C007F6A6D64633E39303722252C2B060108E1
:103B3C000F1A1D1413AEA9A0A7B2B5BCBB969198D1
:103B4C009F8A8D8483DED9D0D7C2C5CCCBE6E1E881
:103B5C00EFFAFDF4F3010409050A06070B110C1228
:043B6C000D10130025
:00000001FF
